{
  "_format": "hh-sol-artifact-1",
  "contractName": "FDCVerifier",
  "sourceName": "contracts/FDCVerifier.sol",
  "abi": [
    {
      "inputs": [
        {
          "internalType": "address",
          "name": "initialOwner",
          "type": "address"
        }
      ],
      "stateMutability": "nonpayable",
      "type": "constructor"
    },
    {
      "inputs": [
        {
          "internalType": "address",
          "name": "owner",
          "type": "address"
        }
      ],
      "name": "OwnableInvalidOwner",
      "type": "error"
    },
    {
      "inputs": [
        {
          "internalType": "address",
          "name": "account",
          "type": "address"
        }
      ],
      "name": "OwnableUnauthorizedAccount",
      "type": "error"
    },
    {
      "anonymous": false,
      "inputs": [
        {
          "indexed": true,
          "internalType": "uint256",
          "name": "jobId",
          "type": "uint256"
        },
        {
          "indexed": false,
          "internalType": "bytes32",
          "name": "proofHash",
          "type": "bytes32"
        },
        {
          "indexed": true,
          "internalType": "address",
          "name": "submitter",
          "type": "address"
        }
      ],
      "name": "DeliveryAttested",
      "type": "event"
    },
    {
      "anonymous": false,
      "inputs": [
        {
          "indexed": true,
          "internalType": "address",
          "name": "hub",
          "type": "address"
        }
      ],
      "name": "FdcHubSet",
      "type": "event"
    },
    {
      "anonymous": false,
      "inputs": [
        {
          "indexed": true,
          "internalType": "address",
          "name": "verifier",
          "type": "address"
        }
      ],
      "name": "FdcVerificationSet",
      "type": "event"
    },
    {
      "anonymous": false,
      "inputs": [
        {
          "indexed": true,
          "internalType": "address",
          "name": "previousOwner",
          "type": "address"
        },
        {
          "indexed": true,
          "internalType": "address",
          "name": "newOwner",
          "type": "address"
        }
      ],
      "name": "OwnershipTransferred",
      "type": "event"
    },
    {
      "anonymous": false,
      "inputs": [
        {
          "indexed": true,
          "internalType": "address",
          "name": "submitter",
          "type": "address"
        },
        {
          "indexed": false,
          "internalType": "bool",
          "name": "authorised",
          "type": "bool"
        }
      ],
      "name": "SubmitterAuthorised",
      "type": "event"
    },
    {
      "inputs": [],
      "name": "FLARE_CONTRACT_REGISTRY",
      "outputs": [
        {
          "internalType": "address",
          "name": "",
          "type": "address"
        }
      ],
      "stateMutability": "view",
      "type": "function"
    },
    {
      "inputs": [],
      "name": "JSON_API_ATTESTATION_TYPE",
      "outputs": [
        {
          "internalType": "bytes32",
          "name": "",
          "type": "bytes32"
        }
      ],
      "stateMutability": "view",
      "type": "function"
    },
    {
      "inputs": [
        {
          "internalType": "uint256",
          "name": "",
          "type": "uint256"
        }
      ],
      "name": "attestationHashes",
      "outputs": [
        {
          "internalType": "bytes32",
          "name": "",
          "type": "bytes32"
        }
      ],
      "stateMutability": "view",
      "type": "function"
    },
    {
      "inputs": [
        {
          "internalType": "address",
          "name": "",
          "type": "address"
        }
      ],
      "name": "authorisedSubmitters",
      "outputs": [
        {
          "internalType": "bool",
          "name": "",
          "type": "bool"
        }
      ],
      "stateMutability": "view",
      "type": "function"
    },
    {
      "inputs": [
        {
          "internalType": "uint256",
          "name": "",
          "type": "uint256"
        }
      ],
      "name": "deliveryConfirmed",
      "outputs": [
        {
          "internalType": "bool",
          "name": "",
          "type": "bool"
        }
      ],
      "stateMutability": "view",
      "type": "function"
    },
    {
      "inputs": [],
      "name": "fdcHub",
      "outputs": [
        {
          "internalType": "contract IFdcHub",
          "name": "",
          "type": "address"
        }
      ],
      "stateMutability": "view",
      "type": "function"
    },
    {
      "inputs": [],
      "name": "fdcVerification",
      "outputs": [
        {
          "internalType": "contract IFdcVerification",
          "name": "",
          "type": "address"
        }
      ],
      "stateMutability": "view",
      "type": "function"
    },
    {
      "inputs": [
        {
          "internalType": "uint256",
          "name": "jobId",
          "type": "uint256"
        }
      ],
      "name": "isDeliveryConfirmed",
      "outputs": [
        {
          "internalType": "bool",
          "name": "",
          "type": "bool"
        }
      ],
      "stateMutability": "view",
      "type": "function"
    },
    {
      "inputs": [
        {
          "internalType": "uint256",
          "name": "jobId",
          "type": "uint256"
        }
      ],
      "name": "manualConfirmDelivery",
      "outputs": [],
      "stateMutability": "nonpayable",
      "type": "function"
    },
    {
      "inputs": [],
      "name": "owner",
      "outputs": [
        {
          "internalType": "address",
          "name": "",
          "type": "address"
        }
      ],
      "stateMutability": "view",
      "type": "function"
    },
    {
      "inputs": [],
      "name": "renounceOwnership",
      "outputs": [],
      "stateMutability": "nonpayable",
      "type": "function"
    },
    {
      "inputs": [
        {
          "internalType": "bytes",
          "name": "attestationData",
          "type": "bytes"
        }
      ],
      "name": "requestDeliveryAttestation",
      "outputs": [
        {
          "internalType": "bytes32",
          "name": "requestId",
          "type": "bytes32"
        }
      ],
      "stateMutability": "payable",
      "type": "function"
    },
    {
      "inputs": [],
      "name": "resolveFdcContracts",
      "outputs": [],
      "stateMutability": "nonpayable",
      "type": "function"
    },
    {
      "inputs": [
        {
          "internalType": "address",
          "name": "hub",
          "type": "address"
        }
      ],
      "name": "setFdcHub",
      "outputs": [],
      "stateMutability": "nonpayable",
      "type": "function"
    },
    {
      "inputs": [
        {
          "internalType": "address",
          "name": "verifier",
          "type": "address"
        }
      ],
      "name": "setFdcVerification",
      "outputs": [],
      "stateMutability": "nonpayable",
      "type": "function"
    },
    {
      "inputs": [
        {
          "internalType": "address",
          "name": "submitter",
          "type": "address"
        },
        {
          "internalType": "bool",
          "name": "authorised",
          "type": "bool"
        }
      ],
      "name": "setSubmitterAuthorised",
      "outputs": [],
      "stateMutability": "nonpayable",
      "type": "function"
    },
    {
      "inputs": [
        {
          "internalType": "address",
          "name": "newOwner",
          "type": "address"
        }
      ],
      "name": "transferOwnership",
      "outputs": [],
      "stateMutability": "nonpayable",
      "type": "function"
    },
    {
      "inputs": [
        {
          "internalType": "uint256",
          "name": "jobId",
          "type": "uint256"
        },
        {
          "components": [
            {
              "internalType": "bytes32[]",
              "name": "merkleProof",
              "type": "bytes32[]"
            },
            {
              "components": [
                {
                  "internalType": "bytes32",
                  "name": "attestationType",
                  "type": "bytes32"
                },
                {
                  "internalType": "bytes32",
                  "name": "sourceId",
                  "type": "bytes32"
                },
                {
                  "internalType": "uint64",
                  "name": "votingRound",
                  "type": "uint64"
                },
                {
                  "internalType": "uint64",
                  "name": "lowestUsedTimestamp",
                  "type": "uint64"
                },
                {
                  "components": [
                    {
                      "internalType": "string",
                      "name": "url",
                      "type": "string"
                    },
                    {
                      "internalType": "string",
                      "name": "postprocessJq",
                      "type": "string"
                    },
                    {
                      "internalType": "string",
                      "name": "headerKey",
                      "type": "string"
                    },
                    {
                      "internalType": "string",
                      "name": "headerValue",
                      "type": "string"
                    }
                  ],
                  "internalType": "struct IJsonApi.Request",
                  "name": "requestBody",
                  "type": "tuple"
                },
                {
                  "components": [
                    {
                      "internalType": "bytes",
                      "name": "abiEncodedData",
                      "type": "bytes"
                    }
                  ],
                  "internalType": "struct IJsonApi.Response",
                  "name": "responseBody",
                  "type": "tuple"
                }
              ],
              "internalType": "struct IJsonApi.Body",
              "name": "body",
              "type": "tuple"
            }
          ],
          "internalType": "struct IJsonApi.Proof",
          "name": "proof",
          "type": "tuple"
        }
      ],
      "name": "verifyDelivery",
      "outputs": [],
      "stateMutability": "nonpayable",
      "type": "function"
    }
  ],
  "bytecode": "0x60806040523480156200001157600080fd5b506040516200154a3803806200154a8339810160408190526200003491620002ca565b806001600160a01b0381166200006457604051631e4fbdf760e01b81526000600482015260240160405180910390fd5b6200006f8162000081565b506200007a620000d1565b50620002fc565b600080546001600160a01b038381166001600160a01b0319831681178455604051919092169283917f8be0079c531659141344cd1fd0a4f28419497f9722a3daafe3b4186f6b6457e09190a35050565b73ad67fe66660fb8dfe9d6b1b4240d8650e30f60193b600003620000f157565b60405163413b07e560e11b815260206004820152600f60248201526e233231ab32b934b334b1b0ba34b7b760891b604482015273ad67fe66660fb8dfe9d6b1b4240d8650e30f60199060009082906382760fca90606401602060405180830381865afa15801562000166573d6000803e3d6000fd5b505050506040513d601f19601f820116820180604052508101906200018c9190620002ca565b90506001600160a01b03811615620001e657600180546001600160a01b0319166001600160a01b0383169081179091556040517fc36746e466e1c67b4e56be936ea2bdba2381fea7362ed6607fb06c9612b5753590600090a25b60405163413b07e560e11b8152602060048201526006602482015265233231a43ab160d11b60448201526000906001600160a01b038416906382760fca90606401602060405180830381865afa15801562000245573d6000803e3d6000fd5b505050506040513d601f19601f820116820180604052508101906200026b9190620002ca565b90506001600160a01b03811615620002c557600280546001600160a01b0319166001600160a01b0383169081179091556040517f8e11cb5ad55badd45e83be7bb83fde87cd7284f9a87f53748db05d048c9cc40490600090a25b505050565b600060208284031215620002dd57600080fd5b81516001600160a01b0381168114620002f557600080fd5b9392505050565b61123e806200030c6000396000f3fe6080604052600436106101095760003560e01c80638da5cb5b11610095578063e1d65b6e11610064578063e1d65b6e1461031c578063e443147f1461032f578063ed01a1091461034f578063ede628f71461036f578063f2fde38b1461039f57600080fd5b80638da5cb5b1461029e578063a9faa0ef146102bc578063b8de0fcb146102dc578063ca0dc675146102fc57600080fd5b8063444776ec116100dc578063444776ec146101ee578063580788ad146102225780636e4c397814610252578063715018a6146102695780638010fcaf1461027e57600080fd5b806308b8c6f81461010e57806320249cf11461014e57806337433cf11461018e5780633ad6d516146101ce575b600080fd5b34801561011a57600080fd5b5061013b610129366004610d02565b60046020526000908152604090205481565b6040519081526020015b60405180910390f35b34801561015a57600080fd5b5061017673ad67fe66660fb8dfe9d6b1b4240d8650e30f601981565b6040516001600160a01b039091168152602001610145565b34801561019a57600080fd5b506101be6101a9366004610d02565b60009081526003602052604090205460ff1690565b6040519015158152602001610145565b3480156101da57600080fd5b50600154610176906001600160a01b031681565b3480156101fa57600080fd5b5061013b7f5c2c2191416db541310599baf4ee975996aa57c1a844457b2b40d56af9d1bf9981565b34801561022e57600080fd5b506101be61023d366004610d02565b60036020526000908152604090205460ff1681565b34801561025e57600080fd5b506102676103bf565b005b34801561027557600080fd5b506102676103d1565b34801561028a57600080fd5b50600254610176906001600160a01b031681565b3480156102aa57600080fd5b506000546001600160a01b0316610176565b3480156102c857600080fd5b506102676102d7366004610d3e565b6103e3565b3480156102e857600080fd5b506102676102f7366004610d02565b61044a565b34801561030857600080fd5b50610267610317366004610d77565b610512565b61013b61032a366004610dba565b610869565b34801561033b57600080fd5b5061026761034a366004610e2c565b6109b3565b34801561035b57600080fd5b5061026761036a366004610e2c565b610a05565b34801561037b57600080fd5b506101be61038a366004610e2c565b60056020526000908152604090205460ff1681565b3480156103ab57600080fd5b506102676103ba366004610e2c565b610a57565b6103c7610a95565b6103cf610ac2565b565b6103d9610a95565b6103cf6000610cb2565b6103eb610a95565b6001600160a01b038216600081815260056020908152604091829020805460ff191685151590811790915591519182527f1c08dc3435df8290f91058e5d5445e4a46776fb3fa1cb46aafa18d364329866c910160405180910390a25050565b610452610a95565b60008181526003602052604090205460ff16156104b65760405162461bcd60e51b815260206004820152601e60248201527f46444356657269666965723a20616c726561647920636f6e6669726d6564000060448201526064015b60405180910390fd5b6000818152600360209081526040808320805460ff191660011790556004825280832083905551918252339183917f1b795559218227da87bc4cdf370d3e3c1cbb7ced4c523d8a9c167811fcb92ac3910160405180910390a350565b3360009081526005602052604090205460ff168061053a57506000546001600160a01b031633145b6105865760405162461bcd60e51b815260206004820152601b60248201527f46444356657269666965723a206e6f7420617574686f7269736564000000000060448201526064016104ad565b60008281526003602052604090205460ff16156105e55760405162461bcd60e51b815260206004820152601e60248201527f46444356657269666965723a20616c726561647920636f6e6669726d6564000060448201526064016104ad565b6001546001600160a01b031661063d5760405162461bcd60e51b815260206004820152601d60248201527f46444356657269666965723a207665726966696572206e6f742073657400000060448201526064016104ad565b60015460405163c596f46960e01b81526000916001600160a01b03169063c596f4699061066e908590600401611059565b602060405180830381865afa15801561068b573d6000803e3d6000fd5b505050506040513d601f19601f820116820180604052508101906106af91906110f7565b9050806106fe5760405162461bcd60e51b815260206004820152601a60248201527f46444356657269666965723a20696e76616c69642070726f6f6600000000000060448201526064016104ad565b60008061070e6020850185611114565b61071c9060a0810190611134565b610726908061114a565b8101906107339190611191565b915091508482146107865760405162461bcd60e51b815260206004820152601c60248201527f46444356657269666965723a206a6f62204944206d69736d617463680000000060448201526064016104ad565b806107df5760405162461bcd60e51b815260206004820152602360248201527f46444356657269666965723a2064656c6976657279206e6f7420636f6e6669726044820152621b595960ea1b60648201526084016104ad565b600085815260036020908152604091829020805460ff19166001179055905161080a91869101611059565b60408051601f19818403018152828252805160209182012060008981526004835283902081905583529051339288927f1b795559218227da87bc4cdf370d3e3c1cbb7ced4c523d8a9c167811fcb92ac392918290030190a35050505050565b3360009081526005602052604081205460ff168061089157506000546001600160a01b031633145b6108dd5760405162461bcd60e51b815260206004820152601b60248201527f46444356657269666965723a206e6f7420617574686f7269736564000000000060448201526064016104ad565b6002546001600160a01b03166109355760405162461bcd60e51b815260206004820152601860248201527f46444356657269666965723a20687562206e6f7420736574000000000000000060448201526064016104ad565b60025460405163188e3cd560e21b81526001600160a01b0390911690636238f35490349061096990879087906004016111b6565b60206040518083038185885af1158015610987573d6000803e3d6000fd5b50505050506040513d601f19601f820116820180604052508101906109ac91906111d2565b9392505050565b6109bb610a95565b600180546001600160a01b0319166001600160a01b0383169081179091556040517fc36746e466e1c67b4e56be936ea2bdba2381fea7362ed6607fb06c9612b5753590600090a250565b610a0d610a95565b600280546001600160a01b0319166001600160a01b0383169081179091556040517f8e11cb5ad55badd45e83be7bb83fde87cd7284f9a87f53748db05d048c9cc40490600090a250565b610a5f610a95565b6001600160a01b038116610a8957604051631e4fbdf760e01b8152600060048201526024016104ad565b610a9281610cb2565b50565b6000546001600160a01b031633146103cf5760405163118cdaa760e01b81523360048201526024016104ad565b73ad67fe66660fb8dfe9d6b1b4240d8650e30f60193b600003610ae157565b60405163413b07e560e11b815260206004820152600f60248201526e233231ab32b934b334b1b0ba34b7b760891b604482015273ad67fe66660fb8dfe9d6b1b4240d8650e30f60199060009082906382760fca90606401602060405180830381865afa158015610b55573d6000803e3d6000fd5b505050506040513d601f19601f82011682018060405250810190610b7991906111eb565b90506001600160a01b03811615610bd257600180546001600160a01b0319166001600160a01b0383169081179091556040517fc36746e466e1c67b4e56be936ea2bdba2381fea7362ed6607fb06c9612b5753590600090a25b60405163413b07e560e11b8152602060048201526006602482015265233231a43ab160d11b60448201526000906001600160a01b038416906382760fca90606401602060405180830381865afa158015610c30573d6000803e3d6000fd5b505050506040513d601f19601f82011682018060405250810190610c5491906111eb565b90506001600160a01b03811615610cad57600280546001600160a01b0319166001600160a01b0383169081179091556040517f8e11cb5ad55badd45e83be7bb83fde87cd7284f9a87f53748db05d048c9cc40490600090a25b505050565b600080546001600160a01b038381166001600160a01b0319831681178455604051919092169283917f8be0079c531659141344cd1fd0a4f28419497f9722a3daafe3b4186f6b6457e09190a35050565b600060208284031215610d1457600080fd5b5035919050565b6001600160a01b0381168114610a9257600080fd5b8015158114610a9257600080fd5b60008060408385031215610d5157600080fd5b8235610d5c81610d1b565b91506020830135610d6c81610d30565b809150509250929050565b60008060408385031215610d8a57600080fd5b82359150602083013567ffffffffffffffff811115610da857600080fd5b830160408186031215610d6c57600080fd5b60008060208385031215610dcd57600080fd5b823567ffffffffffffffff80821115610de557600080fd5b818501915085601f830112610df957600080fd5b813581811115610e0857600080fd5b866020828501011115610e1a57600080fd5b60209290920196919550909350505050565b600060208284031215610e3e57600080fd5b81356109ac81610d1b565b6000823560be19833603018112610e5f57600080fd5b90910192915050565b803567ffffffffffffffff81168114610e8057600080fd5b919050565b6000808335601e19843603018112610e9c57600080fd5b830160208101925035905067ffffffffffffffff811115610ebc57600080fd5b803603821315610ecb57600080fd5b9250929050565b81835281816020850137506000828201602090810191909152601f909101601f19169091010190565b60008235601e19833603018112610e5f57600080fd5b6000610f1d8283610e85565b60208552610f2f602086018284610ed2565b95945050505050565b80358252602081013560208301526000610f5460408301610e68565b67ffffffffffffffff808216604086015280610f7260608601610e68565b16606086015250506080820135607e19833603018112610f9157600080fd5b60c060808501528201610fa48180610e85565b608060c0870152610fba61014087018284610ed2565b915050610fca6020830183610e85565b60bf19808885030160e0890152610fe2848385610ed2565b9350610ff16040860186610e85565b93509150808885030161010089015261100b848484610ed2565b935061101a6060860186610e85565b9550925080888503016101208901525050611036828483610ed2565b9250505061104760a0840184610efb565b84820360a0860152610f2f8282610f11565b6020815260008235601e1984360301811261107357600080fd5b830160208101903567ffffffffffffffff81111561109057600080fd5b8060051b8036038313156110a357600080fd5b60406020860152606085018290526001600160fb1b038211156110c557600080fd5b80836080870137840191506110df90506020850185610e49565b6060848303016040850152610f2f6080830182610f38565b60006020828403121561110957600080fd5b81516109ac81610d30565b6000823560be1983360301811261112a57600080fd5b9190910192915050565b60008235601e1983360301811261112a57600080fd5b6000808335601e1984360301811261116157600080fd5b83018035915067ffffffffffffffff82111561117c57600080fd5b602001915036819003821315610ecb57600080fd5b600080604083850312156111a457600080fd5b823591506020830135610d6c81610d30565b6020815260006111ca602083018486610ed2565b949350505050565b6000602082840312156111e457600080fd5b5051919050565b6000602082840312156111fd57600080fd5b81516109ac81610d1b56fea26469706673582212206377ddffdcce5e1067d51618ca72367794345d2fba528a14098e31283b2d705f64736f6c63430008180033",
  "linkReferences": {},
  "deployedLinkReferences": {}
}