{
  "_format": "hh-sol-artifact-1",
  "contractName": "AgentStaking",
  "sourceName": "contracts/AgentStaking.sol",
  "abi": [
    {
      "inputs": [
        {
          "internalType": "address",
          "name": "initialOwner",
          "type": "address"
        },
        {
          "internalType": "address",
          "name": "agentRegistry_",
          "type": "address"
        },
        {
          "internalType": "address",
          "name": "randomNumberV2_",
          "type": "address"
        },
        {
          "internalType": "uint256",
          "name": "minimumStake_",
          "type": "uint256"
        }
      ],
      "stateMutability": "nonpayable",
      "type": "constructor"
    },
    {
      "inputs": [
        {
          "internalType": "address",
          "name": "owner",
          "type": "address"
        }
      ],
      "name": "OwnableInvalidOwner",
      "type": "error"
    },
    {
      "inputs": [
        {
          "internalType": "address",
          "name": "account",
          "type": "address"
        }
      ],
      "name": "OwnableUnauthorizedAccount",
      "type": "error"
    },
    {
      "inputs": [],
      "name": "ReentrancyGuardReentrantCall",
      "type": "error"
    },
    {
      "anonymous": false,
      "inputs": [
        {
          "indexed": true,
          "internalType": "address",
          "name": "agent",
          "type": "address"
        },
        {
          "indexed": false,
          "internalType": "uint256",
          "name": "lostEarnings",
          "type": "uint256"
        }
      ],
      "name": "CashoutLoss",
      "type": "event"
    },
    {
      "anonymous": false,
      "inputs": [
        {
          "indexed": true,
          "internalType": "address",
          "name": "agent",
          "type": "address"
        },
        {
          "indexed": false,
          "internalType": "uint256",
          "name": "payout",
          "type": "uint256"
        }
      ],
      "name": "CashoutWin",
      "type": "event"
    },
    {
      "anonymous": false,
      "inputs": [
        {
          "indexed": true,
          "internalType": "address",
          "name": "agent",
          "type": "address"
        },
        {
          "indexed": false,
          "internalType": "uint256",
          "name": "amount",
          "type": "uint256"
        }
      ],
      "name": "EarningsCredited",
      "type": "event"
    },
    {
      "anonymous": false,
      "inputs": [
        {
          "indexed": true,
          "internalType": "address",
          "name": "escrow",
          "type": "address"
        }
      ],
      "name": "EscrowUpdated",
      "type": "event"
    },
    {
      "anonymous": false,
      "inputs": [
        {
          "indexed": true,
          "internalType": "address",
          "name": "agent",
          "type": "address"
        },
        {
          "indexed": false,
          "internalType": "uint256",
          "name": "amount",
          "type": "uint256"
        }
      ],
      "name": "HouseFeePaid",
      "type": "event"
    },
    {
      "anonymous": false,
      "inputs": [
        {
          "indexed": false,
          "internalType": "uint256",
          "name": "newFeeBps",
          "type": "uint256"
        }
      ],
      "name": "HouseFeeUpdated",
      "type": "event"
    },
    {
      "anonymous": false,
      "inputs": [
        {
          "indexed": true,
          "internalType": "address",
          "name": "wallet",
          "type": "address"
        }
      ],
      "name": "HouseWalletUpdated",
      "type": "event"
    },
    {
      "anonymous": false,
      "inputs": [
        {
          "indexed": false,
          "internalType": "uint256",
          "name": "newMinimum",
          "type": "uint256"
        }
      ],
      "name": "MinimumStakeUpdated",
      "type": "event"
    },
    {
      "anonymous": false,
      "inputs": [
        {
          "indexed": true,
          "internalType": "address",
          "name": "previousOwner",
          "type": "address"
        },
        {
          "indexed": true,
          "internalType": "address",
          "name": "newOwner",
          "type": "address"
        }
      ],
      "name": "OwnershipTransferred",
      "type": "event"
    },
    {
      "anonymous": false,
      "inputs": [
        {
          "indexed": true,
          "internalType": "address",
          "name": "from",
          "type": "address"
        },
        {
          "indexed": false,
          "internalType": "uint256",
          "name": "amount",
          "type": "uint256"
        }
      ],
      "name": "PoolSeeded",
      "type": "event"
    },
    {
      "anonymous": false,
      "inputs": [
        {
          "indexed": true,
          "internalType": "address",
          "name": "to",
          "type": "address"
        },
        {
          "indexed": false,
          "internalType": "uint256",
          "name": "amount",
          "type": "uint256"
        }
      ],
      "name": "PoolWithdrawn",
      "type": "event"
    },
    {
      "anonymous": false,
      "inputs": [
        {
          "indexed": true,
          "internalType": "address",
          "name": "agent",
          "type": "address"
        },
        {
          "indexed": false,
          "internalType": "uint256",
          "name": "payout",
          "type": "uint256"
        },
        {
          "indexed": false,
          "internalType": "uint256",
          "name": "fee",
          "type": "uint256"
        }
      ],
      "name": "SafeWithdraw",
      "type": "event"
    },
    {
      "anonymous": false,
      "inputs": [
        {
          "indexed": false,
          "internalType": "uint256",
          "name": "newFeeBps",
          "type": "uint256"
        }
      ],
      "name": "SafeWithdrawFeeUpdated",
      "type": "event"
    },
    {
      "anonymous": false,
      "inputs": [
        {
          "indexed": true,
          "internalType": "address",
          "name": "agent",
          "type": "address"
        },
        {
          "indexed": false,
          "internalType": "uint256",
          "name": "amount",
          "type": "uint256"
        }
      ],
      "name": "Staked",
      "type": "event"
    },
    {
      "anonymous": false,
      "inputs": [
        {
          "indexed": true,
          "internalType": "address",
          "name": "agent",
          "type": "address"
        },
        {
          "indexed": false,
          "internalType": "uint256",
          "name": "amount",
          "type": "uint256"
        },
        {
          "indexed": false,
          "internalType": "uint256",
          "name": "forfeitedEarnings",
          "type": "uint256"
        }
      ],
      "name": "Unstaked",
      "type": "event"
    },
    {
      "inputs": [],
      "name": "agentRegistry",
      "outputs": [
        {
          "internalType": "contract AgentRegistry",
          "name": "",
          "type": "address"
        }
      ],
      "stateMutability": "view",
      "type": "function"
    },
    {
      "inputs": [
        {
          "internalType": "address",
          "name": "agent",
          "type": "address"
        }
      ],
      "name": "cashout",
      "outputs": [],
      "stateMutability": "nonpayable",
      "type": "function"
    },
    {
      "inputs": [
        {
          "internalType": "address",
          "name": "agent",
          "type": "address"
        },
        {
          "internalType": "uint256",
          "name": "amount",
          "type": "uint256"
        }
      ],
      "name": "creditEarnings",
      "outputs": [],
      "stateMutability": "payable",
      "type": "function"
    },
    {
      "inputs": [],
      "name": "escrow",
      "outputs": [
        {
          "internalType": "address",
          "name": "",
          "type": "address"
        }
      ],
      "stateMutability": "view",
      "type": "function"
    },
    {
      "inputs": [],
      "name": "getPoolSize",
      "outputs": [
        {
          "internalType": "uint256",
          "name": "",
          "type": "uint256"
        }
      ],
      "stateMutability": "view",
      "type": "function"
    },
    {
      "inputs": [
        {
          "internalType": "address",
          "name": "agent",
          "type": "address"
        }
      ],
      "name": "getStakeInfo",
      "outputs": [
        {
          "components": [
            {
              "internalType": "uint256",
              "name": "stakedAmount",
              "type": "uint256"
            },
            {
              "internalType": "uint256",
              "name": "accumulatedEarnings",
              "type": "uint256"
            },
            {
              "internalType": "uint256",
              "name": "wins",
              "type": "uint256"
            },
            {
              "internalType": "uint256",
              "name": "losses",
              "type": "uint256"
            },
            {
              "internalType": "bool",
              "name": "isStaked",
              "type": "bool"
            }
          ],
          "internalType": "struct AgentStaking.StakeInfo",
          "name": "",
          "type": "tuple"
        }
      ],
      "stateMutability": "view",
      "type": "function"
    },
    {
      "inputs": [],
      "name": "houseFeeBps",
      "outputs": [
        {
          "internalType": "uint256",
          "name": "",
          "type": "uint256"
        }
      ],
      "stateMutability": "view",
      "type": "function"
    },
    {
      "inputs": [],
      "name": "houseWallet",
      "outputs": [
        {
          "internalType": "address",
          "name": "",
          "type": "address"
        }
      ],
      "stateMutability": "view",
      "type": "function"
    },
    {
      "inputs": [
        {
          "internalType": "address",
          "name": "agent",
          "type": "address"
        }
      ],
      "name": "isStaked",
      "outputs": [
        {
          "internalType": "bool",
          "name": "",
          "type": "bool"
        }
      ],
      "stateMutability": "view",
      "type": "function"
    },
    {
      "inputs": [],
      "name": "lossPool",
      "outputs": [
        {
          "internalType": "uint256",
          "name": "",
          "type": "uint256"
        }
      ],
      "stateMutability": "view",
      "type": "function"
    },
    {
      "inputs": [],
      "name": "maxRandomAge",
      "outputs": [
        {
          "internalType": "uint256",
          "name": "",
          "type": "uint256"
        }
      ],
      "stateMutability": "view",
      "type": "function"
    },
    {
      "inputs": [],
      "name": "minimumStake",
      "outputs": [
        {
          "internalType": "uint256",
          "name": "",
          "type": "uint256"
        }
      ],
      "stateMutability": "view",
      "type": "function"
    },
    {
      "inputs": [],
      "name": "owner",
      "outputs": [
        {
          "internalType": "address",
          "name": "",
          "type": "address"
        }
      ],
      "stateMutability": "view",
      "type": "function"
    },
    {
      "inputs": [
        {
          "internalType": "address",
          "name": "agent",
          "type": "address"
        }
      ],
      "name": "previewCashout",
      "outputs": [
        {
          "internalType": "uint256",
          "name": "earnings",
          "type": "uint256"
        },
        {
          "internalType": "uint256",
          "name": "houseFee",
          "type": "uint256"
        },
        {
          "internalType": "uint256",
          "name": "maxPayout",
          "type": "uint256"
        }
      ],
      "stateMutability": "view",
      "type": "function"
    },
    {
      "inputs": [
        {
          "internalType": "address",
          "name": "agent",
          "type": "address"
        }
      ],
      "name": "previewSafeWithdraw",
      "outputs": [
        {
          "internalType": "uint256",
          "name": "earnings",
          "type": "uint256"
        },
        {
          "internalType": "uint256",
          "name": "fee",
          "type": "uint256"
        },
        {
          "internalType": "uint256",
          "name": "payout",
          "type": "uint256"
        }
      ],
      "stateMutability": "view",
      "type": "function"
    },
    {
      "inputs": [],
      "name": "randomNumberV2",
      "outputs": [
        {
          "internalType": "contract IRandomNumberV2",
          "name": "",
          "type": "address"
        }
      ],
      "stateMutability": "view",
      "type": "function"
    },
    {
      "inputs": [],
      "name": "renounceOwnership",
      "outputs": [],
      "stateMutability": "nonpayable",
      "type": "function"
    },
    {
      "inputs": [
        {
          "internalType": "address",
          "name": "agent",
          "type": "address"
        }
      ],
      "name": "safeWithdraw",
      "outputs": [],
      "stateMutability": "nonpayable",
      "type": "function"
    },
    {
      "inputs": [],
      "name": "safeWithdrawFeeBps",
      "outputs": [
        {
          "internalType": "uint256",
          "name": "",
          "type": "uint256"
        }
      ],
      "stateMutability": "view",
      "type": "function"
    },
    {
      "inputs": [],
      "name": "seedPool",
      "outputs": [],
      "stateMutability": "payable",
      "type": "function"
    },
    {
      "inputs": [
        {
          "internalType": "address",
          "name": "escrow_",
          "type": "address"
        }
      ],
      "name": "setEscrow",
      "outputs": [],
      "stateMutability": "nonpayable",
      "type": "function"
    },
    {
      "inputs": [
        {
          "internalType": "uint256",
          "name": "feeBps",
          "type": "uint256"
        }
      ],
      "name": "setHouseFeeBps",
      "outputs": [],
      "stateMutability": "nonpayable",
      "type": "function"
    },
    {
      "inputs": [
        {
          "internalType": "address",
          "name": "wallet",
          "type": "address"
        }
      ],
      "name": "setHouseWallet",
      "outputs": [],
      "stateMutability": "nonpayable",
      "type": "function"
    },
    {
      "inputs": [
        {
          "internalType": "uint256",
          "name": "maxAge",
          "type": "uint256"
        }
      ],
      "name": "setMaxRandomAge",
      "outputs": [],
      "stateMutability": "nonpayable",
      "type": "function"
    },
    {
      "inputs": [
        {
          "internalType": "uint256",
          "name": "minimumStake_",
          "type": "uint256"
        }
      ],
      "name": "setMinimumStake",
      "outputs": [],
      "stateMutability": "nonpayable",
      "type": "function"
    },
    {
      "inputs": [
        {
          "internalType": "uint256",
          "name": "feeBps",
          "type": "uint256"
        }
      ],
      "name": "setSafeWithdrawFeeBps",
      "outputs": [],
      "stateMutability": "nonpayable",
      "type": "function"
    },
    {
      "inputs": [
        {
          "internalType": "address",
          "name": "agent",
          "type": "address"
        }
      ],
      "name": "stake",
      "outputs": [],
      "stateMutability": "payable",
      "type": "function"
    },
    {
      "inputs": [
        {
          "internalType": "address",
          "name": "",
          "type": "address"
        }
      ],
      "name": "stakes",
      "outputs": [
        {
          "internalType": "uint256",
          "name": "stakedAmount",
          "type": "uint256"
        },
        {
          "internalType": "uint256",
          "name": "accumulatedEarnings",
          "type": "uint256"
        },
        {
          "internalType": "uint256",
          "name": "wins",
          "type": "uint256"
        },
        {
          "internalType": "uint256",
          "name": "losses",
          "type": "uint256"
        },
        {
          "internalType": "bool",
          "name": "isStaked",
          "type": "bool"
        }
      ],
      "stateMutability": "view",
      "type": "function"
    },
    {
      "inputs": [
        {
          "internalType": "address",
          "name": "newOwner",
          "type": "address"
        }
      ],
      "name": "transferOwnership",
      "outputs": [],
      "stateMutability": "nonpayable",
      "type": "function"
    },
    {
      "inputs": [
        {
          "internalType": "address",
          "name": "agent",
          "type": "address"
        }
      ],
      "name": "unstake",
      "outputs": [],
      "stateMutability": "nonpayable",
      "type": "function"
    },
    {
      "inputs": [
        {
          "internalType": "uint256",
          "name": "amount",
          "type": "uint256"
        }
      ],
      "name": "withdrawPool",
      "outputs": [],
      "stateMutability": "nonpayable",
      "type": "function"
    },
    {
      "stateMutability": "payable",
      "type": "receive"
    }
  ],
  "bytecode": "0x60806040523480156200001157600080fd5b50604051620022863803806200228683398101604081905262000034916200014f565b836001600160a01b0381166200006457604051631e4fbdf760e01b81526000600482015260240160405180910390fd5b6200006f81620000e2565b5060018055600980546001600160a01b039485166001600160a01b0319918216179091556008805493909416928116929092179092556002919091556078600455600b80549091167376f9398ee268b9fdc06c0dff402b20532922ffae179055506101f46005556107d0600655620001a1565b600080546001600160a01b038381166001600160a01b0319831681178455604051919092169283917f8be0079c531659141344cd1fd0a4f28419497f9722a3daafe3b4186f6b6457e09190a35050565b80516001600160a01b03811681146200014a57600080fd5b919050565b600080600080608085870312156200016657600080fd5b620001718562000132565b9350620001816020860162000132565b9250620001916040860162000132565b6060959095015193969295505050565b6120d580620001b16000396000f3fe6080604052600436106101dc5760003560e01c80636671459b11610102578063db80911611610095578063ee59d24011610064578063ee59d240146105f2578063f2888dbb14610608578063f2fde38b14610628578063f953f6451461064857600080fd5b8063db8091161461057c578063e2fdcc171461059c578063e98dc5ee146105bc578063ec5ffac2146105dc57600080fd5b80638da5cb5b116100d15780638da5cb5b146104d2578063a6a15183146104f0578063c10c3546146104f8578063c34531531461051857600080fd5b80636671459b14610467578063715018a61461047d57806377818f0214610492578063838a4107146104b257600080fd5b80632e6b2f6e1161017a5780634846ff7e116101495780634846ff7e146103bb5780634c034ea9146103db57806358b8e098146103fb5780636177fd181461041b57600080fd5b80632e6b2f6e14610345578063300911281461036557806335d4de51146103855780634212e1c7146103a557600080fd5b806316934fc4116101b657806316934fc414610284578063233e9903146102fb57806323845e4b1461031d578063264762041461033257600080fd5b806307cfead8146101e85780630adda68c146102115780630d1cfcae1461024c57600080fd5b366101e357005b600080fd5b3480156101f457600080fd5b506101fe60045481565b6040519081526020015b60405180910390f35b34801561021d57600080fd5b5061023161022c366004611eb2565b61065b565b60408051938452602084019290925290820152606001610208565b34801561025857600080fd5b5060095461026c906001600160a01b031681565b6040516001600160a01b039091168152602001610208565b34801561029057600080fd5b506102d161029f366004611eb2565b600760205260009081526040902080546001820154600283015460038401546004909401549293919290919060ff1685565b6040805195865260208601949094529284019190915260608301521515608082015260a001610208565b34801561030757600080fd5b5061031b610316366004611ed6565b6106cd565b005b34801561032957600080fd5b506003546101fe565b61031b610340366004611eb2565b610711565b34801561035157600080fd5b50610231610360366004611eb2565b6109e6565b34801561037157600080fd5b5061031b610380366004611ed6565b610a36565b34801561039157600080fd5b5061031b6103a0366004611eb2565b610ad6565b3480156103b157600080fd5b506101fe60065481565b3480156103c757600080fd5b5061031b6103d6366004611eb2565b610b7e565b3480156103e757600080fd5b5061031b6103f6366004611ed6565b61116e565b34801561040757600080fd5b5061031b610416366004611ed6565b611328565b34801561042757600080fd5b50610457610436366004611eb2565b6001600160a01b031660009081526007602052604090206004015460ff1690565b6040519015158152602001610208565b34801561047357600080fd5b506101fe60035481565b34801561048957600080fd5b5061031b611335565b34801561049e57600080fd5b50600b5461026c906001600160a01b031681565b3480156104be57600080fd5b5061031b6104cd366004611eb2565b611349565b3480156104de57600080fd5b506000546001600160a01b031661026c565b61031b611661565b34801561050457600080fd5b5061031b610513366004611eb2565b611759565b34801561052457600080fd5b50610538610533366004611eb2565b6117ab565b6040516102089190600060a0820190508251825260208301516020830152604083015160408301526060830151606083015260808301511515608083015292915050565b34801561058857600080fd5b5061031b610597366004611ed6565b61183c565b3480156105a857600080fd5b50600a5461026c906001600160a01b031681565b3480156105c857600080fd5b5060085461026c906001600160a01b031681565b3480156105e857600080fd5b506101fe60025481565b3480156105fe57600080fd5b506101fe60055481565b34801561061457600080fd5b5061031b610623366004611eb2565b6118cb565b34801561063457600080fd5b5061031b610643366004611eb2565b611c2a565b61031b610656366004611eef565b611c65565b6001600160a01b03811660009081526007602052604081206001015460055490919081906127109061068d9085611f31565b6106979190611f4e565b915060006106a58385611f70565b60035490915081908111156106b957506003545b6106c38183611f83565b9496939550505050565b6106d5611df6565b60028190556040518181527ff4045d7dd317de89564c3f12c35961242ed2a4dce3ae4e7a75847ffa04bb0834906020015b60405180910390a150565b60095460405163033f09f760e51b81526001600160a01b038381166004830152339216906367e13ee090602401602060405180830381865afa15801561075b573d6000803e3d6000fd5b505050506040513d601f19601f8201168201806040525081019061077f9190611f96565b6001600160a01b0316146107ae5760405162461bcd60e51b81526004016107a590611fb3565b60405180910390fd5b60025434101561080a5760405162461bcd60e51b815260206004820152602160248201527f4167656e745374616b696e673a2062656c6f77206d696e696d756d207374616b6044820152606560f81b60648201526084016107a5565b6001600160a01b03811660009081526007602052604090206004015460ff16156108765760405162461bcd60e51b815260206004820152601c60248201527f4167656e745374616b696e673a20616c7265616479207374616b65640000000060448201526064016107a5565b60095460405163554c4f4b60e01b81526001600160a01b0383811660048301529091169063554c4f4b90602401602060405180830381865afa1580156108c0573d6000803e3d6000fd5b505050506040513d601f19601f820116820180604052508101906108e49190611fff565b6109435760405162461bcd60e51b815260206004820152602a60248201527f4167656e745374616b696e673a206167656e74206e6f742061637469766520696044820152696e20726567697374727960b01b60648201526084016107a5565b6040805160a0810182523480825260006020808401828152848601838152606086018481526001608088018181526001600160a01b038b1680885260078752968a90209851895593519088015590516002870155516003860155516004909401805460ff19169415159490941790935592519081527f9e71bc8eea02a63969f509818f2dafb9254532904319f9dbda79b67bd34a5f3d910160405180910390a250565b6001600160a01b038116600090815260076020526040812060010154600654909190819061271090610a189085611f31565b610a229190611f4e565b9150610a2e8284611f70565b929491935050565b610a3e611df6565b611388811115610aa15760405162461bcd60e51b815260206004820152602860248201527f4167656e745374616b696e673a207361666520776974686472617720666565206044820152670e8dede40d0d2ced60c31b60648201526084016107a5565b60068190556040518181527fc61a7a3f93237ff09973510f1612e01bc2a9cdad0823b50450e9cf60f623890390602001610706565b610ade611df6565b6001600160a01b038116610b345760405162461bcd60e51b815260206004820152601a60248201527f4167656e745374616b696e673a207a65726f206164647265737300000000000060448201526064016107a5565b600b80546001600160a01b0319166001600160a01b0383169081179091556040517f8bc21c8e7cba39f9a57d37b62e15255f3f4f1e3ffe111d43a8d062a59e7aa9eb90600090a250565b610b86611e23565b60095460405163033f09f760e51b81526001600160a01b038381166004830152339216906367e13ee090602401602060405180830381865afa158015610bd0573d6000803e3d6000fd5b505050506040513d601f19601f82011682018060405250810190610bf49190611f96565b6001600160a01b031614610c1a5760405162461bcd60e51b81526004016107a590611fb3565b6001600160a01b0381166000908152600760205260409020600481015460ff16610c565760405162461bcd60e51b81526004016107a59061201a565b6000816001015411610ca65760405162461bcd60e51b81526020600482015260196024820152784167656e745374616b696e673a206e6f206561726e696e677360381b60448201526064016107a5565b6000806000600860009054906101000a90046001600160a01b03166001600160a01b031663dbdff2c16040518163ffffffff1660e01b8152600401606060405180830381865afa158015610cfe573d6000803e3d6000fd5b505050506040513d601f19601f82011682018060405250810190610d229190612051565b92509250925081610d845760405162461bcd60e51b815260206004820152602660248201527f4167656e745374616b696e673a2072616e646f6d206e756d626572206e6f742060448201526573656375726560d01b60648201526084016107a5565b600454610d918242611f70565b1115610ded5760405162461bcd60e51b815260206004820152602560248201527f4167656e745374616b696e673a2072616e646f6d206e756d62657220746f6f206044820152647374616c6560d81b60648201526084016107a5565b60018401805460009182905560055490919061271090610e0d9084611f31565b610e179190611f4e565b90506000610e258284611f70565b90508115610f1557600b546040516000916001600160a01b03169084908381818185875af1925050503d8060008114610e7a576040519150601f19603f3d011682016040523d82523d6000602084013e610e7f565b606091505b5050905080610ed05760405162461bcd60e51b815260206004820152601e60248201527f4167656e745374616b696e673a20686f75736520666565206661696c6564000060448201526064016107a5565b886001600160a01b03167f27fd7ef3243422e5d5a5629400dc357d23a0aea4c65afc40c188634d83abe81584604051610f0b91815260200190565b60405180910390a2505b85600116600003611051576003548190811115610f3157506003545b8060036000828254610f439190611f70565b9091555060009050610f558284611f83565b60028a0180549192506000610f6983612086565b9091555050604051600090339083908381818185875af1925050503d8060008114610fb0576040519150601f19603f3d011682016040523d82523d6000602084013e610fb5565b606091505b50509050806110065760405162461bcd60e51b815260206004820152601b60248201527f4167656e745374616b696e673a207061796f7574206661696c6564000000000060448201526064016107a5565b8a6001600160a01b03167fb98b8097282aa0670abc285d666e672f024ff89138fd0bb8cc5a2ee25a4f18428360405161104191815260200190565b60405180910390a250505061115b565b60038701805490600061106383612086565b9091555050600b546040516000916001600160a01b03169083908381818185875af1925050503d80600081146110b5576040519150601f19603f3d011682016040523d82523d6000602084013e6110ba565b606091505b50509050806111165760405162461bcd60e51b815260206004820152602260248201527f4167656e745374616b696e673a206c6f7373207472616e73666572206661696c604482015261195960f21b60648201526084016107a5565b886001600160a01b03167fd25494c4cd2c97c4f378637bc35937ce2cde5e51ab266d7499e9f407d0d6faad8360405161115191815260200190565b60405180910390a2505b5050505050505061116b60018055565b50565b600b546001600160a01b031633146111c85760405162461bcd60e51b815260206004820152601e60248201527f4167656e745374616b696e673a206e6f7420686f7573652077616c6c6574000060448201526064016107a5565b6111d0611e23565b6003548111156112225760405162461bcd60e51b815260206004820152601a60248201527f4167656e745374616b696e673a206578636565647320706f6f6c00000000000060448201526064016107a5565b80600360008282546112349190611f70565b9091555050600b546040516000916001600160a01b03169083908381818185875af1925050503d8060008114611286576040519150601f19603f3d011682016040523d82523d6000602084013e61128b565b606091505b50509050806112dc5760405162461bcd60e51b815260206004820152601d60248201527f4167656e745374616b696e673a207769746864726177206661696c656400000060448201526064016107a5565b600b546040518381526001600160a01b03909116907f6f07e6169c1653554eb707b6f6cd8f7ccf9cc29e54a0d8a71d9d5867d2057ac29060200160405180910390a25061116b60018055565b611330611df6565b600455565b61133d611df6565b6113476000611e4d565b565b611351611e23565b60095460405163033f09f760e51b81526001600160a01b038381166004830152339216906367e13ee090602401602060405180830381865afa15801561139b573d6000803e3d6000fd5b505050506040513d601f19601f820116820180604052508101906113bf9190611f96565b6001600160a01b0316146113e55760405162461bcd60e51b81526004016107a590611fb3565b6001600160a01b0381166000908152600760205260409020600481015460ff166114215760405162461bcd60e51b81526004016107a59061201a565b60008160010154116114715760405162461bcd60e51b81526020600482015260196024820152784167656e745374616b696e673a206e6f206561726e696e677360381b60448201526064016107a5565b600181018054600091829055600654909190612710906114919084611f31565b61149b9190611f4e565b905060006114a98284611f70565b9050811561156557600b546040516000916001600160a01b03169084908381818185875af1925050503d80600081146114fe576040519150601f19603f3d011682016040523d82523d6000602084013e611503565b606091505b50509050806115635760405162461bcd60e51b815260206004820152602660248201527f4167656e745374616b696e673a2073616665207769746864726177206665652060448201526519985a5b195960d21b60648201526084016107a5565b505b604051600090339083908381818185875af1925050503d80600081146115a7576040519150601f19603f3d011682016040523d82523d6000602084013e6115ac565b606091505b505090508061160f5760405162461bcd60e51b815260206004820152602960248201527f4167656e745374616b696e673a2073616665207769746864726177207061796f6044820152681d5d0819985a5b195960ba1b60648201526084016107a5565b60408051838152602081018590526001600160a01b038816917f7f3ef109b557a864a6a4c8537b06663bf0305610149c79effa11b496afed17ea910160405180910390a2505050505061116b60018055565b600b546001600160a01b031633146116bb5760405162461bcd60e51b815260206004820152601e60248201527f4167656e745374616b696e673a206e6f7420686f7573652077616c6c6574000060448201526064016107a5565b6000341161170b5760405162461bcd60e51b815260206004820152601760248201527f4167656e745374616b696e673a207a65726f207365656400000000000000000060448201526064016107a5565b346003600082825461171d9190611f83565b909155505060405134815233907fefa144e2f868ba3fd661aa7e63eaff63a9dc1e377faefb534dc9987f7d37d3639060200160405180910390a2565b611761611df6565b600a80546001600160a01b0319166001600160a01b0383169081179091556040517f43ab431641dd45dd0661cad4b820e826d7c526af92e3121e1242d721f82ab3ad90600090a250565b6117df6040518060a00160405280600081526020016000815260200160008152602001600081526020016000151581525090565b506001600160a01b0316600090815260076020908152604091829020825160a081018452815481526001820154928101929092526002810154928201929092526003820154606082015260049091015460ff161515608082015290565b611844611df6565b6107d08111156118965760405162461bcd60e51b815260206004820152601a60248201527f4167656e745374616b696e673a2066656520746f6f206869676800000000000060448201526064016107a5565b60058190556040518181527f39bac3776cf5051f3231c9b3c24fb41fde811b5ee1bd0b68869abb20d0bfeb5a90602001610706565b6118d3611e23565b60095460405163033f09f760e51b81526001600160a01b038381166004830152339216906367e13ee090602401602060405180830381865afa15801561191d573d6000803e3d6000fd5b505050506040513d601f19601f820116820180604052508101906119419190611f96565b6001600160a01b0316146119675760405162461bcd60e51b81526004016107a590611fb3565b6001600160a01b0381166000908152600760205260409020600481015460ff166119a35760405162461bcd60e51b81526004016107a59061201a565b60095460405163554c4f4b60e01b81526001600160a01b0384811660048301529091169063554c4f4b90602401602060405180830381865afa1580156119ed573d6000803e3d6000fd5b505050506040513d601f19601f82011682018060405250810190611a119190611fff565b15611a5e5760405162461bcd60e51b815260206004820181905260248201527f4167656e745374616b696e673a206167656e74207374696c6c2061637469766560448201526064016107a5565b8054600182018054600080855590915560048301805460ff191690558015611b3357600b546040516000916001600160a01b03169083908381818185875af1925050503d8060008114611acd576040519150601f19603f3d011682016040523d82523d6000602084013e611ad2565b606091505b5050905080611b315760405162461bcd60e51b815260206004820152602560248201527f4167656e745374616b696e673a20666f7266656974207472616e736665722066604482015264185a5b195960da1b60648201526084016107a5565b505b604051600090339084908381818185875af1925050503d8060008114611b75576040519150601f19603f3d011682016040523d82523d6000602084013e611b7a565b606091505b5050905080611bd95760405162461bcd60e51b815260206004820152602560248201527f4167656e745374616b696e673a20756e7374616b65207472616e736665722066604482015264185a5b195960da1b60648201526084016107a5565b60408051848152602081018490526001600160a01b038716917f7fc4727e062e336010f2c282598ef5f14facb3de68cf8195c2f23e1454b2b74e910160405180910390a25050505061116b60018055565b611c32611df6565b6001600160a01b038116611c5c57604051631e4fbdf760e01b8152600060048201526024016107a5565b61116b81611e4d565b600a546001600160a01b03163314611cca5760405162461bcd60e51b815260206004820152602260248201527f4167656e745374616b696e673a2063616c6c6572206973206e6f7420657363726044820152616f7760f01b60648201526084016107a5565b803414611d195760405162461bcd60e51b815260206004820152601c60248201527f4167656e745374616b696e673a2076616c7565206d69736d617463680000000060448201526064016107a5565b6001600160a01b03821660009081526007602052604090206004015460ff16611d845760405162461bcd60e51b815260206004820152601e60248201527f4167656e745374616b696e673a206167656e74206e6f74207374616b6564000060448201526064016107a5565b6001600160a01b03821660009081526007602052604081206001018054839290611daf908490611f83565b90915550506040518181526001600160a01b038316907fd10ba912a205167341ec37c567bc6385ce219f1c9044ee190d82aa39017180209060200160405180910390a25050565b6000546001600160a01b031633146113475760405163118cdaa760e01b81523360048201526024016107a5565b600260015403611e4657604051633ee5aeb560e01b815260040160405180910390fd5b6002600155565b600080546001600160a01b038381166001600160a01b0319831681178455604051919092169283917f8be0079c531659141344cd1fd0a4f28419497f9722a3daafe3b4186f6b6457e09190a35050565b6001600160a01b038116811461116b57600080fd5b600060208284031215611ec457600080fd5b8135611ecf81611e9d565b9392505050565b600060208284031215611ee857600080fd5b5035919050565b60008060408385031215611f0257600080fd5b8235611f0d81611e9d565b946020939093013593505050565b634e487b7160e01b600052601160045260246000fd5b8082028115828204841417611f4857611f48611f1b565b92915050565b600082611f6b57634e487b7160e01b600052601260045260246000fd5b500490565b81810381811115611f4857611f48611f1b565b80820180821115611f4857611f48611f1b565b600060208284031215611fa857600080fd5b8151611ecf81611e9d565b6020808252601b908201527f4167656e745374616b696e673a206e6f7420646576656c6f7065720000000000604082015260600190565b80518015158114611ffa57600080fd5b919050565b60006020828403121561201157600080fd5b611ecf82611fea565b60208082526018908201527f4167656e745374616b696e673a206e6f74207374616b65640000000000000000604082015260600190565b60008060006060848603121561206657600080fd5b8351925061207660208501611fea565b9150604084015190509250925092565b60006001820161209857612098611f1b565b506001019056fea2646970667358221220bca335c777c3cc967dffaa187da9ecf7a20ab5ebd2783380039727d6253885f364736f6c63430008180033",
  "linkReferences": {},
  "deployedLinkReferences": {}
}