{
  "_format": "hh-sol-artifact-1",
  "contractName": "AgentStaking",
  "sourceName": "contracts/AgentStaking.sol",
  "abi": [
    {
      "inputs": [
        {
          "internalType": "address",
          "name": "initialOwner",
          "type": "address"
        },
        {
          "internalType": "address",
          "name": "agentRegistry_",
          "type": "address"
        },
        {
          "internalType": "address",
          "name": "randomNumberV2_",
          "type": "address"
        },
        {
          "internalType": "uint256",
          "name": "minimumStake_",
          "type": "uint256"
        }
      ],
      "stateMutability": "nonpayable",
      "type": "constructor"
    },
    {
      "inputs": [
        {
          "internalType": "address",
          "name": "owner",
          "type": "address"
        }
      ],
      "name": "OwnableInvalidOwner",
      "type": "error"
    },
    {
      "inputs": [
        {
          "internalType": "address",
          "name": "account",
          "type": "address"
        }
      ],
      "name": "OwnableUnauthorizedAccount",
      "type": "error"
    },
    {
      "inputs": [],
      "name": "ReentrancyGuardReentrantCall",
      "type": "error"
    },
    {
      "anonymous": false,
      "inputs": [
        {
          "indexed": true,
          "internalType": "address",
          "name": "agent",
          "type": "address"
        },
        {
          "indexed": false,
          "internalType": "uint256",
          "name": "lostEarnings",
          "type": "uint256"
        }
      ],
      "name": "CashoutLoss",
      "type": "event"
    },
    {
      "anonymous": false,
      "inputs": [
        {
          "indexed": true,
          "internalType": "address",
          "name": "agent",
          "type": "address"
        },
        {
          "indexed": false,
          "internalType": "uint256",
          "name": "payout",
          "type": "uint256"
        }
      ],
      "name": "CashoutWin",
      "type": "event"
    },
    {
      "anonymous": false,
      "inputs": [
        {
          "indexed": true,
          "internalType": "address",
          "name": "agent",
          "type": "address"
        },
        {
          "indexed": false,
          "internalType": "uint256",
          "name": "amount",
          "type": "uint256"
        }
      ],
      "name": "EarningsCredited",
      "type": "event"
    },
    {
      "anonymous": false,
      "inputs": [
        {
          "indexed": true,
          "internalType": "address",
          "name": "escrow",
          "type": "address"
        }
      ],
      "name": "EscrowUpdated",
      "type": "event"
    },
    {
      "anonymous": false,
      "inputs": [
        {
          "indexed": false,
          "internalType": "uint256",
          "name": "newMinimum",
          "type": "uint256"
        }
      ],
      "name": "MinimumStakeUpdated",
      "type": "event"
    },
    {
      "anonymous": false,
      "inputs": [
        {
          "indexed": true,
          "internalType": "address",
          "name": "previousOwner",
          "type": "address"
        },
        {
          "indexed": true,
          "internalType": "address",
          "name": "newOwner",
          "type": "address"
        }
      ],
      "name": "OwnershipTransferred",
      "type": "event"
    },
    {
      "anonymous": false,
      "inputs": [
        {
          "indexed": true,
          "internalType": "address",
          "name": "agent",
          "type": "address"
        },
        {
          "indexed": false,
          "internalType": "uint256",
          "name": "amount",
          "type": "uint256"
        }
      ],
      "name": "Staked",
      "type": "event"
    },
    {
      "anonymous": false,
      "inputs": [
        {
          "indexed": true,
          "internalType": "address",
          "name": "agent",
          "type": "address"
        },
        {
          "indexed": false,
          "internalType": "uint256",
          "name": "amount",
          "type": "uint256"
        },
        {
          "indexed": false,
          "internalType": "uint256",
          "name": "forfeitedEarnings",
          "type": "uint256"
        }
      ],
      "name": "Unstaked",
      "type": "event"
    },
    {
      "inputs": [],
      "name": "agentRegistry",
      "outputs": [
        {
          "internalType": "contract AgentRegistry",
          "name": "",
          "type": "address"
        }
      ],
      "stateMutability": "view",
      "type": "function"
    },
    {
      "inputs": [],
      "name": "cashout",
      "outputs": [],
      "stateMutability": "nonpayable",
      "type": "function"
    },
    {
      "inputs": [
        {
          "internalType": "address",
          "name": "agent",
          "type": "address"
        },
        {
          "internalType": "uint256",
          "name": "amount",
          "type": "uint256"
        }
      ],
      "name": "creditEarnings",
      "outputs": [],
      "stateMutability": "payable",
      "type": "function"
    },
    {
      "inputs": [],
      "name": "escrow",
      "outputs": [
        {
          "internalType": "address",
          "name": "",
          "type": "address"
        }
      ],
      "stateMutability": "view",
      "type": "function"
    },
    {
      "inputs": [],
      "name": "getPoolSize",
      "outputs": [
        {
          "internalType": "uint256",
          "name": "",
          "type": "uint256"
        }
      ],
      "stateMutability": "view",
      "type": "function"
    },
    {
      "inputs": [
        {
          "internalType": "address",
          "name": "agent",
          "type": "address"
        }
      ],
      "name": "getStakeInfo",
      "outputs": [
        {
          "components": [
            {
              "internalType": "uint256",
              "name": "stakedAmount",
              "type": "uint256"
            },
            {
              "internalType": "uint256",
              "name": "accumulatedEarnings",
              "type": "uint256"
            },
            {
              "internalType": "uint256",
              "name": "wins",
              "type": "uint256"
            },
            {
              "internalType": "uint256",
              "name": "losses",
              "type": "uint256"
            },
            {
              "internalType": "bool",
              "name": "isStaked",
              "type": "bool"
            }
          ],
          "internalType": "struct AgentStaking.StakeInfo",
          "name": "",
          "type": "tuple"
        }
      ],
      "stateMutability": "view",
      "type": "function"
    },
    {
      "inputs": [
        {
          "internalType": "address",
          "name": "agent",
          "type": "address"
        }
      ],
      "name": "isStaked",
      "outputs": [
        {
          "internalType": "bool",
          "name": "",
          "type": "bool"
        }
      ],
      "stateMutability": "view",
      "type": "function"
    },
    {
      "inputs": [],
      "name": "lossPool",
      "outputs": [
        {
          "internalType": "uint256",
          "name": "",
          "type": "uint256"
        }
      ],
      "stateMutability": "view",
      "type": "function"
    },
    {
      "inputs": [],
      "name": "maxRandomAge",
      "outputs": [
        {
          "internalType": "uint256",
          "name": "",
          "type": "uint256"
        }
      ],
      "stateMutability": "view",
      "type": "function"
    },
    {
      "inputs": [],
      "name": "minimumStake",
      "outputs": [
        {
          "internalType": "uint256",
          "name": "",
          "type": "uint256"
        }
      ],
      "stateMutability": "view",
      "type": "function"
    },
    {
      "inputs": [],
      "name": "owner",
      "outputs": [
        {
          "internalType": "address",
          "name": "",
          "type": "address"
        }
      ],
      "stateMutability": "view",
      "type": "function"
    },
    {
      "inputs": [
        {
          "internalType": "address",
          "name": "agent",
          "type": "address"
        }
      ],
      "name": "previewCashout",
      "outputs": [
        {
          "internalType": "uint256",
          "name": "earnings",
          "type": "uint256"
        },
        {
          "internalType": "uint256",
          "name": "maxPayout",
          "type": "uint256"
        }
      ],
      "stateMutability": "view",
      "type": "function"
    },
    {
      "inputs": [],
      "name": "randomNumberV2",
      "outputs": [
        {
          "internalType": "contract IRandomNumberV2",
          "name": "",
          "type": "address"
        }
      ],
      "stateMutability": "view",
      "type": "function"
    },
    {
      "inputs": [],
      "name": "renounceOwnership",
      "outputs": [],
      "stateMutability": "nonpayable",
      "type": "function"
    },
    {
      "inputs": [
        {
          "internalType": "address",
          "name": "escrow_",
          "type": "address"
        }
      ],
      "name": "setEscrow",
      "outputs": [],
      "stateMutability": "nonpayable",
      "type": "function"
    },
    {
      "inputs": [
        {
          "internalType": "uint256",
          "name": "maxAge",
          "type": "uint256"
        }
      ],
      "name": "setMaxRandomAge",
      "outputs": [],
      "stateMutability": "nonpayable",
      "type": "function"
    },
    {
      "inputs": [
        {
          "internalType": "uint256",
          "name": "minimumStake_",
          "type": "uint256"
        }
      ],
      "name": "setMinimumStake",
      "outputs": [],
      "stateMutability": "nonpayable",
      "type": "function"
    },
    {
      "inputs": [],
      "name": "stake",
      "outputs": [],
      "stateMutability": "payable",
      "type": "function"
    },
    {
      "inputs": [
        {
          "internalType": "address",
          "name": "",
          "type": "address"
        }
      ],
      "name": "stakes",
      "outputs": [
        {
          "internalType": "uint256",
          "name": "stakedAmount",
          "type": "uint256"
        },
        {
          "internalType": "uint256",
          "name": "accumulatedEarnings",
          "type": "uint256"
        },
        {
          "internalType": "uint256",
          "name": "wins",
          "type": "uint256"
        },
        {
          "internalType": "uint256",
          "name": "losses",
          "type": "uint256"
        },
        {
          "internalType": "bool",
          "name": "isStaked",
          "type": "bool"
        }
      ],
      "stateMutability": "view",
      "type": "function"
    },
    {
      "inputs": [
        {
          "internalType": "address",
          "name": "newOwner",
          "type": "address"
        }
      ],
      "name": "transferOwnership",
      "outputs": [],
      "stateMutability": "nonpayable",
      "type": "function"
    },
    {
      "inputs": [],
      "name": "unstake",
      "outputs": [],
      "stateMutability": "nonpayable",
      "type": "function"
    },
    {
      "stateMutability": "payable",
      "type": "receive"
    }
  ],
  "bytecode": "0x60806040523480156200001157600080fd5b506040516200137c3803806200137c833981016040819052620000349162000120565b836001600160a01b0381166200006457604051631e4fbdf760e01b81526000600482015260240160405180910390fd5b6200006f81620000b3565b5060018055600780546001600160a01b039485166001600160a01b031991821617909155600680549390941692169190911790915560025550607860045562000172565b600080546001600160a01b038381166001600160a01b0319831681178455604051919092169283917f8be0079c531659141344cd1fd0a4f28419497f9722a3daafe3b4186f6b6457e09190a35050565b80516001600160a01b03811681146200011b57600080fd5b919050565b600080600080608085870312156200013757600080fd5b620001428562000103565b9350620001526020860162000103565b9250620001626040860162000103565b6060959095015193969295505050565b6111fa80620001826000396000f3fe60806040526004361061012e5760003560e01c80636671459b116100ab578063c34531531161006f578063c345315314610385578063e2fdcc17146103e9578063e98dc5ee14610409578063ec5ffac214610429578063f2fde38b1461043f578063f953f6451461045f57600080fd5b80636671459b14610307578063715018a61461031d57806384054d3d146103325780638da5cb5b14610347578063c10c35461461036557600080fd5b806323845e4b116100f257806323845e4b146102695780632def66201461027e5780633a4b66f11461029357806358b8e0981461029b5780636177fd18146102bb57600080fd5b806307cfead81461013a5780630adda68c146101635780630d1cfcae1461019857806316934fc4146101d0578063233e99031461024757600080fd5b3661013557005b600080fd5b34801561014657600080fd5b5061015060045481565b6040519081526020015b60405180910390f35b34801561016f57600080fd5b5061018361017e3660046110a4565b610472565b6040805192835260208301919091520161015a565b3480156101a457600080fd5b506007546101b8906001600160a01b031681565b6040516001600160a01b03909116815260200161015a565b3480156101dc57600080fd5b5061021d6101eb3660046110a4565b600560205260009081526040902080546001820154600283015460038401546004909401549293919290919060ff1685565b6040805195865260208601949094529284019190915260608301521515608082015260a00161015a565b34801561025357600080fd5b506102676102623660046110c6565b6104b4565b005b34801561027557600080fd5b50600354610150565b34801561028a57600080fd5b506102676104f7565b610267610741565b3480156102a757600080fd5b506102676102b63660046110c6565b610964565b3480156102c757600080fd5b506102f76102d63660046110a4565b6001600160a01b031660009081526005602052604090206004015460ff1690565b604051901515815260200161015a565b34801561031357600080fd5b5061015060035481565b34801561032957600080fd5b50610267610971565b34801561033e57600080fd5b50610267610983565b34801561035357600080fd5b506000546001600160a01b03166101b8565b34801561037157600080fd5b506102676103803660046110a4565b610d2f565b34801561039157600080fd5b506103a56103a03660046110a4565b610d81565b60405161015a9190600060a0820190508251825260208301516020830152604083015160408301526060830151606083015260808301511515608083015292915050565b3480156103f557600080fd5b506008546101b8906001600160a01b031681565b34801561041557600080fd5b506006546101b8906001600160a01b031681565b34801561043557600080fd5b5061015060025481565b34801561044b57600080fd5b5061026761045a3660046110a4565b610e12565b61026761046d3660046110df565b610e50565b6001600160a01b03811660009081526005602052604081206001015460035490919082908111156104a257506003545b6104ac818461111f565b915050915091565b6104bc610fe1565b60028190556040518181527ff4045d7dd317de89564c3f12c35961242ed2a4dce3ae4e7a75847ffa04bb08349060200160405180910390a150565b6104ff61100e565b336000908152600560205260409020600481015460ff166105625760405162461bcd60e51b81526020600482015260186024820152771059d95b9d14dd185ada5b99ce881b9bdd081cdd185ad95960421b60448201526064015b60405180910390fd5b60075460405163554c4f4b60e01b81523360048201526001600160a01b039091169063554c4f4b90602401602060405180830381865afa1580156105aa573d6000803e3d6000fd5b505050506040513d601f19601f820116820180604052508101906105ce9190611148565b1561061b5760405162461bcd60e51b815260206004820181905260248201527f4167656e745374616b696e673a206167656e74207374696c6c206163746976656044820152606401610559565b805460018201546003805482919060009061063790849061111f565b909155505060008084556001840181905560048401805460ff19169055604051339084908381818185875af1925050503d8060008114610693576040519150601f19603f3d011682016040523d82523d6000602084013e610698565b606091505b50509050806106f75760405162461bcd60e51b815260206004820152602560248201527f4167656e745374616b696e673a20756e7374616b65207472616e736665722066604482015264185a5b195960da1b6064820152608401610559565b604080518481526020810184905233917f7fc4727e062e336010f2c282598ef5f14facb3de68cf8195c2f23e1454b2b74e910160405180910390a25050505061073f60018055565b565b60025434101561079d5760405162461bcd60e51b815260206004820152602160248201527f4167656e745374616b696e673a2062656c6f77206d696e696d756d207374616b6044820152606560f81b6064820152608401610559565b3360009081526005602052604090206004015460ff16156108005760405162461bcd60e51b815260206004820152601c60248201527f4167656e745374616b696e673a20616c7265616479207374616b6564000000006044820152606401610559565b60075460405163554c4f4b60e01b81523360048201526001600160a01b039091169063554c4f4b90602401602060405180830381865afa158015610848573d6000803e3d6000fd5b505050506040513d601f19601f8201168201806040525081019061086c9190611148565b6108cb5760405162461bcd60e51b815260206004820152602a60248201527f4167656e745374616b696e673a206167656e74206e6f742061637469766520696044820152696e20726567697374727960b01b6064820152608401610559565b6040805160a0810182523480825260006020808401828152848601838152606086018481526001608088018181523380885260058752968a90209851895593519088015590516002870155516003860155516004909401805460ff19169415159490941790935592519081527f9e71bc8eea02a63969f509818f2dafb9254532904319f9dbda79b67bd34a5f3d910160405180910390a2565b61096c610fe1565b600455565b610979610fe1565b61073f6000611038565b61098b61100e565b336000908152600560205260409020600481015460ff166109e95760405162461bcd60e51b81526020600482015260186024820152771059d95b9d14dd185ada5b99ce881b9bdd081cdd185ad95960421b6044820152606401610559565b6000816001015411610a3d5760405162461bcd60e51b815260206004820152601960248201527f4167656e745374616b696e673a206e6f206561726e696e6773000000000000006044820152606401610559565b6000806000600660009054906101000a90046001600160a01b03166001600160a01b031663dbdff2c16040518163ffffffff1660e01b8152600401606060405180830381865afa158015610a95573d6000803e3d6000fd5b505050506040513d601f19601f82011682018060405250810190610ab99190611163565b92509250925081610b1b5760405162461bcd60e51b815260206004820152602660248201527f4167656e745374616b696e673a2072616e646f6d206e756d626572206e6f742060448201526573656375726560d01b6064820152608401610559565b600454610b288242611198565b1115610b845760405162461bcd60e51b815260206004820152602560248201527f4167656e745374616b696e673a2072616e646f6d206e756d62657220746f6f206044820152647374616c6560d81b6064820152608401610559565b600180850180546000918290559185169003610cbd576003548190811115610bab57506003545b8060036000828254610bbd9190611198565b9091555060009050610bcf828461111f565b6002880180549192506000610be3836111ab565b9091555050604051600090339083908381818185875af1925050503d8060008114610c2a576040519150601f19603f3d011682016040523d82523d6000602084013e610c2f565b606091505b5050905080610c805760405162461bcd60e51b815260206004820152601b60248201527f4167656e745374616b696e673a207061796f7574206661696c656400000000006044820152606401610559565b60405182815233907fb98b8097282aa0670abc285d666e672f024ff89138fd0bb8cc5a2ee25a4f18429060200160405180910390a2505050610d21565b8060036000828254610ccf919061111f565b9091555050600385018054906000610ce6836111ab565b909155505060405181815233907fd25494c4cd2c97c4f378637bc35937ce2cde5e51ab266d7499e9f407d0d6faad9060200160405180910390a25b505050505061073f60018055565b610d37610fe1565b600880546001600160a01b0319166001600160a01b0383169081179091556040517f43ab431641dd45dd0661cad4b820e826d7c526af92e3121e1242d721f82ab3ad90600090a250565b610db56040518060a00160405280600081526020016000815260200160008152602001600081526020016000151581525090565b506001600160a01b0316600090815260056020908152604091829020825160a081018452815481526001820154928101929092526002810154928201929092526003820154606082015260049091015460ff161515608082015290565b610e1a610fe1565b6001600160a01b038116610e4457604051631e4fbdf760e01b815260006004820152602401610559565b610e4d81611038565b50565b6008546001600160a01b03163314610eb55760405162461bcd60e51b815260206004820152602260248201527f4167656e745374616b696e673a2063616c6c6572206973206e6f7420657363726044820152616f7760f01b6064820152608401610559565b803414610f045760405162461bcd60e51b815260206004820152601c60248201527f4167656e745374616b696e673a2076616c7565206d69736d61746368000000006044820152606401610559565b6001600160a01b03821660009081526005602052604090206004015460ff16610f6f5760405162461bcd60e51b815260206004820152601e60248201527f4167656e745374616b696e673a206167656e74206e6f74207374616b656400006044820152606401610559565b6001600160a01b03821660009081526005602052604081206001018054839290610f9a90849061111f565b90915550506040518181526001600160a01b038316907fd10ba912a205167341ec37c567bc6385ce219f1c9044ee190d82aa39017180209060200160405180910390a25050565b6000546001600160a01b0316331461073f5760405163118cdaa760e01b8152336004820152602401610559565b60026001540361103157604051633ee5aeb560e01b815260040160405180910390fd5b6002600155565b600080546001600160a01b038381166001600160a01b0319831681178455604051919092169283917f8be0079c531659141344cd1fd0a4f28419497f9722a3daafe3b4186f6b6457e09190a35050565b80356001600160a01b038116811461109f57600080fd5b919050565b6000602082840312156110b657600080fd5b6110bf82611088565b9392505050565b6000602082840312156110d857600080fd5b5035919050565b600080604083850312156110f257600080fd5b6110fb83611088565b946020939093013593505050565b634e487b7160e01b600052601160045260246000fd5b8082018082111561113257611132611109565b92915050565b8051801515811461109f57600080fd5b60006020828403121561115a57600080fd5b6110bf82611138565b60008060006060848603121561117857600080fd5b8351925061118860208501611138565b9150604084015190509250925092565b8181038181111561113257611132611109565b6000600182016111bd576111bd611109565b506001019056fea2646970667358221220d6ad8859a5c7daf9285a5d2503aaadbd6efe8c6e650bca8688274f40c0889a2a64736f6c63430008180033",
  "linkReferences": {},
  "deployedLinkReferences": {}
}