{
  "_format": "hh-sol-artifact-1",
  "contractName": "AgentStaking",
  "sourceName": "contracts/AgentStaking.sol",
  "abi": [
    {
      "inputs": [
        {
          "internalType": "address",
          "name": "initialOwner",
          "type": "address"
        },
        {
          "internalType": "address",
          "name": "agentRegistry_",
          "type": "address"
        },
        {
          "internalType": "address",
          "name": "randomNumberV2_",
          "type": "address"
        },
        {
          "internalType": "uint256",
          "name": "minimumStake_",
          "type": "uint256"
        }
      ],
      "stateMutability": "nonpayable",
      "type": "constructor"
    },
    {
      "inputs": [
        {
          "internalType": "address",
          "name": "owner",
          "type": "address"
        }
      ],
      "name": "OwnableInvalidOwner",
      "type": "error"
    },
    {
      "inputs": [
        {
          "internalType": "address",
          "name": "account",
          "type": "address"
        }
      ],
      "name": "OwnableUnauthorizedAccount",
      "type": "error"
    },
    {
      "inputs": [],
      "name": "ReentrancyGuardReentrantCall",
      "type": "error"
    },
    {
      "anonymous": false,
      "inputs": [
        {
          "indexed": true,
          "internalType": "address",
          "name": "agent",
          "type": "address"
        },
        {
          "indexed": false,
          "internalType": "uint256",
          "name": "lostEarnings",
          "type": "uint256"
        }
      ],
      "name": "CashoutLoss",
      "type": "event"
    },
    {
      "anonymous": false,
      "inputs": [
        {
          "indexed": true,
          "internalType": "address",
          "name": "agent",
          "type": "address"
        },
        {
          "indexed": false,
          "internalType": "uint256",
          "name": "payout",
          "type": "uint256"
        }
      ],
      "name": "CashoutWin",
      "type": "event"
    },
    {
      "anonymous": false,
      "inputs": [
        {
          "indexed": true,
          "internalType": "address",
          "name": "agent",
          "type": "address"
        },
        {
          "indexed": false,
          "internalType": "uint256",
          "name": "amount",
          "type": "uint256"
        }
      ],
      "name": "EarningsCredited",
      "type": "event"
    },
    {
      "anonymous": false,
      "inputs": [
        {
          "indexed": true,
          "internalType": "address",
          "name": "escrow",
          "type": "address"
        }
      ],
      "name": "EscrowUpdated",
      "type": "event"
    },
    {
      "anonymous": false,
      "inputs": [
        {
          "indexed": false,
          "internalType": "uint256",
          "name": "newMinimum",
          "type": "uint256"
        }
      ],
      "name": "MinimumStakeUpdated",
      "type": "event"
    },
    {
      "anonymous": false,
      "inputs": [
        {
          "indexed": true,
          "internalType": "address",
          "name": "previousOwner",
          "type": "address"
        },
        {
          "indexed": true,
          "internalType": "address",
          "name": "newOwner",
          "type": "address"
        }
      ],
      "name": "OwnershipTransferred",
      "type": "event"
    },
    {
      "anonymous": false,
      "inputs": [
        {
          "indexed": true,
          "internalType": "address",
          "name": "agent",
          "type": "address"
        },
        {
          "indexed": false,
          "internalType": "uint256",
          "name": "amount",
          "type": "uint256"
        }
      ],
      "name": "Staked",
      "type": "event"
    },
    {
      "anonymous": false,
      "inputs": [
        {
          "indexed": true,
          "internalType": "address",
          "name": "agent",
          "type": "address"
        },
        {
          "indexed": false,
          "internalType": "uint256",
          "name": "amount",
          "type": "uint256"
        },
        {
          "indexed": false,
          "internalType": "uint256",
          "name": "forfeitedEarnings",
          "type": "uint256"
        }
      ],
      "name": "Unstaked",
      "type": "event"
    },
    {
      "inputs": [],
      "name": "agentRegistry",
      "outputs": [
        {
          "internalType": "contract AgentRegistry",
          "name": "",
          "type": "address"
        }
      ],
      "stateMutability": "view",
      "type": "function"
    },
    {
      "inputs": [
        {
          "internalType": "address",
          "name": "agent",
          "type": "address"
        }
      ],
      "name": "cashout",
      "outputs": [],
      "stateMutability": "nonpayable",
      "type": "function"
    },
    {
      "inputs": [
        {
          "internalType": "address",
          "name": "agent",
          "type": "address"
        },
        {
          "internalType": "uint256",
          "name": "amount",
          "type": "uint256"
        }
      ],
      "name": "creditEarnings",
      "outputs": [],
      "stateMutability": "payable",
      "type": "function"
    },
    {
      "inputs": [],
      "name": "escrow",
      "outputs": [
        {
          "internalType": "address",
          "name": "",
          "type": "address"
        }
      ],
      "stateMutability": "view",
      "type": "function"
    },
    {
      "inputs": [],
      "name": "getPoolSize",
      "outputs": [
        {
          "internalType": "uint256",
          "name": "",
          "type": "uint256"
        }
      ],
      "stateMutability": "view",
      "type": "function"
    },
    {
      "inputs": [
        {
          "internalType": "address",
          "name": "agent",
          "type": "address"
        }
      ],
      "name": "getStakeInfo",
      "outputs": [
        {
          "components": [
            {
              "internalType": "uint256",
              "name": "stakedAmount",
              "type": "uint256"
            },
            {
              "internalType": "uint256",
              "name": "accumulatedEarnings",
              "type": "uint256"
            },
            {
              "internalType": "uint256",
              "name": "wins",
              "type": "uint256"
            },
            {
              "internalType": "uint256",
              "name": "losses",
              "type": "uint256"
            },
            {
              "internalType": "bool",
              "name": "isStaked",
              "type": "bool"
            }
          ],
          "internalType": "struct AgentStaking.StakeInfo",
          "name": "",
          "type": "tuple"
        }
      ],
      "stateMutability": "view",
      "type": "function"
    },
    {
      "inputs": [
        {
          "internalType": "address",
          "name": "agent",
          "type": "address"
        }
      ],
      "name": "isStaked",
      "outputs": [
        {
          "internalType": "bool",
          "name": "",
          "type": "bool"
        }
      ],
      "stateMutability": "view",
      "type": "function"
    },
    {
      "inputs": [],
      "name": "lossPool",
      "outputs": [
        {
          "internalType": "uint256",
          "name": "",
          "type": "uint256"
        }
      ],
      "stateMutability": "view",
      "type": "function"
    },
    {
      "inputs": [],
      "name": "maxRandomAge",
      "outputs": [
        {
          "internalType": "uint256",
          "name": "",
          "type": "uint256"
        }
      ],
      "stateMutability": "view",
      "type": "function"
    },
    {
      "inputs": [],
      "name": "minimumStake",
      "outputs": [
        {
          "internalType": "uint256",
          "name": "",
          "type": "uint256"
        }
      ],
      "stateMutability": "view",
      "type": "function"
    },
    {
      "inputs": [],
      "name": "owner",
      "outputs": [
        {
          "internalType": "address",
          "name": "",
          "type": "address"
        }
      ],
      "stateMutability": "view",
      "type": "function"
    },
    {
      "inputs": [
        {
          "internalType": "address",
          "name": "agent",
          "type": "address"
        }
      ],
      "name": "previewCashout",
      "outputs": [
        {
          "internalType": "uint256",
          "name": "earnings",
          "type": "uint256"
        },
        {
          "internalType": "uint256",
          "name": "maxPayout",
          "type": "uint256"
        }
      ],
      "stateMutability": "view",
      "type": "function"
    },
    {
      "inputs": [],
      "name": "randomNumberV2",
      "outputs": [
        {
          "internalType": "contract IRandomNumberV2",
          "name": "",
          "type": "address"
        }
      ],
      "stateMutability": "view",
      "type": "function"
    },
    {
      "inputs": [],
      "name": "renounceOwnership",
      "outputs": [],
      "stateMutability": "nonpayable",
      "type": "function"
    },
    {
      "inputs": [
        {
          "internalType": "address",
          "name": "escrow_",
          "type": "address"
        }
      ],
      "name": "setEscrow",
      "outputs": [],
      "stateMutability": "nonpayable",
      "type": "function"
    },
    {
      "inputs": [
        {
          "internalType": "uint256",
          "name": "maxAge",
          "type": "uint256"
        }
      ],
      "name": "setMaxRandomAge",
      "outputs": [],
      "stateMutability": "nonpayable",
      "type": "function"
    },
    {
      "inputs": [
        {
          "internalType": "uint256",
          "name": "minimumStake_",
          "type": "uint256"
        }
      ],
      "name": "setMinimumStake",
      "outputs": [],
      "stateMutability": "nonpayable",
      "type": "function"
    },
    {
      "inputs": [
        {
          "internalType": "address",
          "name": "agent",
          "type": "address"
        }
      ],
      "name": "stake",
      "outputs": [],
      "stateMutability": "payable",
      "type": "function"
    },
    {
      "inputs": [
        {
          "internalType": "address",
          "name": "",
          "type": "address"
        }
      ],
      "name": "stakes",
      "outputs": [
        {
          "internalType": "uint256",
          "name": "stakedAmount",
          "type": "uint256"
        },
        {
          "internalType": "uint256",
          "name": "accumulatedEarnings",
          "type": "uint256"
        },
        {
          "internalType": "uint256",
          "name": "wins",
          "type": "uint256"
        },
        {
          "internalType": "uint256",
          "name": "losses",
          "type": "uint256"
        },
        {
          "internalType": "bool",
          "name": "isStaked",
          "type": "bool"
        }
      ],
      "stateMutability": "view",
      "type": "function"
    },
    {
      "inputs": [
        {
          "internalType": "address",
          "name": "newOwner",
          "type": "address"
        }
      ],
      "name": "transferOwnership",
      "outputs": [],
      "stateMutability": "nonpayable",
      "type": "function"
    },
    {
      "inputs": [
        {
          "internalType": "address",
          "name": "agent",
          "type": "address"
        }
      ],
      "name": "unstake",
      "outputs": [],
      "stateMutability": "nonpayable",
      "type": "function"
    },
    {
      "stateMutability": "payable",
      "type": "receive"
    }
  ],
  "bytecode": "0x60806040523480156200001157600080fd5b506040516200160138038062001601833981016040819052620000349162000120565b836001600160a01b0381166200006457604051631e4fbdf760e01b81526000600482015260240160405180910390fd5b6200006f81620000b3565b5060018055600780546001600160a01b039485166001600160a01b031991821617909155600680549390941692169190911790915560025550607860045562000172565b600080546001600160a01b038381166001600160a01b0319831681178455604051919092169283917f8be0079c531659141344cd1fd0a4f28419497f9722a3daafe3b4186f6b6457e09190a35050565b80516001600160a01b03811681146200011b57600080fd5b919050565b600080600080608085870312156200013757600080fd5b620001428562000103565b9350620001526020860162000103565b9250620001626040860162000103565b6060959095015193969295505050565b61147f80620001826000396000f3fe60806040526004361061012e5760003560e01c80636671459b116100ab578063e2fdcc171161006f578063e2fdcc17146103ea578063e98dc5ee1461040a578063ec5ffac21461042a578063f2888dbb14610440578063f2fde38b14610460578063f953f6451461048057600080fd5b80636671459b1461031d578063715018a6146103335780638da5cb5b14610348578063c10c354614610366578063c34531531461038657600080fd5b806323845e4b116100f257806323845e4b14610269578063264762041461027e5780634846ff7e1461029157806358b8e098146102b15780636177fd18146102d157600080fd5b806307cfead81461013a5780630adda68c146101635780630d1cfcae1461019857806316934fc4146101d0578063233e99031461024757600080fd5b3661013557005b600080fd5b34801561014657600080fd5b5061015060045481565b6040519081526020015b60405180910390f35b34801561016f57600080fd5b5061018361017e3660046112cc565b610493565b6040805192835260208301919091520161015a565b3480156101a457600080fd5b506007546101b8906001600160a01b031681565b6040516001600160a01b03909116815260200161015a565b3480156101dc57600080fd5b5061021d6101eb3660046112cc565b600560205260009081526040902080546001820154600283015460038401546004909401549293919290919060ff1685565b6040805195865260208601949094529284019190915260608301521515608082015260a00161015a565b34801561025357600080fd5b506102676102623660046112f0565b6104d5565b005b34801561027557600080fd5b50600354610150565b61026761028c3660046112cc565b610518565b34801561029d57600080fd5b506102676102ac3660046112cc565b6107ed565b3480156102bd57600080fd5b506102676102cc3660046112f0565b610c55565b3480156102dd57600080fd5b5061030d6102ec3660046112cc565b6001600160a01b031660009081526005602052604090206004015460ff1690565b604051901515815260200161015a565b34801561032957600080fd5b5061015060035481565b34801561033f57600080fd5b50610267610c62565b34801561035457600080fd5b506000546001600160a01b03166101b8565b34801561037257600080fd5b506102676103813660046112cc565b610c76565b34801561039257600080fd5b506103a66103a13660046112cc565b610cc8565b60405161015a9190600060a0820190508251825260208301516020830152604083015160408301526060830151606083015260808301511515608083015292915050565b3480156103f657600080fd5b506008546101b8906001600160a01b031681565b34801561041657600080fd5b506006546101b8906001600160a01b031681565b34801561043657600080fd5b5061015060025481565b34801561044c57600080fd5b5061026761045b3660046112cc565b610d59565b34801561046c57600080fd5b5061026761047b3660046112cc565b611044565b61026761048e366004611309565b61107f565b6001600160a01b03811660009081526005602052604081206001015460035490919082908111156104c357506003545b6104cd818461134b565b915050915091565b6104dd611210565b60028190556040518181527ff4045d7dd317de89564c3f12c35961242ed2a4dce3ae4e7a75847ffa04bb08349060200160405180910390a150565b60075460405163033f09f760e51b81526001600160a01b038381166004830152339216906367e13ee090602401602060405180830381865afa158015610562573d6000803e3d6000fd5b505050506040513d601f19601f820116820180604052508101906105869190611364565b6001600160a01b0316146105b55760405162461bcd60e51b81526004016105ac90611381565b60405180910390fd5b6002543410156106115760405162461bcd60e51b815260206004820152602160248201527f4167656e745374616b696e673a2062656c6f77206d696e696d756d207374616b6044820152606560f81b60648201526084016105ac565b6001600160a01b03811660009081526005602052604090206004015460ff161561067d5760405162461bcd60e51b815260206004820152601c60248201527f4167656e745374616b696e673a20616c7265616479207374616b65640000000060448201526064016105ac565b60075460405163554c4f4b60e01b81526001600160a01b0383811660048301529091169063554c4f4b90602401602060405180830381865afa1580156106c7573d6000803e3d6000fd5b505050506040513d601f19601f820116820180604052508101906106eb91906113cd565b61074a5760405162461bcd60e51b815260206004820152602a60248201527f4167656e745374616b696e673a206167656e74206e6f742061637469766520696044820152696e20726567697374727960b01b60648201526084016105ac565b6040805160a0810182523480825260006020808401828152848601838152606086018481526001608088018181526001600160a01b038b1680885260058752968a90209851895593519088015590516002870155516003860155516004909401805460ff19169415159490941790935592519081527f9e71bc8eea02a63969f509818f2dafb9254532904319f9dbda79b67bd34a5f3d910160405180910390a250565b6107f561123d565b60075460405163033f09f760e51b81526001600160a01b038381166004830152339216906367e13ee090602401602060405180830381865afa15801561083f573d6000803e3d6000fd5b505050506040513d601f19601f820116820180604052508101906108639190611364565b6001600160a01b0316146108895760405162461bcd60e51b81526004016105ac90611381565b6001600160a01b0381166000908152600560205260409020600481015460ff166108f05760405162461bcd60e51b81526020600482015260186024820152771059d95b9d14dd185ada5b99ce881b9bdd081cdd185ad95960421b60448201526064016105ac565b60008160010154116109445760405162461bcd60e51b815260206004820152601960248201527f4167656e745374616b696e673a206e6f206561726e696e67730000000000000060448201526064016105ac565b6000806000600660009054906101000a90046001600160a01b03166001600160a01b031663dbdff2c16040518163ffffffff1660e01b8152600401606060405180830381865afa15801561099c573d6000803e3d6000fd5b505050506040513d601f19601f820116820180604052508101906109c091906113e8565b92509250925081610a225760405162461bcd60e51b815260206004820152602660248201527f4167656e745374616b696e673a2072616e646f6d206e756d626572206e6f742060448201526573656375726560d01b60648201526084016105ac565b600454610a2f824261141d565b1115610a8b5760405162461bcd60e51b815260206004820152602560248201527f4167656e745374616b696e673a2072616e646f6d206e756d62657220746f6f206044820152647374616c6560d81b60648201526084016105ac565b600180850180546000918290559185169003610bd2576003548190811115610ab257506003545b8060036000828254610ac4919061141d565b9091555060009050610ad6828461134b565b6002880180549192506000610aea83611430565b9091555050604051600090339083908381818185875af1925050503d8060008114610b31576040519150601f19603f3d011682016040523d82523d6000602084013e610b36565b606091505b5050905080610b875760405162461bcd60e51b815260206004820152601b60248201527f4167656e745374616b696e673a207061796f7574206661696c6564000000000060448201526064016105ac565b886001600160a01b03167fb98b8097282aa0670abc285d666e672f024ff89138fd0bb8cc5a2ee25a4f184283604051610bc291815260200190565b60405180910390a2505050610c44565b8060036000828254610be4919061134b565b9091555050600385018054906000610bfb83611430565b9190505550856001600160a01b03167fd25494c4cd2c97c4f378637bc35937ce2cde5e51ab266d7499e9f407d0d6faad82604051610c3b91815260200190565b60405180910390a25b5050505050610c5260018055565b50565b610c5d611210565b600455565b610c6a611210565b610c746000611267565b565b610c7e611210565b600880546001600160a01b0319166001600160a01b0383169081179091556040517f43ab431641dd45dd0661cad4b820e826d7c526af92e3121e1242d721f82ab3ad90600090a250565b610cfc6040518060a00160405280600081526020016000815260200160008152602001600081526020016000151581525090565b506001600160a01b0316600090815260056020908152604091829020825160a081018452815481526001820154928101929092526002810154928201929092526003820154606082015260049091015460ff161515608082015290565b610d6161123d565b60075460405163033f09f760e51b81526001600160a01b038381166004830152339216906367e13ee090602401602060405180830381865afa158015610dab573d6000803e3d6000fd5b505050506040513d601f19601f82011682018060405250810190610dcf9190611364565b6001600160a01b031614610df55760405162461bcd60e51b81526004016105ac90611381565b6001600160a01b0381166000908152600560205260409020600481015460ff16610e5c5760405162461bcd60e51b81526020600482015260186024820152771059d95b9d14dd185ada5b99ce881b9bdd081cdd185ad95960421b60448201526064016105ac565b60075460405163554c4f4b60e01b81526001600160a01b0384811660048301529091169063554c4f4b90602401602060405180830381865afa158015610ea6573d6000803e3d6000fd5b505050506040513d601f19601f82011682018060405250810190610eca91906113cd565b15610f175760405162461bcd60e51b815260206004820181905260248201527f4167656e745374616b696e673a206167656e74207374696c6c2061637469766560448201526064016105ac565b8054600182015460038054829190600090610f3390849061134b565b909155505060008084556001840181905560048401805460ff19169055604051339084908381818185875af1925050503d8060008114610f8f576040519150601f19603f3d011682016040523d82523d6000602084013e610f94565b606091505b5050905080610ff35760405162461bcd60e51b815260206004820152602560248201527f4167656e745374616b696e673a20756e7374616b65207472616e736665722066604482015264185a5b195960da1b60648201526084016105ac565b60408051848152602081018490526001600160a01b038716917f7fc4727e062e336010f2c282598ef5f14facb3de68cf8195c2f23e1454b2b74e910160405180910390a250505050610c5260018055565b61104c611210565b6001600160a01b03811661107657604051631e4fbdf760e01b8152600060048201526024016105ac565b610c5281611267565b6008546001600160a01b031633146110e45760405162461bcd60e51b815260206004820152602260248201527f4167656e745374616b696e673a2063616c6c6572206973206e6f7420657363726044820152616f7760f01b60648201526084016105ac565b8034146111335760405162461bcd60e51b815260206004820152601c60248201527f4167656e745374616b696e673a2076616c7565206d69736d617463680000000060448201526064016105ac565b6001600160a01b03821660009081526005602052604090206004015460ff1661119e5760405162461bcd60e51b815260206004820152601e60248201527f4167656e745374616b696e673a206167656e74206e6f74207374616b6564000060448201526064016105ac565b6001600160a01b038216600090815260056020526040812060010180548392906111c990849061134b565b90915550506040518181526001600160a01b038316907fd10ba912a205167341ec37c567bc6385ce219f1c9044ee190d82aa39017180209060200160405180910390a25050565b6000546001600160a01b03163314610c745760405163118cdaa760e01b81523360048201526024016105ac565b60026001540361126057604051633ee5aeb560e01b815260040160405180910390fd5b6002600155565b600080546001600160a01b038381166001600160a01b0319831681178455604051919092169283917f8be0079c531659141344cd1fd0a4f28419497f9722a3daafe3b4186f6b6457e09190a35050565b6001600160a01b0381168114610c5257600080fd5b6000602082840312156112de57600080fd5b81356112e9816112b7565b9392505050565b60006020828403121561130257600080fd5b5035919050565b6000806040838503121561131c57600080fd5b8235611327816112b7565b946020939093013593505050565b634e487b7160e01b600052601160045260246000fd5b8082018082111561135e5761135e611335565b92915050565b60006020828403121561137657600080fd5b81516112e9816112b7565b6020808252601b908201527f4167656e745374616b696e673a206e6f7420646576656c6f7065720000000000604082015260600190565b805180151581146113c857600080fd5b919050565b6000602082840312156113df57600080fd5b6112e9826113b8565b6000806000606084860312156113fd57600080fd5b8351925061140d602085016113b8565b9150604084015190509250925092565b8181038181111561135e5761135e611335565b60006001820161144257611442611335565b506001019056fea2646970667358221220435424b7038e9c7affbaba93d6385afb260553f8d98fbeff58b037042d9c448864736f6c63430008180033",
  "linkReferences": {},
  "deployedLinkReferences": {}
}