{
  "_format": "hh-sol-artifact-1",
  "contractName": "FlareEscrow",
  "sourceName": "contracts/FlareEscrow.sol",
  "abi": [
    {
      "inputs": [
        {
          "internalType": "address",
          "name": "initialOwner",
          "type": "address"
        },
        {
          "internalType": "address",
          "name": "ftsoConsumer",
          "type": "address"
        },
        {
          "internalType": "address",
          "name": "feeCollector_",
          "type": "address"
        }
      ],
      "stateMutability": "nonpayable",
      "type": "constructor"
    },
    {
      "inputs": [
        {
          "internalType": "address",
          "name": "owner",
          "type": "address"
        }
      ],
      "name": "OwnableInvalidOwner",
      "type": "error"
    },
    {
      "inputs": [
        {
          "internalType": "address",
          "name": "account",
          "type": "address"
        }
      ],
      "name": "OwnableUnauthorizedAccount",
      "type": "error"
    },
    {
      "inputs": [],
      "name": "ReentrancyGuardReentrantCall",
      "type": "error"
    },
    {
      "inputs": [
        {
          "internalType": "address",
          "name": "token",
          "type": "address"
        }
      ],
      "name": "SafeERC20FailedOperation",
      "type": "error"
    },
    {
      "anonymous": false,
      "inputs": [
        {
          "indexed": true,
          "internalType": "uint256",
          "name": "jobId",
          "type": "uint256"
        },
        {
          "indexed": true,
          "internalType": "address",
          "name": "poster",
          "type": "address"
        },
        {
          "indexed": true,
          "internalType": "address",
          "name": "provider",
          "type": "address"
        },
        {
          "indexed": false,
          "internalType": "uint256",
          "name": "amount",
          "type": "uint256"
        },
        {
          "indexed": false,
          "internalType": "uint256",
          "name": "amountUsd",
          "type": "uint256"
        },
        {
          "indexed": false,
          "internalType": "enum FlareEscrow.PaymentType",
          "name": "paymentType",
          "type": "uint8"
        },
        {
          "indexed": false,
          "internalType": "address",
          "name": "token",
          "type": "address"
        }
      ],
      "name": "EscrowFunded",
      "type": "event"
    },
    {
      "anonymous": false,
      "inputs": [
        {
          "indexed": true,
          "internalType": "address",
          "name": "previousOwner",
          "type": "address"
        },
        {
          "indexed": true,
          "internalType": "address",
          "name": "newOwner",
          "type": "address"
        }
      ],
      "name": "OwnershipTransferred",
      "type": "event"
    },
    {
      "anonymous": false,
      "inputs": [
        {
          "indexed": true,
          "internalType": "uint256",
          "name": "jobId",
          "type": "uint256"
        },
        {
          "indexed": true,
          "internalType": "address",
          "name": "poster",
          "type": "address"
        },
        {
          "indexed": false,
          "internalType": "uint256",
          "name": "amount",
          "type": "uint256"
        },
        {
          "indexed": false,
          "internalType": "enum FlareEscrow.PaymentType",
          "name": "paymentType",
          "type": "uint8"
        }
      ],
      "name": "PaymentRefunded",
      "type": "event"
    },
    {
      "anonymous": false,
      "inputs": [
        {
          "indexed": true,
          "internalType": "uint256",
          "name": "jobId",
          "type": "uint256"
        },
        {
          "indexed": true,
          "internalType": "address",
          "name": "provider",
          "type": "address"
        },
        {
          "indexed": false,
          "internalType": "uint256",
          "name": "payout",
          "type": "uint256"
        },
        {
          "indexed": false,
          "internalType": "uint256",
          "name": "fee",
          "type": "uint256"
        },
        {
          "indexed": false,
          "internalType": "enum FlareEscrow.PaymentType",
          "name": "paymentType",
          "type": "uint8"
        }
      ],
      "name": "PaymentReleased",
      "type": "event"
    },
    {
      "anonymous": false,
      "inputs": [
        {
          "indexed": true,
          "internalType": "address",
          "name": "token",
          "type": "address"
        },
        {
          "indexed": false,
          "internalType": "bool",
          "name": "allowed",
          "type": "bool"
        }
      ],
      "name": "StablecoinUpdated",
      "type": "event"
    },
    {
      "inputs": [
        {
          "internalType": "address",
          "name": "",
          "type": "address"
        }
      ],
      "name": "allowedStablecoins",
      "outputs": [
        {
          "internalType": "bool",
          "name": "",
          "type": "bool"
        }
      ],
      "stateMutability": "view",
      "type": "function"
    },
    {
      "inputs": [
        {
          "internalType": "uint256",
          "name": "",
          "type": "uint256"
        }
      ],
      "name": "deposits",
      "outputs": [
        {
          "internalType": "address",
          "name": "poster",
          "type": "address"
        },
        {
          "internalType": "address",
          "name": "provider",
          "type": "address"
        },
        {
          "internalType": "uint256",
          "name": "amount",
          "type": "uint256"
        },
        {
          "internalType": "uint256",
          "name": "usdValue",
          "type": "uint256"
        },
        {
          "internalType": "enum FlareEscrow.PaymentType",
          "name": "paymentType",
          "type": "uint8"
        },
        {
          "internalType": "address",
          "name": "token",
          "type": "address"
        },
        {
          "internalType": "bool",
          "name": "funded",
          "type": "bool"
        },
        {
          "internalType": "bool",
          "name": "released",
          "type": "bool"
        },
        {
          "internalType": "bool",
          "name": "refunded",
          "type": "bool"
        }
      ],
      "stateMutability": "view",
      "type": "function"
    },
    {
      "inputs": [],
      "name": "fdcVerifier",
      "outputs": [
        {
          "internalType": "contract IFDCVerifier",
          "name": "",
          "type": "address"
        }
      ],
      "stateMutability": "view",
      "type": "function"
    },
    {
      "inputs": [],
      "name": "feeCollector",
      "outputs": [
        {
          "internalType": "address",
          "name": "",
          "type": "address"
        }
      ],
      "stateMutability": "view",
      "type": "function"
    },
    {
      "inputs": [],
      "name": "ftso",
      "outputs": [
        {
          "internalType": "contract FTSOPriceConsumer",
          "name": "",
          "type": "address"
        }
      ],
      "stateMutability": "view",
      "type": "function"
    },
    {
      "inputs": [
        {
          "internalType": "uint256",
          "name": "jobId",
          "type": "uint256"
        },
        {
          "internalType": "address",
          "name": "provider",
          "type": "address"
        },
        {
          "internalType": "uint256",
          "name": "usdBudget",
          "type": "uint256"
        }
      ],
      "name": "fundJob",
      "outputs": [],
      "stateMutability": "payable",
      "type": "function"
    },
    {
      "inputs": [
        {
          "internalType": "uint256",
          "name": "jobId",
          "type": "uint256"
        },
        {
          "internalType": "address",
          "name": "provider",
          "type": "address"
        },
        {
          "internalType": "address",
          "name": "token",
          "type": "address"
        },
        {
          "internalType": "uint256",
          "name": "amount",
          "type": "uint256"
        },
        {
          "internalType": "uint256",
          "name": "usdBudget",
          "type": "uint256"
        }
      ],
      "name": "fundJobWithStablecoin",
      "outputs": [],
      "stateMutability": "nonpayable",
      "type": "function"
    },
    {
      "inputs": [
        {
          "internalType": "uint256",
          "name": "jobId",
          "type": "uint256"
        }
      ],
      "name": "getDeposit",
      "outputs": [
        {
          "components": [
            {
              "internalType": "address",
              "name": "poster",
              "type": "address"
            },
            {
              "internalType": "address",
              "name": "provider",
              "type": "address"
            },
            {
              "internalType": "uint256",
              "name": "amount",
              "type": "uint256"
            },
            {
              "internalType": "uint256",
              "name": "usdValue",
              "type": "uint256"
            },
            {
              "internalType": "enum FlareEscrow.PaymentType",
              "name": "paymentType",
              "type": "uint8"
            },
            {
              "internalType": "address",
              "name": "token",
              "type": "address"
            },
            {
              "internalType": "bool",
              "name": "funded",
              "type": "bool"
            },
            {
              "internalType": "bool",
              "name": "released",
              "type": "bool"
            },
            {
              "internalType": "bool",
              "name": "refunded",
              "type": "bool"
            }
          ],
          "internalType": "struct FlareEscrow.Deposit",
          "name": "",
          "type": "tuple"
        }
      ],
      "stateMutability": "view",
      "type": "function"
    },
    {
      "inputs": [
        {
          "internalType": "address",
          "name": "token",
          "type": "address"
        }
      ],
      "name": "isStablecoinAllowed",
      "outputs": [
        {
          "internalType": "bool",
          "name": "",
          "type": "bool"
        }
      ],
      "stateMutability": "view",
      "type": "function"
    },
    {
      "inputs": [],
      "name": "orderBook",
      "outputs": [
        {
          "internalType": "contract IFlareOrderBook",
          "name": "",
          "type": "address"
        }
      ],
      "stateMutability": "view",
      "type": "function"
    },
    {
      "inputs": [],
      "name": "owner",
      "outputs": [
        {
          "internalType": "address",
          "name": "",
          "type": "address"
        }
      ],
      "stateMutability": "view",
      "type": "function"
    },
    {
      "inputs": [],
      "name": "platformFeeBps",
      "outputs": [
        {
          "internalType": "uint96",
          "name": "",
          "type": "uint96"
        }
      ],
      "stateMutability": "view",
      "type": "function"
    },
    {
      "inputs": [
        {
          "internalType": "uint256",
          "name": "jobId",
          "type": "uint256"
        }
      ],
      "name": "refund",
      "outputs": [],
      "stateMutability": "nonpayable",
      "type": "function"
    },
    {
      "inputs": [
        {
          "internalType": "uint256",
          "name": "jobId",
          "type": "uint256"
        }
      ],
      "name": "releaseToProvider",
      "outputs": [],
      "stateMutability": "nonpayable",
      "type": "function"
    },
    {
      "inputs": [],
      "name": "renounceOwnership",
      "outputs": [],
      "stateMutability": "nonpayable",
      "type": "function"
    },
    {
      "inputs": [
        {
          "internalType": "address",
          "name": "token",
          "type": "address"
        },
        {
          "internalType": "bool",
          "name": "allowed",
          "type": "bool"
        }
      ],
      "name": "setAllowedStablecoin",
      "outputs": [],
      "stateMutability": "nonpayable",
      "type": "function"
    },
    {
      "inputs": [
        {
          "internalType": "address",
          "name": "ftsoConsumer",
          "type": "address"
        }
      ],
      "name": "setFTSO",
      "outputs": [],
      "stateMutability": "nonpayable",
      "type": "function"
    },
    {
      "inputs": [
        {
          "internalType": "address",
          "name": "verifier",
          "type": "address"
        }
      ],
      "name": "setFdcVerifier",
      "outputs": [],
      "stateMutability": "nonpayable",
      "type": "function"
    },
    {
      "inputs": [
        {
          "internalType": "address",
          "name": "collector",
          "type": "address"
        },
        {
          "internalType": "uint96",
          "name": "feeBps",
          "type": "uint96"
        }
      ],
      "name": "setFeeCollector",
      "outputs": [],
      "stateMutability": "nonpayable",
      "type": "function"
    },
    {
      "inputs": [
        {
          "internalType": "address",
          "name": "orderBook_",
          "type": "address"
        }
      ],
      "name": "setOrderBook",
      "outputs": [],
      "stateMutability": "nonpayable",
      "type": "function"
    },
    {
      "inputs": [
        {
          "internalType": "uint256",
          "name": "bps",
          "type": "uint256"
        }
      ],
      "name": "setSlippageBps",
      "outputs": [],
      "stateMutability": "nonpayable",
      "type": "function"
    },
    {
      "inputs": [],
      "name": "slippageBps",
      "outputs": [
        {
          "internalType": "uint256",
          "name": "",
          "type": "uint256"
        }
      ],
      "stateMutability": "view",
      "type": "function"
    },
    {
      "inputs": [
        {
          "internalType": "address",
          "name": "newOwner",
          "type": "address"
        }
      ],
      "name": "transferOwnership",
      "outputs": [],
      "stateMutability": "nonpayable",
      "type": "function"
    },
    {
      "stateMutability": "payable",
      "type": "receive"
    }
  ],
  "bytecode": "0x60806040526101f46008553480156200001757600080fd5b5060405162001d4438038062001d448339810160408190526200003a9162000114565b826001600160a01b0381166200006a57604051631e4fbdf760e01b81526000600482015260240160405180910390fd5b6200007581620000a7565b5060018055600480546001600160a01b0319166001600160a01b0393841617905516601960a31b17600755506200015e565b600080546001600160a01b038381166001600160a01b0319831681178455604051919092169283917f8be0079c531659141344cd1fd0a4f28419497f9722a3daafe3b4186f6b6457e09190a35050565b80516001600160a01b03811681146200010f57600080fd5b919050565b6000806000606084860312156200012a57600080fd5b6200013584620000f7565b92506200014560208501620000f7565b91506200015560408501620000f7565b90509250925092565b611bd6806200016e6000396000f3fe6080604052600436106101445760003560e01c8063776af5ba116100b6578063b02c43d01161006f578063b02c43d0146103eb578063c415b95c14610481578063d7a21344146104a1578063e0e7e6b8146104c1578063f2fde38b146104e1578063f7fd0e4f1461050157600080fd5b8063776af5ba1461030757806378ea5ec5146103275780638da5cb5b146103475780639a1598c8146103655780639f9fb96814610385578063a41b051c146103b257600080fd5b806322dcd13e1161010857806322dcd13e1461022f578063278ecde11461026e578063329dc1031461028e5780633857c90a146102ae578063578c71d9146102ce578063715018a6146102f257600080fd5b806303e7f2aa146101505780630da0c022146101955780630faa8176146101cd5780631a3ce4e6146101ef5780631c8add891461020f57600080fd5b3661014b57005b600080fd5b34801561015c57600080fd5b5061018061016b366004611825565b60036020526000908152604090205460ff1681565b60405190151581526020015b60405180910390f35b3480156101a157600080fd5b506004546101b5906001600160a01b031681565b6040516001600160a01b03909116815260200161018c565b3480156101d957600080fd5b506101ed6101e8366004611825565b610514565b005b3480156101fb57600080fd5b506101ed61020a366004611847565b61053e565b34801561021b57600080fd5b506101ed61022a366004611847565b6105a2565b34801561023b57600080fd5b5060075461025690600160a01b90046001600160601b031681565b6040516001600160601b03909116815260200161018c565b34801561027a57600080fd5b506101ed610289366004611847565b610b86565b34801561029a57600080fd5b506101ed6102a9366004611860565b610e6b565b3480156102ba57600080fd5b506101ed6102c93660046118a3565b610eee565b3480156102da57600080fd5b506102e460085481565b60405190815260200161018c565b3480156102fe57600080fd5b506101ed611131565b34801561031357600080fd5b506006546101b5906001600160a01b031681565b34801561033357600080fd5b506101ed610342366004611825565b611145565b34801561035357600080fd5b506000546001600160a01b03166101b5565b34801561037157600080fd5b506101ed610380366004611825565b61116f565b34801561039157600080fd5b506103a56103a0366004611847565b611199565b60405161018c9190611929565b3480156103be57600080fd5b506101806103cd366004611825565b6001600160a01b031660009081526003602052604090205460ff1690565b3480156103f757600080fd5b5061046c610406366004611847565b6002602081905260009182526040909120805460018201549282015460038301546004909301546001600160a01b0392831694831693919260ff80831692610100810490921691600160a81b8104821691600160b01b8204811691600160b81b90041689565b60405161018c999897969594939291906119c6565b34801561048d57600080fd5b506007546101b5906001600160a01b031681565b3480156104ad57600080fd5b506101ed6104bc366004611a35565b6112b9565b3480156104cd57600080fd5b506005546101b5906001600160a01b031681565b3480156104ed57600080fd5b506101ed6104fc366004611825565b611376565b6101ed61050f366004611a61565b6113b1565b61051c61164e565b600580546001600160a01b0319166001600160a01b0392909216919091179055565b61054661164e565b6107d081111561059d5760405162461bcd60e51b815260206004820152601e60248201527f466c617265457363726f773a20736c69707061676520746f6f2068696768000060448201526064015b60405180910390fd5b600855565b6105aa61167b565b60008181526002602052604090206004810154600160a81b900460ff1661060d5760405162461bcd60e51b8152602060048201526017602482015276119b185c99515cd8dc9bddce881b9bdd08199d5b991959604a1b6044820152606401610594565b6004810154600160b01b900460ff16156106695760405162461bcd60e51b815260206004820152601d60248201527f466c617265457363726f773a20616c72656164792072656c65617365640000006044820152606401610594565b6004810154600160b81b900460ff16156106bd5760405162461bcd60e51b8152602060048201526015602482015274119b185c99515cd8dc9bddce881c99599d5b991959605a1b6044820152606401610594565b6005546001600160a01b031661071f5760405162461bcd60e51b815260206004820152602160248201527f466c617265457363726f773a20464443207665726966696572206e6f742073656044820152601d60fa1b6064820152608401610594565b6005546040516337433cf160e01b8152600481018490526001600160a01b03909116906337433cf190602401602060405180830381865afa158015610768573d6000803e3d6000fd5b505050506040513d601f19601f8201168201806040525081019061078c9190611a96565b6107ea5760405162461bcd60e51b815260206004820152602960248201527f466c617265457363726f773a2064656c6976657279206e6f742061747465737460448201526865642062792046444360b81b6064820152608401610594565b80546001600160a01b031633148061080e575060018101546001600160a01b031633145b61085a5760405162461bcd60e51b815260206004820152601b60248201527f466c617265457363726f773a206e6f7420617574686f726973656400000000006044820152606401610594565b60048101805460ff60b01b1916600160b01b179055600754600282015460009161271091610899916001600160601b03600160a01b9091041690611ac9565b6108a39190611ae6565b905060008183600201546108b79190611b08565b90506000600484015460ff1660018111156108d4576108d46118f1565b03610a48576000821180156108f357506007546001600160a01b031615155b1561099d576007546040516000916001600160a01b03169084908381818185875af1925050503d8060008114610945576040519150601f19603f3d011682016040523d82523d6000602084013e61094a565b606091505b505090508061099b5760405162461bcd60e51b815260206004820181905260248201527f466c617265457363726f773a20666565207472616e73666572206661696c65646044820152606401610594565b505b60018301546040516000916001600160a01b03169083908381818185875af1925050503d80600081146109ec576040519150601f19603f3d011682016040523d82523d6000602084013e6109f1565b606091505b5050905080610a425760405162461bcd60e51b815260206004820152601a60248201527f466c617265457363726f773a207061796f7574206661696c65640000000000006044820152606401610594565b50610ab1565b600483015461010090046001600160a01b03168215801590610a7457506007546001600160a01b031615155b15610a9357600754610a93906001600160a01b038381169116856116a5565b6001840154610aaf906001600160a01b038381169116846116a5565b505b6006546001600160a01b031615610b215760065460405163257c413b60e21b8152600481018690526001600160a01b03909116906395f104ec90602401600060405180830381600087803b158015610b0857600080fd5b505af1158015610b1c573d6000803e3d6000fd5b505050505b600183015460048401546040516001600160a01b039092169186917f0607f3d0b953b401d440eaa9c50af3a6f6d8cb4e137c986d27d1064f8dc34e7991610b6f918691889160ff1690611b1b565b60405180910390a3505050610b8360018055565b50565b610b8e61167b565b60008181526002602052604090206004810154600160a81b900460ff16610bf15760405162461bcd60e51b8152602060048201526017602482015276119b185c99515cd8dc9bddce881b9bdd08199d5b991959604a1b6044820152606401610594565b6004810154600160b01b900460ff1615610c4d5760405162461bcd60e51b815260206004820152601d60248201527f466c617265457363726f773a20616c72656164792072656c65617365640000006044820152606401610594565b6004810154600160b81b900460ff1615610ca95760405162461bcd60e51b815260206004820152601d60248201527f466c617265457363726f773a20616c726561647920726566756e6465640000006044820152606401610594565b6000546001600160a01b03163314610d035760405162461bcd60e51b815260206004820152601b60248201527f466c617265457363726f773a206e6f7420617574686f726973656400000000006044820152606401610594565b600481018054600160b81b60ff60b81b1982161790915560009060ff166001811115610d3157610d316118f1565b03610de257805460028201546040516000926001600160a01b031691908381818185875af1925050503d8060008114610d86576040519150601f19603f3d011682016040523d82523d6000602084013e610d8b565b606091505b5050905080610ddc5760405162461bcd60e51b815260206004820152601a60248201527f466c617265457363726f773a20726566756e64206661696c65640000000000006044820152606401610594565b50610e0b565b805460028201546004830154610e0b926001600160a01b036101009092048216929116906116a5565b8054600282015460048301546040516001600160a01b039093169285927f71481175569e941a71677259973b991ff36b1f4b37a54fba31ace51c9346a3de92610e599260ff90911690611b3e565b60405180910390a350610b8360018055565b610e7361164e565b6103e8816001600160601b03161115610ece5760405162461bcd60e51b815260206004820152601960248201527f466c617265457363726f773a2066656520746f6f2068696768000000000000006044820152606401610594565b6001600160601b0316600160a01b026001600160a01b0390911617600755565b60008581526002602052604090206004810154600160a81b900460ff1615610f585760405162461bcd60e51b815260206004820152601b60248201527f466c617265457363726f773a20616c72656164792066756e64656400000000006044820152606401610594565b60008311610fa85760405162461bcd60e51b815260206004820152601860248201527f466c617265457363726f773a207a65726f20616d6f756e7400000000000000006044820152606401610594565b6001600160a01b038516610ffe5760405162461bcd60e51b815260206004820152601a60248201527f466c617265457363726f773a207a65726f2070726f76696465720000000000006044820152606401610594565b6001600160a01b03841660009081526003602052604090205460ff166110665760405162461bcd60e51b815260206004820152601e60248201527f466c617265457363726f773a20746f6b656e206e6f7420616c6c6f77656400006044820152606401610594565b61107b6001600160a01b038516333086611709565b8054336001600160a01b031991821681178355600180840180549093166001600160a01b03898116918217909455600285018790556003850186905560048501805460ff60a81b19958a1661010002959095166001600160b01b0319909516949094176001600160a81b011790935560405189917fbdc49b9efb84951ae1ab074a4f43647f24b20ee5a8f9d920a6884c61a9349022916111219189918991908c90611b52565b60405180910390a4505050505050565b61113961164e565b6111436000611748565b565b61114d61164e565b600480546001600160a01b0319166001600160a01b0392909216919091179055565b61117761164e565b600680546001600160a01b0319166001600160a01b0392909216919091179055565b6040805161012081018252600080825260208201819052918101829052606081018290526080810182905260a0810182905260c0810182905260e0810182905261010081019190915260008281526002602081815260409283902083516101208101855281546001600160a01b039081168252600180840154909116938201939093529281015493830193909352600383015460608301526004830154919291608084019160ff90911690811115611253576112536118f1565b6001811115611264576112646118f1565b8152600491909101546001600160a01b03610100820416602083015260ff600160a81b8204811615156040840152600160b01b8204811615156060840152600160b81b90910416151560809091015292915050565b6112c161164e565b6001600160a01b0382166113175760405162461bcd60e51b815260206004820152601960248201527f466c617265457363726f773a207a65726f2061646472657373000000000000006044820152606401610594565b6001600160a01b038216600081815260036020908152604091829020805460ff191685151590811790915591519182527f855c900f27c6636569173ceb716d3cfc1a9f951524e822fc3b3f597010a057a3910160405180910390a25050565b61137e61164e565b6001600160a01b0381166113a857604051631e4fbdf760e01b815260006004820152602401610594565b610b8381611748565b60008381526002602052604090206004810154600160a81b900460ff161561141b5760405162461bcd60e51b815260206004820152601b60248201527f466c617265457363726f773a20616c72656164792066756e64656400000000006044820152606401610594565b6000341161146b5760405162461bcd60e51b815260206004820152601760248201527f466c617265457363726f773a207a65726f2076616c75650000000000000000006044820152606401610594565b6001600160a01b0383166114c15760405162461bcd60e51b815260206004820152601a60248201527f466c617265457363726f773a207a65726f2070726f76696465720000000000006044820152606401610594565b600480546040516308d2e52d60e41b81529182018490526000916001600160a01b0390911690638d2e52d090602401602060405180830381865afa15801561150d573d6000803e3d6000fd5b505050506040513d601f19601f820116820180604052508101906115319190611b87565b905060006127106008546127106115489190611b08565b6115529084611ac9565b61155c9190611ae6565b9050803410156115c35760405162461bcd60e51b815260206004820152602c60248201527f466c617265457363726f773a20696e73756666696369656e7420464c5220666f60448201526b1c881554d108189d5919d95d60a21b6064820152608401610594565b82546001600160a01b03199081163390811785556001850180546001600160a01b038916931683179055346002860181905560038601879055600486018054600160a81b6001600160b01b031990911617905560405189917fbdc49b9efb84951ae1ab074a4f43647f24b20ee5a8f9d920a6884c61a93490229161112191908a906000908190611b52565b6000546001600160a01b031633146111435760405163118cdaa760e01b8152336004820152602401610594565b60026001540361169e57604051633ee5aeb560e01b815260040160405180910390fd5b6002600155565b6040516001600160a01b0383811660248301526044820183905261170491859182169063a9059cbb906064015b604051602081830303815290604052915060e01b6020820180516001600160e01b038381831617835250505050611798565b505050565b6040516001600160a01b0384811660248301528381166044830152606482018390526117429186918216906323b872dd906084016116d2565b50505050565b600080546001600160a01b038381166001600160a01b0319831681178455604051919092169283917f8be0079c531659141344cd1fd0a4f28419497f9722a3daafe3b4186f6b6457e09190a35050565b600080602060008451602086016000885af1806117bb576040513d6000823e3d81fd5b50506000513d915081156117d35780600114156117e0565b6001600160a01b0384163b155b1561174257604051635274afe760e01b81526001600160a01b0385166004820152602401610594565b80356001600160a01b038116811461182057600080fd5b919050565b60006020828403121561183757600080fd5b61184082611809565b9392505050565b60006020828403121561185957600080fd5b5035919050565b6000806040838503121561187357600080fd5b61187c83611809565b915060208301356001600160601b038116811461189857600080fd5b809150509250929050565b600080600080600060a086880312156118bb57600080fd5b853594506118cb60208701611809565b93506118d960408701611809565b94979396509394606081013594506080013592915050565b634e487b7160e01b600052602160045260246000fd5b6002811061192557634e487b7160e01b600052602160045260246000fd5b9052565b81516001600160a01b03908116825260208084015190911690820152604080830151908201526060808301519082015260808083015161012083019161197190840182611907565b5060a083015161198c60a08401826001600160a01b03169052565b5060c08301516119a060c084018215159052565b5060e08301516119b460e084018215159052565b50610100928301511515919092015290565b6001600160a01b038a81168252898116602083015260408201899052606082018890526101208201906119fc6080840189611907565b9590951660a082015292151560c084015290151560e083015215156101009091015295945050505050565b8015158114610b8357600080fd5b60008060408385031215611a4857600080fd5b611a5183611809565b9150602083013561189881611a27565b600080600060608486031215611a7657600080fd5b83359250611a8660208501611809565b9150604084013590509250925092565b600060208284031215611aa857600080fd5b815161184081611a27565b634e487b7160e01b600052601160045260246000fd5b8082028115828204841417611ae057611ae0611ab3565b92915050565b600082611b0357634e487b7160e01b600052601260045260246000fd5b500490565b81810381811115611ae057611ae0611ab3565b8381526020810183905260608101611b366040830184611907565b949350505050565b828152604081016118406020830184611907565b8481526020810184905260808101611b6d6040830185611907565b6001600160a01b0392909216606091909101529392505050565b600060208284031215611b9957600080fd5b505191905056fea2646970667358221220a078f9446b5de9b2030653824405b5c66328712c36572fd87d0cfa23cdd5c13564736f6c63430008180033",
  "linkReferences": {},
  "deployedLinkReferences": {}
}