{
  "_format": "hh-sol-artifact-1",
  "contractName": "FlareOrderBook",
  "sourceName": "contracts/FlareOrderBook.sol",
  "abi": [
    {
      "inputs": [
        {
          "internalType": "address",
          "name": "initialOwner",
          "type": "address"
        },
        {
          "internalType": "address",
          "name": "ftsoConsumer",
          "type": "address"
        }
      ],
      "stateMutability": "nonpayable",
      "type": "constructor"
    },
    {
      "inputs": [
        {
          "internalType": "address",
          "name": "owner",
          "type": "address"
        }
      ],
      "name": "OwnableInvalidOwner",
      "type": "error"
    },
    {
      "inputs": [
        {
          "internalType": "address",
          "name": "account",
          "type": "address"
        }
      ],
      "name": "OwnableUnauthorizedAccount",
      "type": "error"
    },
    {
      "anonymous": false,
      "inputs": [
        {
          "indexed": true,
          "internalType": "uint256",
          "name": "jobId",
          "type": "uint256"
        },
        {
          "indexed": true,
          "internalType": "uint256",
          "name": "bidId",
          "type": "uint256"
        },
        {
          "indexed": true,
          "internalType": "address",
          "name": "provider",
          "type": "address"
        }
      ],
      "name": "BidAccepted",
      "type": "event"
    },
    {
      "anonymous": false,
      "inputs": [
        {
          "indexed": true,
          "internalType": "uint256",
          "name": "jobId",
          "type": "uint256"
        },
        {
          "indexed": true,
          "internalType": "uint256",
          "name": "bidId",
          "type": "uint256"
        },
        {
          "indexed": true,
          "internalType": "address",
          "name": "agent",
          "type": "address"
        },
        {
          "indexed": false,
          "internalType": "uint256",
          "name": "priceUsd",
          "type": "uint256"
        },
        {
          "indexed": false,
          "internalType": "uint256",
          "name": "priceFlr",
          "type": "uint256"
        }
      ],
      "name": "BidPlaced",
      "type": "event"
    },
    {
      "anonymous": false,
      "inputs": [
        {
          "indexed": true,
          "internalType": "uint256",
          "name": "jobId",
          "type": "uint256"
        }
      ],
      "name": "JobCancelled",
      "type": "event"
    },
    {
      "anonymous": false,
      "inputs": [
        {
          "indexed": true,
          "internalType": "uint256",
          "name": "jobId",
          "type": "uint256"
        },
        {
          "indexed": false,
          "internalType": "bytes32",
          "name": "deliveryProof",
          "type": "bytes32"
        }
      ],
      "name": "JobCompleted",
      "type": "event"
    },
    {
      "anonymous": false,
      "inputs": [
        {
          "indexed": true,
          "internalType": "uint256",
          "name": "jobId",
          "type": "uint256"
        },
        {
          "indexed": true,
          "internalType": "address",
          "name": "poster",
          "type": "address"
        },
        {
          "indexed": false,
          "internalType": "uint256",
          "name": "maxPriceUsd",
          "type": "uint256"
        },
        {
          "indexed": false,
          "internalType": "uint256",
          "name": "maxPriceFlr",
          "type": "uint256"
        }
      ],
      "name": "JobCreated",
      "type": "event"
    },
    {
      "anonymous": false,
      "inputs": [
        {
          "indexed": true,
          "internalType": "uint256",
          "name": "jobId",
          "type": "uint256"
        },
        {
          "indexed": true,
          "internalType": "address",
          "name": "disputedBy",
          "type": "address"
        }
      ],
      "name": "JobDisputed",
      "type": "event"
    },
    {
      "anonymous": false,
      "inputs": [
        {
          "indexed": true,
          "internalType": "uint256",
          "name": "jobId",
          "type": "uint256"
        }
      ],
      "name": "JobReleased",
      "type": "event"
    },
    {
      "anonymous": false,
      "inputs": [
        {
          "indexed": true,
          "internalType": "address",
          "name": "previousOwner",
          "type": "address"
        },
        {
          "indexed": true,
          "internalType": "address",
          "name": "newOwner",
          "type": "address"
        }
      ],
      "name": "OwnershipTransferred",
      "type": "event"
    },
    {
      "anonymous": false,
      "inputs": [
        {
          "indexed": true,
          "internalType": "uint256",
          "name": "jobId",
          "type": "uint256"
        },
        {
          "indexed": true,
          "internalType": "address",
          "name": "provider",
          "type": "address"
        }
      ],
      "name": "ProviderAssigned",
      "type": "event"
    },
    {
      "inputs": [
        {
          "internalType": "uint256",
          "name": "jobId",
          "type": "uint256"
        },
        {
          "internalType": "uint256",
          "name": "bidId",
          "type": "uint256"
        }
      ],
      "name": "acceptBid",
      "outputs": [],
      "stateMutability": "nonpayable",
      "type": "function"
    },
    {
      "inputs": [
        {
          "internalType": "uint256",
          "name": "jobId",
          "type": "uint256"
        },
        {
          "internalType": "address",
          "name": "provider",
          "type": "address"
        }
      ],
      "name": "assignProvider",
      "outputs": [],
      "stateMutability": "nonpayable",
      "type": "function"
    },
    {
      "inputs": [
        {
          "internalType": "uint256",
          "name": "",
          "type": "uint256"
        }
      ],
      "name": "bids",
      "outputs": [
        {
          "internalType": "uint256",
          "name": "id",
          "type": "uint256"
        },
        {
          "internalType": "uint256",
          "name": "jobId",
          "type": "uint256"
        },
        {
          "internalType": "address",
          "name": "agent",
          "type": "address"
        },
        {
          "internalType": "uint256",
          "name": "priceUsd",
          "type": "uint256"
        },
        {
          "internalType": "uint256",
          "name": "priceFlr",
          "type": "uint256"
        },
        {
          "internalType": "uint256",
          "name": "estimatedTime",
          "type": "uint256"
        },
        {
          "internalType": "string",
          "name": "proposal",
          "type": "string"
        },
        {
          "internalType": "uint256",
          "name": "createdAt",
          "type": "uint256"
        },
        {
          "internalType": "bool",
          "name": "accepted",
          "type": "bool"
        }
      ],
      "stateMutability": "view",
      "type": "function"
    },
    {
      "inputs": [
        {
          "internalType": "uint256",
          "name": "jobId",
          "type": "uint256"
        }
      ],
      "name": "cancelJob",
      "outputs": [],
      "stateMutability": "nonpayable",
      "type": "function"
    },
    {
      "inputs": [
        {
          "internalType": "string",
          "name": "metadataURI",
          "type": "string"
        },
        {
          "internalType": "uint256",
          "name": "maxPriceUsd",
          "type": "uint256"
        },
        {
          "internalType": "uint64",
          "name": "deadline",
          "type": "uint64"
        }
      ],
      "name": "createJob",
      "outputs": [
        {
          "internalType": "uint256",
          "name": "jobId",
          "type": "uint256"
        }
      ],
      "stateMutability": "nonpayable",
      "type": "function"
    },
    {
      "inputs": [],
      "name": "escrow",
      "outputs": [
        {
          "internalType": "address",
          "name": "",
          "type": "address"
        }
      ],
      "stateMutability": "view",
      "type": "function"
    },
    {
      "inputs": [],
      "name": "ftso",
      "outputs": [
        {
          "internalType": "contract FTSOPriceConsumer",
          "name": "",
          "type": "address"
        }
      ],
      "stateMutability": "view",
      "type": "function"
    },
    {
      "inputs": [
        {
          "internalType": "uint256",
          "name": "bidId",
          "type": "uint256"
        }
      ],
      "name": "getBid",
      "outputs": [
        {
          "components": [
            {
              "internalType": "uint256",
              "name": "id",
              "type": "uint256"
            },
            {
              "internalType": "uint256",
              "name": "jobId",
              "type": "uint256"
            },
            {
              "internalType": "address",
              "name": "agent",
              "type": "address"
            },
            {
              "internalType": "uint256",
              "name": "priceUsd",
              "type": "uint256"
            },
            {
              "internalType": "uint256",
              "name": "priceFlr",
              "type": "uint256"
            },
            {
              "internalType": "uint256",
              "name": "estimatedTime",
              "type": "uint256"
            },
            {
              "internalType": "string",
              "name": "proposal",
              "type": "string"
            },
            {
              "internalType": "uint256",
              "name": "createdAt",
              "type": "uint256"
            },
            {
              "internalType": "bool",
              "name": "accepted",
              "type": "bool"
            }
          ],
          "internalType": "struct FlareOrderBook.Bid",
          "name": "",
          "type": "tuple"
        }
      ],
      "stateMutability": "view",
      "type": "function"
    },
    {
      "inputs": [
        {
          "internalType": "uint256",
          "name": "jobId",
          "type": "uint256"
        }
      ],
      "name": "getJob",
      "outputs": [
        {
          "components": [
            {
              "internalType": "uint256",
              "name": "id",
              "type": "uint256"
            },
            {
              "internalType": "address",
              "name": "poster",
              "type": "address"
            },
            {
              "internalType": "address",
              "name": "provider",
              "type": "address"
            },
            {
              "internalType": "string",
              "name": "metadataURI",
              "type": "string"
            },
            {
              "internalType": "uint256",
              "name": "maxPriceUsd",
              "type": "uint256"
            },
            {
              "internalType": "uint256",
              "name": "maxPriceFlr",
              "type": "uint256"
            },
            {
              "internalType": "uint64",
              "name": "deadline",
              "type": "uint64"
            },
            {
              "internalType": "enum FlareOrderBook.JobStatus",
              "name": "status",
              "type": "uint8"
            },
            {
              "internalType": "bytes32",
              "name": "deliveryProof",
              "type": "bytes32"
            },
            {
              "internalType": "uint256",
              "name": "createdAt",
              "type": "uint256"
            },
            {
              "internalType": "uint256",
              "name": "acceptedBidId",
              "type": "uint256"
            }
          ],
          "internalType": "struct FlareOrderBook.Job",
          "name": "",
          "type": "tuple"
        }
      ],
      "stateMutability": "view",
      "type": "function"
    },
    {
      "inputs": [
        {
          "internalType": "uint256",
          "name": "jobId",
          "type": "uint256"
        }
      ],
      "name": "getJobBidCount",
      "outputs": [
        {
          "internalType": "uint256",
          "name": "",
          "type": "uint256"
        }
      ],
      "stateMutability": "view",
      "type": "function"
    },
    {
      "inputs": [
        {
          "internalType": "uint256",
          "name": "jobId",
          "type": "uint256"
        }
      ],
      "name": "getJobBidIds",
      "outputs": [
        {
          "internalType": "uint256[]",
          "name": "",
          "type": "uint256[]"
        }
      ],
      "stateMutability": "view",
      "type": "function"
    },
    {
      "inputs": [
        {
          "internalType": "uint256",
          "name": "offset",
          "type": "uint256"
        },
        {
          "internalType": "uint256",
          "name": "limit",
          "type": "uint256"
        }
      ],
      "name": "getJobIds",
      "outputs": [
        {
          "internalType": "uint256[]",
          "name": "ids",
          "type": "uint256[]"
        }
      ],
      "stateMutability": "view",
      "type": "function"
    },
    {
      "inputs": [
        {
          "internalType": "uint256",
          "name": "",
          "type": "uint256"
        },
        {
          "internalType": "uint256",
          "name": "",
          "type": "uint256"
        }
      ],
      "name": "jobBids",
      "outputs": [
        {
          "internalType": "uint256",
          "name": "",
          "type": "uint256"
        }
      ],
      "stateMutability": "view",
      "type": "function"
    },
    {
      "inputs": [
        {
          "internalType": "uint256",
          "name": "",
          "type": "uint256"
        }
      ],
      "name": "jobIds",
      "outputs": [
        {
          "internalType": "uint256",
          "name": "",
          "type": "uint256"
        }
      ],
      "stateMutability": "view",
      "type": "function"
    },
    {
      "inputs": [
        {
          "internalType": "uint256",
          "name": "",
          "type": "uint256"
        }
      ],
      "name": "jobs",
      "outputs": [
        {
          "internalType": "uint256",
          "name": "id",
          "type": "uint256"
        },
        {
          "internalType": "address",
          "name": "poster",
          "type": "address"
        },
        {
          "internalType": "address",
          "name": "provider",
          "type": "address"
        },
        {
          "internalType": "string",
          "name": "metadataURI",
          "type": "string"
        },
        {
          "internalType": "uint256",
          "name": "maxPriceUsd",
          "type": "uint256"
        },
        {
          "internalType": "uint256",
          "name": "maxPriceFlr",
          "type": "uint256"
        },
        {
          "internalType": "uint64",
          "name": "deadline",
          "type": "uint64"
        },
        {
          "internalType": "enum FlareOrderBook.JobStatus",
          "name": "status",
          "type": "uint8"
        },
        {
          "internalType": "bytes32",
          "name": "deliveryProof",
          "type": "bytes32"
        },
        {
          "internalType": "uint256",
          "name": "createdAt",
          "type": "uint256"
        },
        {
          "internalType": "uint256",
          "name": "acceptedBidId",
          "type": "uint256"
        }
      ],
      "stateMutability": "view",
      "type": "function"
    },
    {
      "inputs": [
        {
          "internalType": "uint256",
          "name": "jobId",
          "type": "uint256"
        },
        {
          "internalType": "bytes32",
          "name": "deliveryProof",
          "type": "bytes32"
        }
      ],
      "name": "markCompleted",
      "outputs": [],
      "stateMutability": "nonpayable",
      "type": "function"
    },
    {
      "inputs": [
        {
          "internalType": "uint256",
          "name": "jobId",
          "type": "uint256"
        }
      ],
      "name": "markReleased",
      "outputs": [],
      "stateMutability": "nonpayable",
      "type": "function"
    },
    {
      "inputs": [],
      "name": "owner",
      "outputs": [
        {
          "internalType": "address",
          "name": "",
          "type": "address"
        }
      ],
      "stateMutability": "view",
      "type": "function"
    },
    {
      "inputs": [
        {
          "internalType": "uint256",
          "name": "jobId",
          "type": "uint256"
        },
        {
          "internalType": "uint256",
          "name": "priceUsd",
          "type": "uint256"
        },
        {
          "internalType": "uint256",
          "name": "estimatedTime",
          "type": "uint256"
        },
        {
          "internalType": "string",
          "name": "proposal",
          "type": "string"
        }
      ],
      "name": "placeBid",
      "outputs": [
        {
          "internalType": "uint256",
          "name": "bidId",
          "type": "uint256"
        }
      ],
      "stateMutability": "nonpayable",
      "type": "function"
    },
    {
      "inputs": [
        {
          "internalType": "uint256",
          "name": "usdAmount",
          "type": "uint256"
        }
      ],
      "name": "quoteUsdToFlr",
      "outputs": [
        {
          "internalType": "uint256",
          "name": "flrAmount",
          "type": "uint256"
        }
      ],
      "stateMutability": "view",
      "type": "function"
    },
    {
      "inputs": [
        {
          "internalType": "uint256",
          "name": "jobId",
          "type": "uint256"
        }
      ],
      "name": "raiseDispute",
      "outputs": [],
      "stateMutability": "nonpayable",
      "type": "function"
    },
    {
      "inputs": [],
      "name": "renounceOwnership",
      "outputs": [],
      "stateMutability": "nonpayable",
      "type": "function"
    },
    {
      "inputs": [
        {
          "internalType": "address",
          "name": "escrow_",
          "type": "address"
        }
      ],
      "name": "setEscrow",
      "outputs": [],
      "stateMutability": "nonpayable",
      "type": "function"
    },
    {
      "inputs": [
        {
          "internalType": "address",
          "name": "ftsoConsumer",
          "type": "address"
        }
      ],
      "name": "setFTSO",
      "outputs": [],
      "stateMutability": "nonpayable",
      "type": "function"
    },
    {
      "inputs": [],
      "name": "totalJobs",
      "outputs": [
        {
          "internalType": "uint256",
          "name": "",
          "type": "uint256"
        }
      ],
      "stateMutability": "view",
      "type": "function"
    },
    {
      "inputs": [
        {
          "internalType": "address",
          "name": "newOwner",
          "type": "address"
        }
      ],
      "name": "transferOwnership",
      "outputs": [],
      "stateMutability": "nonpayable",
      "type": "function"
    }
  ],
  "bytecode": "0x60806040526001805560016002553480156200001a57600080fd5b506040516200235c3803806200235c8339810160408190526200003d916200010d565b816001600160a01b0381166200006d57604051631e4fbdf760e01b81526000600482015260240160405180910390fd5b6200007881620000a0565b50600780546001600160a01b0319166001600160a01b03929092169190911790555062000145565b600080546001600160a01b038381166001600160a01b0319831681178455604051919092169283917f8be0079c531659141344cd1fd0a4f28419497f9722a3daafe3b4186f6b6457e09190a35050565b80516001600160a01b03811681146200010857600080fd5b919050565b600080604083850312156200012157600080fd5b6200012c83620000f0565b91506200013c60208401620000f0565b90509250929050565b61220780620001556000396000f3fe608060405234801561001057600080fd5b506004361061018e5760003560e01c8063840850d1116100de578063bf22c45711610097578063e2fdcc1711610071578063e2fdcc1714610399578063e5815731146103ac578063e98e8f3f146103bf578063f2fde38b146103df57600080fd5b8063bf22c45714610353578063c10c354614610373578063c641fc1d1461038657600080fd5b8063840850d1146102e35780638da5cb5b146102f657806395f104ec14610307578063a118c41a1461031a578063a5c1674e1461032d578063af163cbc1461034057600080fd5b80633c889e6f1161014b5780634485e119116101255780634485e119146102a2578063715018a6146102b557806378ea5ec5146102bd5780637db6b683146102d057600080fd5b80633c889e6f146102475780634162cc88146102675780634423c5f11461027a57600080fd5b806302e9d5e4146101935780630da0c022146101a8578063180aedf3146101d85780631ace87b3146102025780631dffa3dc146102145780632494280514610227575b600080fd5b6101a66101a1366004611ad2565b6103f2565b005b6007546101bb906001600160a01b031681565b6040516001600160a01b0390911681526020015b60405180910390f35b6101eb6101e6366004611af4565b6105f8565b6040516101cf9b9a99989796959493929190611b8b565b6006545b6040519081526020016101cf565b6101a6610222366004611af4565b6106f4565b61023a610235366004611af4565b6107b6565b6040516101cf9190611c0e565b61025a610255366004611af4565b610818565b6040516101cf9190611c52565b610206610275366004611af4565b610989565b61028d610288366004611af4565b6109aa565b6040516101cf99989796959493929190611ce0565b6102066102b0366004611af4565b610a8b565b6101a6610aff565b6101a66102cb366004611d5b565b610b13565b6102066102de366004611dc5565b610b3d565b6102066102f1366004611ad2565b610f05565b6000546001600160a01b03166101bb565b6101a6610315366004611af4565b610f36565b6101a6610328366004611ad2565b610fe1565b6101a661033b366004611af4565b611117565b61020661034e366004611e25565b61127b565b610366610361366004611af4565b61160c565b6040516101cf9190611e8b565b6101a6610381366004611d5b565b6117c3565b6101a6610394366004611f53565b6117ed565b6008546101bb906001600160a01b031681565b61023a6103ba366004611ad2565b611921565b6102066103cd366004611af4565b60009081526005602052604090205490565b6101a66103ed366004611d5b565b611a17565b600082815260036020526040902060018101546001600160a01b031633146104355760405162461bcd60e51b815260040161042c90611f7f565b60405180910390fd5b60006006820154600160401b900460ff16600581111561045757610457611b53565b146104745760405162461bcd60e51b815260040161042c90611fb6565b6000828152600460205260409020600181015484146104d55760405162461bcd60e51b815260206004820181905260248201527f466c6172654f72646572426f6f6b3a206269642f6a6f62206d69736d61746368604482015260640161042c565b600881015460ff16156105365760405162461bcd60e51b8152602060048201526024808201527f466c6172654f72646572426f6f6b3a2062696420616c726561647920616363656044820152631c1d195960e21b606482015260840161042c565b60088101805460ff191660011790556002808201805491840180546001600160a01b0319166001600160a01b0393841617905560068401805460ff60401b1916600160401b1790556009840185905554604051911690849086907fd04f845137f741f1b1fcb8758a097aa384274dde474ea57dc4b71e88f8625cf390600090a460028101546040516001600160a01b039091169085907f87347dee4386ac44f2c0bf5d058de67e2a08f526794bd25a6a73f159c82718ab90600090a350505050565b6003602081905260009182526040909120805460018201546002830154938301805492946001600160a01b039283169492169261063490611fed565b80601f016020809104026020016040519081016040528092919081815260200182805461066090611fed565b80156106ad5780601f10610682576101008083540402835291602001916106ad565b820191906000526020600020905b81548152906001019060200180831161069057829003601f168201915b5050505060048301546005840154600685015460078601546008870154600990970154959693959294506001600160401b03821693600160401b90920460ff16929091908b565b600081815260036020526040902060018101546001600160a01b0316331461072e5760405162461bcd60e51b815260040161042c90611f7f565b60006006820154600160401b900460ff16600581111561075057610750611b53565b1461076d5760405162461bcd60e51b815260040161042c90611fb6565b60068101805460ff60401b19166804000000000000000017905560405182907f58243f872c550ad02802199ade99eb4250f6bb19e9abbf2d3de7b969c0eb5e4f90600090a25050565b60008181526005602090815260409182902080548351818402810184019094528084526060939283018282801561080c57602002820191906000526020600020905b8154815260200190600101908083116107f8575b50505050509050919050565b610872604051806101200160405280600081526020016000815260200160006001600160a01b0316815260200160008152602001600081526020016000815260200160608152602001600081526020016000151581525090565b6000828152600460208181526040928390208351610120810185528154815260018201549281019290925260028101546001600160a01b03169382019390935260038301546060820152908201546080820152600582015460a082015260068201805491929160c0840191906108e790611fed565b80601f016020809104026020016040519081016040528092919081815260200182805461091390611fed565b80156109605780601f1061093557610100808354040283529160200191610960565b820191906000526020600020905b81548152906001019060200180831161094357829003601f168201915b50505091835250506007820154602082015260089091015460ff16151560409091015292915050565b6006818154811061099957600080fd5b600091825260209091200154905081565b60046020819052600091825260409091208054600182015460028301546003840154948401546005850154600686018054959794966001600160a01b0390941695929391926109f890611fed565b80601f0160208091040260200160405190810160405280929190818152602001828054610a2490611fed565b8015610a715780601f10610a4657610100808354040283529160200191610a71565b820191906000526020600020905b815481529060010190602001808311610a5457829003601f168201915b50505050600783015460089093015491929160ff16905089565b6007546040516308d2e52d60e41b8152600481018390526000916001600160a01b031690638d2e52d090602401602060405180830381865afa158015610ad5573d6000803e3d6000fd5b505050506040513d601f19601f82011682018060405250810190610af99190612027565b92915050565b610b07611a55565b610b116000611a82565b565b610b1b611a55565b600780546001600160a01b0319166001600160a01b0392909216919091179055565b6000858152600360205260408120816006820154600160401b900460ff166005811115610b6c57610b6c611b53565b14610b895760405162461bcd60e51b815260040161042c90611fb6565b60068101546001600160401b03164210610be55760405162461bcd60e51b815260206004820152601d60248201527f466c6172654f72646572426f6f6b3a207061737420646561646c696e65000000604482015260640161042c565b60008611610c355760405162461bcd60e51b815260206004820152601860248201527f466c6172654f72646572426f6f6b3a207a65726f206269640000000000000000604482015260640161042c565b8060040154861115610c945760405162461bcd60e51b815260206004820152602260248201527f466c6172654f72646572426f6f6b3a2062696420657863656564732062756467604482015261195d60f21b606482015260840161042c565b60018101546001600160a01b03163303610cfa5760405162461bcd60e51b815260206004820152602160248201527f466c6172654f72646572426f6f6b3a20706f737465722063616e6e6f742062696044820152601960fa1b606482015260840161042c565b6007546040516308d2e52d60e41b8152600481018890526000916001600160a01b031690638d2e52d090602401602060405180830381865afa158015610d44573d6000803e3d6000fd5b505050506040513d601f19601f82011682018060405250810190610d689190612027565b600280549192506000610d7a83612056565b919050559250604051806101200160405280848152602001898152602001336001600160a01b0316815260200188815260200182815260200187815260200186868080601f0160208091040260200160405190810160405280939291908181526020018383808284376000920182905250938552505042602080850191909152604093840183905287835260048082529284902085518155908501516001820155928401516002840180546001600160a01b0319166001600160a01b03909216919091179055506060830151600383015560808301519082015560a0820151600582015560c08201516006820190610e7290826120d6565b5060e08201516007820155610100909101516008909101805460ff191691151591909117905560008881526005602090815260408083208054600181018255908452928290209092018590558151898152908101839052339185918b917f34a9aee5f476df7f218e672a92a2cb667ee9908bc59d1b2fa2b2a882f715775d910160405180910390a4505095945050505050565b60056020528160005260406000208181548110610f2157600080fd5b90600052602060002001600091509150505481565b6008546001600160a01b03163314610f905760405162461bcd60e51b815260206004820152601a60248201527f466c6172654f72646572426f6f6b3a206e6f7420657363726f77000000000000604482015260640161042c565b600081815260036020526040808220600601805460ff60401b1916680300000000000000001790555182917f8dac48a311cb7b57ad6fd8483f454350a387b7ec8701a2af38bb6c824d0cb5cc91a250565b600082815260036020526040902060028101546001600160a01b0316331461104b5760405162461bcd60e51b815260206004820152601c60248201527f466c6172654f72646572426f6f6b3a206e6f742070726f766964657200000000604482015260640161042c565b60016006820154600160401b900460ff16600581111561106d5761106d611b53565b146110ba5760405162461bcd60e51b815260206004820152601c60248201527f466c6172654f72646572426f6f6b3a206e6f742061737369676e656400000000604482015260640161042c565b6006810180546802000000000000000060ff60401b199091161790556007810182905560405182815283907f45c386dc6524a2d9fe630455323c6a39f557c52ab01e886deee20a0b538147ac9060200160405180910390a2505050565b600081815260036020526040902060018101546001600160a01b031633148061114c575060028101546001600160a01b031633145b6111985760405162461bcd60e51b815260206004820152601960248201527f466c6172654f72646572426f6f6b3a206e6f7420706172747900000000000000604482015260640161042c565b60016006820154600160401b900460ff1660058111156111ba576111ba611b53565b14806111e5575060026006820154600160401b900460ff1660058111156111e3576111e3611b53565b145b6112315760405162461bcd60e51b815260206004820152601e60248201527f466c6172654f72646572426f6f6b3a2063616e6e6f7420646973707574650000604482015260640161042c565b60068101805460ff60401b191668050000000000000000179055604051339083907e7a04c23fac86b9f00290f402ccec895256f0b46ad331c80038b783acbfe41990600090a35050565b60008083116112cc5760405162461bcd60e51b815260206004820152601b60248201527f466c6172654f72646572426f6f6b3a207a65726f206275646765740000000000604482015260640161042c565b42826001600160401b0316116113245760405162461bcd60e51b815260206004820152601d60248201527f466c6172654f72646572426f6f6b3a207061737420646561646c696e65000000604482015260640161042c565b6007546040516308d2e52d60e41b8152600481018590526000916001600160a01b031690638d2e52d090602401602060405180830381865afa15801561136e573d6000803e3d6000fd5b505050506040513d601f19601f820116820180604052508101906113929190612027565b9050600081116113e45760405162461bcd60e51b815260206004820181905260248201527f466c6172654f72646572426f6f6b3a204654534f207072696365206572726f72604482015260640161042c565b600180549060006113f483612056565b919050559150604051806101600160405280838152602001336001600160a01b0316815260200160006001600160a01b0316815260200187878080601f016020809104026020016040519081016040528093929190818152602001838380828437600092018290525093855250505060208201879052604082018490526001600160401b038616606083015260809091019081526000602080830182905242604080850191909152606093840183905286835260038083529281902085518155918501516001830180546001600160a01b03199081166001600160a01b039384161790915591860151600284018054909316911617905591830151908201906114fd90826120d6565b506080820151600482015560a082015160058083019190915560c08301516006830180546001600160401b0390921667ffffffffffffffff1983168117825560e086015193919268ffffffffffffffffff19161790600160401b90849081111561156957611569611b53565b02179055506101008201516007820155610120820151600882015561014090910151600990910155600680546001810182556000919091527ff652222313e28459528d920b65115c16c04f3efc82aaedc97be59f3f377c0d3f018290556040805185815260208101839052339184917f5aa8f193b1e3d39219f576507abb963f6683db57234d0de20d38af671e7e1b54910160405180910390a350949350505050565b60408051610160810182526000808252602082018190529181018290526060808201526080810182905260a0810182905260c0810182905260e08101829052610100810182905261012081018290526101408101919091526000828152600360208181526040928390208351610160810185528154815260018201546001600160a01b039081169382019390935260028201549092169382019390935290820180549192916060840191906116c090611fed565b80601f01602080910402602001604051908101604052809291908181526020018280546116ec90611fed565b80156117395780601f1061170e57610100808354040283529160200191611739565b820191906000526020600020905b81548152906001019060200180831161171c57829003601f168201915b505050918352505060048201546020820152600580830154604083015260068301546001600160401b0381166060840152608090920191600160401b900460ff169081111561178a5761178a611b53565b600581111561179b5761179b611b53565b8152600782015460208201526008820154604082015260099091015460609091015292915050565b6117cb611a55565b600880546001600160a01b0319166001600160a01b0392909216919091179055565b600082815260036020526040902060018101546001600160a01b031633146118275760405162461bcd60e51b815260040161042c90611f7f565b60006006820154600160401b900460ff16600581111561184957611849611b53565b146118665760405162461bcd60e51b815260040161042c90611fb6565b6001600160a01b0382166118bc5760405162461bcd60e51b815260206004820152601d60248201527f466c6172654f72646572426f6f6b3a207a65726f2070726f7669646572000000604482015260640161042c565b6002810180546001600160a01b0319166001600160a01b03841690811790915560068201805460ff60401b1916600160401b17905560405184907f87347dee4386ac44f2c0bf5d058de67e2a08f526794bd25a6a73f159c82718ab90600090a3505050565b600654606090808410611944575050604080516000815260208101909152610af9565b6000816119518587612195565b11611965576119608486612195565b611967565b815b905061197385826121a8565b6001600160401b0381111561198a5761198a61206f565b6040519080825280602002602001820160405280156119b3578160200160208202803683370190505b509250845b81811015611a0e57600681815481106119d3576119d36121bb565b90600052602060002001548487836119eb91906121a8565b815181106119fb576119fb6121bb565b60209081029190910101526001016119b8565b50505092915050565b611a1f611a55565b6001600160a01b038116611a4957604051631e4fbdf760e01b81526000600482015260240161042c565b611a5281611a82565b50565b6000546001600160a01b03163314610b115760405163118cdaa760e01b815233600482015260240161042c565b600080546001600160a01b038381166001600160a01b0319831681178455604051919092169283917f8be0079c531659141344cd1fd0a4f28419497f9722a3daafe3b4186f6b6457e09190a35050565b60008060408385031215611ae557600080fd5b50508035926020909101359150565b600060208284031215611b0657600080fd5b5035919050565b6000815180845260005b81811015611b3357602081850181015186830182015201611b17565b506000602082860101526020601f19601f83011685010191505092915050565b634e487b7160e01b600052602160045260246000fd5b60068110611b8757634e487b7160e01b600052602160045260246000fd5b9052565b8b81526001600160a01b038b811660208301528a16604082015261016060608201819052600090611bbe8382018c611b0d565b9150508860808301528760a08301526001600160401b03871660c0830152611be960e0830187611b69565b8461010083015283610120830152826101408301529c9b505050505050505050505050565b6020808252825182820181905260009190848201906040850190845b81811015611c4657835183529284019291840191600101611c2a565b50909695505050505050565b60208152815160208201526020820151604082015260006040830151611c8360608401826001600160a01b03169052565b5060608301516080830152608083015160a083015260a083015160c083015260c08301516101208060e0850152611cbe610140850183611b0d565b60e0860151610100868101919091529095015115159301929092525090919050565b60006101208b83528a602084015260018060a01b038a1660408401528860608401528760808401528660a08401528060c0840152611d2081840187611b0d565b60e0840195909552505090151561010090910152979650505050505050565b80356001600160a01b0381168114611d5657600080fd5b919050565b600060208284031215611d6d57600080fd5b611d7682611d3f565b9392505050565b60008083601f840112611d8f57600080fd5b5081356001600160401b03811115611da657600080fd5b602083019150836020828501011115611dbe57600080fd5b9250929050565b600080600080600060808688031215611ddd57600080fd5b85359450602086013593506040860135925060608601356001600160401b03811115611e0857600080fd5b611e1488828901611d7d565b969995985093965092949392505050565b60008060008060608587031215611e3b57600080fd5b84356001600160401b0380821115611e5257600080fd5b611e5e88838901611d7d565b909650945060208701359350604087013591508082168214611e7f57600080fd5b50939692955090935050565b602081528151602082015260006020830151611eb260408401826001600160a01b03169052565b5060408301516001600160a01b0381166060840152506060830151610160806080850152611ee4610180850183611b0d565b9150608085015160a085015260a085015160c085015260c0850151611f1460e08601826001600160401b03169052565b5060e0850151610100611f2981870183611b69565b86015161012086810191909152860151610140808701919091529095015193019290925250919050565b60008060408385031215611f6657600080fd5b82359150611f7660208401611d3f565b90509250929050565b6020808252601a908201527f466c6172654f72646572426f6f6b3a206e6f7420706f73746572000000000000604082015260600190565b60208082526018908201527f466c6172654f72646572426f6f6b3a206e6f74206f70656e0000000000000000604082015260600190565b600181811c9082168061200157607f821691505b60208210810361202157634e487b7160e01b600052602260045260246000fd5b50919050565b60006020828403121561203957600080fd5b5051919050565b634e487b7160e01b600052601160045260246000fd5b60006001820161206857612068612040565b5060010190565b634e487b7160e01b600052604160045260246000fd5b601f8211156120d1576000816000526020600020601f850160051c810160208610156120ae5750805b601f850160051c820191505b818110156120cd578281556001016120ba565b5050505b505050565b81516001600160401b038111156120ef576120ef61206f565b612103816120fd8454611fed565b84612085565b602080601f83116001811461213857600084156121205750858301515b600019600386901b1c1916600185901b1785556120cd565b600085815260208120601f198616915b8281101561216757888601518255948401946001909101908401612148565b50858210156121855787850151600019600388901b60f8161c191681555b5050505050600190811b01905550565b80820180821115610af957610af9612040565b81810381811115610af957610af9612040565b634e487b7160e01b600052603260045260246000fdfea2646970667358221220a375de79f634e2bdead5aec742e7f562d32eeab99a19945b18e4bfc8a2eb46ac64736f6c63430008180033",
  "linkReferences": {},
  "deployedLinkReferences": {}
}