{"contracts/mocks/MockFdcVerification.sol":{"MockFdcVerification":{"abi":[{"inputs":[{"internalType":"bool","name":"pass","type":"bool"}],"name":"setShouldPass","outputs":[],"stateMutability":"nonpayable","type":"function"},{"inputs":[],"name":"shouldPass","outputs":[{"internalType":"bool","name":"","type":"bool"}],"stateMutability":"view","type":"function"},{"inputs":[{"components":[{"internalType":"bytes32[]","name":"merkleProof","type":"bytes32[]"},{"components":[{"internalType":"bytes32","name":"attestationType","type":"bytes32"},{"internalType":"bytes32","name":"sourceId","type":"bytes32"},{"internalType":"uint64","name":"votingRound","type":"uint64"},{"internalType":"uint64","name":"lowestUsedTimestamp","type":"uint64"},{"components":[{"internalType":"string","name":"url","type":"string"},{"internalType":"string","name":"postprocessJq","type":"string"},{"internalType":"string","name":"headerKey","type":"string"},{"internalType":"string","name":"headerValue","type":"string"}],"internalType":"struct IJsonApi.Request","name":"requestBody","type":"tuple"},{"components":[{"internalType":"bytes","name":"abiEncodedData","type":"bytes"}],"internalType":"struct IJsonApi.Response","name":"responseBody","type":"tuple"}],"internalType":"struct IJsonApi.Body","name":"body","type":"tuple"}],"internalType":"struct IJsonApi.Proof","name":"","type":"tuple"}],"name":"verifyJsonApi","outputs":[{"internalType":"bool","name":"","type":"bool"}],"stateMutability":"view","type":"function"}],"evm":{"bytecode":{"linkReferences":{},"object":"60806040526000805460ff1916600117905534801561001d57600080fd5b5061012b8061002d6000396000f3fe6080604052348015600f57600080fd5b5060043610603c5760003560e01c806367607372146041578063c596f469146061578063eb5dd1e314608a575b600080fd5b605f604c3660046096565b6000805460ff1916911515919091179055565b005b6076606c36600460bd565b5060005460ff1690565b604051901515815260200160405180910390f35b60005460769060ff1681565b60006020828403121560a757600080fd5b8135801515811460b657600080fd5b9392505050565b60006020828403121560ce57600080fd5b813567ffffffffffffffff81111560e457600080fd5b82016040818503121560b657600080fdfea2646970667358221220ca4e62537e66c4de786814585035e467a267c80700948a0b2fb4192a136c6d0364736f6c63430008180033","opcodes":"PUSH1 0x80 PUSH1 0x40 MSTORE PUSH1 0x0 DUP1 SLOAD PUSH1 0xFF NOT AND PUSH1 0x1 OR SWAP1 SSTORE CALLVALUE DUP1 ISZERO PUSH2 0x1D JUMPI PUSH1 0x0 DUP1 REVERT JUMPDEST POP PUSH2 0x12B DUP1 PUSH2 0x2D PUSH1 0x0 CODECOPY PUSH1 0x0 RETURN INVALID PUSH1 0x80 PUSH1 0x40 MSTORE CALLVALUE DUP1 ISZERO PUSH1 0xF JUMPI PUSH1 0x0 DUP1 REVERT JUMPDEST POP PUSH1 0x4 CALLDATASIZE LT PUSH1 0x3C JUMPI PUSH1 0x0 CALLDATALOAD PUSH1 0xE0 SHR DUP1 PUSH4 0x67607372 EQ PUSH1 0x41 JUMPI DUP1 PUSH4 0xC596F469 EQ PUSH1 0x61 JUMPI DUP1 PUSH4 0xEB5DD1E3 EQ PUSH1 0x8A JUMPI JUMPDEST PUSH1 0x0 DUP1 REVERT JUMPDEST PUSH1 0x5F PUSH1 0x4C CALLDATASIZE PUSH1 0x4 PUSH1 0x96 JUMP JUMPDEST PUSH1 0x0 DUP1 SLOAD PUSH1 0xFF NOT AND SWAP2 ISZERO ISZERO SWAP2 SWAP1 SWAP2 OR SWAP1 SSTORE JUMP JUMPDEST STOP JUMPDEST PUSH1 0x76 PUSH1 0x6C CALLDATASIZE PUSH1 0x4 PUSH1 0xBD JUMP JUMPDEST POP PUSH1 0x0 SLOAD PUSH1 0xFF AND SWAP1 JUMP JUMPDEST PUSH1 0x40 MLOAD SWAP1 ISZERO ISZERO DUP2 MSTORE PUSH1 0x20 ADD PUSH1 0x40 MLOAD DUP1 SWAP2 SUB SWAP1 RETURN JUMPDEST PUSH1 0x0 SLOAD PUSH1 0x76 SWAP1 PUSH1 0xFF AND DUP2 JUMP JUMPDEST PUSH1 0x0 PUSH1 0x20 DUP3 DUP5 SUB SLT ISZERO PUSH1 0xA7 JUMPI PUSH1 0x0 DUP1 REVERT JUMPDEST DUP2 CALLDATALOAD DUP1 ISZERO ISZERO DUP2 EQ PUSH1 0xB6 JUMPI PUSH1 0x0 DUP1 REVERT JUMPDEST SWAP4 SWAP3 POP POP POP JUMP JUMPDEST PUSH1 0x0 PUSH1 0x20 DUP3 DUP5 SUB SLT ISZERO PUSH1 0xCE JUMPI PUSH1 0x0 DUP1 REVERT JUMPDEST DUP2 CALLDATALOAD PUSH8 0xFFFFFFFFFFFFFFFF DUP2 GT ISZERO PUSH1 0xE4 JUMPI PUSH1 0x0 DUP1 REVERT JUMPDEST DUP3 ADD PUSH1 0x40 DUP2 DUP6 SUB SLT ISZERO PUSH1 0xB6 JUMPI PUSH1 0x0 DUP1 REVERT INVALID LOG2 PUSH5 0x6970667358 0x22 SLT KECCAK256 0xCA 0x4E PUSH3 0x537E66 0xC4 0xDE PUSH25 0x6814585035E467A267C80700948A0B2FB4192A136C6D036473 PUSH16 0x6C634300081800330000000000000000 "},"methodIdentifiers":{"setShouldPass(bool)":"67607372","shouldPass()":"eb5dd1e3","verifyJsonApi((bytes32[],(bytes32,bytes32,uint64,uint64,(string,string,string,string),(bytes))))":"c596f469"}}}}}