{"contracts/FTSOPriceConsumer.sol":{"FTSOPriceConsumer":{"abi":[{"inputs":[{"internalType":"address","name":"initialOwner","type":"address"}],"stateMutability":"nonpayable","type":"constructor"},{"inputs":[{"internalType":"address","name":"owner","type":"address"}],"name":"OwnableInvalidOwner","type":"error"},{"inputs":[{"internalType":"address","name":"account","type":"address"}],"name":"OwnableUnauthorizedAccount","type":"error"},{"anonymous":false,"inputs":[{"indexed":true,"internalType":"address","name":"updater","type":"address"}],"name":"FastUpdaterSet","type":"event"},{"anonymous":false,"inputs":[{"indexed":false,"internalType":"uint256","name":"newStaleness","type":"uint256"}],"name":"MaxStalenessUpdated","type":"event"},{"anonymous":false,"inputs":[{"indexed":true,"internalType":"address","name":"previousOwner","type":"address"},{"indexed":true,"internalType":"address","name":"newOwner","type":"address"}],"name":"OwnershipTransferred","type":"event"},{"inputs":[],"name":"FLARE_CONTRACT_REGISTRY","outputs":[{"internalType":"address","name":"","type":"address"}],"stateMutability":"view","type":"function"},{"inputs":[],"name":"FLR_USD_FEED_INDEX","outputs":[{"internalType":"uint256","name":"","type":"uint256"}],"stateMutability":"view","type":"function"},{"inputs":[],"name":"fastUpdater","outputs":[{"internalType":"contract IFastUpdater","name":"","type":"address"}],"stateMutability":"view","type":"function"},{"inputs":[{"internalType":"uint256","name":"flrAmount","type":"uint256"}],"name":"flrToUsd","outputs":[{"internalType":"uint256","name":"usdAmount","type":"uint256"}],"stateMutability":"view","type":"function"},{"inputs":[],"name":"getFlrUsdPrice","outputs":[{"internalType":"uint256","name":"priceWei","type":"uint256"},{"internalType":"int64","name":"timestamp","type":"int64"}],"stateMutability":"view","type":"function"},{"inputs":[],"name":"maxStaleness","outputs":[{"internalType":"uint256","name":"","type":"uint256"}],"stateMutability":"view","type":"function"},{"inputs":[],"name":"owner","outputs":[{"internalType":"address","name":"","type":"address"}],"stateMutability":"view","type":"function"},{"inputs":[],"name":"renounceOwnership","outputs":[],"stateMutability":"nonpayable","type":"function"},{"inputs":[],"name":"resolveFastUpdater","outputs":[],"stateMutability":"nonpayable","type":"function"},{"inputs":[{"internalType":"address","name":"updater","type":"address"}],"name":"setFastUpdater","outputs":[],"stateMutability":"nonpayable","type":"function"},{"inputs":[{"internalType":"uint256","name":"seconds_","type":"uint256"}],"name":"setMaxStaleness","outputs":[],"stateMutability":"nonpayable","type":"function"},{"inputs":[{"internalType":"address","name":"newOwner","type":"address"}],"name":"transferOwnership","outputs":[],"stateMutability":"nonpayable","type":"function"},{"inputs":[{"internalType":"uint256","name":"usdAmount","type":"uint256"}],"name":"usdToFlr","outputs":[{"internalType":"uint256","name":"flrAmount","type":"uint256"}],"stateMutability":"view","type":"function"}],"evm":{"bytecode":{"linkReferences":{},"object":"608060405261012c60015534801561001657600080fd5b50604051610dd3380380610dd3833981016040819052610035916101d9565b806001600160a01b03811661006457604051631e4fbdf760e01b81526000600482015260240160405180910390fd5b61006d8161007c565b506100766100cc565b50610209565b600080546001600160a01b038381166001600160a01b0319831681178455604051919092169283917f8be0079c531659141344cd1fd0a4f28419497f9722a3daafe3b4186f6b6457e09190a35050565b73ad67fe66660fb8dfe9d6b1b4240d8650e30f60193b6000036100eb57565b60405163413b07e560e11b815260206004820152600b60248201526a2330b9ba2ab83230ba32b960a91b604482015260009073ad67fe66660fb8dfe9d6b1b4240d8650e30f6019906382760fca90606401602060405180830381865afa158015610159573d6000803e3d6000fd5b505050506040513d601f19601f8201168201806040525081019061017d91906101d9565b90506001600160a01b038116156101d657600280546001600160a01b0319166001600160a01b0383169081179091556040517f3882c72003d3fe1b190993405dbc8ab0f1940a2be6c3dd65e216b47da4c7701490600090a25b50565b6000602082840312156101eb57600080fd5b81516001600160a01b038116811461020257600080fd5b9392505050565b610bbb806102186000396000f3fe608060405234801561001057600080fd5b50600436106100cf5760003560e01c806387cf46961161008c578063d26384de11610066578063d26384de146101aa578063d29a4fa9146101b2578063ea7229b2146101c5578063f2fde38b146101cd57600080fd5b806387cf46961461017d5780638d2e52d0146101865780638da5cb5b1461019957600080fd5b806308200a7c146100d4578063100bc9e1146100f95780631d39ba0f1461010e57806320249cf11461012f578063715018a6146101625780637656183b1461016a575b600080fd5b6100dc6101e0565b6040805192835260079190910b6020830152015b60405180910390f35b61010c61010736600461075f565b6103e4565b005b61012161011c36600461075f565b610427565b6040519081526020016100f0565b61014a73ad67fe66660fb8dfe9d6b1b4240d8650e30f601981565b6040516001600160a01b0390911681526020016100f0565b61010c610459565b61010c61017836600461078d565b61046d565b61012160015481565b61012161019436600461075f565b6104bf565b6000546001600160a01b031661014a565b610121600081565b60025461014a906001600160a01b031681565b61010c610526565b61010c6101db36600461078d565b610536565b60025460009081906001600160a01b031661023a5760405162461bcd60e51b8152602060048201526015602482015274119514d3ce881d5c19185d195c881b9bdd081cd95d605a1b60448201526064015b60405180910390fd5b60408051600180825281830190925260009160208083019080368337019050509050600081600081518110610271576102716107c0565b6020908102919091010152600254604051631168574f60e21b8152600091829182916001600160a01b0316906345a15d3c906102b19087906004016107d6565b600060405180830381865afa1580156102ce573d6000803e3d6000fd5b505050506040513d6000823e601f3d908101601f191682016040526102f69190810190610905565b92509250925060008351116103425760405162461bcd60e51b81526020600482015260126024820152714654534f3a206e6f2066656564206461746160701b6044820152606401610231565b60015461035967ffffffffffffffff8316426109e7565b111561039b5760405162461bcd60e51b81526020600482015260116024820152704654534f3a207072696365207374616c6560781b6044820152606401610231565b6103d9836000815181106103b1576103b16107c0565b6020026020010151836000815181106103cc576103cc6107c0565b6020026020010151610574565b969095509350505050565b6103ec6105d6565b60018190556040518181527f64a4703c7c168827058126cbd2e71d8d0f026afa821e7dff1480173dffdd38959060200160405180910390a150565b6000806104326101e0565b509050670de0b6b3a764000061044882856109fa565b6104529190610a11565b9392505050565b6104616105d6565b61046b6000610603565b565b6104756105d6565b600280546001600160a01b0319166001600160a01b0383169081179091556040517f3882c72003d3fe1b190993405dbc8ab0f1940a2be6c3dd65e216b47da4c7701490600090a250565b6000806104ca6101e0565b509050600081116105135760405162461bcd60e51b81526020600482015260136024820152724654534f3a207072696365206973207a65726f60681b6044820152606401610231565b8061044884670de0b6b3a76400006109fa565b61052e6105d6565b61046b610653565b61053e6105d6565b6001600160a01b03811661056857604051631e4fbdf760e01b815260006004820152602401610231565b61057181610603565b50565b6000808260000b126105ac57600061058d836012610a33565b905061059a81600a610b38565b6105a490856109fa565b9150506105d0565b60006105b9836012610b47565b90506105c681600a610b38565b6105a49085610a11565b92915050565b6000546001600160a01b0316331461046b5760405163118cdaa760e01b8152336004820152602401610231565b600080546001600160a01b038381166001600160a01b0319831681178455604051919092169283917f8be0079c531659141344cd1fd0a4f28419497f9722a3daafe3b4186f6b6457e09190a35050565b73ad67fe66660fb8dfe9d6b1b4240d8650e30f60193b60000361067257565b60405163413b07e560e11b815260206004820152600b60248201526a2330b9ba2ab83230ba32b960a91b604482015260009073ad67fe66660fb8dfe9d6b1b4240d8650e30f6019906382760fca90606401602060405180830381865afa1580156106e0573d6000803e3d6000fd5b505050506040513d601f19601f820116820180604052508101906107049190610b68565b90506001600160a01b0381161561057157600280546001600160a01b0319166001600160a01b0383169081179091556040517f3882c72003d3fe1b190993405dbc8ab0f1940a2be6c3dd65e216b47da4c7701490600090a250565b60006020828403121561077157600080fd5b5035919050565b6001600160a01b038116811461057157600080fd5b60006020828403121561079f57600080fd5b813561045281610778565b634e487b7160e01b600052604160045260246000fd5b634e487b7160e01b600052603260045260246000fd5b6020808252825182820181905260009190848201906040850190845b8181101561080e578351835292840192918401916001016107f2565b50909695505050505050565b604051601f8201601f1916810167ffffffffffffffff81118282101715610843576108436107aa565b604052919050565b600067ffffffffffffffff821115610865576108656107aa565b5060051b60200190565b600082601f83011261088057600080fd5b815160206108956108908361084b565b61081a565b8083825260208201915060208460051b8701019350868411156108b757600080fd5b602086015b848110156108e3578051600081810b82146108d5578081fd5b5083529183019183016108bc565b509695505050505050565b8051600781900b811461090057600080fd5b919050565b60008060006060848603121561091a57600080fd5b835167ffffffffffffffff8082111561093257600080fd5b818601915086601f83011261094657600080fd5b815160206109566108908361084b565b82815260059290921b8401810191818101908a84111561097557600080fd5b948201945b838610156109935785518252948201949082019061097a565b918901519197509093505050808211156109ac57600080fd5b506109b98682870161086f565b9250506109c8604085016108ee565b90509250925092565b634e487b7160e01b600052601160045260246000fd5b818103818111156105d0576105d06109d1565b80820281158282048414176105d0576105d06109d1565b600082610a2e57634e487b7160e01b600052601260045260246000fd5b500490565b600082810b9082900b03607f198112607f821317156105d0576105d06109d1565b600181815b80851115610a8f578160001904821115610a7557610a756109d1565b80851615610a8257918102915b93841c9390800290610a59565b509250929050565b600082610aa6575060016105d0565b81610ab3575060006105d0565b8160018114610ac95760028114610ad357610aef565b60019150506105d0565b60ff841115610ae457610ae46109d1565b50506001821b6105d0565b5060208310610133831016604e8410600b8410161715610b12575081810a6105d0565b610b1c8383610a54565b8060001904821115610b3057610b306109d1565b029392505050565b600061045260ff841683610a97565b600081810b9083900b01607f8113607f19821217156105d0576105d06109d1565b600060208284031215610b7a57600080fd5b81516104528161077856fea2646970667358221220e3d38e657595528ba5d141e2a9615185378239314b2e323b6c3fcba3befd6c0e64736f6c63430008180033","opcodes":"PUSH1 0x80 PUSH1 0x40 MSTORE PUSH2 0x12C PUSH1 0x1 SSTORE CALLVALUE DUP1 ISZERO PUSH2 0x16 JUMPI PUSH1 0x0 DUP1 REVERT JUMPDEST POP PUSH1 0x40 MLOAD PUSH2 0xDD3 CODESIZE SUB DUP1 PUSH2 0xDD3 DUP4 CODECOPY DUP2 ADD PUSH1 0x40 DUP2 SWAP1 MSTORE PUSH2 0x35 SWAP2 PUSH2 0x1D9 JUMP JUMPDEST DUP1 PUSH1 0x1 PUSH1 0x1 PUSH1 0xA0 SHL SUB DUP2 AND PUSH2 0x64 JUMPI PUSH1 0x40 MLOAD PUSH4 0x1E4FBDF7 PUSH1 0xE0 SHL DUP2 MSTORE PUSH1 0x0 PUSH1 0x4 DUP3 ADD MSTORE PUSH1 0x24 ADD PUSH1 0x40 MLOAD DUP1 SWAP2 SUB SWAP1 REVERT JUMPDEST PUSH2 0x6D DUP2 PUSH2 0x7C JUMP JUMPDEST POP PUSH2 0x76 PUSH2 0xCC JUMP JUMPDEST POP PUSH2 0x209 JUMP JUMPDEST PUSH1 0x0 DUP1 SLOAD PUSH1 0x1 PUSH1 0x1 PUSH1 0xA0 SHL SUB DUP4 DUP2 AND PUSH1 0x1 PUSH1 0x1 PUSH1 0xA0 SHL SUB NOT DUP4 AND DUP2 OR DUP5 SSTORE PUSH1 0x40 MLOAD SWAP2 SWAP1 SWAP3 AND SWAP3 DUP4 SWAP2 PUSH32 0x8BE0079C531659141344CD1FD0A4F28419497F9722A3DAAFE3B4186F6B6457E0 SWAP2 SWAP1 LOG3 POP POP JUMP JUMPDEST PUSH20 0xAD67FE66660FB8DFE9D6B1B4240D8650E30F6019 EXTCODESIZE PUSH1 0x0 SUB PUSH2 0xEB JUMPI JUMP JUMPDEST PUSH1 0x40 MLOAD PUSH4 0x413B07E5 PUSH1 0xE1 SHL DUP2 MSTORE PUSH1 0x20 PUSH1 0x4 DUP3 ADD MSTORE PUSH1 0xB PUSH1 0x24 DUP3 ADD MSTORE PUSH11 0x2330B9BA2AB83230BA32B9 PUSH1 0xA9 SHL PUSH1 0x44 DUP3 ADD MSTORE PUSH1 0x0 SWAP1 PUSH20 0xAD67FE66660FB8DFE9D6B1B4240D8650E30F6019 SWAP1 PUSH4 0x82760FCA SWAP1 PUSH1 0x64 ADD PUSH1 0x20 PUSH1 0x40 MLOAD DUP1 DUP4 SUB DUP2 DUP7 GAS STATICCALL ISZERO DUP1 ISZERO PUSH2 0x159 JUMPI RETURNDATASIZE PUSH1 0x0 DUP1 RETURNDATACOPY RETURNDATASIZE PUSH1 0x0 REVERT JUMPDEST POP POP POP POP PUSH1 0x40 MLOAD RETURNDATASIZE PUSH1 0x1F NOT PUSH1 0x1F DUP3 ADD AND DUP3 ADD DUP1 PUSH1 0x40 MSTORE POP DUP2 ADD SWAP1 PUSH2 0x17D SWAP2 SWAP1 PUSH2 0x1D9 JUMP JUMPDEST SWAP1 POP PUSH1 0x1 PUSH1 0x1 PUSH1 0xA0 SHL SUB DUP2 AND ISZERO PUSH2 0x1D6 JUMPI PUSH1 0x2 DUP1 SLOAD PUSH1 0x1 PUSH1 0x1 PUSH1 0xA0 SHL SUB NOT AND PUSH1 0x1 PUSH1 0x1 PUSH1 0xA0 SHL SUB DUP4 AND SWAP1 DUP2 OR SWAP1 SWAP2 SSTORE PUSH1 0x40 MLOAD PUSH32 0x3882C72003D3FE1B190993405DBC8AB0F1940A2BE6C3DD65E216B47DA4C77014 SWAP1 PUSH1 0x0 SWAP1 LOG2 JUMPDEST POP JUMP JUMPDEST PUSH1 0x0 PUSH1 0x20 DUP3 DUP5 SUB SLT ISZERO PUSH2 0x1EB JUMPI PUSH1 0x0 DUP1 REVERT JUMPDEST DUP2 MLOAD PUSH1 0x1 PUSH1 0x1 PUSH1 0xA0 SHL SUB DUP2 AND DUP2 EQ PUSH2 0x202 JUMPI PUSH1 0x0 DUP1 REVERT JUMPDEST SWAP4 SWAP3 POP POP POP JUMP JUMPDEST PUSH2 0xBBB DUP1 PUSH2 0x218 PUSH1 0x0 CODECOPY PUSH1 0x0 RETURN INVALID PUSH1 0x80 PUSH1 0x40 MSTORE CALLVALUE DUP1 ISZERO PUSH2 0x10 JUMPI PUSH1 0x0 DUP1 REVERT JUMPDEST POP PUSH1 0x4 CALLDATASIZE LT PUSH2 0xCF JUMPI PUSH1 0x0 CALLDATALOAD PUSH1 0xE0 SHR DUP1 PUSH4 0x87CF4696 GT PUSH2 0x8C JUMPI DUP1 PUSH4 0xD26384DE GT PUSH2 0x66 JUMPI DUP1 PUSH4 0xD26384DE EQ PUSH2 0x1AA JUMPI DUP1 PUSH4 0xD29A4FA9 EQ PUSH2 0x1B2 JUMPI DUP1 PUSH4 0xEA7229B2 EQ PUSH2 0x1C5 JUMPI DUP1 PUSH4 0xF2FDE38B EQ PUSH2 0x1CD JUMPI PUSH1 0x0 DUP1 REVERT JUMPDEST DUP1 PUSH4 0x87CF4696 EQ PUSH2 0x17D JUMPI DUP1 PUSH4 0x8D2E52D0 EQ PUSH2 0x186 JUMPI DUP1 PUSH4 0x8DA5CB5B EQ PUSH2 0x199 JUMPI PUSH1 0x0 DUP1 REVERT JUMPDEST DUP1 PUSH4 0x8200A7C EQ PUSH2 0xD4 JUMPI DUP1 PUSH4 0x100BC9E1 EQ PUSH2 0xF9 JUMPI DUP1 PUSH4 0x1D39BA0F EQ PUSH2 0x10E JUMPI DUP1 PUSH4 0x20249CF1 EQ PUSH2 0x12F JUMPI DUP1 PUSH4 0x715018A6 EQ PUSH2 0x162 JUMPI DUP1 PUSH4 0x7656183B EQ PUSH2 0x16A JUMPI JUMPDEST PUSH1 0x0 DUP1 REVERT JUMPDEST PUSH2 0xDC PUSH2 0x1E0 JUMP JUMPDEST PUSH1 0x40 DUP1 MLOAD SWAP3 DUP4 MSTORE PUSH1 0x7 SWAP2 SWAP1 SWAP2 SIGNEXTEND PUSH1 0x20 DUP4 ADD MSTORE ADD JUMPDEST PUSH1 0x40 MLOAD DUP1 SWAP2 SUB SWAP1 RETURN JUMPDEST PUSH2 0x10C PUSH2 0x107 CALLDATASIZE PUSH1 0x4 PUSH2 0x75F JUMP JUMPDEST PUSH2 0x3E4 JUMP JUMPDEST STOP JUMPDEST PUSH2 0x121 PUSH2 0x11C CALLDATASIZE PUSH1 0x4 PUSH2 0x75F JUMP JUMPDEST PUSH2 0x427 JUMP JUMPDEST PUSH1 0x40 MLOAD SWAP1 DUP2 MSTORE PUSH1 0x20 ADD PUSH2 0xF0 JUMP JUMPDEST PUSH2 0x14A PUSH20 0xAD67FE66660FB8DFE9D6B1B4240D8650E30F6019 DUP2 JUMP JUMPDEST PUSH1 0x40 MLOAD PUSH1 0x1 PUSH1 0x1 PUSH1 0xA0 SHL SUB SWAP1 SWAP2 AND DUP2 MSTORE PUSH1 0x20 ADD PUSH2 0xF0 JUMP JUMPDEST PUSH2 0x10C PUSH2 0x459 JUMP JUMPDEST PUSH2 0x10C PUSH2 0x178 CALLDATASIZE PUSH1 0x4 PUSH2 0x78D JUMP JUMPDEST PUSH2 0x46D JUMP JUMPDEST PUSH2 0x121 PUSH1 0x1 SLOAD DUP2 JUMP JUMPDEST PUSH2 0x121 PUSH2 0x194 CALLDATASIZE PUSH1 0x4 PUSH2 0x75F JUMP JUMPDEST PUSH2 0x4BF JUMP JUMPDEST PUSH1 0x0 SLOAD PUSH1 0x1 PUSH1 0x1 PUSH1 0xA0 SHL SUB AND PUSH2 0x14A JUMP JUMPDEST PUSH2 0x121 PUSH1 0x0 DUP2 JUMP JUMPDEST PUSH1 0x2 SLOAD PUSH2 0x14A SWAP1 PUSH1 0x1 PUSH1 0x1 PUSH1 0xA0 SHL SUB AND DUP2 JUMP JUMPDEST PUSH2 0x10C PUSH2 0x526 JUMP JUMPDEST PUSH2 0x10C PUSH2 0x1DB CALLDATASIZE PUSH1 0x4 PUSH2 0x78D JUMP JUMPDEST PUSH2 0x536 JUMP JUMPDEST PUSH1 0x2 SLOAD PUSH1 0x0 SWAP1 DUP2 SWAP1 PUSH1 0x1 PUSH1 0x1 PUSH1 0xA0 SHL SUB AND PUSH2 0x23A JUMPI PUSH1 0x40 MLOAD PUSH3 0x461BCD PUSH1 0xE5 SHL DUP2 MSTORE PUSH1 0x20 PUSH1 0x4 DUP3 ADD MSTORE PUSH1 0x15 PUSH1 0x24 DUP3 ADD MSTORE PUSH21 0x119514D3CE881D5C19185D195C881B9BDD081CD95D PUSH1 0x5A SHL PUSH1 0x44 DUP3 ADD MSTORE PUSH1 0x64 ADD JUMPDEST PUSH1 0x40 MLOAD DUP1 SWAP2 SUB SWAP1 REVERT JUMPDEST PUSH1 0x40 DUP1 MLOAD PUSH1 0x1 DUP1 DUP3 MSTORE DUP2 DUP4 ADD SWAP1 SWAP3 MSTORE PUSH1 0x0 SWAP2 PUSH1 0x20 DUP1 DUP4 ADD SWAP1 DUP1 CALLDATASIZE DUP4 CALLDATACOPY ADD SWAP1 POP POP SWAP1 POP PUSH1 0x0 DUP2 PUSH1 0x0 DUP2 MLOAD DUP2 LT PUSH2 0x271 JUMPI PUSH2 0x271 PUSH2 0x7C0 JUMP JUMPDEST PUSH1 0x20 SWAP1 DUP2 MUL SWAP2 SWAP1 SWAP2 ADD ADD MSTORE PUSH1 0x2 SLOAD PUSH1 0x40 MLOAD PUSH4 0x1168574F PUSH1 0xE2 SHL DUP2 MSTORE PUSH1 0x0 SWAP2 DUP3 SWAP2 DUP3 SWAP2 PUSH1 0x1 PUSH1 0x1 PUSH1 0xA0 SHL SUB AND SWAP1 PUSH4 0x45A15D3C SWAP1 PUSH2 0x2B1 SWAP1 DUP8 SWAP1 PUSH1 0x4 ADD PUSH2 0x7D6 JUMP JUMPDEST PUSH1 0x0 PUSH1 0x40 MLOAD DUP1 DUP4 SUB DUP2 DUP7 GAS STATICCALL ISZERO DUP1 ISZERO PUSH2 0x2CE JUMPI RETURNDATASIZE PUSH1 0x0 DUP1 RETURNDATACOPY RETURNDATASIZE PUSH1 0x0 REVERT JUMPDEST POP POP POP POP PUSH1 0x40 MLOAD RETURNDATASIZE PUSH1 0x0 DUP3 RETURNDATACOPY PUSH1 0x1F RETURNDATASIZE SWAP1 DUP2 ADD PUSH1 0x1F NOT AND DUP3 ADD PUSH1 0x40 MSTORE PUSH2 0x2F6 SWAP2 SWAP1 DUP2 ADD SWAP1 PUSH2 0x905 JUMP JUMPDEST SWAP3 POP SWAP3 POP SWAP3 POP PUSH1 0x0 DUP4 MLOAD GT PUSH2 0x342 JUMPI PUSH1 0x40 MLOAD PUSH3 0x461BCD PUSH1 0xE5 SHL DUP2 MSTORE PUSH1 0x20 PUSH1 0x4 DUP3 ADD MSTORE PUSH1 0x12 PUSH1 0x24 DUP3 ADD MSTORE PUSH18 0x4654534F3A206E6F20666565642064617461 PUSH1 0x70 SHL PUSH1 0x44 DUP3 ADD MSTORE PUSH1 0x64 ADD PUSH2 0x231 JUMP JUMPDEST PUSH1 0x1 SLOAD PUSH2 0x359 PUSH8 0xFFFFFFFFFFFFFFFF DUP4 AND TIMESTAMP PUSH2 0x9E7 JUMP JUMPDEST GT ISZERO PUSH2 0x39B JUMPI PUSH1 0x40 MLOAD PUSH3 0x461BCD PUSH1 0xE5 SHL DUP2 MSTORE PUSH1 0x20 PUSH1 0x4 DUP3 ADD MSTORE PUSH1 0x11 PUSH1 0x24 DUP3 ADD MSTORE PUSH17 0x4654534F3A207072696365207374616C65 PUSH1 0x78 SHL PUSH1 0x44 DUP3 ADD MSTORE PUSH1 0x64 ADD PUSH2 0x231 JUMP JUMPDEST PUSH2 0x3D9 DUP4 PUSH1 0x0 DUP2 MLOAD DUP2 LT PUSH2 0x3B1 JUMPI PUSH2 0x3B1 PUSH2 0x7C0 JUMP JUMPDEST PUSH1 0x20 MUL PUSH1 0x20 ADD ADD MLOAD DUP4 PUSH1 0x0 DUP2 MLOAD DUP2 LT PUSH2 0x3CC JUMPI PUSH2 0x3CC PUSH2 0x7C0 JUMP JUMPDEST PUSH1 0x20 MUL PUSH1 0x20 ADD ADD MLOAD PUSH2 0x574 JUMP JUMPDEST SWAP7 SWAP1 SWAP6 POP SWAP4 POP POP POP POP JUMP JUMPDEST PUSH2 0x3EC PUSH2 0x5D6 JUMP JUMPDEST PUSH1 0x1 DUP2 SWAP1 SSTORE PUSH1 0x40 MLOAD DUP2 DUP2 MSTORE PUSH32 0x64A4703C7C168827058126CBD2E71D8D0F026AFA821E7DFF1480173DFFDD3895 SWAP1 PUSH1 0x20 ADD PUSH1 0x40 MLOAD DUP1 SWAP2 SUB SWAP1 LOG1 POP JUMP JUMPDEST PUSH1 0x0 DUP1 PUSH2 0x432 PUSH2 0x1E0 JUMP JUMPDEST POP SWAP1 POP PUSH8 0xDE0B6B3A7640000 PUSH2 0x448 DUP3 DUP6 PUSH2 0x9FA JUMP JUMPDEST PUSH2 0x452 SWAP2 SWAP1 PUSH2 0xA11 JUMP JUMPDEST SWAP4 SWAP3 POP POP POP JUMP JUMPDEST PUSH2 0x461 PUSH2 0x5D6 JUMP JUMPDEST PUSH2 0x46B PUSH1 0x0 PUSH2 0x603 JUMP JUMPDEST JUMP JUMPDEST PUSH2 0x475 PUSH2 0x5D6 JUMP JUMPDEST PUSH1 0x2 DUP1 SLOAD PUSH1 0x1 PUSH1 0x1 PUSH1 0xA0 SHL SUB NOT AND PUSH1 0x1 PUSH1 0x1 PUSH1 0xA0 SHL SUB DUP4 AND SWAP1 DUP2 OR SWAP1 SWAP2 SSTORE PUSH1 0x40 MLOAD PUSH32 0x3882C72003D3FE1B190993405DBC8AB0F1940A2BE6C3DD65E216B47DA4C77014 SWAP1 PUSH1 0x0 SWAP1 LOG2 POP JUMP JUMPDEST PUSH1 0x0 DUP1 PUSH2 0x4CA PUSH2 0x1E0 JUMP JUMPDEST POP SWAP1 POP PUSH1 0x0 DUP2 GT PUSH2 0x513 JUMPI PUSH1 0x40 MLOAD PUSH3 0x461BCD PUSH1 0xE5 SHL DUP2 MSTORE PUSH1 0x20 PUSH1 0x4 DUP3 ADD MSTORE PUSH1 0x13 PUSH1 0x24 DUP3 ADD MSTORE PUSH19 0x4654534F3A207072696365206973207A65726F PUSH1 0x68 SHL PUSH1 0x44 DUP3 ADD MSTORE PUSH1 0x64 ADD PUSH2 0x231 JUMP JUMPDEST DUP1 PUSH2 0x448 DUP5 PUSH8 0xDE0B6B3A7640000 PUSH2 0x9FA JUMP JUMPDEST PUSH2 0x52E PUSH2 0x5D6 JUMP JUMPDEST PUSH2 0x46B PUSH2 0x653 JUMP JUMPDEST PUSH2 0x53E PUSH2 0x5D6 JUMP JUMPDEST PUSH1 0x1 PUSH1 0x1 PUSH1 0xA0 SHL SUB DUP2 AND PUSH2 0x568 JUMPI PUSH1 0x40 MLOAD PUSH4 0x1E4FBDF7 PUSH1 0xE0 SHL DUP2 MSTORE PUSH1 0x0 PUSH1 0x4 DUP3 ADD MSTORE PUSH1 0x24 ADD PUSH2 0x231 JUMP JUMPDEST PUSH2 0x571 DUP2 PUSH2 0x603 JUMP JUMPDEST POP JUMP JUMPDEST PUSH1 0x0 DUP1 DUP3 PUSH1 0x0 SIGNEXTEND SLT PUSH2 0x5AC JUMPI PUSH1 0x0 PUSH2 0x58D DUP4 PUSH1 0x12 PUSH2 0xA33 JUMP JUMPDEST SWAP1 POP PUSH2 0x59A DUP2 PUSH1 0xA PUSH2 0xB38 JUMP JUMPDEST PUSH2 0x5A4 SWAP1 DUP6 PUSH2 0x9FA JUMP JUMPDEST SWAP2 POP POP PUSH2 0x5D0 JUMP JUMPDEST PUSH1 0x0 PUSH2 0x5B9 DUP4 PUSH1 0x12 PUSH2 0xB47 JUMP JUMPDEST SWAP1 POP PUSH2 0x5C6 DUP2 PUSH1 0xA PUSH2 0xB38 JUMP JUMPDEST PUSH2 0x5A4 SWAP1 DUP6 PUSH2 0xA11 JUMP JUMPDEST SWAP3 SWAP2 POP POP JUMP JUMPDEST PUSH1 0x0 SLOAD PUSH1 0x1 PUSH1 0x1 PUSH1 0xA0 SHL SUB AND CALLER EQ PUSH2 0x46B JUMPI PUSH1 0x40 MLOAD PUSH4 0x118CDAA7 PUSH1 0xE0 SHL DUP2 MSTORE CALLER PUSH1 0x4 DUP3 ADD MSTORE PUSH1 0x24 ADD PUSH2 0x231 JUMP JUMPDEST PUSH1 0x0 DUP1 SLOAD PUSH1 0x1 PUSH1 0x1 PUSH1 0xA0 SHL SUB DUP4 DUP2 AND PUSH1 0x1 PUSH1 0x1 PUSH1 0xA0 SHL SUB NOT DUP4 AND DUP2 OR DUP5 SSTORE PUSH1 0x40 MLOAD SWAP2 SWAP1 SWAP3 AND SWAP3 DUP4 SWAP2 PUSH32 0x8BE0079C531659141344CD1FD0A4F28419497F9722A3DAAFE3B4186F6B6457E0 SWAP2 SWAP1 LOG3 POP POP JUMP JUMPDEST PUSH20 0xAD67FE66660FB8DFE9D6B1B4240D8650E30F6019 EXTCODESIZE PUSH1 0x0 SUB PUSH2 0x672 JUMPI JUMP JUMPDEST PUSH1 0x40 MLOAD PUSH4 0x413B07E5 PUSH1 0xE1 SHL DUP2 MSTORE PUSH1 0x20 PUSH1 0x4 DUP3 ADD MSTORE PUSH1 0xB PUSH1 0x24 DUP3 ADD MSTORE PUSH11 0x2330B9BA2AB83230BA32B9 PUSH1 0xA9 SHL PUSH1 0x44 DUP3 ADD MSTORE PUSH1 0x0 SWAP1 PUSH20 0xAD67FE66660FB8DFE9D6B1B4240D8650E30F6019 SWAP1 PUSH4 0x82760FCA SWAP1 PUSH1 0x64 ADD PUSH1 0x20 PUSH1 0x40 MLOAD DUP1 DUP4 SUB DUP2 DUP7 GAS STATICCALL ISZERO DUP1 ISZERO PUSH2 0x6E0 JUMPI RETURNDATASIZE PUSH1 0x0 DUP1 RETURNDATACOPY RETURNDATASIZE PUSH1 0x0 REVERT JUMPDEST POP POP POP POP PUSH1 0x40 MLOAD RETURNDATASIZE PUSH1 0x1F NOT PUSH1 0x1F DUP3 ADD AND DUP3 ADD DUP1 PUSH1 0x40 MSTORE POP DUP2 ADD SWAP1 PUSH2 0x704 SWAP2 SWAP1 PUSH2 0xB68 JUMP JUMPDEST SWAP1 POP PUSH1 0x1 PUSH1 0x1 PUSH1 0xA0 SHL SUB DUP2 AND ISZERO PUSH2 0x571 JUMPI PUSH1 0x2 DUP1 SLOAD PUSH1 0x1 PUSH1 0x1 PUSH1 0xA0 SHL SUB NOT AND PUSH1 0x1 PUSH1 0x1 PUSH1 0xA0 SHL SUB DUP4 AND SWAP1 DUP2 OR SWAP1 SWAP2 SSTORE PUSH1 0x40 MLOAD PUSH32 0x3882C72003D3FE1B190993405DBC8AB0F1940A2BE6C3DD65E216B47DA4C77014 SWAP1 PUSH1 0x0 SWAP1 LOG2 POP JUMP JUMPDEST PUSH1 0x0 PUSH1 0x20 DUP3 DUP5 SUB SLT ISZERO PUSH2 0x771 JUMPI PUSH1 0x0 DUP1 REVERT JUMPDEST POP CALLDATALOAD SWAP2 SWAP1 POP JUMP JUMPDEST PUSH1 0x1 PUSH1 0x1 PUSH1 0xA0 SHL SUB DUP2 AND DUP2 EQ PUSH2 0x571 JUMPI PUSH1 0x0 DUP1 REVERT JUMPDEST PUSH1 0x0 PUSH1 0x20 DUP3 DUP5 SUB SLT ISZERO PUSH2 0x79F JUMPI PUSH1 0x0 DUP1 REVERT JUMPDEST DUP2 CALLDATALOAD PUSH2 0x452 DUP2 PUSH2 0x778 JUMP JUMPDEST PUSH4 0x4E487B71 PUSH1 0xE0 SHL PUSH1 0x0 MSTORE PUSH1 0x41 PUSH1 0x4 MSTORE PUSH1 0x24 PUSH1 0x0 REVERT JUMPDEST PUSH4 0x4E487B71 PUSH1 0xE0 SHL PUSH1 0x0 MSTORE PUSH1 0x32 PUSH1 0x4 MSTORE PUSH1 0x24 PUSH1 0x0 REVERT JUMPDEST PUSH1 0x20 DUP1 DUP3 MSTORE DUP3 MLOAD DUP3 DUP3 ADD DUP2 SWAP1 MSTORE PUSH1 0x0 SWAP2 SWAP1 DUP5 DUP3 ADD SWAP1 PUSH1 0x40 DUP6 ADD SWAP1 DUP5 JUMPDEST DUP2 DUP2 LT ISZERO PUSH2 0x80E JUMPI DUP4 MLOAD DUP4 MSTORE SWAP3 DUP5 ADD SWAP3 SWAP2 DUP5 ADD SWAP2 PUSH1 0x1 ADD PUSH2 0x7F2 JUMP JUMPDEST POP SWAP1 SWAP7 SWAP6 POP POP POP POP POP POP JUMP JUMPDEST PUSH1 0x40 MLOAD PUSH1 0x1F DUP3 ADD PUSH1 0x1F NOT AND DUP2 ADD PUSH8 0xFFFFFFFFFFFFFFFF DUP2 GT DUP3 DUP3 LT OR ISZERO PUSH2 0x843 JUMPI PUSH2 0x843 PUSH2 0x7AA JUMP JUMPDEST PUSH1 0x40 MSTORE SWAP2 SWAP1 POP JUMP JUMPDEST PUSH1 0x0 PUSH8 0xFFFFFFFFFFFFFFFF DUP3 GT ISZERO PUSH2 0x865 JUMPI PUSH2 0x865 PUSH2 0x7AA JUMP JUMPDEST POP PUSH1 0x5 SHL PUSH1 0x20 ADD SWAP1 JUMP JUMPDEST PUSH1 0x0 DUP3 PUSH1 0x1F DUP4 ADD SLT PUSH2 0x880 JUMPI PUSH1 0x0 DUP1 REVERT JUMPDEST DUP2 MLOAD PUSH1 0x20 PUSH2 0x895 PUSH2 0x890 DUP4 PUSH2 0x84B JUMP JUMPDEST PUSH2 0x81A JUMP JUMPDEST DUP1 DUP4 DUP3 MSTORE PUSH1 0x20 DUP3 ADD SWAP2 POP PUSH1 0x20 DUP5 PUSH1 0x5 SHL DUP8 ADD ADD SWAP4 POP DUP7 DUP5 GT ISZERO PUSH2 0x8B7 JUMPI PUSH1 0x0 DUP1 REVERT JUMPDEST PUSH1 0x20 DUP7 ADD JUMPDEST DUP5 DUP2 LT ISZERO PUSH2 0x8E3 JUMPI DUP1 MLOAD PUSH1 0x0 DUP2 DUP2 SIGNEXTEND DUP3 EQ PUSH2 0x8D5 JUMPI DUP1 DUP2 REVERT JUMPDEST POP DUP4 MSTORE SWAP2 DUP4 ADD SWAP2 DUP4 ADD PUSH2 0x8BC JUMP JUMPDEST POP SWAP7 SWAP6 POP POP POP POP POP POP JUMP JUMPDEST DUP1 MLOAD PUSH1 0x7 DUP2 SWAP1 SIGNEXTEND DUP2 EQ PUSH2 0x900 JUMPI PUSH1 0x0 DUP1 REVERT JUMPDEST SWAP2 SWAP1 POP JUMP JUMPDEST PUSH1 0x0 DUP1 PUSH1 0x0 PUSH1 0x60 DUP5 DUP7 SUB SLT ISZERO PUSH2 0x91A JUMPI PUSH1 0x0 DUP1 REVERT JUMPDEST DUP4 MLOAD PUSH8 0xFFFFFFFFFFFFFFFF DUP1 DUP3 GT ISZERO PUSH2 0x932 JUMPI PUSH1 0x0 DUP1 REVERT JUMPDEST DUP2 DUP7 ADD SWAP2 POP DUP7 PUSH1 0x1F DUP4 ADD SLT PUSH2 0x946 JUMPI PUSH1 0x0 DUP1 REVERT JUMPDEST DUP2 MLOAD PUSH1 0x20 PUSH2 0x956 PUSH2 0x890 DUP4 PUSH2 0x84B JUMP JUMPDEST DUP3 DUP2 MSTORE PUSH1 0x5 SWAP3 SWAP1 SWAP3 SHL DUP5 ADD DUP2 ADD SWAP2 DUP2 DUP2 ADD SWAP1 DUP11 DUP5 GT ISZERO PUSH2 0x975 JUMPI PUSH1 0x0 DUP1 REVERT JUMPDEST SWAP5 DUP3 ADD SWAP5 JUMPDEST DUP4 DUP7 LT ISZERO PUSH2 0x993 JUMPI DUP6 MLOAD DUP3 MSTORE SWAP5 DUP3 ADD SWAP5 SWAP1 DUP3 ADD SWAP1 PUSH2 0x97A JUMP JUMPDEST SWAP2 DUP10 ADD MLOAD SWAP2 SWAP8 POP SWAP1 SWAP4 POP POP POP DUP1 DUP3 GT ISZERO PUSH2 0x9AC JUMPI PUSH1 0x0 DUP1 REVERT JUMPDEST POP PUSH2 0x9B9 DUP7 DUP3 DUP8 ADD PUSH2 0x86F JUMP JUMPDEST SWAP3 POP POP PUSH2 0x9C8 PUSH1 0x40 DUP6 ADD PUSH2 0x8EE JUMP JUMPDEST SWAP1 POP SWAP3 POP SWAP3 POP SWAP3 JUMP JUMPDEST PUSH4 0x4E487B71 PUSH1 0xE0 SHL PUSH1 0x0 MSTORE PUSH1 0x11 PUSH1 0x4 MSTORE PUSH1 0x24 PUSH1 0x0 REVERT JUMPDEST DUP2 DUP2 SUB DUP2 DUP2 GT ISZERO PUSH2 0x5D0 JUMPI PUSH2 0x5D0 PUSH2 0x9D1 JUMP JUMPDEST DUP1 DUP3 MUL DUP2 ISZERO DUP3 DUP3 DIV DUP5 EQ OR PUSH2 0x5D0 JUMPI PUSH2 0x5D0 PUSH2 0x9D1 JUMP JUMPDEST PUSH1 0x0 DUP3 PUSH2 0xA2E JUMPI PUSH4 0x4E487B71 PUSH1 0xE0 SHL PUSH1 0x0 MSTORE PUSH1 0x12 PUSH1 0x4 MSTORE PUSH1 0x24 PUSH1 0x0 REVERT JUMPDEST POP DIV SWAP1 JUMP JUMPDEST PUSH1 0x0 DUP3 DUP2 SIGNEXTEND SWAP1 DUP3 SWAP1 SIGNEXTEND SUB PUSH1 0x7F NOT DUP2 SLT PUSH1 0x7F DUP3 SGT OR ISZERO PUSH2 0x5D0 JUMPI PUSH2 0x5D0 PUSH2 0x9D1 JUMP JUMPDEST PUSH1 0x1 DUP2 DUP2 JUMPDEST DUP1 DUP6 GT ISZERO PUSH2 0xA8F JUMPI DUP2 PUSH1 0x0 NOT DIV DUP3 GT ISZERO PUSH2 0xA75 JUMPI PUSH2 0xA75 PUSH2 0x9D1 JUMP JUMPDEST DUP1 DUP6 AND ISZERO PUSH2 0xA82 JUMPI SWAP2 DUP2 MUL SWAP2 JUMPDEST SWAP4 DUP5 SHR SWAP4 SWAP1 DUP1 MUL SWAP1 PUSH2 0xA59 JUMP JUMPDEST POP SWAP3 POP SWAP3 SWAP1 POP JUMP JUMPDEST PUSH1 0x0 DUP3 PUSH2 0xAA6 JUMPI POP PUSH1 0x1 PUSH2 0x5D0 JUMP JUMPDEST DUP2 PUSH2 0xAB3 JUMPI POP PUSH1 0x0 PUSH2 0x5D0 JUMP JUMPDEST DUP2 PUSH1 0x1 DUP2 EQ PUSH2 0xAC9 JUMPI PUSH1 0x2 DUP2 EQ PUSH2 0xAD3 JUMPI PUSH2 0xAEF JUMP JUMPDEST PUSH1 0x1 SWAP2 POP POP PUSH2 0x5D0 JUMP JUMPDEST PUSH1 0xFF DUP5 GT ISZERO PUSH2 0xAE4 JUMPI PUSH2 0xAE4 PUSH2 0x9D1 JUMP JUMPDEST POP POP PUSH1 0x1 DUP3 SHL PUSH2 0x5D0 JUMP JUMPDEST POP PUSH1 0x20 DUP4 LT PUSH2 0x133 DUP4 LT AND PUSH1 0x4E DUP5 LT PUSH1 0xB DUP5 LT AND OR ISZERO PUSH2 0xB12 JUMPI POP DUP2 DUP2 EXP PUSH2 0x5D0 JUMP JUMPDEST PUSH2 0xB1C DUP4 DUP4 PUSH2 0xA54 JUMP JUMPDEST DUP1 PUSH1 0x0 NOT DIV DUP3 GT ISZERO PUSH2 0xB30 JUMPI PUSH2 0xB30 PUSH2 0x9D1 JUMP JUMPDEST MUL SWAP4 SWAP3 POP POP POP JUMP JUMPDEST PUSH1 0x0 PUSH2 0x452 PUSH1 0xFF DUP5 AND DUP4 PUSH2 0xA97 JUMP JUMPDEST PUSH1 0x0 DUP2 DUP2 SIGNEXTEND SWAP1 DUP4 SWAP1 SIGNEXTEND ADD PUSH1 0x7F DUP2 SGT PUSH1 0x7F NOT DUP3 SLT OR ISZERO PUSH2 0x5D0 JUMPI PUSH2 0x5D0 PUSH2 0x9D1 JUMP JUMPDEST PUSH1 0x0 PUSH1 0x20 DUP3 DUP5 SUB SLT ISZERO PUSH2 0xB7A JUMPI PUSH1 0x0 DUP1 REVERT JUMPDEST DUP2 MLOAD PUSH2 0x452 DUP2 PUSH2 0x778 JUMP INVALID LOG2 PUSH5 0x6970667358 0x22 SLT KECCAK256 0xE3 0xD3 DUP15 PUSH6 0x7595528BA5D1 COINBASE 0xE2 0xA9 PUSH2 0x5185 CALLDATACOPY DUP3 CODECOPY BALANCE 0x4B 0x2E ORIGIN EXTCODESIZE PUSH13 0x3FCBA3BEFD6C0E64736F6C6343 STOP ADDMOD XOR STOP CALLER "},"methodIdentifiers":{"FLARE_CONTRACT_REGISTRY()":"20249cf1","FLR_USD_FEED_INDEX()":"d26384de","fastUpdater()":"d29a4fa9","flrToUsd(uint256)":"1d39ba0f","getFlrUsdPrice()":"08200a7c","maxStaleness()":"87cf4696","owner()":"8da5cb5b","renounceOwnership()":"715018a6","resolveFastUpdater()":"ea7229b2","setFastUpdater(address)":"7656183b","setMaxStaleness(uint256)":"100bc9e1","transferOwnership(address)":"f2fde38b","usdToFlr(uint256)":"8d2e52d0"}}}}}