{"contracts/OrderBook.sol":{"OrderBook":{"abi":[{"inputs":[{"internalType":"address","name":"initialOwner","type":"address"},{"internalType":"contract IJobRegistry","name":"registry","type":"address"}],"stateMutability":"nonpayable","type":"constructor"},{"inputs":[{"internalType":"address","name":"owner","type":"address"}],"name":"OwnableInvalidOwner","type":"error"},{"inputs":[{"internalType":"address","name":"account","type":"address"}],"name":"OwnableUnauthorizedAccount","type":"error"},{"anonymous":false,"inputs":[{"indexed":true,"internalType":"uint256","name":"jobId","type":"uint256"},{"indexed":true,"internalType":"uint256","name":"bidId","type":"uint256"},{"indexed":false,"internalType":"address","name":"poster","type":"address"},{"indexed":false,"internalType":"address","name":"agent","type":"address"}],"name":"BidAccepted","type":"event"},{"anonymous":false,"inputs":[{"indexed":true,"internalType":"uint256","name":"jobId","type":"uint256"},{"indexed":true,"internalType":"uint256","name":"bidId","type":"uint256"},{"indexed":false,"internalType":"address","name":"bidder","type":"address"},{"indexed":false,"internalType":"uint256","name":"price","type":"uint256"}],"name":"BidPlaced","type":"event"},{"anonymous":false,"inputs":[{"indexed":true,"internalType":"uint256","name":"jobId","type":"uint256"},{"indexed":true,"internalType":"uint256","name":"bidId","type":"uint256"},{"indexed":false,"internalType":"string","name":"responseURI","type":"string"}],"name":"BidResponseSubmitted","type":"event"},{"anonymous":false,"inputs":[{"indexed":true,"internalType":"uint256","name":"jobId","type":"uint256"},{"indexed":true,"internalType":"uint256","name":"bidId","type":"uint256"},{"indexed":false,"internalType":"bytes32","name":"proofHash","type":"bytes32"}],"name":"DeliverySubmitted","type":"event"},{"anonymous":false,"inputs":[{"indexed":true,"internalType":"uint256","name":"disputeId","type":"uint256"},{"indexed":true,"internalType":"uint256","name":"jobId","type":"uint256"},{"indexed":true,"internalType":"address","name":"initiator","type":"address"},{"indexed":false,"internalType":"string","name":"reason","type":"string"}],"name":"DisputeRaised","type":"event"},{"anonymous":false,"inputs":[{"indexed":true,"internalType":"uint256","name":"disputeId","type":"uint256"},{"indexed":true,"internalType":"uint256","name":"jobId","type":"uint256"},{"indexed":false,"internalType":"enum OrderBook.DisputeStatus","name":"resolution","type":"uint8"},{"indexed":false,"internalType":"string","name":"message","type":"string"}],"name":"DisputeResolved","type":"event"},{"anonymous":false,"inputs":[{"indexed":true,"internalType":"uint256","name":"disputeId","type":"uint256"},{"indexed":true,"internalType":"address","name":"submitter","type":"address"},{"indexed":false,"internalType":"string","name":"evidence","type":"string"}],"name":"EvidenceSubmitted","type":"event"},{"anonymous":false,"inputs":[{"indexed":true,"internalType":"uint256","name":"jobId","type":"uint256"},{"indexed":true,"internalType":"uint256","name":"bidId","type":"uint256"}],"name":"JobApproved","type":"event"},{"anonymous":false,"inputs":[{"indexed":true,"internalType":"uint256","name":"jobId","type":"uint256"},{"indexed":true,"internalType":"address","name":"poster","type":"address"}],"name":"JobPosted","type":"event"},{"anonymous":false,"inputs":[{"indexed":true,"internalType":"address","name":"previousOwner","type":"address"},{"indexed":true,"internalType":"address","name":"newOwner","type":"address"}],"name":"OwnershipTransferred","type":"event"},{"inputs":[{"internalType":"uint256","name":"jobId","type":"uint256"},{"internalType":"uint256","name":"bidId","type":"uint256"},{"internalType":"string","name":"responseURI","type":"string"}],"name":"acceptBid","outputs":[],"stateMutability":"nonpayable","type":"function"},{"inputs":[],"name":"agentRegistry","outputs":[{"internalType":"contract IAgentRegistryView","name":"","type":"address"}],"stateMutability":"view","type":"function"},{"inputs":[{"internalType":"uint256","name":"jobId","type":"uint256"}],"name":"approveDelivery","outputs":[],"stateMutability":"nonpayable","type":"function"},{"inputs":[],"name":"escrow","outputs":[{"internalType":"contract IEscrow","name":"","type":"address"}],"stateMutability":"view","type":"function"},{"inputs":[{"internalType":"uint256","name":"disputeId","type":"uint256"}],"name":"getDispute","outputs":[{"components":[{"internalType":"uint256","name":"disputeId","type":"uint256"},{"internalType":"uint256","name":"jobId","type":"uint256"},{"internalType":"address","name":"initiator","type":"address"},{"internalType":"string","name":"reason","type":"string"},{"internalType":"string[]","name":"evidence","type":"string[]"},{"internalType":"enum OrderBook.DisputeStatus","name":"status","type":"uint8"},{"internalType":"string","name":"resolutionMessage","type":"string"},{"internalType":"uint256","name":"createdAt","type":"uint256"},{"internalType":"uint256","name":"resolvedAt","type":"uint256"}],"internalType":"struct OrderBook.Dispute","name":"","type":"tuple"}],"stateMutability":"view","type":"function"},{"inputs":[{"internalType":"uint256","name":"jobId","type":"uint256"}],"name":"getJob","outputs":[{"components":[{"internalType":"address","name":"poster","type":"address"},{"internalType":"enum JobTypes.JobStatus","name":"status","type":"uint8"},{"internalType":"uint256","name":"acceptedBidId","type":"uint256"},{"internalType":"bytes32","name":"deliveryProof","type":"bytes32"},{"internalType":"bool","name":"hasDispute","type":"bool"}],"internalType":"struct OrderBook.JobState","name":"job","type":"tuple"},{"components":[{"internalType":"uint256","name":"id","type":"uint256"},{"internalType":"uint256","name":"jobId","type":"uint256"},{"internalType":"address","name":"bidder","type":"address"},{"internalType":"uint256","name":"price","type":"uint256"},{"internalType":"uint64","name":"deliveryTime","type":"uint64"},{"internalType":"uint256","name":"reputation","type":"uint256"},{"internalType":"string","name":"metadataURI","type":"string"},{"internalType":"string","name":"responseURI","type":"string"},{"internalType":"bool","name":"accepted","type":"bool"},{"internalType":"uint256","name":"createdAt","type":"uint256"}],"internalType":"struct OrderBook.Bid[]","name":"jobBids","type":"tuple[]"}],"stateMutability":"view","type":"function"},{"inputs":[{"internalType":"uint256","name":"jobId","type":"uint256"}],"name":"getJobDispute","outputs":[{"components":[{"internalType":"uint256","name":"disputeId","type":"uint256"},{"internalType":"uint256","name":"jobId","type":"uint256"},{"internalType":"address","name":"initiator","type":"address"},{"internalType":"string","name":"reason","type":"string"},{"internalType":"string[]","name":"evidence","type":"string[]"},{"internalType":"enum OrderBook.DisputeStatus","name":"status","type":"uint8"},{"internalType":"string","name":"resolutionMessage","type":"string"},{"internalType":"uint256","name":"createdAt","type":"uint256"},{"internalType":"uint256","name":"resolvedAt","type":"uint256"}],"internalType":"struct OrderBook.Dispute","name":"","type":"tuple"}],"stateMutability":"view","type":"function"},{"inputs":[],"name":"jobRegistry","outputs":[{"internalType":"contract IJobRegistry","name":"","type":"address"}],"stateMutability":"view","type":"function"},{"inputs":[],"name":"owner","outputs":[{"internalType":"address","name":"","type":"address"}],"stateMutability":"view","type":"function"},{"inputs":[{"internalType":"uint256","name":"jobId","type":"uint256"},{"internalType":"uint256","name":"price","type":"uint256"},{"internalType":"uint64","name":"deliveryTime","type":"uint64"},{"internalType":"string","name":"metadataURI","type":"string"}],"name":"placeBid","outputs":[{"internalType":"uint256","name":"bidId","type":"uint256"}],"stateMutability":"nonpayable","type":"function"},{"inputs":[{"internalType":"string","name":"description","type":"string"},{"internalType":"string","name":"metadataURI","type":"string"},{"internalType":"string[]","name":"tags","type":"string[]"},{"internalType":"uint64","name":"deadline","type":"uint64"}],"name":"postJob","outputs":[{"internalType":"uint256","name":"jobId","type":"uint256"}],"stateMutability":"nonpayable","type":"function"},{"inputs":[{"internalType":"uint256","name":"jobId","type":"uint256"},{"internalType":"string","name":"reason","type":"string"},{"internalType":"string","name":"evidence","type":"string"}],"name":"raiseDispute","outputs":[{"internalType":"uint256","name":"disputeId","type":"uint256"}],"stateMutability":"nonpayable","type":"function"},{"inputs":[{"internalType":"uint256","name":"jobId","type":"uint256"}],"name":"refundJob","outputs":[],"stateMutability":"nonpayable","type":"function"},{"inputs":[],"name":"renounceOwnership","outputs":[],"stateMutability":"nonpayable","type":"function"},{"inputs":[],"name":"reputationToken","outputs":[{"internalType":"contract IReputationToken","name":"","type":"address"}],"stateMutability":"view","type":"function"},{"inputs":[{"internalType":"uint256","name":"disputeId","type":"uint256"},{"internalType":"enum OrderBook.DisputeStatus","name":"resolution","type":"uint8"},{"internalType":"string","name":"message","type":"string"}],"name":"resolveDispute","outputs":[],"stateMutability":"nonpayable","type":"function"},{"inputs":[{"internalType":"address","name":"registry","type":"address"}],"name":"setAgentRegistry","outputs":[],"stateMutability":"nonpayable","type":"function"},{"inputs":[{"internalType":"address","name":"escrowAddress","type":"address"}],"name":"setEscrow","outputs":[],"stateMutability":"nonpayable","type":"function"},{"inputs":[{"internalType":"address","name":"reputationAddress","type":"address"}],"name":"setReputationToken","outputs":[],"stateMutability":"nonpayable","type":"function"},{"inputs":[{"internalType":"uint256","name":"jobId","type":"uint256"},{"internalType":"bytes32","name":"proofHash","type":"bytes32"}],"name":"submitDelivery","outputs":[],"stateMutability":"nonpayable","type":"function"},{"inputs":[{"internalType":"uint256","name":"disputeId","type":"uint256"},{"internalType":"string","name":"evidence","type":"string"}],"name":"submitEvidence","outputs":[],"stateMutability":"nonpayable","type":"function"},{"inputs":[{"internalType":"address","name":"newOwner","type":"address"}],"name":"transferOwnership","outputs":[],"stateMutability":"nonpayable","type":"function"}],"evm":{"bytecode":{"linkReferences":{},"object":"608060405260018055600160025560016003553480156200001f57600080fd5b50604051620033803803806200338083398101604081905262000042916200010e565b816001600160a01b0381166200007257604051631e4fbdf760e01b81526000600482015260240160405180910390fd5b6200007d81620000a5565b50600a80546001600160a01b0319166001600160a01b0392909216919091179055506200014d565b600080546001600160a01b038381166001600160a01b0319831681178455604051919092169283917f8be0079c531659141344cd1fd0a4f28419497f9722a3daafe3b4186f6b6457e09190a35050565b6001600160a01b03811681146200010b57600080fd5b50565b600080604083850312156200012257600080fd5b82516200012f81620000f5565b60208401519092506200014281620000f5565b809150509250929050565b613223806200015d6000396000f3fe608060405234801561001057600080fd5b50600436106101425760003560e01c8063a6a7f0eb116100b8578063c94b674b1161007c578063c94b674b146102b2578063d8dc8c28146102c5578063e2fdcc17146102d8578063e3a96cbd146102eb578063f2fde38b146102fe578063fd1dc4801461031157600080fd5b8063a6a7f0eb14610245578063b1f27e6014610258578063bf22c4571461026b578063c10c35461461028c578063c316939c1461029f57600080fd5b806331f6e29e1161010a57806331f6e29e146101c55780635b982d2f146101d8578063715018a6146101f95780637f58a8d6146102015780638da5cb5b146102145780638db275491461022557600080fd5b80630d1cfcae1461014757806323682c4714610177578063275bbe9b1461018a57806328342ecf1461019d5780632d5d0aae146101b2575b600080fd5b600d5461015a906001600160a01b031681565b6040516001600160a01b0390911681526020015b60405180910390f35b600a5461015a906001600160a01b031681565b600c5461015a906001600160a01b031681565b6101b06101ab366004612713565b610324565b005b6101b06101c0366004612743565b61034e565b6101b06101d33660046127a4565b610527565b6101eb6101e63660046127f6565b6108a5565b60405190815260200161016e565b6101b0610b9f565b6101b061020f366004612713565b610bb3565b6000546001600160a01b031661015a565b610238610233366004612743565b610bdd565b60405161016e9190612939565b6101b06102533660046129f7565b610ee3565b6101eb610266366004612a5e565b61108c565b61027e610279366004612743565b61159e565b60405161016e929190612ac4565b6101b061029a366004612713565b611925565b6101b06102ad366004612c04565b61194f565b6101b06102c0366004612743565b611d1a565b6101b06102d3366004612c4b565b611eef565b600b5461015a906001600160a01b031681565b6102386102f9366004612743565b612120565b6101b061030c366004612713565b6123bb565b6101eb61031f366004612c6d565b6123f9565b61032c612630565b600d80546001600160a01b0319166001600160a01b0392909216919091179055565b610356612630565b600081815260046020526040902060018154600160a01b900460ff1660048111156103835761038361290f565b14806103ab575060028154600160a01b900460ff1660048111156103a9576103a961290f565b145b6103fc5760405162461bcd60e51b815260206004820152601860248201527f4f72646572426f6f6b3a2063616e6e6f7420726566756e64000000000000000060448201526064015b60405180910390fd5b600381015460ff166104505760405162461bcd60e51b815260206004820152601c60248201527f4f72646572426f6f6b3a206e6f2064697370757465207261697365640000000060448201526064016103f3565b805460ff60a01b1916600160a21b178155600a546040516319786d1560e31b81526001600160a01b039091169063cbc368a8906104939085906004908101612d47565b600060405180830381600087803b1580156104ad57600080fd5b505af11580156104c1573d6000803e3d6000fd5b5050600b5460405163278ecde160e01b8152600481018690526001600160a01b03909116925063278ecde19150602401600060405180830381600087803b15801561050b57600080fd5b505af115801561051f573d6000803e3d6000fd5b505050505050565b600084815260046020526040902080546001600160a01b031633146105865760405162461bcd60e51b815260206004820152601560248201527427b93232b92137b7b59d103737ba103837b9ba32b960591b60448201526064016103f3565b60008154600160a01b900460ff1660048111156105a5576105a561290f565b146105ec5760405162461bcd60e51b815260206004820152601760248201527627b93232b92137b7b59d103537b1103737ba1037b832b760491b60448201526064016103f3565b60008481526005602052604090206001810154861461064d5760405162461bcd60e51b815260206004820152601960248201527f4f72646572426f6f6b3a206d69736d617463686564206269640000000000000060448201526064016103f3565b600881015460ff16156106a25760405162461bcd60e51b815260206004820152601f60248201527f4f72646572426f6f6b3a2062696420616c72656164792061636365707465640060448201526064016103f3565b600b546001600160a01b03166106fa5760405162461bcd60e51b815260206004820152601960248201527f4f72646572426f6f6b3a20657363726f77206e6f74207365740000000000000060448201526064016103f3565b60088101805460ff1916600117905560078101610718848683612df8565b50815460ff60a01b1916600160a01b1782556001808301869055600a546040516319786d1560e31b81526001600160a01b039091169163cbc368a891610762918a91600401612d47565b600060405180830381600087803b15801561077c57600080fd5b505af1158015610790573d6000803e3d6000fd5b5050600b5460028401546003850154604051636f3ca89d60e11b8152600481018c90523360248201526001600160a01b03928316604482015260648101919091529116925063de79513a9150608401600060405180830381600087803b1580156107f957600080fd5b505af115801561080d573d6000803e3d6000fd5b505050506002810154604080513381526001600160a01b039092166020830152869188917ff16c5ed39dc31d5eab2c86ade83769cf987d78b585032fa15c9ca45e7f5fe64e910160405180910390a3821561051f5784867f6d1f487cefbfbc39b45a8f22f945225fa42a56f9b6e234f2c14b387fb6104ef88686604051610895929190612ee1565b60405180910390a3505050505050565b600085815260046020526040812080546001600160a01b03166109055760405162461bcd60e51b815260206004820152601860248201527713dc99195c909bdbdace881a9bd8881b9bdd08199bdd5b9960421b60448201526064016103f3565b600381015460ff16156109645760405162461bcd60e51b815260206004820152602160248201527f4f72646572426f6f6b3a206469737075746520616c72656164792072616973656044820152601960fa1b60648201526084016103f3565b60018154600160a01b900460ff1660048111156109835761098361290f565b14806109ab575060028154600160a01b900460ff1660048111156109a9576109a961290f565b145b610a055760405162461bcd60e51b815260206004820152602560248201527f4f72646572426f6f6b3a20696e76616c69642073746174757320666f72206469604482015264737075746560d81b60648201526084016103f3565b6001810154600090815260056020526040902081546001600160a01b0316331480610a3c575060028101546001600160a01b031633145b610aa25760405162461bcd60e51b815260206004820152603160248201527f4f72646572426f6f6b3a206f6e6c7920706f73746572206f72206167656e742060448201527063616e207261697365206469737075746560781b60648201526084016103f3565b60038054906000610ab283612efd565b909155506000818152600860205260409020818155600181018a90556002810180546001600160a01b0319163317905590935060038101610af4888a83612df8565b506004810180546001810182556000918252602090912001610b17868883612df8565b506005810180546001919060ff19168280021790555042600782015560038301805460ff19166001179055600089815260096020526040908190208590555133908a9086907f23c31c3c42269d2f1541faecb93f9273532cfaa63b3b9cb5ab733358ac289e3b90610b8b908d908d90612ee1565b60405180910390a450505095945050505050565b610ba7612630565b610bb1600061265d565b565b610bbb612630565b600c80546001600160a01b0319166001600160a01b0392909216919091179055565b610be56126ad565b60008281526009602052604081205490819003610c4f5760405162461bcd60e51b815260206004820152602260248201527f4f72646572426f6f6b3a206e6f206469737075746520666f722074686973206a60448201526137b160f11b60648201526084016103f3565b6000818152600860209081526040918290208251610120810184528154815260018201549281019290925260028101546001600160a01b031692820192909252600382018054919291606084019190610ca790612d71565b80601f0160208091040260200160405190810160405280929190818152602001828054610cd390612d71565b8015610d205780601f10610cf557610100808354040283529160200191610d20565b820191906000526020600020905b815481529060010190602001808311610d0357829003601f168201915b5050505050815260200160048201805480602002602001604051908101604052809291908181526020016000905b82821015610dfa578382906000526020600020018054610d6d90612d71565b80601f0160208091040260200160405190810160405280929190818152602001828054610d9990612d71565b8015610de65780601f10610dbb57610100808354040283529160200191610de6565b820191906000526020600020905b815481529060010190602001808311610dc957829003601f168201915b505050505081526020019060010190610d4e565b5050509082525060058281015460209092019160ff1690811115610e2057610e2061290f565b6005811115610e3157610e3161290f565b8152602001600682018054610e4590612d71565b80601f0160208091040260200160405190810160405280929190818152602001828054610e7190612d71565b8015610ebe5780601f10610e9357610100808354040283529160200191610ebe565b820191906000526020600020905b815481529060010190602001808311610ea157829003601f168201915b5050505050815260200160078201548152602001600882015481525050915050919050565b6000838152600860205260409020600160058083015460ff1690811115610f0c57610f0c61290f565b1480610f305750600260058083015460ff1690811115610f2e57610f2e61290f565b145b610f7c5760405162461bcd60e51b815260206004820152601d60248201527f4f72646572426f6f6b3a2064697370757465206e6f742061637469766500000060448201526064016103f3565b60018181015460009081526004602090815260408083209384015483526005909152902081546001600160a01b0316331480610fc4575060028101546001600160a01b031633145b61102d5760405162461bcd60e51b815260206004820152603460248201527f4f72646572426f6f6b3a206f6e6c7920696e766f6c76656420706172746965736044820152732063616e207375626d69742065766964656e636560601b60648201526084016103f3565b600483018054600181018255600091825260209091200161104f858783612df8565b50336001600160a01b0316867fa49e7517d2b5714f7812f718444c5a2931d4fc670ed2d2aa2426ff2f42c5b44d8787604051610895929190612ee1565b600085815260046020526040812080546001600160a01b03166110ec5760405162461bcd60e51b815260206004820152601860248201527713dc99195c909bdbdace881a9bd8881b9bdd08199bdd5b9960421b60448201526064016103f3565b60008154600160a01b900460ff16600481111561110b5761110b61290f565b146111525760405162461bcd60e51b815260206004820152601760248201527627b93232b92137b7b59d103537b1103737ba1037b832b760491b60448201526064016103f3565b600086116111b05760405162461bcd60e51b815260206004820152602560248201527f4f72646572426f6f6b3a20626964207072696365206d75737420626520706f73604482015264697469766560d81b60648201526084016103f3565b600087815260076020908152604080832033845290915290205460ff161561122b5760405162461bcd60e51b815260206004820152602860248201527f4f72646572426f6f6b3a206167656e7420616c726561647920626964206f6e206044820152673a3434b9903537b160c11b60648201526084016103f3565b600d546001600160a01b0316156112f457600d5460405163554c4f4b60e01b81523360048201526001600160a01b039091169063554c4f4b90602401602060405180830381865afa158015611284573d6000803e3d6000fd5b505050506040513d601f19601f820116820180604052508101906112a89190612f24565b6112f45760405162461bcd60e51b815260206004820152601b60248201527f4f72646572426f6f6b3a206167656e74206e6f7420616374697665000000000060448201526064016103f3565b600c546000906001600160a01b031661130e57600061137a565b600c5460405163099d7a2b60e11b81523360048201526001600160a01b039091169063133af45690602401602060405180830381865afa158015611356573d6000803e3d6000fd5b505050506040513d601f19601f8201168201806040525081019061137a9190612f46565b60028054919250600061138c83612efd565b909155506000818152600560208190526040909120828155600181018b90556002810180546001600160a01b03191633179055600381018a90556004810180546001600160401b038b1667ffffffffffffffff19909116179055908101839055909350600681016113fe868883612df8565b504260098201556000898152600660209081526040808320805460018181018355918552838520018890558c8452600783528184203385528352818420805460ff191690911790558051601f8901839004830281018301909152878152908890889081908401838280828437600081840152601f19601f82011690508083019250505050505050905060006040518061012001604052808781526020018c8152602001336001600160a01b031681526020018b81526020018a6001600160401b03168152602001858152602001838152602001600015158152602001428152509050600a60009054906101000a90046001600160a01b03166001600160a01b031663421ec78f826040518263ffffffff1660e01b81526004016115219190612f5f565b600060405180830381600087803b15801561153b57600080fd5b505af115801561154f573d6000803e3d6000fd5b505060408051338152602081018e90528993508e92507f6f7e354ea3ab5c288aea37fce29c603f9a98a3b040f6d8f32f10e192ec47ff6a910160405180910390a3505050505095945050505050565b6040805160a081018252600080825260208201819052918101829052606081018290526080810191909152600082815260046020818152604092839020835160a0810190945280546001600160a01b0381168552606094939192840191600160a01b90910460ff16908111156116165761161661290f565b60048111156116275761162761290f565b81526001820154602080830191909152600283015460408084019190915260039093015460ff16151560609092019190915260008681526006909152208054919350906001600160401b0381111561168157611681612d5b565b60405190808252806020026020018201604052801561171c57816020015b611709604051806101400160405280600081526020016000815260200160006001600160a01b031681526020016000815260200160006001600160401b03168152602001600081526020016060815260200160608152602001600015158152602001600081525090565b81526020019060019003908161169f5790505b50915060005b815481101561191e576005600083838154811061174157611741613004565b6000918252602080832090910154835282810193909352604091820190208151610140810183528154815260018201549381019390935260028101546001600160a01b0316918301919091526003810154606083015260048101546001600160401b03166080830152600581015460a083015260068101805460c0840191906117c990612d71565b80601f01602080910402602001604051908101604052809291908181526020018280546117f590612d71565b80156118425780601f1061181757610100808354040283529160200191611842565b820191906000526020600020905b81548152906001019060200180831161182557829003601f168201915b5050505050815260200160078201805461185b90612d71565b80601f016020809104026020016040519081016040528092919081815260200182805461188790612d71565b80156118d45780601f106118a9576101008083540402835291602001916118d4565b820191906000526020600020905b8154815290600101906020018083116118b757829003601f168201915b5050509183525050600882015460ff1615156020820152600990910154604090910152835184908390811061190b5761190b613004565b6020908102919091010152600101611722565b5050915091565b61192d612630565b600b80546001600160a01b0319166001600160a01b0392909216919091179055565b611957612630565b6000848152600860205260409020600160058083015460ff16908111156119805761198061290f565b14806119a45750600260058083015460ff16908111156119a2576119a261290f565b145b6119fc5760405162461bcd60e51b815260206004820152602360248201527f4f72646572426f6f6b3a206469737075746520616c7265616479207265736f6c6044820152621d995960ea1b60648201526084016103f3565b6003846005811115611a1057611a1061290f565b1480611a2d57506004846005811115611a2b57611a2b61290f565b145b80611a4957506005846005811115611a4757611a4761290f565b145b611aa15760405162461bcd60e51b8152602060048201526024808201527f4f72646572426f6f6b3a20696e76616c6964207265736f6c7574696f6e2073746044820152636174757360e01b60648201526084016103f3565b838160050160006101000a81548160ff02191690836005811115611ac757611ac761290f565b021790555060068101611adb838583612df8565b50426008820155600181015460008181526004602052604090206003866005811115611b0957611b0961290f565b03611be657805460ff60a01b1916600160a21b178155600a546040516319786d1560e31b81526001600160a01b039091169063cbc368a890611b519085906004908101612d47565b600060405180830381600087803b158015611b6b57600080fd5b505af1158015611b7f573d6000803e3d6000fd5b5050600b5460405163278ecde160e01b8152600481018690526001600160a01b03909116925063278ecde19150602401600060405180830381600087803b158015611bc957600080fd5b505af1158015611bdd573d6000803e3d6000fd5b50505050611cd4565b6004866005811115611bfa57611bfa61290f565b03611cd457805460ff60a01b1916600360a01b178155600a546040516319786d1560e31b81526001600160a01b039091169063cbc368a890611c43908590600390600401612d47565b600060405180830381600087803b158015611c5d57600080fd5b505af1158015611c71573d6000803e3d6000fd5b5050600b546040516388685cd960e01b8152600481018690526001600160a01b0390911692506388685cd99150602401600060405180830381600087803b158015611cbb57600080fd5b505af1158015611ccf573d6000803e3d6000fd5b505050505b81877fcc8e83af27b71c8aac89391b44beefb6352d2107242f4d5a5a0e0439b6fbded7888888604051611d099392919061301a565b60405180910390a350505050505050565b600081815260046020526040902080546001600160a01b03163314611d795760405162461bcd60e51b815260206004820152601560248201527427b93232b92137b7b59d103737ba103837b9ba32b960591b60448201526064016103f3565b60028154600160a01b900460ff166004811115611d9857611d9861290f565b14611de55760405162461bcd60e51b815260206004820152601c60248201527f4f72646572426f6f6b3a206a6f62206e6f742064656c6976657265640000000060448201526064016103f3565b805460ff60a01b1916600360a01b178155600a546040516319786d1560e31b81526001600160a01b039091169063cbc368a890611e29908590600390600401612d47565b600060405180830381600087803b158015611e4357600080fd5b505af1158015611e57573d6000803e3d6000fd5b5050600b546040516388685cd960e01b8152600481018690526001600160a01b0390911692506388685cd99150602401600060405180830381600087803b158015611ea157600080fd5b505af1158015611eb5573d6000803e3d6000fd5b505050508060010154827f72a8659d664e8c3afdc18cf46adfba3acd130a459e0658ed768a45b08c08362060405160405180910390a35050565b600082815260046020526040902060018154600160a01b900460ff166004811115611f1c57611f1c61290f565b14611f695760405162461bcd60e51b815260206004820152601e60248201527f4f72646572426f6f6b3a206a6f62206e6f7420696e2070726f6772657373000060448201526064016103f3565b6001810154600090815260056020526040902060028101546001600160a01b03163314611fd85760405162461bcd60e51b815260206004820152601c60248201527f4f72646572426f6f6b3a206e6f742077696e6e696e67206167656e740000000060448201526064016103f3565b815460ff60a01b1916600160a11b1782556002808301849055600a546040516319786d1560e31b81526001600160a01b039091169163cbc368a891612021918891600401612d47565b600060405180830381600087803b15801561203b57600080fd5b505af115801561204f573d6000803e3d6000fd5b5050604080516060810182528781526020810187815242828401908152600a549351637291ab6f60e11b815283516004820152915160248301525160448201529093506001600160a01b03909116915063e52356de90606401600060405180830381600087803b1580156120c257600080fd5b505af11580156120d6573d6000803e3d6000fd5b505050508260010154857f12660738d46e7b0e20869f76e83753de400b8b7837f821e6e33cd7528605981e8660405161211191815260200190565b60405180910390a35050505050565b6121286126ad565b6000828152600860209081526040918290208251610120810184528154815260018201549281019290925260028101546001600160a01b03169282019290925260038201805491929160608401919061218090612d71565b80601f01602080910402602001604051908101604052809291908181526020018280546121ac90612d71565b80156121f95780601f106121ce576101008083540402835291602001916121f9565b820191906000526020600020905b8154815290600101906020018083116121dc57829003601f168201915b5050505050815260200160048201805480602002602001604051908101604052809291908181526020016000905b828210156122d357838290600052602060002001805461224690612d71565b80601f016020809104026020016040519081016040528092919081815260200182805461227290612d71565b80156122bf5780601f10612294576101008083540402835291602001916122bf565b820191906000526020600020905b8154815290600101906020018083116122a257829003601f168201915b505050505081526020019060010190612227565b5050509082525060058281015460209092019160ff16908111156122f9576122f961290f565b600581111561230a5761230a61290f565b815260200160068201805461231e90612d71565b80601f016020809104026020016040519081016040528092919081815260200182805461234a90612d71565b80156123975780601f1061236c57610100808354040283529160200191612397565b820191906000526020600020905b81548152906001019060200180831161237a57829003601f168201915b50505050508152602001600782015481526020016008820154815250509050919050565b6123c3612630565b6001600160a01b0381166123ed57604051631e4fbdf760e01b8152600060048201526024016103f3565b6123f68161265d565b50565b600180546000918261240a83612efd565b909155506040805160a08101825233815260006020808301828152838501839052606084018390526080840183905285835260049182905293909120825181546001600160a01b031981166001600160a01b039092169182178355945195965092949093909284926001600160a81b03199092161790600160a01b9084908111156124975761249761290f565b021790555060408201516001820155606082015160028201556080909101516003909101805460ff191691151591909117905560006124d68486613074565b905060006040518060e00160405280848152602001336001600160a01b031681526020018b8b8080601f016020809104026020016040519081016040528093929190818152602001838380828437600092019190915250505090825250604080516020601f8c018190048102820181019092528a815291810191908b908b90819084018382808284376000920182905250938552505050602082018590526001600160401b03871660408084019190915242606090930192909252600a549151634a0decad60e01b81529293506001600160a01b0390911691634a0decad916125c491859190600401613148565b600060405180830381600087803b1580156125de57600080fd5b505af11580156125f2573d6000803e3d6000fd5b50506040513392508591507f26b8ce391c2405aac71abeacb24f9534266fd48a247b00fc3624f8830a3c440590600090a35050979650505050505050565b6000546001600160a01b03163314610bb15760405163118cdaa760e01b81523360048201526024016103f3565b600080546001600160a01b038381166001600160a01b0319831681178455604051919092169283917f8be0079c531659141344cd1fd0a4f28419497f9722a3daafe3b4186f6b6457e09190a35050565b604051806101200160405280600081526020016000815260200160006001600160a01b031681526020016060815260200160608152602001600060058111156126f8576126f861290f565b81526020016060815260200160008152602001600081525090565b60006020828403121561272557600080fd5b81356001600160a01b038116811461273c57600080fd5b9392505050565b60006020828403121561275557600080fd5b5035919050565b60008083601f84011261276e57600080fd5b5081356001600160401b0381111561278557600080fd5b60208301915083602082850101111561279d57600080fd5b9250929050565b600080600080606085870312156127ba57600080fd5b843593506020850135925060408501356001600160401b038111156127de57600080fd5b6127ea8782880161275c565b95989497509550505050565b60008060008060006060868803121561280e57600080fd5b8535945060208601356001600160401b038082111561282c57600080fd5b61283889838a0161275c565b9096509450604088013591508082111561285157600080fd5b5061285e8882890161275c565b969995985093965092949392505050565b6000815180845260005b8181101561289557602081850181015186830182015201612879565b506000602082860101526020601f19601f83011685010191505092915050565b60008282518085526020808601955060208260051b8401016020860160005b8481101561290257601f198684030189526128f083835161286f565b988401989250908301906001016128d4565b5090979650505050505050565b634e487b7160e01b600052602160045260246000fd5b600681106129355761293561290f565b9052565b6020815281516020820152602082015160408201526000604083015161296a60608401826001600160a01b03169052565b50606083015161012080608085015261298761014085018361286f565b91506080850151601f19808685030160a08701526129a584836128b5565b935060a087015191506129bb60c0870183612925565b60c08701519150808685030160e0870152506129d7838261286f565b60e087015161010087810191909152909601519190940152509192915050565b600080600060408486031215612a0c57600080fd5b8335925060208401356001600160401b03811115612a2957600080fd5b612a358682870161275c565b9497909650939450505050565b80356001600160401b0381168114612a5957600080fd5b919050565b600080600080600060808688031215612a7657600080fd5b8535945060208601359350612a8d60408701612a42565b925060608601356001600160401b03811115612aa857600080fd5b61285e8882890161275c565b600581106129355761293561290f565b600060c080830160018060a01b038651168452602080870151612ae982870182612ab4565b50604080880151604087015260608089015160608801526080808a01511515608089015260a060c060a08a0152858a5180885260e0975060e08b01915060e08160051b8c0101878d0160005b83811015612bf05760df198e84030185528151805184528a8101518b850152898101516001600160a01b03168a8501528881015189850152878101516001600160401b03168885015286810151878501528c8101516101408e860181905290612ba08287018261286f565b9150508c8201518582038e870152612bb8828261286f565b91505061010080830151612bcf8288018215159052565b50506101209182015194909101939093529389019390890190600101612b35565b50909e9d5050505050505050505050505050565b60008060008060608587031215612c1a57600080fd5b84359350602085013560068110612c3057600080fd5b925060408501356001600160401b038111156127de57600080fd5b60008060408385031215612c5e57600080fd5b50508035926020909101359150565b60008060008060008060006080888a031215612c8857600080fd5b87356001600160401b0380821115612c9f57600080fd5b612cab8b838c0161275c565b909950975060208a0135915080821115612cc457600080fd5b612cd08b838c0161275c565b909750955060408a0135915080821115612ce957600080fd5b818a0191508a601f830112612cfd57600080fd5b813581811115612d0c57600080fd5b8b60208260051b8501011115612d2157600080fd5b602083019550809450505050612d3960608901612a42565b905092959891949750929550565b8281526040810161273c6020830184612ab4565b634e487b7160e01b600052604160045260246000fd5b600181811c90821680612d8557607f821691505b602082108103612da557634e487b7160e01b600052602260045260246000fd5b50919050565b601f821115612df3576000816000526020600020601f850160051c81016020861015612dd45750805b601f850160051c820191505b8181101561051f57828155600101612de0565b505050565b6001600160401b03831115612e0f57612e0f612d5b565b612e2383612e1d8354612d71565b83612dab565b6000601f841160018114612e575760008515612e3f5750838201355b600019600387901b1c1916600186901b178355612eb1565b600083815260209020601f19861690835b82811015612e885786850135825560209485019460019092019101612e68565b5086821015612ea55760001960f88860031b161c19848701351681555b505060018560011b0183555b5050505050565b81835281816020850137506000828201602090810191909152601f909101601f19169091010190565b602081526000612ef5602083018486612eb8565b949350505050565b600060018201612f1d57634e487b7160e01b600052601160045260246000fd5b5060010190565b600060208284031215612f3657600080fd5b8151801515811461273c57600080fd5b600060208284031215612f5857600080fd5b5051919050565b60208152815160208201526020820151604082015260006040830151612f9060608401826001600160a01b03169052565b50606083015160808301526080830151612fb560a08401826001600160401b03169052565b5060a083015160c083015260c08301516101208060e0850152612fdc61014085018361286f565b915060e0850151610100612ff38187018315159052565b959095015193019290925250919050565b634e487b7160e01b600052603260045260246000fd5b6130248185612925565b60406020820152600061303b604083018486612eb8565b95945050505050565b604051601f8201601f191681016001600160401b038111828210171561306c5761306c612d5b565b604052919050565b60006001600160401b038084111561308e5761308e612d5b565b8360051b602061309f818301613044565b8681529185019181810190368411156130b757600080fd5b865b8481101561313c578035868111156130d15760008081fd5b8801601f36818301126130e45760008081fd5b8135888111156130f6576130f6612d5b565b613107818301601f19168801613044565b9150808252368782850101111561311e5760008081fd5b808784018884013760009082018701528452509183019183016130b9565b50979650505050505050565b604080825283518282015260208401516001600160a01b0316606083015283015160e0608083015260009061318161012084018261286f565b90506060850151603f19808584030160a086015261319f838361286f565b925060808701519150808584030160c0860152506131bd82826128b5565b60a08701516001600160401b031660e086015260c0870151610100860152925061273c9150506020830184612ab456fea26469706673582212205813430b2ae6d1c24792978e0c4abe5e16c08fec5e97a15f2950af3409ab722164736f6c63430008180033","opcodes":"PUSH1 0x80 PUSH1 0x40 MSTORE PUSH1 0x1 DUP1 SSTORE PUSH1 0x1 PUSH1 0x2 SSTORE PUSH1 0x1 PUSH1 0x3 SSTORE CALLVALUE DUP1 ISZERO PUSH3 0x1F JUMPI PUSH1 0x0 DUP1 REVERT JUMPDEST POP PUSH1 0x40 MLOAD PUSH3 0x3380 CODESIZE SUB DUP1 PUSH3 0x3380 DUP4 CODECOPY DUP2 ADD PUSH1 0x40 DUP2 SWAP1 MSTORE PUSH3 0x42 SWAP2 PUSH3 0x10E JUMP JUMPDEST DUP2 PUSH1 0x1 PUSH1 0x1 PUSH1 0xA0 SHL SUB DUP2 AND PUSH3 0x72 JUMPI PUSH1 0x40 MLOAD PUSH4 0x1E4FBDF7 PUSH1 0xE0 SHL DUP2 MSTORE PUSH1 0x0 PUSH1 0x4 DUP3 ADD MSTORE PUSH1 0x24 ADD PUSH1 0x40 MLOAD DUP1 SWAP2 SUB SWAP1 REVERT JUMPDEST PUSH3 0x7D DUP2 PUSH3 0xA5 JUMP JUMPDEST POP PUSH1 0xA DUP1 SLOAD PUSH1 0x1 PUSH1 0x1 PUSH1 0xA0 SHL SUB NOT AND PUSH1 0x1 PUSH1 0x1 PUSH1 0xA0 SHL SUB SWAP3 SWAP1 SWAP3 AND SWAP2 SWAP1 SWAP2 OR SWAP1 SSTORE POP PUSH3 0x14D JUMP JUMPDEST PUSH1 0x0 DUP1 SLOAD PUSH1 0x1 PUSH1 0x1 PUSH1 0xA0 SHL SUB DUP4 DUP2 AND PUSH1 0x1 PUSH1 0x1 PUSH1 0xA0 SHL SUB NOT DUP4 AND DUP2 OR DUP5 SSTORE PUSH1 0x40 MLOAD SWAP2 SWAP1 SWAP3 AND SWAP3 DUP4 SWAP2 PUSH32 0x8BE0079C531659141344CD1FD0A4F28419497F9722A3DAAFE3B4186F6B6457E0 SWAP2 SWAP1 LOG3 POP POP JUMP JUMPDEST PUSH1 0x1 PUSH1 0x1 PUSH1 0xA0 SHL SUB DUP2 AND DUP2 EQ PUSH3 0x10B JUMPI PUSH1 0x0 DUP1 REVERT JUMPDEST POP JUMP JUMPDEST PUSH1 0x0 DUP1 PUSH1 0x40 DUP4 DUP6 SUB SLT ISZERO PUSH3 0x122 JUMPI PUSH1 0x0 DUP1 REVERT JUMPDEST DUP3 MLOAD PUSH3 0x12F DUP2 PUSH3 0xF5 JUMP JUMPDEST PUSH1 0x20 DUP5 ADD MLOAD SWAP1 SWAP3 POP PUSH3 0x142 DUP2 PUSH3 0xF5 JUMP JUMPDEST DUP1 SWAP2 POP POP SWAP3 POP SWAP3 SWAP1 POP JUMP JUMPDEST PUSH2 0x3223 DUP1 PUSH3 0x15D PUSH1 0x0 CODECOPY PUSH1 0x0 RETURN INVALID PUSH1 0x80 PUSH1 0x40 MSTORE CALLVALUE DUP1 ISZERO PUSH2 0x10 JUMPI PUSH1 0x0 DUP1 REVERT JUMPDEST POP PUSH1 0x4 CALLDATASIZE LT PUSH2 0x142 JUMPI PUSH1 0x0 CALLDATALOAD PUSH1 0xE0 SHR DUP1 PUSH4 0xA6A7F0EB GT PUSH2 0xB8 JUMPI DUP1 PUSH4 0xC94B674B GT PUSH2 0x7C JUMPI DUP1 PUSH4 0xC94B674B EQ PUSH2 0x2B2 JUMPI DUP1 PUSH4 0xD8DC8C28 EQ PUSH2 0x2C5 JUMPI DUP1 PUSH4 0xE2FDCC17 EQ PUSH2 0x2D8 JUMPI DUP1 PUSH4 0xE3A96CBD EQ PUSH2 0x2EB JUMPI DUP1 PUSH4 0xF2FDE38B EQ PUSH2 0x2FE JUMPI DUP1 PUSH4 0xFD1DC480 EQ PUSH2 0x311 JUMPI PUSH1 0x0 DUP1 REVERT JUMPDEST DUP1 PUSH4 0xA6A7F0EB EQ PUSH2 0x245 JUMPI DUP1 PUSH4 0xB1F27E60 EQ PUSH2 0x258 JUMPI DUP1 PUSH4 0xBF22C457 EQ PUSH2 0x26B JUMPI DUP1 PUSH4 0xC10C3546 EQ PUSH2 0x28C JUMPI DUP1 PUSH4 0xC316939C EQ PUSH2 0x29F JUMPI PUSH1 0x0 DUP1 REVERT JUMPDEST DUP1 PUSH4 0x31F6E29E GT PUSH2 0x10A JUMPI DUP1 PUSH4 0x31F6E29E EQ PUSH2 0x1C5 JUMPI DUP1 PUSH4 0x5B982D2F EQ PUSH2 0x1D8 JUMPI DUP1 PUSH4 0x715018A6 EQ PUSH2 0x1F9 JUMPI DUP1 PUSH4 0x7F58A8D6 EQ PUSH2 0x201 JUMPI DUP1 PUSH4 0x8DA5CB5B EQ PUSH2 0x214 JUMPI DUP1 PUSH4 0x8DB27549 EQ PUSH2 0x225 JUMPI PUSH1 0x0 DUP1 REVERT JUMPDEST DUP1 PUSH4 0xD1CFCAE EQ PUSH2 0x147 JUMPI DUP1 PUSH4 0x23682C47 EQ PUSH2 0x177 JUMPI DUP1 PUSH4 0x275BBE9B EQ PUSH2 0x18A JUMPI DUP1 PUSH4 0x28342ECF EQ PUSH2 0x19D JUMPI DUP1 PUSH4 0x2D5D0AAE EQ PUSH2 0x1B2 JUMPI JUMPDEST PUSH1 0x0 DUP1 REVERT JUMPDEST PUSH1 0xD SLOAD PUSH2 0x15A SWAP1 PUSH1 0x1 PUSH1 0x1 PUSH1 0xA0 SHL SUB AND DUP2 JUMP JUMPDEST PUSH1 0x40 MLOAD PUSH1 0x1 PUSH1 0x1 PUSH1 0xA0 SHL SUB SWAP1 SWAP2 AND DUP2 MSTORE PUSH1 0x20 ADD JUMPDEST PUSH1 0x40 MLOAD DUP1 SWAP2 SUB SWAP1 RETURN JUMPDEST PUSH1 0xA SLOAD PUSH2 0x15A SWAP1 PUSH1 0x1 PUSH1 0x1 PUSH1 0xA0 SHL SUB AND DUP2 JUMP JUMPDEST PUSH1 0xC SLOAD PUSH2 0x15A SWAP1 PUSH1 0x1 PUSH1 0x1 PUSH1 0xA0 SHL SUB AND DUP2 JUMP JUMPDEST PUSH2 0x1B0 PUSH2 0x1AB CALLDATASIZE PUSH1 0x4 PUSH2 0x2713 JUMP JUMPDEST PUSH2 0x324 JUMP JUMPDEST STOP JUMPDEST PUSH2 0x1B0 PUSH2 0x1C0 CALLDATASIZE PUSH1 0x4 PUSH2 0x2743 JUMP JUMPDEST PUSH2 0x34E JUMP JUMPDEST PUSH2 0x1B0 PUSH2 0x1D3 CALLDATASIZE PUSH1 0x4 PUSH2 0x27A4 JUMP JUMPDEST PUSH2 0x527 JUMP JUMPDEST PUSH2 0x1EB PUSH2 0x1E6 CALLDATASIZE PUSH1 0x4 PUSH2 0x27F6 JUMP JUMPDEST PUSH2 0x8A5 JUMP JUMPDEST PUSH1 0x40 MLOAD SWAP1 DUP2 MSTORE PUSH1 0x20 ADD PUSH2 0x16E JUMP JUMPDEST PUSH2 0x1B0 PUSH2 0xB9F JUMP JUMPDEST PUSH2 0x1B0 PUSH2 0x20F CALLDATASIZE PUSH1 0x4 PUSH2 0x2713 JUMP JUMPDEST PUSH2 0xBB3 JUMP JUMPDEST PUSH1 0x0 SLOAD PUSH1 0x1 PUSH1 0x1 PUSH1 0xA0 SHL SUB AND PUSH2 0x15A JUMP JUMPDEST PUSH2 0x238 PUSH2 0x233 CALLDATASIZE PUSH1 0x4 PUSH2 0x2743 JUMP JUMPDEST PUSH2 0xBDD JUMP JUMPDEST PUSH1 0x40 MLOAD PUSH2 0x16E SWAP2 SWAP1 PUSH2 0x2939 JUMP JUMPDEST PUSH2 0x1B0 PUSH2 0x253 CALLDATASIZE PUSH1 0x4 PUSH2 0x29F7 JUMP JUMPDEST PUSH2 0xEE3 JUMP JUMPDEST PUSH2 0x1EB PUSH2 0x266 CALLDATASIZE PUSH1 0x4 PUSH2 0x2A5E JUMP JUMPDEST PUSH2 0x108C JUMP JUMPDEST PUSH2 0x27E PUSH2 0x279 CALLDATASIZE PUSH1 0x4 PUSH2 0x2743 JUMP JUMPDEST PUSH2 0x159E JUMP JUMPDEST PUSH1 0x40 MLOAD PUSH2 0x16E SWAP3 SWAP2 SWAP1 PUSH2 0x2AC4 JUMP JUMPDEST PUSH2 0x1B0 PUSH2 0x29A CALLDATASIZE PUSH1 0x4 PUSH2 0x2713 JUMP JUMPDEST PUSH2 0x1925 JUMP JUMPDEST PUSH2 0x1B0 PUSH2 0x2AD CALLDATASIZE PUSH1 0x4 PUSH2 0x2C04 JUMP JUMPDEST PUSH2 0x194F JUMP JUMPDEST PUSH2 0x1B0 PUSH2 0x2C0 CALLDATASIZE PUSH1 0x4 PUSH2 0x2743 JUMP JUMPDEST PUSH2 0x1D1A JUMP JUMPDEST PUSH2 0x1B0 PUSH2 0x2D3 CALLDATASIZE PUSH1 0x4 PUSH2 0x2C4B JUMP JUMPDEST PUSH2 0x1EEF JUMP JUMPDEST PUSH1 0xB SLOAD PUSH2 0x15A SWAP1 PUSH1 0x1 PUSH1 0x1 PUSH1 0xA0 SHL SUB AND DUP2 JUMP JUMPDEST PUSH2 0x238 PUSH2 0x2F9 CALLDATASIZE PUSH1 0x4 PUSH2 0x2743 JUMP JUMPDEST PUSH2 0x2120 JUMP JUMPDEST PUSH2 0x1B0 PUSH2 0x30C CALLDATASIZE PUSH1 0x4 PUSH2 0x2713 JUMP JUMPDEST PUSH2 0x23BB JUMP JUMPDEST PUSH2 0x1EB PUSH2 0x31F CALLDATASIZE PUSH1 0x4 PUSH2 0x2C6D JUMP JUMPDEST PUSH2 0x23F9 JUMP JUMPDEST PUSH2 0x32C PUSH2 0x2630 JUMP JUMPDEST PUSH1 0xD DUP1 SLOAD PUSH1 0x1 PUSH1 0x1 PUSH1 0xA0 SHL SUB NOT AND PUSH1 0x1 PUSH1 0x1 PUSH1 0xA0 SHL SUB SWAP3 SWAP1 SWAP3 AND SWAP2 SWAP1 SWAP2 OR SWAP1 SSTORE JUMP JUMPDEST PUSH2 0x356 PUSH2 0x2630 JUMP JUMPDEST PUSH1 0x0 DUP2 DUP2 MSTORE PUSH1 0x4 PUSH1 0x20 MSTORE PUSH1 0x40 SWAP1 KECCAK256 PUSH1 0x1 DUP2 SLOAD PUSH1 0x1 PUSH1 0xA0 SHL SWAP1 DIV PUSH1 0xFF AND PUSH1 0x4 DUP2 GT ISZERO PUSH2 0x383 JUMPI PUSH2 0x383 PUSH2 0x290F JUMP JUMPDEST EQ DUP1 PUSH2 0x3AB JUMPI POP PUSH1 0x2 DUP2 SLOAD PUSH1 0x1 PUSH1 0xA0 SHL SWAP1 DIV PUSH1 0xFF AND PUSH1 0x4 DUP2 GT ISZERO PUSH2 0x3A9 JUMPI PUSH2 0x3A9 PUSH2 0x290F JUMP JUMPDEST EQ JUMPDEST PUSH2 0x3FC JUMPI PUSH1 0x40 MLOAD PUSH3 0x461BCD PUSH1 0xE5 SHL DUP2 MSTORE PUSH1 0x20 PUSH1 0x4 DUP3 ADD MSTORE PUSH1 0x18 PUSH1 0x24 DUP3 ADD MSTORE PUSH32 0x4F72646572426F6F6B3A2063616E6E6F7420726566756E640000000000000000 PUSH1 0x44 DUP3 ADD MSTORE PUSH1 0x64 ADD JUMPDEST PUSH1 0x40 MLOAD DUP1 SWAP2 SUB SWAP1 REVERT JUMPDEST PUSH1 0x3 DUP2 ADD SLOAD PUSH1 0xFF AND PUSH2 0x450 JUMPI PUSH1 0x40 MLOAD PUSH3 0x461BCD PUSH1 0xE5 SHL DUP2 MSTORE PUSH1 0x20 PUSH1 0x4 DUP3 ADD MSTORE PUSH1 0x1C PUSH1 0x24 DUP3 ADD MSTORE PUSH32 0x4F72646572426F6F6B3A206E6F20646973707574652072616973656400000000 PUSH1 0x44 DUP3 ADD MSTORE PUSH1 0x64 ADD PUSH2 0x3F3 JUMP JUMPDEST DUP1 SLOAD PUSH1 0xFF PUSH1 0xA0 SHL NOT AND PUSH1 0x1 PUSH1 0xA2 SHL OR DUP2 SSTORE PUSH1 0xA SLOAD PUSH1 0x40 MLOAD PUSH4 0x19786D15 PUSH1 0xE3 SHL DUP2 MSTORE PUSH1 0x1 PUSH1 0x1 PUSH1 0xA0 SHL SUB SWAP1 SWAP2 AND SWAP1 PUSH4 0xCBC368A8 SWAP1 PUSH2 0x493 SWAP1 DUP6 SWAP1 PUSH1 0x4 SWAP1 DUP2 ADD PUSH2 0x2D47 JUMP JUMPDEST PUSH1 0x0 PUSH1 0x40 MLOAD DUP1 DUP4 SUB DUP2 PUSH1 0x0 DUP8 DUP1 EXTCODESIZE ISZERO DUP1 ISZERO PUSH2 0x4AD JUMPI PUSH1 0x0 DUP1 REVERT JUMPDEST POP GAS CALL ISZERO DUP1 ISZERO PUSH2 0x4C1 JUMPI RETURNDATASIZE PUSH1 0x0 DUP1 RETURNDATACOPY RETURNDATASIZE PUSH1 0x0 REVERT JUMPDEST POP POP PUSH1 0xB SLOAD PUSH1 0x40 MLOAD PUSH4 0x278ECDE1 PUSH1 0xE0 SHL DUP2 MSTORE PUSH1 0x4 DUP2 ADD DUP7 SWAP1 MSTORE PUSH1 0x1 PUSH1 0x1 PUSH1 0xA0 SHL SUB SWAP1 SWAP2 AND SWAP3 POP PUSH4 0x278ECDE1 SWAP2 POP PUSH1 0x24 ADD PUSH1 0x0 PUSH1 0x40 MLOAD DUP1 DUP4 SUB DUP2 PUSH1 0x0 DUP8 DUP1 EXTCODESIZE ISZERO DUP1 ISZERO PUSH2 0x50B JUMPI PUSH1 0x0 DUP1 REVERT JUMPDEST POP GAS CALL ISZERO DUP1 ISZERO PUSH2 0x51F JUMPI RETURNDATASIZE PUSH1 0x0 DUP1 RETURNDATACOPY RETURNDATASIZE PUSH1 0x0 REVERT JUMPDEST POP POP POP POP POP POP JUMP JUMPDEST PUSH1 0x0 DUP5 DUP2 MSTORE PUSH1 0x4 PUSH1 0x20 MSTORE PUSH1 0x40 SWAP1 KECCAK256 DUP1 SLOAD PUSH1 0x1 PUSH1 0x1 PUSH1 0xA0 SHL SUB AND CALLER EQ PUSH2 0x586 JUMPI PUSH1 0x40 MLOAD PUSH3 0x461BCD PUSH1 0xE5 SHL DUP2 MSTORE PUSH1 0x20 PUSH1 0x4 DUP3 ADD MSTORE PUSH1 0x15 PUSH1 0x24 DUP3 ADD MSTORE PUSH21 0x27B93232B92137B7B59D103737BA103837B9BA32B9 PUSH1 0x59 SHL PUSH1 0x44 DUP3 ADD MSTORE PUSH1 0x64 ADD PUSH2 0x3F3 JUMP JUMPDEST PUSH1 0x0 DUP2 SLOAD PUSH1 0x1 PUSH1 0xA0 SHL SWAP1 DIV PUSH1 0xFF AND PUSH1 0x4 DUP2 GT ISZERO PUSH2 0x5A5 JUMPI PUSH2 0x5A5 PUSH2 0x290F JUMP JUMPDEST EQ PUSH2 0x5EC JUMPI PUSH1 0x40 MLOAD PUSH3 0x461BCD PUSH1 0xE5 SHL DUP2 MSTORE PUSH1 0x20 PUSH1 0x4 DUP3 ADD MSTORE PUSH1 0x17 PUSH1 0x24 DUP3 ADD MSTORE PUSH23 0x27B93232B92137B7B59D103537B1103737BA1037B832B7 PUSH1 0x49 SHL PUSH1 0x44 DUP3 ADD MSTORE PUSH1 0x64 ADD PUSH2 0x3F3 JUMP JUMPDEST PUSH1 0x0 DUP5 DUP2 MSTORE PUSH1 0x5 PUSH1 0x20 MSTORE PUSH1 0x40 SWAP1 KECCAK256 PUSH1 0x1 DUP2 ADD SLOAD DUP7 EQ PUSH2 0x64D JUMPI PUSH1 0x40 MLOAD PUSH3 0x461BCD PUSH1 0xE5 SHL DUP2 MSTORE PUSH1 0x20 PUSH1 0x4 DUP3 ADD MSTORE PUSH1 0x19 PUSH1 0x24 DUP3 ADD MSTORE PUSH32 0x4F72646572426F6F6B3A206D69736D6174636865642062696400000000000000 PUSH1 0x44 DUP3 ADD MSTORE PUSH1 0x64 ADD PUSH2 0x3F3 JUMP JUMPDEST PUSH1 0x8 DUP2 ADD SLOAD PUSH1 0xFF AND ISZERO PUSH2 0x6A2 JUMPI PUSH1 0x40 MLOAD PUSH3 0x461BCD PUSH1 0xE5 SHL DUP2 MSTORE PUSH1 0x20 PUSH1 0x4 DUP3 ADD MSTORE PUSH1 0x1F PUSH1 0x24 DUP3 ADD MSTORE PUSH32 0x4F72646572426F6F6B3A2062696420616C726561647920616363657074656400 PUSH1 0x44 DUP3 ADD MSTORE PUSH1 0x64 ADD PUSH2 0x3F3 JUMP JUMPDEST PUSH1 0xB SLOAD PUSH1 0x1 PUSH1 0x1 PUSH1 0xA0 SHL SUB AND PUSH2 0x6FA JUMPI PUSH1 0x40 MLOAD PUSH3 0x461BCD PUSH1 0xE5 SHL DUP2 MSTORE PUSH1 0x20 PUSH1 0x4 DUP3 ADD MSTORE PUSH1 0x19 PUSH1 0x24 DUP3 ADD MSTORE PUSH32 0x4F72646572426F6F6B3A20657363726F77206E6F742073657400000000000000 PUSH1 0x44 DUP3 ADD MSTORE PUSH1 0x64 ADD PUSH2 0x3F3 JUMP JUMPDEST PUSH1 0x8 DUP2 ADD DUP1 SLOAD PUSH1 0xFF NOT AND PUSH1 0x1 OR SWAP1 SSTORE PUSH1 0x7 DUP2 ADD PUSH2 0x718 DUP5 DUP7 DUP4 PUSH2 0x2DF8 JUMP JUMPDEST POP DUP2 SLOAD PUSH1 0xFF PUSH1 0xA0 SHL NOT AND PUSH1 0x1 PUSH1 0xA0 SHL OR DUP3 SSTORE PUSH1 0x1 DUP1 DUP4 ADD DUP7 SWAP1 SSTORE PUSH1 0xA SLOAD PUSH1 0x40 MLOAD PUSH4 0x19786D15 PUSH1 0xE3 SHL DUP2 MSTORE PUSH1 0x1 PUSH1 0x1 PUSH1 0xA0 SHL SUB SWAP1 SWAP2 AND SWAP2 PUSH4 0xCBC368A8 SWAP2 PUSH2 0x762 SWAP2 DUP11 SWAP2 PUSH1 0x4 ADD PUSH2 0x2D47 JUMP JUMPDEST PUSH1 0x0 PUSH1 0x40 MLOAD DUP1 DUP4 SUB DUP2 PUSH1 0x0 DUP8 DUP1 EXTCODESIZE ISZERO DUP1 ISZERO PUSH2 0x77C JUMPI PUSH1 0x0 DUP1 REVERT JUMPDEST POP GAS CALL ISZERO DUP1 ISZERO PUSH2 0x790 JUMPI RETURNDATASIZE PUSH1 0x0 DUP1 RETURNDATACOPY RETURNDATASIZE PUSH1 0x0 REVERT JUMPDEST POP POP PUSH1 0xB SLOAD PUSH1 0x2 DUP5 ADD SLOAD PUSH1 0x3 DUP6 ADD SLOAD PUSH1 0x40 MLOAD PUSH4 0x6F3CA89D PUSH1 0xE1 SHL DUP2 MSTORE PUSH1 0x4 DUP2 ADD DUP13 SWAP1 MSTORE CALLER PUSH1 0x24 DUP3 ADD MSTORE PUSH1 0x1 PUSH1 0x1 PUSH1 0xA0 SHL SUB SWAP3 DUP4 AND PUSH1 0x44 DUP3 ADD MSTORE PUSH1 0x64 DUP2 ADD SWAP2 SWAP1 SWAP2 MSTORE SWAP2 AND SWAP3 POP PUSH4 0xDE79513A SWAP2 POP PUSH1 0x84 ADD PUSH1 0x0 PUSH1 0x40 MLOAD DUP1 DUP4 SUB DUP2 PUSH1 0x0 DUP8 DUP1 EXTCODESIZE ISZERO DUP1 ISZERO PUSH2 0x7F9 JUMPI PUSH1 0x0 DUP1 REVERT JUMPDEST POP GAS CALL ISZERO DUP1 ISZERO PUSH2 0x80D JUMPI RETURNDATASIZE PUSH1 0x0 DUP1 RETURNDATACOPY RETURNDATASIZE PUSH1 0x0 REVERT JUMPDEST POP POP POP POP PUSH1 0x2 DUP2 ADD SLOAD PUSH1 0x40 DUP1 MLOAD CALLER DUP2 MSTORE PUSH1 0x1 PUSH1 0x1 PUSH1 0xA0 SHL SUB SWAP1 SWAP3 AND PUSH1 0x20 DUP4 ADD MSTORE DUP7 SWAP2 DUP9 SWAP2 PUSH32 0xF16C5ED39DC31D5EAB2C86ADE83769CF987D78B585032FA15C9CA45E7F5FE64E SWAP2 ADD PUSH1 0x40 MLOAD DUP1 SWAP2 SUB SWAP1 LOG3 DUP3 ISZERO PUSH2 0x51F JUMPI DUP5 DUP7 PUSH32 0x6D1F487CEFBFBC39B45A8F22F945225FA42A56F9B6E234F2C14B387FB6104EF8 DUP7 DUP7 PUSH1 0x40 MLOAD PUSH2 0x895 SWAP3 SWAP2 SWAP1 PUSH2 0x2EE1 JUMP JUMPDEST PUSH1 0x40 MLOAD DUP1 SWAP2 SUB SWAP1 LOG3 POP POP POP POP POP POP JUMP JUMPDEST PUSH1 0x0 DUP6 DUP2 MSTORE PUSH1 0x4 PUSH1 0x20 MSTORE PUSH1 0x40 DUP2 KECCAK256 DUP1 SLOAD PUSH1 0x1 PUSH1 0x1 PUSH1 0xA0 SHL SUB AND PUSH2 0x905 JUMPI PUSH1 0x40 MLOAD PUSH3 0x461BCD PUSH1 0xE5 SHL DUP2 MSTORE PUSH1 0x20 PUSH1 0x4 DUP3 ADD MSTORE PUSH1 0x18 PUSH1 0x24 DUP3 ADD MSTORE PUSH24 0x13DC99195C909BDBDACE881A9BD8881B9BDD08199BDD5B99 PUSH1 0x42 SHL PUSH1 0x44 DUP3 ADD MSTORE PUSH1 0x64 ADD PUSH2 0x3F3 JUMP JUMPDEST PUSH1 0x3 DUP2 ADD SLOAD PUSH1 0xFF AND ISZERO PUSH2 0x964 JUMPI PUSH1 0x40 MLOAD PUSH3 0x461BCD PUSH1 0xE5 SHL DUP2 MSTORE PUSH1 0x20 PUSH1 0x4 DUP3 ADD MSTORE PUSH1 0x21 PUSH1 0x24 DUP3 ADD MSTORE PUSH32 0x4F72646572426F6F6B3A206469737075746520616C7265616479207261697365 PUSH1 0x44 DUP3 ADD MSTORE PUSH1 0x19 PUSH1 0xFA SHL PUSH1 0x64 DUP3 ADD MSTORE PUSH1 0x84 ADD PUSH2 0x3F3 JUMP JUMPDEST PUSH1 0x1 DUP2 SLOAD PUSH1 0x1 PUSH1 0xA0 SHL SWAP1 DIV PUSH1 0xFF AND PUSH1 0x4 DUP2 GT ISZERO PUSH2 0x983 JUMPI PUSH2 0x983 PUSH2 0x290F JUMP JUMPDEST EQ DUP1 PUSH2 0x9AB JUMPI POP PUSH1 0x2 DUP2 SLOAD PUSH1 0x1 PUSH1 0xA0 SHL SWAP1 DIV PUSH1 0xFF AND PUSH1 0x4 DUP2 GT ISZERO PUSH2 0x9A9 JUMPI PUSH2 0x9A9 PUSH2 0x290F JUMP JUMPDEST EQ JUMPDEST PUSH2 0xA05 JUMPI PUSH1 0x40 MLOAD PUSH3 0x461BCD PUSH1 0xE5 SHL DUP2 MSTORE PUSH1 0x20 PUSH1 0x4 DUP3 ADD MSTORE PUSH1 0x25 PUSH1 0x24 DUP3 ADD MSTORE PUSH32 0x4F72646572426F6F6B3A20696E76616C69642073746174757320666F72206469 PUSH1 0x44 DUP3 ADD MSTORE PUSH5 0x7370757465 PUSH1 0xD8 SHL PUSH1 0x64 DUP3 ADD MSTORE PUSH1 0x84 ADD PUSH2 0x3F3 JUMP JUMPDEST PUSH1 0x1 DUP2 ADD SLOAD PUSH1 0x0 SWAP1 DUP2 MSTORE PUSH1 0x5 PUSH1 0x20 MSTORE PUSH1 0x40 SWAP1 KECCAK256 DUP2 SLOAD PUSH1 0x1 PUSH1 0x1 PUSH1 0xA0 SHL SUB AND CALLER EQ DUP1 PUSH2 0xA3C JUMPI POP PUSH1 0x2 DUP2 ADD SLOAD PUSH1 0x1 PUSH1 0x1 PUSH1 0xA0 SHL SUB AND CALLER EQ JUMPDEST PUSH2 0xAA2 JUMPI PUSH1 0x40 MLOAD PUSH3 0x461BCD PUSH1 0xE5 SHL DUP2 MSTORE PUSH1 0x20 PUSH1 0x4 DUP3 ADD MSTORE PUSH1 0x31 PUSH1 0x24 DUP3 ADD MSTORE PUSH32 0x4F72646572426F6F6B3A206F6E6C7920706F73746572206F72206167656E7420 PUSH1 0x44 DUP3 ADD MSTORE PUSH17 0x63616E2072616973652064697370757465 PUSH1 0x78 SHL PUSH1 0x64 DUP3 ADD MSTORE PUSH1 0x84 ADD PUSH2 0x3F3 JUMP JUMPDEST PUSH1 0x3 DUP1 SLOAD SWAP1 PUSH1 0x0 PUSH2 0xAB2 DUP4 PUSH2 0x2EFD JUMP JUMPDEST SWAP1 SWAP2 SSTORE POP PUSH1 0x0 DUP2 DUP2 MSTORE PUSH1 0x8 PUSH1 0x20 MSTORE PUSH1 0x40 SWAP1 KECCAK256 DUP2 DUP2 SSTORE PUSH1 0x1 DUP2 ADD DUP11 SWAP1 SSTORE PUSH1 0x2 DUP2 ADD DUP1 SLOAD PUSH1 0x1 PUSH1 0x1 PUSH1 0xA0 SHL SUB NOT AND CALLER OR SWAP1 SSTORE SWAP1 SWAP4 POP PUSH1 0x3 DUP2 ADD PUSH2 0xAF4 DUP9 DUP11 DUP4 PUSH2 0x2DF8 JUMP JUMPDEST POP PUSH1 0x4 DUP2 ADD DUP1 SLOAD PUSH1 0x1 DUP2 ADD DUP3 SSTORE PUSH1 0x0 SWAP2 DUP3 MSTORE PUSH1 0x20 SWAP1 SWAP2 KECCAK256 ADD PUSH2 0xB17 DUP7 DUP9 DUP4 PUSH2 0x2DF8 JUMP JUMPDEST POP PUSH1 0x5 DUP2 ADD DUP1 SLOAD PUSH1 0x1 SWAP2 SWAP1 PUSH1 0xFF NOT AND DUP3 DUP1 MUL OR SWAP1 SSTORE POP TIMESTAMP PUSH1 0x7 DUP3 ADD SSTORE PUSH1 0x3 DUP4 ADD DUP1 SLOAD PUSH1 0xFF NOT AND PUSH1 0x1 OR SWAP1 SSTORE PUSH1 0x0 DUP10 DUP2 MSTORE PUSH1 0x9 PUSH1 0x20 MSTORE PUSH1 0x40 SWAP1 DUP2 SWAP1 KECCAK256 DUP6 SWAP1 SSTORE MLOAD CALLER SWAP1 DUP11 SWAP1 DUP7 SWAP1 PUSH32 0x23C31C3C42269D2F1541FAECB93F9273532CFAA63B3B9CB5AB733358AC289E3B SWAP1 PUSH2 0xB8B SWAP1 DUP14 SWAP1 DUP14 SWAP1 PUSH2 0x2EE1 JUMP JUMPDEST PUSH1 0x40 MLOAD DUP1 SWAP2 SUB SWAP1 LOG4 POP POP POP SWAP6 SWAP5 POP POP POP POP POP JUMP JUMPDEST PUSH2 0xBA7 PUSH2 0x2630 JUMP JUMPDEST PUSH2 0xBB1 PUSH1 0x0 PUSH2 0x265D JUMP JUMPDEST JUMP JUMPDEST PUSH2 0xBBB PUSH2 0x2630 JUMP JUMPDEST PUSH1 0xC DUP1 SLOAD PUSH1 0x1 PUSH1 0x1 PUSH1 0xA0 SHL SUB NOT AND PUSH1 0x1 PUSH1 0x1 PUSH1 0xA0 SHL SUB SWAP3 SWAP1 SWAP3 AND SWAP2 SWAP1 SWAP2 OR SWAP1 SSTORE JUMP JUMPDEST PUSH2 0xBE5 PUSH2 0x26AD JUMP JUMPDEST PUSH1 0x0 DUP3 DUP2 MSTORE PUSH1 0x9 PUSH1 0x20 MSTORE PUSH1 0x40 DUP2 KECCAK256 SLOAD SWAP1 DUP2 SWAP1 SUB PUSH2 0xC4F JUMPI PUSH1 0x40 MLOAD PUSH3 0x461BCD PUSH1 0xE5 SHL DUP2 MSTORE PUSH1 0x20 PUSH1 0x4 DUP3 ADD MSTORE PUSH1 0x22 PUSH1 0x24 DUP3 ADD MSTORE PUSH32 0x4F72646572426F6F6B3A206E6F206469737075746520666F722074686973206A PUSH1 0x44 DUP3 ADD MSTORE PUSH2 0x37B1 PUSH1 0xF1 SHL PUSH1 0x64 DUP3 ADD MSTORE PUSH1 0x84 ADD PUSH2 0x3F3 JUMP JUMPDEST PUSH1 0x0 DUP2 DUP2 MSTORE PUSH1 0x8 PUSH1 0x20 SWAP1 DUP2 MSTORE PUSH1 0x40 SWAP2 DUP3 SWAP1 KECCAK256 DUP3 MLOAD PUSH2 0x120 DUP2 ADD DUP5 MSTORE DUP2 SLOAD DUP2 MSTORE PUSH1 0x1 DUP3 ADD SLOAD SWAP3 DUP2 ADD SWAP3 SWAP1 SWAP3 MSTORE PUSH1 0x2 DUP2 ADD SLOAD PUSH1 0x1 PUSH1 0x1 PUSH1 0xA0 SHL SUB AND SWAP3 DUP3 ADD SWAP3 SWAP1 SWAP3 MSTORE PUSH1 0x3 DUP3 ADD DUP1 SLOAD SWAP2 SWAP3 SWAP2 PUSH1 0x60 DUP5 ADD SWAP2 SWAP1 PUSH2 0xCA7 SWAP1 PUSH2 0x2D71 JUMP JUMPDEST DUP1 PUSH1 0x1F ADD PUSH1 0x20 DUP1 SWAP2 DIV MUL PUSH1 0x20 ADD PUSH1 0x40 MLOAD SWAP1 DUP2 ADD PUSH1 0x40 MSTORE DUP1 SWAP3 SWAP2 SWAP1 DUP2 DUP2 MSTORE PUSH1 0x20 ADD DUP3 DUP1 SLOAD PUSH2 0xCD3 SWAP1 PUSH2 0x2D71 JUMP JUMPDEST DUP1 ISZERO PUSH2 0xD20 JUMPI DUP1 PUSH1 0x1F LT PUSH2 0xCF5 JUMPI PUSH2 0x100 DUP1 DUP4 SLOAD DIV MUL DUP4 MSTORE SWAP2 PUSH1 0x20 ADD SWAP2 PUSH2 0xD20 JUMP JUMPDEST DUP3 ADD SWAP2 SWAP1 PUSH1 0x0 MSTORE PUSH1 0x20 PUSH1 0x0 KECCAK256 SWAP1 JUMPDEST DUP2 SLOAD DUP2 MSTORE SWAP1 PUSH1 0x1 ADD SWAP1 PUSH1 0x20 ADD DUP1 DUP4 GT PUSH2 0xD03 JUMPI DUP3 SWAP1 SUB PUSH1 0x1F AND DUP3 ADD SWAP2 JUMPDEST POP POP POP POP POP DUP2 MSTORE PUSH1 0x20 ADD PUSH1 0x4 DUP3 ADD DUP1 SLOAD DUP1 PUSH1 0x20 MUL PUSH1 0x20 ADD PUSH1 0x40 MLOAD SWAP1 DUP2 ADD PUSH1 0x40 MSTORE DUP1 SWAP3 SWAP2 SWAP1 DUP2 DUP2 MSTORE PUSH1 0x20 ADD PUSH1 0x0 SWAP1 JUMPDEST DUP3 DUP3 LT ISZERO PUSH2 0xDFA JUMPI DUP4 DUP3 SWAP1 PUSH1 0x0 MSTORE PUSH1 0x20 PUSH1 0x0 KECCAK256 ADD DUP1 SLOAD PUSH2 0xD6D SWAP1 PUSH2 0x2D71 JUMP JUMPDEST DUP1 PUSH1 0x1F ADD PUSH1 0x20 DUP1 SWAP2 DIV MUL PUSH1 0x20 ADD PUSH1 0x40 MLOAD SWAP1 DUP2 ADD PUSH1 0x40 MSTORE DUP1 SWAP3 SWAP2 SWAP1 DUP2 DUP2 MSTORE PUSH1 0x20 ADD DUP3 DUP1 SLOAD PUSH2 0xD99 SWAP1 PUSH2 0x2D71 JUMP JUMPDEST DUP1 ISZERO PUSH2 0xDE6 JUMPI DUP1 PUSH1 0x1F LT PUSH2 0xDBB JUMPI PUSH2 0x100 DUP1 DUP4 SLOAD DIV MUL DUP4 MSTORE SWAP2 PUSH1 0x20 ADD SWAP2 PUSH2 0xDE6 JUMP JUMPDEST DUP3 ADD SWAP2 SWAP1 PUSH1 0x0 MSTORE PUSH1 0x20 PUSH1 0x0 KECCAK256 SWAP1 JUMPDEST DUP2 SLOAD DUP2 MSTORE SWAP1 PUSH1 0x1 ADD SWAP1 PUSH1 0x20 ADD DUP1 DUP4 GT PUSH2 0xDC9 JUMPI DUP3 SWAP1 SUB PUSH1 0x1F AND DUP3 ADD SWAP2 JUMPDEST POP POP POP POP POP DUP2 MSTORE PUSH1 0x20 ADD SWAP1 PUSH1 0x1 ADD SWAP1 PUSH2 0xD4E JUMP JUMPDEST POP POP POP SWAP1 DUP3 MSTORE POP PUSH1 0x5 DUP3 DUP2 ADD SLOAD PUSH1 0x20 SWAP1 SWAP3 ADD SWAP2 PUSH1 0xFF AND SWAP1 DUP2 GT ISZERO PUSH2 0xE20 JUMPI PUSH2 0xE20 PUSH2 0x290F JUMP JUMPDEST PUSH1 0x5 DUP2 GT ISZERO PUSH2 0xE31 JUMPI PUSH2 0xE31 PUSH2 0x290F JUMP JUMPDEST DUP2 MSTORE PUSH1 0x20 ADD PUSH1 0x6 DUP3 ADD DUP1 SLOAD PUSH2 0xE45 SWAP1 PUSH2 0x2D71 JUMP JUMPDEST DUP1 PUSH1 0x1F ADD PUSH1 0x20 DUP1 SWAP2 DIV MUL PUSH1 0x20 ADD PUSH1 0x40 MLOAD SWAP1 DUP2 ADD PUSH1 0x40 MSTORE DUP1 SWAP3 SWAP2 SWAP1 DUP2 DUP2 MSTORE PUSH1 0x20 ADD DUP3 DUP1 SLOAD PUSH2 0xE71 SWAP1 PUSH2 0x2D71 JUMP JUMPDEST DUP1 ISZERO PUSH2 0xEBE JUMPI DUP1 PUSH1 0x1F LT PUSH2 0xE93 JUMPI PUSH2 0x100 DUP1 DUP4 SLOAD DIV MUL DUP4 MSTORE SWAP2 PUSH1 0x20 ADD SWAP2 PUSH2 0xEBE JUMP JUMPDEST DUP3 ADD SWAP2 SWAP1 PUSH1 0x0 MSTORE PUSH1 0x20 PUSH1 0x0 KECCAK256 SWAP1 JUMPDEST DUP2 SLOAD DUP2 MSTORE SWAP1 PUSH1 0x1 ADD SWAP1 PUSH1 0x20 ADD DUP1 DUP4 GT PUSH2 0xEA1 JUMPI DUP3 SWAP1 SUB PUSH1 0x1F AND DUP3 ADD SWAP2 JUMPDEST POP POP POP POP POP DUP2 MSTORE PUSH1 0x20 ADD PUSH1 0x7 DUP3 ADD SLOAD DUP2 MSTORE PUSH1 0x20 ADD PUSH1 0x8 DUP3 ADD SLOAD DUP2 MSTORE POP POP SWAP2 POP POP SWAP2 SWAP1 POP JUMP JUMPDEST PUSH1 0x0 DUP4 DUP2 MSTORE PUSH1 0x8 PUSH1 0x20 MSTORE PUSH1 0x40 SWAP1 KECCAK256 PUSH1 0x1 PUSH1 0x5 DUP1 DUP4 ADD SLOAD PUSH1 0xFF AND SWAP1 DUP2 GT ISZERO PUSH2 0xF0C JUMPI PUSH2 0xF0C PUSH2 0x290F JUMP JUMPDEST EQ DUP1 PUSH2 0xF30 JUMPI POP PUSH1 0x2 PUSH1 0x5 DUP1 DUP4 ADD SLOAD PUSH1 0xFF AND SWAP1 DUP2 GT ISZERO PUSH2 0xF2E JUMPI PUSH2 0xF2E PUSH2 0x290F JUMP JUMPDEST EQ JUMPDEST PUSH2 0xF7C JUMPI PUSH1 0x40 MLOAD PUSH3 0x461BCD PUSH1 0xE5 SHL DUP2 MSTORE PUSH1 0x20 PUSH1 0x4 DUP3 ADD MSTORE PUSH1 0x1D PUSH1 0x24 DUP3 ADD MSTORE PUSH32 0x4F72646572426F6F6B3A2064697370757465206E6F7420616374697665000000 PUSH1 0x44 DUP3 ADD MSTORE PUSH1 0x64 ADD PUSH2 0x3F3 JUMP JUMPDEST PUSH1 0x1 DUP2 DUP2 ADD SLOAD PUSH1 0x0 SWAP1 DUP2 MSTORE PUSH1 0x4 PUSH1 0x20 SWAP1 DUP2 MSTORE PUSH1 0x40 DUP1 DUP4 KECCAK256 SWAP4 DUP5 ADD SLOAD DUP4 MSTORE PUSH1 0x5 SWAP1 SWAP2 MSTORE SWAP1 KECCAK256 DUP2 SLOAD PUSH1 0x1 PUSH1 0x1 PUSH1 0xA0 SHL SUB AND CALLER EQ DUP1 PUSH2 0xFC4 JUMPI POP PUSH1 0x2 DUP2 ADD SLOAD PUSH1 0x1 PUSH1 0x1 PUSH1 0xA0 SHL SUB AND CALLER EQ JUMPDEST PUSH2 0x102D JUMPI PUSH1 0x40 MLOAD PUSH3 0x461BCD PUSH1 0xE5 SHL DUP2 MSTORE PUSH1 0x20 PUSH1 0x4 DUP3 ADD MSTORE PUSH1 0x34 PUSH1 0x24 DUP3 ADD MSTORE PUSH32 0x4F72646572426F6F6B3A206F6E6C7920696E766F6C7665642070617274696573 PUSH1 0x44 DUP3 ADD MSTORE PUSH20 0x2063616E207375626D69742065766964656E6365 PUSH1 0x60 SHL PUSH1 0x64 DUP3 ADD MSTORE PUSH1 0x84 ADD PUSH2 0x3F3 JUMP JUMPDEST PUSH1 0x4 DUP4 ADD DUP1 SLOAD PUSH1 0x1 DUP2 ADD DUP3 SSTORE PUSH1 0x0 SWAP2 DUP3 MSTORE PUSH1 0x20 SWAP1 SWAP2 KECCAK256 ADD PUSH2 0x104F DUP6 DUP8 DUP4 PUSH2 0x2DF8 JUMP JUMPDEST POP CALLER PUSH1 0x1 PUSH1 0x1 PUSH1 0xA0 SHL SUB AND DUP7 PUSH32 0xA49E7517D2B5714F7812F718444C5A2931D4FC670ED2D2AA2426FF2F42C5B44D DUP8 DUP8 PUSH1 0x40 MLOAD PUSH2 0x895 SWAP3 SWAP2 SWAP1 PUSH2 0x2EE1 JUMP JUMPDEST PUSH1 0x0 DUP6 DUP2 MSTORE PUSH1 0x4 PUSH1 0x20 MSTORE PUSH1 0x40 DUP2 KECCAK256 DUP1 SLOAD PUSH1 0x1 PUSH1 0x1 PUSH1 0xA0 SHL SUB AND PUSH2 0x10EC JUMPI PUSH1 0x40 MLOAD PUSH3 0x461BCD PUSH1 0xE5 SHL DUP2 MSTORE PUSH1 0x20 PUSH1 0x4 DUP3 ADD MSTORE PUSH1 0x18 PUSH1 0x24 DUP3 ADD MSTORE PUSH24 0x13DC99195C909BDBDACE881A9BD8881B9BDD08199BDD5B99 PUSH1 0x42 SHL PUSH1 0x44 DUP3 ADD MSTORE PUSH1 0x64 ADD PUSH2 0x3F3 JUMP JUMPDEST PUSH1 0x0 DUP2 SLOAD PUSH1 0x1 PUSH1 0xA0 SHL SWAP1 DIV PUSH1 0xFF AND PUSH1 0x4 DUP2 GT ISZERO PUSH2 0x110B JUMPI PUSH2 0x110B PUSH2 0x290F JUMP JUMPDEST EQ PUSH2 0x1152 JUMPI PUSH1 0x40 MLOAD PUSH3 0x461BCD PUSH1 0xE5 SHL DUP2 MSTORE PUSH1 0x20 PUSH1 0x4 DUP3 ADD MSTORE PUSH1 0x17 PUSH1 0x24 DUP3 ADD MSTORE PUSH23 0x27B93232B92137B7B59D103537B1103737BA1037B832B7 PUSH1 0x49 SHL PUSH1 0x44 DUP3 ADD MSTORE PUSH1 0x64 ADD PUSH2 0x3F3 JUMP JUMPDEST PUSH1 0x0 DUP7 GT PUSH2 0x11B0 JUMPI PUSH1 0x40 MLOAD PUSH3 0x461BCD PUSH1 0xE5 SHL DUP2 MSTORE PUSH1 0x20 PUSH1 0x4 DUP3 ADD MSTORE PUSH1 0x25 PUSH1 0x24 DUP3 ADD MSTORE PUSH32 0x4F72646572426F6F6B3A20626964207072696365206D75737420626520706F73 PUSH1 0x44 DUP3 ADD MSTORE PUSH5 0x6974697665 PUSH1 0xD8 SHL PUSH1 0x64 DUP3 ADD MSTORE PUSH1 0x84 ADD PUSH2 0x3F3 JUMP JUMPDEST PUSH1 0x0 DUP8 DUP2 MSTORE PUSH1 0x7 PUSH1 0x20 SWAP1 DUP2 MSTORE PUSH1 0x40 DUP1 DUP4 KECCAK256 CALLER DUP5 MSTORE SWAP1 SWAP2 MSTORE SWAP1 KECCAK256 SLOAD PUSH1 0xFF AND ISZERO PUSH2 0x122B JUMPI PUSH1 0x40 MLOAD PUSH3 0x461BCD PUSH1 0xE5 SHL DUP2 MSTORE PUSH1 0x20 PUSH1 0x4 DUP3 ADD MSTORE PUSH1 0x28 PUSH1 0x24 DUP3 ADD MSTORE PUSH32 0x4F72646572426F6F6B3A206167656E7420616C726561647920626964206F6E20 PUSH1 0x44 DUP3 ADD MSTORE PUSH8 0x3A3434B9903537B1 PUSH1 0xC1 SHL PUSH1 0x64 DUP3 ADD MSTORE PUSH1 0x84 ADD PUSH2 0x3F3 JUMP JUMPDEST PUSH1 0xD SLOAD PUSH1 0x1 PUSH1 0x1 PUSH1 0xA0 SHL SUB AND ISZERO PUSH2 0x12F4 JUMPI PUSH1 0xD SLOAD PUSH1 0x40 MLOAD PUSH4 0x554C4F4B PUSH1 0xE0 SHL DUP2 MSTORE CALLER PUSH1 0x4 DUP3 ADD MSTORE PUSH1 0x1 PUSH1 0x1 PUSH1 0xA0 SHL SUB SWAP1 SWAP2 AND SWAP1 PUSH4 0x554C4F4B SWAP1 PUSH1 0x24 ADD PUSH1 0x20 PUSH1 0x40 MLOAD DUP1 DUP4 SUB DUP2 DUP7 GAS STATICCALL ISZERO DUP1 ISZERO PUSH2 0x1284 JUMPI RETURNDATASIZE PUSH1 0x0 DUP1 RETURNDATACOPY RETURNDATASIZE PUSH1 0x0 REVERT JUMPDEST POP POP POP POP PUSH1 0x40 MLOAD RETURNDATASIZE PUSH1 0x1F NOT PUSH1 0x1F DUP3 ADD AND DUP3 ADD DUP1 PUSH1 0x40 MSTORE POP DUP2 ADD SWAP1 PUSH2 0x12A8 SWAP2 SWAP1 PUSH2 0x2F24 JUMP JUMPDEST PUSH2 0x12F4 JUMPI PUSH1 0x40 MLOAD PUSH3 0x461BCD PUSH1 0xE5 SHL DUP2 MSTORE PUSH1 0x20 PUSH1 0x4 DUP3 ADD MSTORE PUSH1 0x1B PUSH1 0x24 DUP3 ADD MSTORE PUSH32 0x4F72646572426F6F6B3A206167656E74206E6F74206163746976650000000000 PUSH1 0x44 DUP3 ADD MSTORE PUSH1 0x64 ADD PUSH2 0x3F3 JUMP JUMPDEST PUSH1 0xC SLOAD PUSH1 0x0 SWAP1 PUSH1 0x1 PUSH1 0x1 PUSH1 0xA0 SHL SUB AND PUSH2 0x130E JUMPI PUSH1 0x0 PUSH2 0x137A JUMP JUMPDEST PUSH1 0xC SLOAD PUSH1 0x40 MLOAD PUSH4 0x99D7A2B PUSH1 0xE1 SHL DUP2 MSTORE CALLER PUSH1 0x4 DUP3 ADD MSTORE PUSH1 0x1 PUSH1 0x1 PUSH1 0xA0 SHL SUB SWAP1 SWAP2 AND SWAP1 PUSH4 0x133AF456 SWAP1 PUSH1 0x24 ADD PUSH1 0x20 PUSH1 0x40 MLOAD DUP1 DUP4 SUB DUP2 DUP7 GAS STATICCALL ISZERO DUP1 ISZERO PUSH2 0x1356 JUMPI RETURNDATASIZE PUSH1 0x0 DUP1 RETURNDATACOPY RETURNDATASIZE PUSH1 0x0 REVERT JUMPDEST POP POP POP POP PUSH1 0x40 MLOAD RETURNDATASIZE PUSH1 0x1F NOT PUSH1 0x1F DUP3 ADD AND DUP3 ADD DUP1 PUSH1 0x40 MSTORE POP DUP2 ADD SWAP1 PUSH2 0x137A SWAP2 SWAP1 PUSH2 0x2F46 JUMP JUMPDEST PUSH1 0x2 DUP1 SLOAD SWAP2 SWAP3 POP PUSH1 0x0 PUSH2 0x138C DUP4 PUSH2 0x2EFD JUMP JUMPDEST SWAP1 SWAP2 SSTORE POP PUSH1 0x0 DUP2 DUP2 MSTORE PUSH1 0x5 PUSH1 0x20 DUP2 SWAP1 MSTORE PUSH1 0x40 SWAP1 SWAP2 KECCAK256 DUP3 DUP2 SSTORE PUSH1 0x1 DUP2 ADD DUP12 SWAP1 SSTORE PUSH1 0x2 DUP2 ADD DUP1 SLOAD PUSH1 0x1 PUSH1 0x1 PUSH1 0xA0 SHL SUB NOT AND CALLER OR SWAP1 SSTORE PUSH1 0x3 DUP2 ADD DUP11 SWAP1 SSTORE PUSH1 0x4 DUP2 ADD DUP1 SLOAD PUSH1 0x1 PUSH1 0x1 PUSH1 0x40 SHL SUB DUP12 AND PUSH8 0xFFFFFFFFFFFFFFFF NOT SWAP1 SWAP2 AND OR SWAP1 SSTORE SWAP1 DUP2 ADD DUP4 SWAP1 SSTORE SWAP1 SWAP4 POP PUSH1 0x6 DUP2 ADD PUSH2 0x13FE DUP7 DUP9 DUP4 PUSH2 0x2DF8 JUMP JUMPDEST POP TIMESTAMP PUSH1 0x9 DUP3 ADD SSTORE PUSH1 0x0 DUP10 DUP2 MSTORE PUSH1 0x6 PUSH1 0x20 SWAP1 DUP2 MSTORE PUSH1 0x40 DUP1 DUP4 KECCAK256 DUP1 SLOAD PUSH1 0x1 DUP2 DUP2 ADD DUP4 SSTORE SWAP2 DUP6 MSTORE DUP4 DUP6 KECCAK256 ADD DUP9 SWAP1 SSTORE DUP13 DUP5 MSTORE PUSH1 0x7 DUP4 MSTORE DUP2 DUP5 KECCAK256 CALLER DUP6 MSTORE DUP4 MSTORE DUP2 DUP5 KECCAK256 DUP1 SLOAD PUSH1 0xFF NOT AND SWAP1 SWAP2 OR SWAP1 SSTORE DUP1 MLOAD PUSH1 0x1F DUP10 ADD DUP4 SWAP1 DIV DUP4 MUL DUP2 ADD DUP4 ADD SWAP1 SWAP2 MSTORE DUP8 DUP2 MSTORE SWAP1 DUP9 SWAP1 DUP9 SWAP1 DUP2 SWAP1 DUP5 ADD DUP4 DUP3 DUP1 DUP3 DUP5 CALLDATACOPY PUSH1 0x0 DUP2 DUP5 ADD MSTORE PUSH1 0x1F NOT PUSH1 0x1F DUP3 ADD AND SWAP1 POP DUP1 DUP4 ADD SWAP3 POP POP POP POP POP POP POP SWAP1 POP PUSH1 0x0 PUSH1 0x40 MLOAD DUP1 PUSH2 0x120 ADD PUSH1 0x40 MSTORE DUP1 DUP8 DUP2 MSTORE PUSH1 0x20 ADD DUP13 DUP2 MSTORE PUSH1 0x20 ADD CALLER PUSH1 0x1 PUSH1 0x1 PUSH1 0xA0 SHL SUB AND DUP2 MSTORE PUSH1 0x20 ADD DUP12 DUP2 MSTORE PUSH1 0x20 ADD DUP11 PUSH1 0x1 PUSH1 0x1 PUSH1 0x40 SHL SUB AND DUP2 MSTORE PUSH1 0x20 ADD DUP6 DUP2 MSTORE PUSH1 0x20 ADD DUP4 DUP2 MSTORE PUSH1 0x20 ADD PUSH1 0x0 ISZERO ISZERO DUP2 MSTORE PUSH1 0x20 ADD TIMESTAMP DUP2 MSTORE POP SWAP1 POP PUSH1 0xA PUSH1 0x0 SWAP1 SLOAD SWAP1 PUSH2 0x100 EXP SWAP1 DIV PUSH1 0x1 PUSH1 0x1 PUSH1 0xA0 SHL SUB AND PUSH1 0x1 PUSH1 0x1 PUSH1 0xA0 SHL SUB AND PUSH4 0x421EC78F DUP3 PUSH1 0x40 MLOAD DUP3 PUSH4 0xFFFFFFFF AND PUSH1 0xE0 SHL DUP2 MSTORE PUSH1 0x4 ADD PUSH2 0x1521 SWAP2 SWAP1 PUSH2 0x2F5F JUMP JUMPDEST PUSH1 0x0 PUSH1 0x40 MLOAD DUP1 DUP4 SUB DUP2 PUSH1 0x0 DUP8 DUP1 EXTCODESIZE ISZERO DUP1 ISZERO PUSH2 0x153B JUMPI PUSH1 0x0 DUP1 REVERT JUMPDEST POP GAS CALL ISZERO DUP1 ISZERO PUSH2 0x154F JUMPI RETURNDATASIZE PUSH1 0x0 DUP1 RETURNDATACOPY RETURNDATASIZE PUSH1 0x0 REVERT JUMPDEST POP POP PUSH1 0x40 DUP1 MLOAD CALLER DUP2 MSTORE PUSH1 0x20 DUP2 ADD DUP15 SWAP1 MSTORE DUP10 SWAP4 POP DUP15 SWAP3 POP PUSH32 0x6F7E354EA3AB5C288AEA37FCE29C603F9A98A3B040F6D8F32F10E192EC47FF6A SWAP2 ADD PUSH1 0x40 MLOAD DUP1 SWAP2 SUB SWAP1 LOG3 POP POP POP POP POP SWAP6 SWAP5 POP POP POP POP POP JUMP JUMPDEST PUSH1 0x40 DUP1 MLOAD PUSH1 0xA0 DUP2 ADD DUP3 MSTORE PUSH1 0x0 DUP1 DUP3 MSTORE PUSH1 0x20 DUP3 ADD DUP2 SWAP1 MSTORE SWAP2 DUP2 ADD DUP3 SWAP1 MSTORE PUSH1 0x60 DUP2 ADD DUP3 SWAP1 MSTORE PUSH1 0x80 DUP2 ADD SWAP2 SWAP1 SWAP2 MSTORE PUSH1 0x0 DUP3 DUP2 MSTORE PUSH1 0x4 PUSH1 0x20 DUP2 DUP2 MSTORE PUSH1 0x40 SWAP3 DUP4 SWAP1 KECCAK256 DUP4 MLOAD PUSH1 0xA0 DUP2 ADD SWAP1 SWAP5 MSTORE DUP1 SLOAD PUSH1 0x1 PUSH1 0x1 PUSH1 0xA0 SHL SUB DUP2 AND DUP6 MSTORE PUSH1 0x60 SWAP5 SWAP4 SWAP2 SWAP3 DUP5 ADD SWAP2 PUSH1 0x1 PUSH1 0xA0 SHL SWAP1 SWAP2 DIV PUSH1 0xFF AND SWAP1 DUP2 GT ISZERO PUSH2 0x1616 JUMPI PUSH2 0x1616 PUSH2 0x290F JUMP JUMPDEST PUSH1 0x4 DUP2 GT ISZERO PUSH2 0x1627 JUMPI PUSH2 0x1627 PUSH2 0x290F JUMP JUMPDEST DUP2 MSTORE PUSH1 0x1 DUP3 ADD SLOAD PUSH1 0x20 DUP1 DUP4 ADD SWAP2 SWAP1 SWAP2 MSTORE PUSH1 0x2 DUP4 ADD SLOAD PUSH1 0x40 DUP1 DUP5 ADD SWAP2 SWAP1 SWAP2 MSTORE PUSH1 0x3 SWAP1 SWAP4 ADD SLOAD PUSH1 0xFF AND ISZERO ISZERO PUSH1 0x60 SWAP1 SWAP3 ADD SWAP2 SWAP1 SWAP2 MSTORE PUSH1 0x0 DUP7 DUP2 MSTORE PUSH1 0x6 SWAP1 SWAP2 MSTORE KECCAK256 DUP1 SLOAD SWAP2 SWAP4 POP SWAP1 PUSH1 0x1 PUSH1 0x1 PUSH1 0x40 SHL SUB DUP2 GT ISZERO PUSH2 0x1681 JUMPI PUSH2 0x1681 PUSH2 0x2D5B JUMP JUMPDEST PUSH1 0x40 MLOAD SWAP1 DUP1 DUP3 MSTORE DUP1 PUSH1 0x20 MUL PUSH1 0x20 ADD DUP3 ADD PUSH1 0x40 MSTORE DUP1 ISZERO PUSH2 0x171C JUMPI DUP2 PUSH1 0x20 ADD JUMPDEST PUSH2 0x1709 PUSH1 0x40 MLOAD DUP1 PUSH2 0x140 ADD PUSH1 0x40 MSTORE DUP1 PUSH1 0x0 DUP2 MSTORE PUSH1 0x20 ADD PUSH1 0x0 DUP2 MSTORE PUSH1 0x20 ADD PUSH1 0x0 PUSH1 0x1 PUSH1 0x1 PUSH1 0xA0 SHL SUB AND DUP2 MSTORE PUSH1 0x20 ADD PUSH1 0x0 DUP2 MSTORE PUSH1 0x20 ADD PUSH1 0x0 PUSH1 0x1 PUSH1 0x1 PUSH1 0x40 SHL SUB AND DUP2 MSTORE PUSH1 0x20 ADD PUSH1 0x0 DUP2 MSTORE PUSH1 0x20 ADD PUSH1 0x60 DUP2 MSTORE PUSH1 0x20 ADD PUSH1 0x60 DUP2 MSTORE PUSH1 0x20 ADD PUSH1 0x0 ISZERO ISZERO DUP2 MSTORE PUSH1 0x20 ADD PUSH1 0x0 DUP2 MSTORE POP SWAP1 JUMP JUMPDEST DUP2 MSTORE PUSH1 0x20 ADD SWAP1 PUSH1 0x1 SWAP1 SUB SWAP1 DUP2 PUSH2 0x169F JUMPI SWAP1 POP JUMPDEST POP SWAP2 POP PUSH1 0x0 JUMPDEST DUP2 SLOAD DUP2 LT ISZERO PUSH2 0x191E JUMPI PUSH1 0x5 PUSH1 0x0 DUP4 DUP4 DUP2 SLOAD DUP2 LT PUSH2 0x1741 JUMPI PUSH2 0x1741 PUSH2 0x3004 JUMP JUMPDEST PUSH1 0x0 SWAP2 DUP3 MSTORE PUSH1 0x20 DUP1 DUP4 KECCAK256 SWAP1 SWAP2 ADD SLOAD DUP4 MSTORE DUP3 DUP2 ADD SWAP4 SWAP1 SWAP4 MSTORE PUSH1 0x40 SWAP2 DUP3 ADD SWAP1 KECCAK256 DUP2 MLOAD PUSH2 0x140 DUP2 ADD DUP4 MSTORE DUP2 SLOAD DUP2 MSTORE PUSH1 0x1 DUP3 ADD SLOAD SWAP4 DUP2 ADD SWAP4 SWAP1 SWAP4 MSTORE PUSH1 0x2 DUP2 ADD SLOAD PUSH1 0x1 PUSH1 0x1 PUSH1 0xA0 SHL SUB AND SWAP2 DUP4 ADD SWAP2 SWAP1 SWAP2 MSTORE PUSH1 0x3 DUP2 ADD SLOAD PUSH1 0x60 DUP4 ADD MSTORE PUSH1 0x4 DUP2 ADD SLOAD PUSH1 0x1 PUSH1 0x1 PUSH1 0x40 SHL SUB AND PUSH1 0x80 DUP4 ADD MSTORE PUSH1 0x5 DUP2 ADD SLOAD PUSH1 0xA0 DUP4 ADD MSTORE PUSH1 0x6 DUP2 ADD DUP1 SLOAD PUSH1 0xC0 DUP5 ADD SWAP2 SWAP1 PUSH2 0x17C9 SWAP1 PUSH2 0x2D71 JUMP JUMPDEST DUP1 PUSH1 0x1F ADD PUSH1 0x20 DUP1 SWAP2 DIV MUL PUSH1 0x20 ADD PUSH1 0x40 MLOAD SWAP1 DUP2 ADD PUSH1 0x40 MSTORE DUP1 SWAP3 SWAP2 SWAP1 DUP2 DUP2 MSTORE PUSH1 0x20 ADD DUP3 DUP1 SLOAD PUSH2 0x17F5 SWAP1 PUSH2 0x2D71 JUMP JUMPDEST DUP1 ISZERO PUSH2 0x1842 JUMPI DUP1 PUSH1 0x1F LT PUSH2 0x1817 JUMPI PUSH2 0x100 DUP1 DUP4 SLOAD DIV MUL DUP4 MSTORE SWAP2 PUSH1 0x20 ADD SWAP2 PUSH2 0x1842 JUMP JUMPDEST DUP3 ADD SWAP2 SWAP1 PUSH1 0x0 MSTORE PUSH1 0x20 PUSH1 0x0 KECCAK256 SWAP1 JUMPDEST DUP2 SLOAD DUP2 MSTORE SWAP1 PUSH1 0x1 ADD SWAP1 PUSH1 0x20 ADD DUP1 DUP4 GT PUSH2 0x1825 JUMPI DUP3 SWAP1 SUB PUSH1 0x1F AND DUP3 ADD SWAP2 JUMPDEST POP POP POP POP POP DUP2 MSTORE PUSH1 0x20 ADD PUSH1 0x7 DUP3 ADD DUP1 SLOAD PUSH2 0x185B SWAP1 PUSH2 0x2D71 JUMP JUMPDEST DUP1 PUSH1 0x1F ADD PUSH1 0x20 DUP1 SWAP2 DIV MUL PUSH1 0x20 ADD PUSH1 0x40 MLOAD SWAP1 DUP2 ADD PUSH1 0x40 MSTORE DUP1 SWAP3 SWAP2 SWAP1 DUP2 DUP2 MSTORE PUSH1 0x20 ADD DUP3 DUP1 SLOAD PUSH2 0x1887 SWAP1 PUSH2 0x2D71 JUMP JUMPDEST DUP1 ISZERO PUSH2 0x18D4 JUMPI DUP1 PUSH1 0x1F LT PUSH2 0x18A9 JUMPI PUSH2 0x100 DUP1 DUP4 SLOAD DIV MUL DUP4 MSTORE SWAP2 PUSH1 0x20 ADD SWAP2 PUSH2 0x18D4 JUMP JUMPDEST DUP3 ADD SWAP2 SWAP1 PUSH1 0x0 MSTORE PUSH1 0x20 PUSH1 0x0 KECCAK256 SWAP1 JUMPDEST DUP2 SLOAD DUP2 MSTORE SWAP1 PUSH1 0x1 ADD SWAP1 PUSH1 0x20 ADD DUP1 DUP4 GT PUSH2 0x18B7 JUMPI DUP3 SWAP1 SUB PUSH1 0x1F AND DUP3 ADD SWAP2 JUMPDEST POP POP POP SWAP2 DUP4 MSTORE POP POP PUSH1 0x8 DUP3 ADD SLOAD PUSH1 0xFF AND ISZERO ISZERO PUSH1 0x20 DUP3 ADD MSTORE PUSH1 0x9 SWAP1 SWAP2 ADD SLOAD PUSH1 0x40 SWAP1 SWAP2 ADD MSTORE DUP4 MLOAD DUP5 SWAP1 DUP4 SWAP1 DUP2 LT PUSH2 0x190B JUMPI PUSH2 0x190B PUSH2 0x3004 JUMP JUMPDEST PUSH1 0x20 SWAP1 DUP2 MUL SWAP2 SWAP1 SWAP2 ADD ADD MSTORE PUSH1 0x1 ADD PUSH2 0x1722 JUMP JUMPDEST POP POP SWAP2 POP SWAP2 JUMP JUMPDEST PUSH2 0x192D PUSH2 0x2630 JUMP JUMPDEST PUSH1 0xB DUP1 SLOAD PUSH1 0x1 PUSH1 0x1 PUSH1 0xA0 SHL SUB NOT AND PUSH1 0x1 PUSH1 0x1 PUSH1 0xA0 SHL SUB SWAP3 SWAP1 SWAP3 AND SWAP2 SWAP1 SWAP2 OR SWAP1 SSTORE JUMP JUMPDEST PUSH2 0x1957 PUSH2 0x2630 JUMP JUMPDEST PUSH1 0x0 DUP5 DUP2 MSTORE PUSH1 0x8 PUSH1 0x20 MSTORE PUSH1 0x40 SWAP1 KECCAK256 PUSH1 0x1 PUSH1 0x5 DUP1 DUP4 ADD SLOAD PUSH1 0xFF AND SWAP1 DUP2 GT ISZERO PUSH2 0x1980 JUMPI PUSH2 0x1980 PUSH2 0x290F JUMP JUMPDEST EQ DUP1 PUSH2 0x19A4 JUMPI POP PUSH1 0x2 PUSH1 0x5 DUP1 DUP4 ADD SLOAD PUSH1 0xFF AND SWAP1 DUP2 GT ISZERO PUSH2 0x19A2 JUMPI PUSH2 0x19A2 PUSH2 0x290F JUMP JUMPDEST EQ JUMPDEST PUSH2 0x19FC JUMPI PUSH1 0x40 MLOAD PUSH3 0x461BCD PUSH1 0xE5 SHL DUP2 MSTORE PUSH1 0x20 PUSH1 0x4 DUP3 ADD MSTORE PUSH1 0x23 PUSH1 0x24 DUP3 ADD MSTORE PUSH32 0x4F72646572426F6F6B3A206469737075746520616C7265616479207265736F6C PUSH1 0x44 DUP3 ADD MSTORE PUSH3 0x1D9959 PUSH1 0xEA SHL PUSH1 0x64 DUP3 ADD MSTORE PUSH1 0x84 ADD PUSH2 0x3F3 JUMP JUMPDEST PUSH1 0x3 DUP5 PUSH1 0x5 DUP2 GT ISZERO PUSH2 0x1A10 JUMPI PUSH2 0x1A10 PUSH2 0x290F JUMP JUMPDEST EQ DUP1 PUSH2 0x1A2D JUMPI POP PUSH1 0x4 DUP5 PUSH1 0x5 DUP2 GT ISZERO PUSH2 0x1A2B JUMPI PUSH2 0x1A2B PUSH2 0x290F JUMP JUMPDEST EQ JUMPDEST DUP1 PUSH2 0x1A49 JUMPI POP PUSH1 0x5 DUP5 PUSH1 0x5 DUP2 GT ISZERO PUSH2 0x1A47 JUMPI PUSH2 0x1A47 PUSH2 0x290F JUMP JUMPDEST EQ JUMPDEST PUSH2 0x1AA1 JUMPI PUSH1 0x40 MLOAD PUSH3 0x461BCD PUSH1 0xE5 SHL DUP2 MSTORE PUSH1 0x20 PUSH1 0x4 DUP3 ADD MSTORE PUSH1 0x24 DUP1 DUP3 ADD MSTORE PUSH32 0x4F72646572426F6F6B3A20696E76616C6964207265736F6C7574696F6E207374 PUSH1 0x44 DUP3 ADD MSTORE PUSH4 0x61747573 PUSH1 0xE0 SHL PUSH1 0x64 DUP3 ADD MSTORE PUSH1 0x84 ADD PUSH2 0x3F3 JUMP JUMPDEST DUP4 DUP2 PUSH1 0x5 ADD PUSH1 0x0 PUSH2 0x100 EXP DUP2 SLOAD DUP2 PUSH1 0xFF MUL NOT AND SWAP1 DUP4 PUSH1 0x5 DUP2 GT ISZERO PUSH2 0x1AC7 JUMPI PUSH2 0x1AC7 PUSH2 0x290F JUMP JUMPDEST MUL OR SWAP1 SSTORE POP PUSH1 0x6 DUP2 ADD PUSH2 0x1ADB DUP4 DUP6 DUP4 PUSH2 0x2DF8 JUMP JUMPDEST POP TIMESTAMP PUSH1 0x8 DUP3 ADD SSTORE PUSH1 0x1 DUP2 ADD SLOAD PUSH1 0x0 DUP2 DUP2 MSTORE PUSH1 0x4 PUSH1 0x20 MSTORE PUSH1 0x40 SWAP1 KECCAK256 PUSH1 0x3 DUP7 PUSH1 0x5 DUP2 GT ISZERO PUSH2 0x1B09 JUMPI PUSH2 0x1B09 PUSH2 0x290F JUMP JUMPDEST SUB PUSH2 0x1BE6 JUMPI DUP1 SLOAD PUSH1 0xFF PUSH1 0xA0 SHL NOT AND PUSH1 0x1 PUSH1 0xA2 SHL OR DUP2 SSTORE PUSH1 0xA SLOAD PUSH1 0x40 MLOAD PUSH4 0x19786D15 PUSH1 0xE3 SHL DUP2 MSTORE PUSH1 0x1 PUSH1 0x1 PUSH1 0xA0 SHL SUB SWAP1 SWAP2 AND SWAP1 PUSH4 0xCBC368A8 SWAP1 PUSH2 0x1B51 SWAP1 DUP6 SWAP1 PUSH1 0x4 SWAP1 DUP2 ADD PUSH2 0x2D47 JUMP JUMPDEST PUSH1 0x0 PUSH1 0x40 MLOAD DUP1 DUP4 SUB DUP2 PUSH1 0x0 DUP8 DUP1 EXTCODESIZE ISZERO DUP1 ISZERO PUSH2 0x1B6B JUMPI PUSH1 0x0 DUP1 REVERT JUMPDEST POP GAS CALL ISZERO DUP1 ISZERO PUSH2 0x1B7F JUMPI RETURNDATASIZE PUSH1 0x0 DUP1 RETURNDATACOPY RETURNDATASIZE PUSH1 0x0 REVERT JUMPDEST POP POP PUSH1 0xB SLOAD PUSH1 0x40 MLOAD PUSH4 0x278ECDE1 PUSH1 0xE0 SHL DUP2 MSTORE PUSH1 0x4 DUP2 ADD DUP7 SWAP1 MSTORE PUSH1 0x1 PUSH1 0x1 PUSH1 0xA0 SHL SUB SWAP1 SWAP2 AND SWAP3 POP PUSH4 0x278ECDE1 SWAP2 POP PUSH1 0x24 ADD PUSH1 0x0 PUSH1 0x40 MLOAD DUP1 DUP4 SUB DUP2 PUSH1 0x0 DUP8 DUP1 EXTCODESIZE ISZERO DUP1 ISZERO PUSH2 0x1BC9 JUMPI PUSH1 0x0 DUP1 REVERT JUMPDEST POP GAS CALL ISZERO DUP1 ISZERO PUSH2 0x1BDD JUMPI RETURNDATASIZE PUSH1 0x0 DUP1 RETURNDATACOPY RETURNDATASIZE PUSH1 0x0 REVERT JUMPDEST POP POP POP POP PUSH2 0x1CD4 JUMP JUMPDEST PUSH1 0x4 DUP7 PUSH1 0x5 DUP2 GT ISZERO PUSH2 0x1BFA JUMPI PUSH2 0x1BFA PUSH2 0x290F JUMP JUMPDEST SUB PUSH2 0x1CD4 JUMPI DUP1 SLOAD PUSH1 0xFF PUSH1 0xA0 SHL NOT AND PUSH1 0x3 PUSH1 0xA0 SHL OR DUP2 SSTORE PUSH1 0xA SLOAD PUSH1 0x40 MLOAD PUSH4 0x19786D15 PUSH1 0xE3 SHL DUP2 MSTORE PUSH1 0x1 PUSH1 0x1 PUSH1 0xA0 SHL SUB SWAP1 SWAP2 AND SWAP1 PUSH4 0xCBC368A8 SWAP1 PUSH2 0x1C43 SWAP1 DUP6 SWAP1 PUSH1 0x3 SWAP1 PUSH1 0x4 ADD PUSH2 0x2D47 JUMP JUMPDEST PUSH1 0x0 PUSH1 0x40 MLOAD DUP1 DUP4 SUB DUP2 PUSH1 0x0 DUP8 DUP1 EXTCODESIZE ISZERO DUP1 ISZERO PUSH2 0x1C5D JUMPI PUSH1 0x0 DUP1 REVERT JUMPDEST POP GAS CALL ISZERO DUP1 ISZERO PUSH2 0x1C71 JUMPI RETURNDATASIZE PUSH1 0x0 DUP1 RETURNDATACOPY RETURNDATASIZE PUSH1 0x0 REVERT JUMPDEST POP POP PUSH1 0xB SLOAD PUSH1 0x40 MLOAD PUSH4 0x88685CD9 PUSH1 0xE0 SHL DUP2 MSTORE PUSH1 0x4 DUP2 ADD DUP7 SWAP1 MSTORE PUSH1 0x1 PUSH1 0x1 PUSH1 0xA0 SHL SUB SWAP1 SWAP2 AND SWAP3 POP PUSH4 0x88685CD9 SWAP2 POP PUSH1 0x24 ADD PUSH1 0x0 PUSH1 0x40 MLOAD DUP1 DUP4 SUB DUP2 PUSH1 0x0 DUP8 DUP1 EXTCODESIZE ISZERO DUP1 ISZERO PUSH2 0x1CBB JUMPI PUSH1 0x0 DUP1 REVERT JUMPDEST POP GAS CALL ISZERO DUP1 ISZERO PUSH2 0x1CCF JUMPI RETURNDATASIZE PUSH1 0x0 DUP1 RETURNDATACOPY RETURNDATASIZE PUSH1 0x0 REVERT JUMPDEST POP POP POP POP JUMPDEST DUP2 DUP8 PUSH32 0xCC8E83AF27B71C8AAC89391B44BEEFB6352D2107242F4D5A5A0E0439B6FBDED7 DUP9 DUP9 DUP9 PUSH1 0x40 MLOAD PUSH2 0x1D09 SWAP4 SWAP3 SWAP2 SWAP1 PUSH2 0x301A JUMP JUMPDEST PUSH1 0x40 MLOAD DUP1 SWAP2 SUB SWAP1 LOG3 POP POP POP POP POP POP POP JUMP JUMPDEST PUSH1 0x0 DUP2 DUP2 MSTORE PUSH1 0x4 PUSH1 0x20 MSTORE PUSH1 0x40 SWAP1 KECCAK256 DUP1 SLOAD PUSH1 0x1 PUSH1 0x1 PUSH1 0xA0 SHL SUB AND CALLER EQ PUSH2 0x1D79 JUMPI PUSH1 0x40 MLOAD PUSH3 0x461BCD PUSH1 0xE5 SHL DUP2 MSTORE PUSH1 0x20 PUSH1 0x4 DUP3 ADD MSTORE PUSH1 0x15 PUSH1 0x24 DUP3 ADD MSTORE PUSH21 0x27B93232B92137B7B59D103737BA103837B9BA32B9 PUSH1 0x59 SHL PUSH1 0x44 DUP3 ADD MSTORE PUSH1 0x64 ADD PUSH2 0x3F3 JUMP JUMPDEST PUSH1 0x2 DUP2 SLOAD PUSH1 0x1 PUSH1 0xA0 SHL SWAP1 DIV PUSH1 0xFF AND PUSH1 0x4 DUP2 GT ISZERO PUSH2 0x1D98 JUMPI PUSH2 0x1D98 PUSH2 0x290F JUMP JUMPDEST EQ PUSH2 0x1DE5 JUMPI PUSH1 0x40 MLOAD PUSH3 0x461BCD PUSH1 0xE5 SHL DUP2 MSTORE PUSH1 0x20 PUSH1 0x4 DUP3 ADD MSTORE PUSH1 0x1C PUSH1 0x24 DUP3 ADD MSTORE PUSH32 0x4F72646572426F6F6B3A206A6F62206E6F742064656C69766572656400000000 PUSH1 0x44 DUP3 ADD MSTORE PUSH1 0x64 ADD PUSH2 0x3F3 JUMP JUMPDEST DUP1 SLOAD PUSH1 0xFF PUSH1 0xA0 SHL NOT AND PUSH1 0x3 PUSH1 0xA0 SHL OR DUP2 SSTORE PUSH1 0xA SLOAD PUSH1 0x40 MLOAD PUSH4 0x19786D15 PUSH1 0xE3 SHL DUP2 MSTORE PUSH1 0x1 PUSH1 0x1 PUSH1 0xA0 SHL SUB SWAP1 SWAP2 AND SWAP1 PUSH4 0xCBC368A8 SWAP1 PUSH2 0x1E29 SWAP1 DUP6 SWAP1 PUSH1 0x3 SWAP1 PUSH1 0x4 ADD PUSH2 0x2D47 JUMP JUMPDEST PUSH1 0x0 PUSH1 0x40 MLOAD DUP1 DUP4 SUB DUP2 PUSH1 0x0 DUP8 DUP1 EXTCODESIZE ISZERO DUP1 ISZERO PUSH2 0x1E43 JUMPI PUSH1 0x0 DUP1 REVERT JUMPDEST POP GAS CALL ISZERO DUP1 ISZERO PUSH2 0x1E57 JUMPI RETURNDATASIZE PUSH1 0x0 DUP1 RETURNDATACOPY RETURNDATASIZE PUSH1 0x0 REVERT JUMPDEST POP POP PUSH1 0xB SLOAD PUSH1 0x40 MLOAD PUSH4 0x88685CD9 PUSH1 0xE0 SHL DUP2 MSTORE PUSH1 0x4 DUP2 ADD DUP7 SWAP1 MSTORE PUSH1 0x1 PUSH1 0x1 PUSH1 0xA0 SHL SUB SWAP1 SWAP2 AND SWAP3 POP PUSH4 0x88685CD9 SWAP2 POP PUSH1 0x24 ADD PUSH1 0x0 PUSH1 0x40 MLOAD DUP1 DUP4 SUB DUP2 PUSH1 0x0 DUP8 DUP1 EXTCODESIZE ISZERO DUP1 ISZERO PUSH2 0x1EA1 JUMPI PUSH1 0x0 DUP1 REVERT JUMPDEST POP GAS CALL ISZERO DUP1 ISZERO PUSH2 0x1EB5 JUMPI RETURNDATASIZE PUSH1 0x0 DUP1 RETURNDATACOPY RETURNDATASIZE PUSH1 0x0 REVERT JUMPDEST POP POP POP POP DUP1 PUSH1 0x1 ADD SLOAD DUP3 PUSH32 0x72A8659D664E8C3AFDC18CF46ADFBA3ACD130A459E0658ED768A45B08C083620 PUSH1 0x40 MLOAD PUSH1 0x40 MLOAD DUP1 SWAP2 SUB SWAP1 LOG3 POP POP JUMP JUMPDEST PUSH1 0x0 DUP3 DUP2 MSTORE PUSH1 0x4 PUSH1 0x20 MSTORE PUSH1 0x40 SWAP1 KECCAK256 PUSH1 0x1 DUP2 SLOAD PUSH1 0x1 PUSH1 0xA0 SHL SWAP1 DIV PUSH1 0xFF AND PUSH1 0x4 DUP2 GT ISZERO PUSH2 0x1F1C JUMPI PUSH2 0x1F1C PUSH2 0x290F JUMP JUMPDEST EQ PUSH2 0x1F69 JUMPI PUSH1 0x40 MLOAD PUSH3 0x461BCD PUSH1 0xE5 SHL DUP2 MSTORE PUSH1 0x20 PUSH1 0x4 DUP3 ADD MSTORE PUSH1 0x1E PUSH1 0x24 DUP3 ADD MSTORE PUSH32 0x4F72646572426F6F6B3A206A6F62206E6F7420696E2070726F67726573730000 PUSH1 0x44 DUP3 ADD MSTORE PUSH1 0x64 ADD PUSH2 0x3F3 JUMP JUMPDEST PUSH1 0x1 DUP2 ADD SLOAD PUSH1 0x0 SWAP1 DUP2 MSTORE PUSH1 0x5 PUSH1 0x20 MSTORE PUSH1 0x40 SWAP1 KECCAK256 PUSH1 0x2 DUP2 ADD SLOAD PUSH1 0x1 PUSH1 0x1 PUSH1 0xA0 SHL SUB AND CALLER EQ PUSH2 0x1FD8 JUMPI PUSH1 0x40 MLOAD PUSH3 0x461BCD PUSH1 0xE5 SHL DUP2 MSTORE PUSH1 0x20 PUSH1 0x4 DUP3 ADD MSTORE PUSH1 0x1C PUSH1 0x24 DUP3 ADD MSTORE PUSH32 0x4F72646572426F6F6B3A206E6F742077696E6E696E67206167656E7400000000 PUSH1 0x44 DUP3 ADD MSTORE PUSH1 0x64 ADD PUSH2 0x3F3 JUMP JUMPDEST DUP2 SLOAD PUSH1 0xFF PUSH1 0xA0 SHL NOT AND PUSH1 0x1 PUSH1 0xA1 SHL OR DUP3 SSTORE PUSH1 0x2 DUP1 DUP4 ADD DUP5 SWAP1 SSTORE PUSH1 0xA SLOAD PUSH1 0x40 MLOAD PUSH4 0x19786D15 PUSH1 0xE3 SHL DUP2 MSTORE PUSH1 0x1 PUSH1 0x1 PUSH1 0xA0 SHL SUB SWAP1 SWAP2 AND SWAP2 PUSH4 0xCBC368A8 SWAP2 PUSH2 0x2021 SWAP2 DUP9 SWAP2 PUSH1 0x4 ADD PUSH2 0x2D47 JUMP JUMPDEST PUSH1 0x0 PUSH1 0x40 MLOAD DUP1 DUP4 SUB DUP2 PUSH1 0x0 DUP8 DUP1 EXTCODESIZE ISZERO DUP1 ISZERO PUSH2 0x203B JUMPI PUSH1 0x0 DUP1 REVERT JUMPDEST POP GAS CALL ISZERO DUP1 ISZERO PUSH2 0x204F JUMPI RETURNDATASIZE PUSH1 0x0 DUP1 RETURNDATACOPY RETURNDATASIZE PUSH1 0x0 REVERT JUMPDEST POP POP PUSH1 0x40 DUP1 MLOAD PUSH1 0x60 DUP2 ADD DUP3 MSTORE DUP8 DUP2 MSTORE PUSH1 0x20 DUP2 ADD DUP8 DUP2 MSTORE TIMESTAMP DUP3 DUP5 ADD SWAP1 DUP2 MSTORE PUSH1 0xA SLOAD SWAP4 MLOAD PUSH4 0x7291AB6F PUSH1 0xE1 SHL DUP2 MSTORE DUP4 MLOAD PUSH1 0x4 DUP3 ADD MSTORE SWAP2 MLOAD PUSH1 0x24 DUP4 ADD MSTORE MLOAD PUSH1 0x44 DUP3 ADD MSTORE SWAP1 SWAP4 POP PUSH1 0x1 PUSH1 0x1 PUSH1 0xA0 SHL SUB SWAP1 SWAP2 AND SWAP2 POP PUSH4 0xE52356DE SWAP1 PUSH1 0x64 ADD PUSH1 0x0 PUSH1 0x40 MLOAD DUP1 DUP4 SUB DUP2 PUSH1 0x0 DUP8 DUP1 EXTCODESIZE ISZERO DUP1 ISZERO PUSH2 0x20C2 JUMPI PUSH1 0x0 DUP1 REVERT JUMPDEST POP GAS CALL ISZERO DUP1 ISZERO PUSH2 0x20D6 JUMPI RETURNDATASIZE PUSH1 0x0 DUP1 RETURNDATACOPY RETURNDATASIZE PUSH1 0x0 REVERT JUMPDEST POP POP POP POP DUP3 PUSH1 0x1 ADD SLOAD DUP6 PUSH32 0x12660738D46E7B0E20869F76E83753DE400B8B7837F821E6E33CD7528605981E DUP7 PUSH1 0x40 MLOAD PUSH2 0x2111 SWAP2 DUP2 MSTORE PUSH1 0x20 ADD SWAP1 JUMP JUMPDEST PUSH1 0x40 MLOAD DUP1 SWAP2 SUB SWAP1 LOG3 POP POP POP POP POP JUMP JUMPDEST PUSH2 0x2128 PUSH2 0x26AD JUMP JUMPDEST PUSH1 0x0 DUP3 DUP2 MSTORE PUSH1 0x8 PUSH1 0x20 SWAP1 DUP2 MSTORE PUSH1 0x40 SWAP2 DUP3 SWAP1 KECCAK256 DUP3 MLOAD PUSH2 0x120 DUP2 ADD DUP5 MSTORE DUP2 SLOAD DUP2 MSTORE PUSH1 0x1 DUP3 ADD SLOAD SWAP3 DUP2 ADD SWAP3 SWAP1 SWAP3 MSTORE PUSH1 0x2 DUP2 ADD SLOAD PUSH1 0x1 PUSH1 0x1 PUSH1 0xA0 SHL SUB AND SWAP3 DUP3 ADD SWAP3 SWAP1 SWAP3 MSTORE PUSH1 0x3 DUP3 ADD DUP1 SLOAD SWAP2 SWAP3 SWAP2 PUSH1 0x60 DUP5 ADD SWAP2 SWAP1 PUSH2 0x2180 SWAP1 PUSH2 0x2D71 JUMP JUMPDEST DUP1 PUSH1 0x1F ADD PUSH1 0x20 DUP1 SWAP2 DIV MUL PUSH1 0x20 ADD PUSH1 0x40 MLOAD SWAP1 DUP2 ADD PUSH1 0x40 MSTORE DUP1 SWAP3 SWAP2 SWAP1 DUP2 DUP2 MSTORE PUSH1 0x20 ADD DUP3 DUP1 SLOAD PUSH2 0x21AC SWAP1 PUSH2 0x2D71 JUMP JUMPDEST DUP1 ISZERO PUSH2 0x21F9 JUMPI DUP1 PUSH1 0x1F LT PUSH2 0x21CE JUMPI PUSH2 0x100 DUP1 DUP4 SLOAD DIV MUL DUP4 MSTORE SWAP2 PUSH1 0x20 ADD SWAP2 PUSH2 0x21F9 JUMP JUMPDEST DUP3 ADD SWAP2 SWAP1 PUSH1 0x0 MSTORE PUSH1 0x20 PUSH1 0x0 KECCAK256 SWAP1 JUMPDEST DUP2 SLOAD DUP2 MSTORE SWAP1 PUSH1 0x1 ADD SWAP1 PUSH1 0x20 ADD DUP1 DUP4 GT PUSH2 0x21DC JUMPI DUP3 SWAP1 SUB PUSH1 0x1F AND DUP3 ADD SWAP2 JUMPDEST POP POP POP POP POP DUP2 MSTORE PUSH1 0x20 ADD PUSH1 0x4 DUP3 ADD DUP1 SLOAD DUP1 PUSH1 0x20 MUL PUSH1 0x20 ADD PUSH1 0x40 MLOAD SWAP1 DUP2 ADD PUSH1 0x40 MSTORE DUP1 SWAP3 SWAP2 SWAP1 DUP2 DUP2 MSTORE PUSH1 0x20 ADD PUSH1 0x0 SWAP1 JUMPDEST DUP3 DUP3 LT ISZERO PUSH2 0x22D3 JUMPI DUP4 DUP3 SWAP1 PUSH1 0x0 MSTORE PUSH1 0x20 PUSH1 0x0 KECCAK256 ADD DUP1 SLOAD PUSH2 0x2246 SWAP1 PUSH2 0x2D71 JUMP JUMPDEST DUP1 PUSH1 0x1F ADD PUSH1 0x20 DUP1 SWAP2 DIV MUL PUSH1 0x20 ADD PUSH1 0x40 MLOAD SWAP1 DUP2 ADD PUSH1 0x40 MSTORE DUP1 SWAP3 SWAP2 SWAP1 DUP2 DUP2 MSTORE PUSH1 0x20 ADD DUP3 DUP1 SLOAD PUSH2 0x2272 SWAP1 PUSH2 0x2D71 JUMP JUMPDEST DUP1 ISZERO PUSH2 0x22BF JUMPI DUP1 PUSH1 0x1F LT PUSH2 0x2294 JUMPI PUSH2 0x100 DUP1 DUP4 SLOAD DIV MUL DUP4 MSTORE SWAP2 PUSH1 0x20 ADD SWAP2 PUSH2 0x22BF JUMP JUMPDEST DUP3 ADD SWAP2 SWAP1 PUSH1 0x0 MSTORE PUSH1 0x20 PUSH1 0x0 KECCAK256 SWAP1 JUMPDEST DUP2 SLOAD DUP2 MSTORE SWAP1 PUSH1 0x1 ADD SWAP1 PUSH1 0x20 ADD DUP1 DUP4 GT PUSH2 0x22A2 JUMPI DUP3 SWAP1 SUB PUSH1 0x1F AND DUP3 ADD SWAP2 JUMPDEST POP POP POP POP POP DUP2 MSTORE PUSH1 0x20 ADD SWAP1 PUSH1 0x1 ADD SWAP1 PUSH2 0x2227 JUMP JUMPDEST POP POP POP SWAP1 DUP3 MSTORE POP PUSH1 0x5 DUP3 DUP2 ADD SLOAD PUSH1 0x20 SWAP1 SWAP3 ADD SWAP2 PUSH1 0xFF AND SWAP1 DUP2 GT ISZERO PUSH2 0x22F9 JUMPI PUSH2 0x22F9 PUSH2 0x290F JUMP JUMPDEST PUSH1 0x5 DUP2 GT ISZERO PUSH2 0x230A JUMPI PUSH2 0x230A PUSH2 0x290F JUMP JUMPDEST DUP2 MSTORE PUSH1 0x20 ADD PUSH1 0x6 DUP3 ADD DUP1 SLOAD PUSH2 0x231E SWAP1 PUSH2 0x2D71 JUMP JUMPDEST DUP1 PUSH1 0x1F ADD PUSH1 0x20 DUP1 SWAP2 DIV MUL PUSH1 0x20 ADD PUSH1 0x40 MLOAD SWAP1 DUP2 ADD PUSH1 0x40 MSTORE DUP1 SWAP3 SWAP2 SWAP1 DUP2 DUP2 MSTORE PUSH1 0x20 ADD DUP3 DUP1 SLOAD PUSH2 0x234A SWAP1 PUSH2 0x2D71 JUMP JUMPDEST DUP1 ISZERO PUSH2 0x2397 JUMPI DUP1 PUSH1 0x1F LT PUSH2 0x236C JUMPI PUSH2 0x100 DUP1 DUP4 SLOAD DIV MUL DUP4 MSTORE SWAP2 PUSH1 0x20 ADD SWAP2 PUSH2 0x2397 JUMP JUMPDEST DUP3 ADD SWAP2 SWAP1 PUSH1 0x0 MSTORE PUSH1 0x20 PUSH1 0x0 KECCAK256 SWAP1 JUMPDEST DUP2 SLOAD DUP2 MSTORE SWAP1 PUSH1 0x1 ADD SWAP1 PUSH1 0x20 ADD DUP1 DUP4 GT PUSH2 0x237A JUMPI DUP3 SWAP1 SUB PUSH1 0x1F AND DUP3 ADD SWAP2 JUMPDEST POP POP POP POP POP DUP2 MSTORE PUSH1 0x20 ADD PUSH1 0x7 DUP3 ADD SLOAD DUP2 MSTORE PUSH1 0x20 ADD PUSH1 0x8 DUP3 ADD SLOAD DUP2 MSTORE POP POP SWAP1 POP SWAP2 SWAP1 POP JUMP JUMPDEST PUSH2 0x23C3 PUSH2 0x2630 JUMP JUMPDEST PUSH1 0x1 PUSH1 0x1 PUSH1 0xA0 SHL SUB DUP2 AND PUSH2 0x23ED JUMPI PUSH1 0x40 MLOAD PUSH4 0x1E4FBDF7 PUSH1 0xE0 SHL DUP2 MSTORE PUSH1 0x0 PUSH1 0x4 DUP3 ADD MSTORE PUSH1 0x24 ADD PUSH2 0x3F3 JUMP JUMPDEST PUSH2 0x23F6 DUP2 PUSH2 0x265D JUMP JUMPDEST POP JUMP JUMPDEST PUSH1 0x1 DUP1 SLOAD PUSH1 0x0 SWAP2 DUP3 PUSH2 0x240A DUP4 PUSH2 0x2EFD JUMP JUMPDEST SWAP1 SWAP2 SSTORE POP PUSH1 0x40 DUP1 MLOAD PUSH1 0xA0 DUP2 ADD DUP3 MSTORE CALLER DUP2 MSTORE PUSH1 0x0 PUSH1 0x20 DUP1 DUP4 ADD DUP3 DUP2 MSTORE DUP4 DUP6 ADD DUP4 SWAP1 MSTORE PUSH1 0x60 DUP5 ADD DUP4 SWAP1 MSTORE PUSH1 0x80 DUP5 ADD DUP4 SWAP1 MSTORE DUP6 DUP4 MSTORE PUSH1 0x4 SWAP2 DUP3 SWAP1 MSTORE SWAP4 SWAP1 SWAP2 KECCAK256 DUP3 MLOAD DUP2 SLOAD PUSH1 0x1 PUSH1 0x1 PUSH1 0xA0 SHL SUB NOT DUP2 AND PUSH1 0x1 PUSH1 0x1 PUSH1 0xA0 SHL SUB SWAP1 SWAP3 AND SWAP2 DUP3 OR DUP4 SSTORE SWAP5 MLOAD SWAP6 SWAP7 POP SWAP3 SWAP5 SWAP1 SWAP4 SWAP1 SWAP3 DUP5 SWAP3 PUSH1 0x1 PUSH1 0x1 PUSH1 0xA8 SHL SUB NOT SWAP1 SWAP3 AND OR SWAP1 PUSH1 0x1 PUSH1 0xA0 SHL SWAP1 DUP5 SWAP1 DUP2 GT ISZERO PUSH2 0x2497 JUMPI PUSH2 0x2497 PUSH2 0x290F JUMP JUMPDEST MUL OR SWAP1 SSTORE POP PUSH1 0x40 DUP3 ADD MLOAD PUSH1 0x1 DUP3 ADD SSTORE PUSH1 0x60 DUP3 ADD MLOAD PUSH1 0x2 DUP3 ADD SSTORE PUSH1 0x80 SWAP1 SWAP2 ADD MLOAD PUSH1 0x3 SWAP1 SWAP2 ADD DUP1 SLOAD PUSH1 0xFF NOT AND SWAP2 ISZERO ISZERO SWAP2 SWAP1 SWAP2 OR SWAP1 SSTORE PUSH1 0x0 PUSH2 0x24D6 DUP5 DUP7 PUSH2 0x3074 JUMP JUMPDEST SWAP1 POP PUSH1 0x0 PUSH1 0x40 MLOAD DUP1 PUSH1 0xE0 ADD PUSH1 0x40 MSTORE DUP1 DUP5 DUP2 MSTORE PUSH1 0x20 ADD CALLER PUSH1 0x1 PUSH1 0x1 PUSH1 0xA0 SHL SUB AND DUP2 MSTORE PUSH1 0x20 ADD DUP12 DUP12 DUP1 DUP1 PUSH1 0x1F ADD PUSH1 0x20 DUP1 SWAP2 DIV MUL PUSH1 0x20 ADD PUSH1 0x40 MLOAD SWAP1 DUP2 ADD PUSH1 0x40 MSTORE DUP1 SWAP4 SWAP3 SWAP2 SWAP1 DUP2 DUP2 MSTORE PUSH1 0x20 ADD DUP4 DUP4 DUP1 DUP3 DUP5 CALLDATACOPY PUSH1 0x0 SWAP3 ADD SWAP2 SWAP1 SWAP2 MSTORE POP POP POP SWAP1 DUP3 MSTORE POP PUSH1 0x40 DUP1 MLOAD PUSH1 0x20 PUSH1 0x1F DUP13 ADD DUP2 SWAP1 DIV DUP2 MUL DUP3 ADD DUP2 ADD SWAP1 SWAP3 MSTORE DUP11 DUP2 MSTORE SWAP2 DUP2 ADD SWAP2 SWAP1 DUP12 SWAP1 DUP12 SWAP1 DUP2 SWAP1 DUP5 ADD DUP4 DUP3 DUP1 DUP3 DUP5 CALLDATACOPY PUSH1 0x0 SWAP3 ADD DUP3 SWAP1 MSTORE POP SWAP4 DUP6 MSTORE POP POP POP PUSH1 0x20 DUP3 ADD DUP6 SWAP1 MSTORE PUSH1 0x1 PUSH1 0x1 PUSH1 0x40 SHL SUB DUP8 AND PUSH1 0x40 DUP1 DUP5 ADD SWAP2 SWAP1 SWAP2 MSTORE TIMESTAMP PUSH1 0x60 SWAP1 SWAP4 ADD SWAP3 SWAP1 SWAP3 MSTORE PUSH1 0xA SLOAD SWAP2 MLOAD PUSH4 0x4A0DECAD PUSH1 0xE0 SHL DUP2 MSTORE SWAP3 SWAP4 POP PUSH1 0x1 PUSH1 0x1 PUSH1 0xA0 SHL SUB SWAP1 SWAP2 AND SWAP2 PUSH4 0x4A0DECAD SWAP2 PUSH2 0x25C4 SWAP2 DUP6 SWAP2 SWAP1 PUSH1 0x4 ADD PUSH2 0x3148 JUMP JUMPDEST PUSH1 0x0 PUSH1 0x40 MLOAD DUP1 DUP4 SUB DUP2 PUSH1 0x0 DUP8 DUP1 EXTCODESIZE ISZERO DUP1 ISZERO PUSH2 0x25DE JUMPI PUSH1 0x0 DUP1 REVERT JUMPDEST POP GAS CALL ISZERO DUP1 ISZERO PUSH2 0x25F2 JUMPI RETURNDATASIZE PUSH1 0x0 DUP1 RETURNDATACOPY RETURNDATASIZE PUSH1 0x0 REVERT JUMPDEST POP POP PUSH1 0x40 MLOAD CALLER SWAP3 POP DUP6 SWAP2 POP PUSH32 0x26B8CE391C2405AAC71ABEACB24F9534266FD48A247B00FC3624F8830A3C4405 SWAP1 PUSH1 0x0 SWAP1 LOG3 POP POP SWAP8 SWAP7 POP POP POP POP POP POP POP JUMP JUMPDEST PUSH1 0x0 SLOAD PUSH1 0x1 PUSH1 0x1 PUSH1 0xA0 SHL SUB AND CALLER EQ PUSH2 0xBB1 JUMPI PUSH1 0x40 MLOAD PUSH4 0x118CDAA7 PUSH1 0xE0 SHL DUP2 MSTORE CALLER PUSH1 0x4 DUP3 ADD MSTORE PUSH1 0x24 ADD PUSH2 0x3F3 JUMP JUMPDEST PUSH1 0x0 DUP1 SLOAD PUSH1 0x1 PUSH1 0x1 PUSH1 0xA0 SHL SUB DUP4 DUP2 AND PUSH1 0x1 PUSH1 0x1 PUSH1 0xA0 SHL SUB NOT DUP4 AND DUP2 OR DUP5 SSTORE PUSH1 0x40 MLOAD SWAP2 SWAP1 SWAP3 AND SWAP3 DUP4 SWAP2 PUSH32 0x8BE0079C531659141344CD1FD0A4F28419497F9722A3DAAFE3B4186F6B6457E0 SWAP2 SWAP1 LOG3 POP POP JUMP JUMPDEST PUSH1 0x40 MLOAD DUP1 PUSH2 0x120 ADD PUSH1 0x40 MSTORE DUP1 PUSH1 0x0 DUP2 MSTORE PUSH1 0x20 ADD PUSH1 0x0 DUP2 MSTORE PUSH1 0x20 ADD PUSH1 0x0 PUSH1 0x1 PUSH1 0x1 PUSH1 0xA0 SHL SUB AND DUP2 MSTORE PUSH1 0x20 ADD PUSH1 0x60 DUP2 MSTORE PUSH1 0x20 ADD PUSH1 0x60 DUP2 MSTORE PUSH1 0x20 ADD PUSH1 0x0 PUSH1 0x5 DUP2 GT ISZERO PUSH2 0x26F8 JUMPI PUSH2 0x26F8 PUSH2 0x290F JUMP JUMPDEST DUP2 MSTORE PUSH1 0x20 ADD PUSH1 0x60 DUP2 MSTORE PUSH1 0x20 ADD PUSH1 0x0 DUP2 MSTORE PUSH1 0x20 ADD PUSH1 0x0 DUP2 MSTORE POP SWAP1 JUMP JUMPDEST PUSH1 0x0 PUSH1 0x20 DUP3 DUP5 SUB SLT ISZERO PUSH2 0x2725 JUMPI PUSH1 0x0 DUP1 REVERT JUMPDEST DUP2 CALLDATALOAD PUSH1 0x1 PUSH1 0x1 PUSH1 0xA0 SHL SUB DUP2 AND DUP2 EQ PUSH2 0x273C JUMPI PUSH1 0x0 DUP1 REVERT JUMPDEST SWAP4 SWAP3 POP POP POP JUMP JUMPDEST PUSH1 0x0 PUSH1 0x20 DUP3 DUP5 SUB SLT ISZERO PUSH2 0x2755 JUMPI PUSH1 0x0 DUP1 REVERT JUMPDEST POP CALLDATALOAD SWAP2 SWAP1 POP JUMP JUMPDEST PUSH1 0x0 DUP1 DUP4 PUSH1 0x1F DUP5 ADD SLT PUSH2 0x276E JUMPI PUSH1 0x0 DUP1 REVERT JUMPDEST POP DUP2 CALLDATALOAD PUSH1 0x1 PUSH1 0x1 PUSH1 0x40 SHL SUB DUP2 GT ISZERO PUSH2 0x2785 JUMPI PUSH1 0x0 DUP1 REVERT JUMPDEST PUSH1 0x20 DUP4 ADD SWAP2 POP DUP4 PUSH1 0x20 DUP3 DUP6 ADD ADD GT ISZERO PUSH2 0x279D JUMPI PUSH1 0x0 DUP1 REVERT JUMPDEST SWAP3 POP SWAP3 SWAP1 POP JUMP JUMPDEST PUSH1 0x0 DUP1 PUSH1 0x0 DUP1 PUSH1 0x60 DUP6 DUP8 SUB SLT ISZERO PUSH2 0x27BA JUMPI PUSH1 0x0 DUP1 REVERT JUMPDEST DUP5 CALLDATALOAD SWAP4 POP PUSH1 0x20 DUP6 ADD CALLDATALOAD SWAP3 POP PUSH1 0x40 DUP6 ADD CALLDATALOAD PUSH1 0x1 PUSH1 0x1 PUSH1 0x40 SHL SUB DUP2 GT ISZERO PUSH2 0x27DE JUMPI PUSH1 0x0 DUP1 REVERT JUMPDEST PUSH2 0x27EA DUP8 DUP3 DUP9 ADD PUSH2 0x275C JUMP JUMPDEST SWAP6 SWAP9 SWAP5 SWAP8 POP SWAP6 POP POP POP POP JUMP JUMPDEST PUSH1 0x0 DUP1 PUSH1 0x0 DUP1 PUSH1 0x0 PUSH1 0x60 DUP7 DUP9 SUB SLT ISZERO PUSH2 0x280E JUMPI PUSH1 0x0 DUP1 REVERT JUMPDEST DUP6 CALLDATALOAD SWAP5 POP PUSH1 0x20 DUP7 ADD CALLDATALOAD PUSH1 0x1 PUSH1 0x1 PUSH1 0x40 SHL SUB DUP1 DUP3 GT ISZERO PUSH2 0x282C JUMPI PUSH1 0x0 DUP1 REVERT JUMPDEST PUSH2 0x2838 DUP10 DUP4 DUP11 ADD PUSH2 0x275C JUMP JUMPDEST SWAP1 SWAP7 POP SWAP5 POP PUSH1 0x40 DUP9 ADD CALLDATALOAD SWAP2 POP DUP1 DUP3 GT ISZERO PUSH2 0x2851 JUMPI PUSH1 0x0 DUP1 REVERT JUMPDEST POP PUSH2 0x285E DUP9 DUP3 DUP10 ADD PUSH2 0x275C JUMP JUMPDEST SWAP7 SWAP10 SWAP6 SWAP9 POP SWAP4 SWAP7 POP SWAP3 SWAP5 SWAP4 SWAP3 POP POP POP JUMP JUMPDEST PUSH1 0x0 DUP2 MLOAD DUP1 DUP5 MSTORE PUSH1 0x0 JUMPDEST DUP2 DUP2 LT ISZERO PUSH2 0x2895 JUMPI PUSH1 0x20 DUP2 DUP6 ADD DUP2 ADD MLOAD DUP7 DUP4 ADD DUP3 ADD MSTORE ADD PUSH2 0x2879 JUMP JUMPDEST POP PUSH1 0x0 PUSH1 0x20 DUP3 DUP7 ADD ADD MSTORE PUSH1 0x20 PUSH1 0x1F NOT PUSH1 0x1F DUP4 ADD AND DUP6 ADD ADD SWAP2 POP POP SWAP3 SWAP2 POP POP JUMP JUMPDEST PUSH1 0x0 DUP3 DUP3 MLOAD DUP1 DUP6 MSTORE PUSH1 0x20 DUP1 DUP7 ADD SWAP6 POP PUSH1 0x20 DUP3 PUSH1 0x5 SHL DUP5 ADD ADD PUSH1 0x20 DUP7 ADD PUSH1 0x0 JUMPDEST DUP5 DUP2 LT ISZERO PUSH2 0x2902 JUMPI PUSH1 0x1F NOT DUP7 DUP5 SUB ADD DUP10 MSTORE PUSH2 0x28F0 DUP4 DUP4 MLOAD PUSH2 0x286F JUMP JUMPDEST SWAP9 DUP5 ADD SWAP9 SWAP3 POP SWAP1 DUP4 ADD SWAP1 PUSH1 0x1 ADD PUSH2 0x28D4 JUMP JUMPDEST POP SWAP1 SWAP8 SWAP7 POP POP POP POP POP POP POP JUMP JUMPDEST PUSH4 0x4E487B71 PUSH1 0xE0 SHL PUSH1 0x0 MSTORE PUSH1 0x21 PUSH1 0x4 MSTORE PUSH1 0x24 PUSH1 0x0 REVERT JUMPDEST PUSH1 0x6 DUP2 LT PUSH2 0x2935 JUMPI PUSH2 0x2935 PUSH2 0x290F JUMP JUMPDEST SWAP1 MSTORE JUMP JUMPDEST PUSH1 0x20 DUP2 MSTORE DUP2 MLOAD PUSH1 0x20 DUP3 ADD MSTORE PUSH1 0x20 DUP3 ADD MLOAD PUSH1 0x40 DUP3 ADD MSTORE PUSH1 0x0 PUSH1 0x40 DUP4 ADD MLOAD PUSH2 0x296A PUSH1 0x60 DUP5 ADD DUP3 PUSH1 0x1 PUSH1 0x1 PUSH1 0xA0 SHL SUB AND SWAP1 MSTORE JUMP JUMPDEST POP PUSH1 0x60 DUP4 ADD MLOAD PUSH2 0x120 DUP1 PUSH1 0x80 DUP6 ADD MSTORE PUSH2 0x2987 PUSH2 0x140 DUP6 ADD DUP4 PUSH2 0x286F JUMP JUMPDEST SWAP2 POP PUSH1 0x80 DUP6 ADD MLOAD PUSH1 0x1F NOT DUP1 DUP7 DUP6 SUB ADD PUSH1 0xA0 DUP8 ADD MSTORE PUSH2 0x29A5 DUP5 DUP4 PUSH2 0x28B5 JUMP JUMPDEST SWAP4 POP PUSH1 0xA0 DUP8 ADD MLOAD SWAP2 POP PUSH2 0x29BB PUSH1 0xC0 DUP8 ADD DUP4 PUSH2 0x2925 JUMP JUMPDEST PUSH1 0xC0 DUP8 ADD MLOAD SWAP2 POP DUP1 DUP7 DUP6 SUB ADD PUSH1 0xE0 DUP8 ADD MSTORE POP PUSH2 0x29D7 DUP4 DUP3 PUSH2 0x286F JUMP JUMPDEST PUSH1 0xE0 DUP8 ADD MLOAD PUSH2 0x100 DUP8 DUP2 ADD SWAP2 SWAP1 SWAP2 MSTORE SWAP1 SWAP7 ADD MLOAD SWAP2 SWAP1 SWAP5 ADD MSTORE POP SWAP2 SWAP3 SWAP2 POP POP JUMP JUMPDEST PUSH1 0x0 DUP1 PUSH1 0x0 PUSH1 0x40 DUP5 DUP7 SUB SLT ISZERO PUSH2 0x2A0C JUMPI PUSH1 0x0 DUP1 REVERT JUMPDEST DUP4 CALLDATALOAD SWAP3 POP PUSH1 0x20 DUP5 ADD CALLDATALOAD PUSH1 0x1 PUSH1 0x1 PUSH1 0x40 SHL SUB DUP2 GT ISZERO PUSH2 0x2A29 JUMPI PUSH1 0x0 DUP1 REVERT JUMPDEST PUSH2 0x2A35 DUP7 DUP3 DUP8 ADD PUSH2 0x275C JUMP JUMPDEST SWAP5 SWAP8 SWAP1 SWAP7 POP SWAP4 SWAP5 POP POP POP POP JUMP JUMPDEST DUP1 CALLDATALOAD PUSH1 0x1 PUSH1 0x1 PUSH1 0x40 SHL SUB DUP2 AND DUP2 EQ PUSH2 0x2A59 JUMPI PUSH1 0x0 DUP1 REVERT JUMPDEST SWAP2 SWAP1 POP JUMP JUMPDEST PUSH1 0x0 DUP1 PUSH1 0x0 DUP1 PUSH1 0x0 PUSH1 0x80 DUP7 DUP9 SUB SLT ISZERO PUSH2 0x2A76 JUMPI PUSH1 0x0 DUP1 REVERT JUMPDEST DUP6 CALLDATALOAD SWAP5 POP PUSH1 0x20 DUP7 ADD CALLDATALOAD SWAP4 POP PUSH2 0x2A8D PUSH1 0x40 DUP8 ADD PUSH2 0x2A42 JUMP JUMPDEST SWAP3 POP PUSH1 0x60 DUP7 ADD CALLDATALOAD PUSH1 0x1 PUSH1 0x1 PUSH1 0x40 SHL SUB DUP2 GT ISZERO PUSH2 0x2AA8 JUMPI PUSH1 0x0 DUP1 REVERT JUMPDEST PUSH2 0x285E DUP9 DUP3 DUP10 ADD PUSH2 0x275C JUMP JUMPDEST PUSH1 0x5 DUP2 LT PUSH2 0x2935 JUMPI PUSH2 0x2935 PUSH2 0x290F JUMP JUMPDEST PUSH1 0x0 PUSH1 0xC0 DUP1 DUP4 ADD PUSH1 0x1 DUP1 PUSH1 0xA0 SHL SUB DUP7 MLOAD AND DUP5 MSTORE PUSH1 0x20 DUP1 DUP8 ADD MLOAD PUSH2 0x2AE9 DUP3 DUP8 ADD DUP3 PUSH2 0x2AB4 JUMP JUMPDEST POP PUSH1 0x40 DUP1 DUP9 ADD MLOAD PUSH1 0x40 DUP8 ADD MSTORE PUSH1 0x60 DUP1 DUP10 ADD MLOAD PUSH1 0x60 DUP9 ADD MSTORE PUSH1 0x80 DUP1 DUP11 ADD MLOAD ISZERO ISZERO PUSH1 0x80 DUP10 ADD MSTORE PUSH1 0xA0 PUSH1 0xC0 PUSH1 0xA0 DUP11 ADD MSTORE DUP6 DUP11 MLOAD DUP1 DUP9 MSTORE PUSH1 0xE0 SWAP8 POP PUSH1 0xE0 DUP12 ADD SWAP2 POP PUSH1 0xE0 DUP2 PUSH1 0x5 SHL DUP13 ADD ADD DUP8 DUP14 ADD PUSH1 0x0 JUMPDEST DUP4 DUP2 LT ISZERO PUSH2 0x2BF0 JUMPI PUSH1 0xDF NOT DUP15 DUP5 SUB ADD DUP6 MSTORE DUP2 MLOAD DUP1 MLOAD DUP5 MSTORE DUP11 DUP2 ADD MLOAD DUP12 DUP6 ADD MSTORE DUP10 DUP2 ADD MLOAD PUSH1 0x1 PUSH1 0x1 PUSH1 0xA0 SHL SUB AND DUP11 DUP6 ADD MSTORE DUP9 DUP2 ADD MLOAD DUP10 DUP6 ADD MSTORE DUP8 DUP2 ADD MLOAD PUSH1 0x1 PUSH1 0x1 PUSH1 0x40 SHL SUB AND DUP9 DUP6 ADD MSTORE DUP7 DUP2 ADD MLOAD DUP8 DUP6 ADD MSTORE DUP13 DUP2 ADD MLOAD PUSH2 0x140 DUP15 DUP7 ADD DUP2 SWAP1 MSTORE SWAP1 PUSH2 0x2BA0 DUP3 DUP8 ADD DUP3 PUSH2 0x286F JUMP JUMPDEST SWAP2 POP POP DUP13 DUP3 ADD MLOAD DUP6 DUP3 SUB DUP15 DUP8 ADD MSTORE PUSH2 0x2BB8 DUP3 DUP3 PUSH2 0x286F JUMP JUMPDEST SWAP2 POP POP PUSH2 0x100 DUP1 DUP4 ADD MLOAD PUSH2 0x2BCF DUP3 DUP9 ADD DUP3 ISZERO ISZERO SWAP1 MSTORE JUMP JUMPDEST POP POP PUSH2 0x120 SWAP2 DUP3 ADD MLOAD SWAP5 SWAP1 SWAP2 ADD SWAP4 SWAP1 SWAP4 MSTORE SWAP4 DUP10 ADD SWAP4 SWAP1 DUP10 ADD SWAP1 PUSH1 0x1 ADD PUSH2 0x2B35 JUMP JUMPDEST POP SWAP1 SWAP15 SWAP14 POP POP POP POP POP POP POP POP POP POP POP POP POP POP JUMP JUMPDEST PUSH1 0x0 DUP1 PUSH1 0x0 DUP1 PUSH1 0x60 DUP6 DUP8 SUB SLT ISZERO PUSH2 0x2C1A JUMPI PUSH1 0x0 DUP1 REVERT JUMPDEST DUP5 CALLDATALOAD SWAP4 POP PUSH1 0x20 DUP6 ADD CALLDATALOAD PUSH1 0x6 DUP2 LT PUSH2 0x2C30 JUMPI PUSH1 0x0 DUP1 REVERT JUMPDEST SWAP3 POP PUSH1 0x40 DUP6 ADD CALLDATALOAD PUSH1 0x1 PUSH1 0x1 PUSH1 0x40 SHL SUB DUP2 GT ISZERO PUSH2 0x27DE JUMPI PUSH1 0x0 DUP1 REVERT JUMPDEST PUSH1 0x0 DUP1 PUSH1 0x40 DUP4 DUP6 SUB SLT ISZERO PUSH2 0x2C5E JUMPI PUSH1 0x0 DUP1 REVERT JUMPDEST POP POP DUP1 CALLDATALOAD SWAP3 PUSH1 0x20 SWAP1 SWAP2 ADD CALLDATALOAD SWAP2 POP JUMP JUMPDEST PUSH1 0x0 DUP1 PUSH1 0x0 DUP1 PUSH1 0x0 DUP1 PUSH1 0x0 PUSH1 0x80 DUP9 DUP11 SUB SLT ISZERO PUSH2 0x2C88 JUMPI PUSH1 0x0 DUP1 REVERT JUMPDEST DUP8 CALLDATALOAD PUSH1 0x1 PUSH1 0x1 PUSH1 0x40 SHL SUB DUP1 DUP3 GT ISZERO PUSH2 0x2C9F JUMPI PUSH1 0x0 DUP1 REVERT JUMPDEST PUSH2 0x2CAB DUP12 DUP4 DUP13 ADD PUSH2 0x275C JUMP JUMPDEST SWAP1 SWAP10 POP SWAP8 POP PUSH1 0x20 DUP11 ADD CALLDATALOAD SWAP2 POP DUP1 DUP3 GT ISZERO PUSH2 0x2CC4 JUMPI PUSH1 0x0 DUP1 REVERT JUMPDEST PUSH2 0x2CD0 DUP12 DUP4 DUP13 ADD PUSH2 0x275C JUMP JUMPDEST SWAP1 SWAP8 POP SWAP6 POP PUSH1 0x40 DUP11 ADD CALLDATALOAD SWAP2 POP DUP1 DUP3 GT ISZERO PUSH2 0x2CE9 JUMPI PUSH1 0x0 DUP1 REVERT JUMPDEST DUP2 DUP11 ADD SWAP2 POP DUP11 PUSH1 0x1F DUP4 ADD SLT PUSH2 0x2CFD JUMPI PUSH1 0x0 DUP1 REVERT JUMPDEST DUP2 CALLDATALOAD DUP2 DUP2 GT ISZERO PUSH2 0x2D0C JUMPI PUSH1 0x0 DUP1 REVERT JUMPDEST DUP12 PUSH1 0x20 DUP3 PUSH1 0x5 SHL DUP6 ADD ADD GT ISZERO PUSH2 0x2D21 JUMPI PUSH1 0x0 DUP1 REVERT JUMPDEST PUSH1 0x20 DUP4 ADD SWAP6 POP DUP1 SWAP5 POP POP POP POP PUSH2 0x2D39 PUSH1 0x60 DUP10 ADD PUSH2 0x2A42 JUMP JUMPDEST SWAP1 POP SWAP3 SWAP6 SWAP9 SWAP2 SWAP5 SWAP8 POP SWAP3 SWAP6 POP JUMP JUMPDEST DUP3 DUP2 MSTORE PUSH1 0x40 DUP2 ADD PUSH2 0x273C PUSH1 0x20 DUP4 ADD DUP5 PUSH2 0x2AB4 JUMP JUMPDEST PUSH4 0x4E487B71 PUSH1 0xE0 SHL PUSH1 0x0 MSTORE PUSH1 0x41 PUSH1 0x4 MSTORE PUSH1 0x24 PUSH1 0x0 REVERT JUMPDEST PUSH1 0x1 DUP2 DUP2 SHR SWAP1 DUP3 AND DUP1 PUSH2 0x2D85 JUMPI PUSH1 0x7F DUP3 AND SWAP2 POP JUMPDEST PUSH1 0x20 DUP3 LT DUP2 SUB PUSH2 0x2DA5 JUMPI PUSH4 0x4E487B71 PUSH1 0xE0 SHL PUSH1 0x0 MSTORE PUSH1 0x22 PUSH1 0x4 MSTORE PUSH1 0x24 PUSH1 0x0 REVERT JUMPDEST POP SWAP2 SWAP1 POP JUMP JUMPDEST PUSH1 0x1F DUP3 GT ISZERO PUSH2 0x2DF3 JUMPI PUSH1 0x0 DUP2 PUSH1 0x0 MSTORE PUSH1 0x20 PUSH1 0x0 KECCAK256 PUSH1 0x1F DUP6 ADD PUSH1 0x5 SHR DUP2 ADD PUSH1 0x20 DUP7 LT ISZERO PUSH2 0x2DD4 JUMPI POP DUP1 JUMPDEST PUSH1 0x1F DUP6 ADD PUSH1 0x5 SHR DUP3 ADD SWAP2 POP JUMPDEST DUP2 DUP2 LT ISZERO PUSH2 0x51F JUMPI DUP3 DUP2 SSTORE PUSH1 0x1 ADD PUSH2 0x2DE0 JUMP JUMPDEST POP POP POP JUMP JUMPDEST PUSH1 0x1 PUSH1 0x1 PUSH1 0x40 SHL SUB DUP4 GT ISZERO PUSH2 0x2E0F JUMPI PUSH2 0x2E0F PUSH2 0x2D5B JUMP JUMPDEST PUSH2 0x2E23 DUP4 PUSH2 0x2E1D DUP4 SLOAD PUSH2 0x2D71 JUMP JUMPDEST DUP4 PUSH2 0x2DAB JUMP JUMPDEST PUSH1 0x0 PUSH1 0x1F DUP5 GT PUSH1 0x1 DUP2 EQ PUSH2 0x2E57 JUMPI PUSH1 0x0 DUP6 ISZERO PUSH2 0x2E3F JUMPI POP DUP4 DUP3 ADD CALLDATALOAD JUMPDEST PUSH1 0x0 NOT PUSH1 0x3 DUP8 SWAP1 SHL SHR NOT AND PUSH1 0x1 DUP7 SWAP1 SHL OR DUP4 SSTORE PUSH2 0x2EB1 JUMP JUMPDEST PUSH1 0x0 DUP4 DUP2 MSTORE PUSH1 0x20 SWAP1 KECCAK256 PUSH1 0x1F NOT DUP7 AND SWAP1 DUP4 JUMPDEST DUP3 DUP2 LT ISZERO PUSH2 0x2E88 JUMPI DUP7 DUP6 ADD CALLDATALOAD DUP3 SSTORE PUSH1 0x20 SWAP5 DUP6 ADD SWAP5 PUSH1 0x1 SWAP1 SWAP3 ADD SWAP2 ADD PUSH2 0x2E68 JUMP JUMPDEST POP DUP7 DUP3 LT ISZERO PUSH2 0x2EA5 JUMPI PUSH1 0x0 NOT PUSH1 0xF8 DUP9 PUSH1 0x3 SHL AND SHR NOT DUP5 DUP8 ADD CALLDATALOAD AND DUP2 SSTORE JUMPDEST POP POP PUSH1 0x1 DUP6 PUSH1 0x1 SHL ADD DUP4 SSTORE JUMPDEST POP POP POP POP POP JUMP JUMPDEST DUP2 DUP4 MSTORE DUP2 DUP2 PUSH1 0x20 DUP6 ADD CALLDATACOPY POP PUSH1 0x0 DUP3 DUP3 ADD PUSH1 0x20 SWAP1 DUP2 ADD SWAP2 SWAP1 SWAP2 MSTORE PUSH1 0x1F SWAP1 SWAP2 ADD PUSH1 0x1F NOT AND SWAP1 SWAP2 ADD ADD SWAP1 JUMP JUMPDEST PUSH1 0x20 DUP2 MSTORE PUSH1 0x0 PUSH2 0x2EF5 PUSH1 0x20 DUP4 ADD DUP5 DUP7 PUSH2 0x2EB8 JUMP JUMPDEST SWAP5 SWAP4 POP POP POP POP JUMP JUMPDEST PUSH1 0x0 PUSH1 0x1 DUP3 ADD PUSH2 0x2F1D JUMPI PUSH4 0x4E487B71 PUSH1 0xE0 SHL PUSH1 0x0 MSTORE PUSH1 0x11 PUSH1 0x4 MSTORE PUSH1 0x24 PUSH1 0x0 REVERT JUMPDEST POP PUSH1 0x1 ADD SWAP1 JUMP JUMPDEST PUSH1 0x0 PUSH1 0x20 DUP3 DUP5 SUB SLT ISZERO PUSH2 0x2F36 JUMPI PUSH1 0x0 DUP1 REVERT JUMPDEST DUP2 MLOAD DUP1 ISZERO ISZERO DUP2 EQ PUSH2 0x273C JUMPI PUSH1 0x0 DUP1 REVERT JUMPDEST PUSH1 0x0 PUSH1 0x20 DUP3 DUP5 SUB SLT ISZERO PUSH2 0x2F58 JUMPI PUSH1 0x0 DUP1 REVERT JUMPDEST POP MLOAD SWAP2 SWAP1 POP JUMP JUMPDEST PUSH1 0x20 DUP2 MSTORE DUP2 MLOAD PUSH1 0x20 DUP3 ADD MSTORE PUSH1 0x20 DUP3 ADD MLOAD PUSH1 0x40 DUP3 ADD MSTORE PUSH1 0x0 PUSH1 0x40 DUP4 ADD MLOAD PUSH2 0x2F90 PUSH1 0x60 DUP5 ADD DUP3 PUSH1 0x1 PUSH1 0x1 PUSH1 0xA0 SHL SUB AND SWAP1 MSTORE JUMP JUMPDEST POP PUSH1 0x60 DUP4 ADD MLOAD PUSH1 0x80 DUP4 ADD MSTORE PUSH1 0x80 DUP4 ADD MLOAD PUSH2 0x2FB5 PUSH1 0xA0 DUP5 ADD DUP3 PUSH1 0x1 PUSH1 0x1 PUSH1 0x40 SHL SUB AND SWAP1 MSTORE JUMP JUMPDEST POP PUSH1 0xA0 DUP4 ADD MLOAD PUSH1 0xC0 DUP4 ADD MSTORE PUSH1 0xC0 DUP4 ADD MLOAD PUSH2 0x120 DUP1 PUSH1 0xE0 DUP6 ADD MSTORE PUSH2 0x2FDC PUSH2 0x140 DUP6 ADD DUP4 PUSH2 0x286F JUMP JUMPDEST SWAP2 POP PUSH1 0xE0 DUP6 ADD MLOAD PUSH2 0x100 PUSH2 0x2FF3 DUP2 DUP8 ADD DUP4 ISZERO ISZERO SWAP1 MSTORE JUMP JUMPDEST SWAP6 SWAP1 SWAP6 ADD MLOAD SWAP4 ADD SWAP3 SWAP1 SWAP3 MSTORE POP SWAP2 SWAP1 POP JUMP JUMPDEST PUSH4 0x4E487B71 PUSH1 0xE0 SHL PUSH1 0x0 MSTORE PUSH1 0x32 PUSH1 0x4 MSTORE PUSH1 0x24 PUSH1 0x0 REVERT JUMPDEST PUSH2 0x3024 DUP2 DUP6 PUSH2 0x2925 JUMP JUMPDEST PUSH1 0x40 PUSH1 0x20 DUP3 ADD MSTORE PUSH1 0x0 PUSH2 0x303B PUSH1 0x40 DUP4 ADD DUP5 DUP7 PUSH2 0x2EB8 JUMP JUMPDEST SWAP6 SWAP5 POP POP POP POP POP JUMP JUMPDEST PUSH1 0x40 MLOAD PUSH1 0x1F DUP3 ADD PUSH1 0x1F NOT AND DUP2 ADD PUSH1 0x1 PUSH1 0x1 PUSH1 0x40 SHL SUB DUP2 GT DUP3 DUP3 LT OR ISZERO PUSH2 0x306C JUMPI PUSH2 0x306C PUSH2 0x2D5B JUMP JUMPDEST PUSH1 0x40 MSTORE SWAP2 SWAP1 POP JUMP JUMPDEST PUSH1 0x0 PUSH1 0x1 PUSH1 0x1 PUSH1 0x40 SHL SUB DUP1 DUP5 GT ISZERO PUSH2 0x308E JUMPI PUSH2 0x308E PUSH2 0x2D5B JUMP JUMPDEST DUP4 PUSH1 0x5 SHL PUSH1 0x20 PUSH2 0x309F DUP2 DUP4 ADD PUSH2 0x3044 JUMP JUMPDEST DUP7 DUP2 MSTORE SWAP2 DUP6 ADD SWAP2 DUP2 DUP2 ADD SWAP1 CALLDATASIZE DUP5 GT ISZERO PUSH2 0x30B7 JUMPI PUSH1 0x0 DUP1 REVERT JUMPDEST DUP7 JUMPDEST DUP5 DUP2 LT ISZERO PUSH2 0x313C JUMPI DUP1 CALLDATALOAD DUP7 DUP2 GT ISZERO PUSH2 0x30D1 JUMPI PUSH1 0x0 DUP1 DUP2 REVERT JUMPDEST DUP9 ADD PUSH1 0x1F CALLDATASIZE DUP2 DUP4 ADD SLT PUSH2 0x30E4 JUMPI PUSH1 0x0 DUP1 DUP2 REVERT JUMPDEST DUP2 CALLDATALOAD DUP9 DUP2 GT ISZERO PUSH2 0x30F6 JUMPI PUSH2 0x30F6 PUSH2 0x2D5B JUMP JUMPDEST PUSH2 0x3107 DUP2 DUP4 ADD PUSH1 0x1F NOT AND DUP9 ADD PUSH2 0x3044 JUMP JUMPDEST SWAP2 POP DUP1 DUP3 MSTORE CALLDATASIZE DUP8 DUP3 DUP6 ADD ADD GT ISZERO PUSH2 0x311E JUMPI PUSH1 0x0 DUP1 DUP2 REVERT JUMPDEST DUP1 DUP8 DUP5 ADD DUP9 DUP5 ADD CALLDATACOPY PUSH1 0x0 SWAP1 DUP3 ADD DUP8 ADD MSTORE DUP5 MSTORE POP SWAP2 DUP4 ADD SWAP2 DUP4 ADD PUSH2 0x30B9 JUMP JUMPDEST POP SWAP8 SWAP7 POP POP POP POP POP POP POP JUMP JUMPDEST PUSH1 0x40 DUP1 DUP3 MSTORE DUP4 MLOAD DUP3 DUP3 ADD MSTORE PUSH1 0x20 DUP5 ADD MLOAD PUSH1 0x1 PUSH1 0x1 PUSH1 0xA0 SHL SUB AND PUSH1 0x60 DUP4 ADD MSTORE DUP4 ADD MLOAD PUSH1 0xE0 PUSH1 0x80 DUP4 ADD MSTORE PUSH1 0x0 SWAP1 PUSH2 0x3181 PUSH2 0x120 DUP5 ADD DUP3 PUSH2 0x286F JUMP JUMPDEST SWAP1 POP PUSH1 0x60 DUP6 ADD MLOAD PUSH1 0x3F NOT DUP1 DUP6 DUP5 SUB ADD PUSH1 0xA0 DUP7 ADD MSTORE PUSH2 0x319F DUP4 DUP4 PUSH2 0x286F JUMP JUMPDEST SWAP3 POP PUSH1 0x80 DUP8 ADD MLOAD SWAP2 POP DUP1 DUP6 DUP5 SUB ADD PUSH1 0xC0 DUP7 ADD MSTORE POP PUSH2 0x31BD DUP3 DUP3 PUSH2 0x28B5 JUMP JUMPDEST PUSH1 0xA0 DUP8 ADD MLOAD PUSH1 0x1 PUSH1 0x1 PUSH1 0x40 SHL SUB AND PUSH1 0xE0 DUP7 ADD MSTORE PUSH1 0xC0 DUP8 ADD MLOAD PUSH2 0x100 DUP7 ADD MSTORE SWAP3 POP PUSH2 0x273C SWAP2 POP POP PUSH1 0x20 DUP4 ADD DUP5 PUSH2 0x2AB4 JUMP INVALID LOG2 PUSH5 0x6970667358 0x22 SLT KECCAK256 PC SGT NUMBER SIGNEXTEND 0x2A 0xE6 0xD1 0xC2 SELFBALANCE SWAP3 SWAP8 DUP15 0xC BLOBBASEFEE 0xBE MCOPY AND 0xC0 DUP16 0xEC MCOPY SWAP8 LOG1 PUSH0 0x29 POP 0xAF CALLVALUE MULMOD 0xAB PUSH19 0x2164736F6C6343000818003300000000000000 "},"methodIdentifiers":{"acceptBid(uint256,uint256,string)":"31f6e29e","agentRegistry()":"0d1cfcae","approveDelivery(uint256)":"c94b674b","escrow()":"e2fdcc17","getDispute(uint256)":"e3a96cbd","getJob(uint256)":"bf22c457","getJobDispute(uint256)":"8db27549","jobRegistry()":"23682c47","owner()":"8da5cb5b","placeBid(uint256,uint256,uint64,string)":"b1f27e60","postJob(string,string,string[],uint64)":"fd1dc480","raiseDispute(uint256,string,string)":"5b982d2f","refundJob(uint256)":"2d5d0aae","renounceOwnership()":"715018a6","reputationToken()":"275bbe9b","resolveDispute(uint256,uint8,string)":"c316939c","setAgentRegistry(address)":"28342ecf","setEscrow(address)":"c10c3546","setReputationToken(address)":"7f58a8d6","submitDelivery(uint256,bytes32)":"d8dc8c28","submitEvidence(uint256,string)":"a6a7f0eb","transferOwnership(address)":"f2fde38b"}}}}}