{"contracts/mocks/MockFastUpdater.sol":{"MockFastUpdater":{"abi":[{"inputs":[{"internalType":"uint256[]","name":"_feedIndexes","type":"uint256[]"}],"name":"fetchCurrentFeeds","outputs":[{"internalType":"uint256[]","name":"feeds","type":"uint256[]"},{"internalType":"int8[]","name":"decimals","type":"int8[]"},{"internalType":"int64","name":"timestamp","type":"int64"}],"stateMutability":"view","type":"function"},{"inputs":[{"internalType":"uint256","name":"feedIndex","type":"uint256"},{"internalType":"uint256","name":"price","type":"uint256"},{"internalType":"int8","name":"decimals_","type":"int8"}],"name":"setPrice","outputs":[],"stateMutability":"nonpayable","type":"function"}],"evm":{"bytecode":{"linkReferences":{},"object":"608060405234801561001057600080fd5b5061039d806100206000396000f3fe608060405234801561001057600080fd5b50600436106100365760003560e01c80632ebaa8201461003b57806345a15d3c14610077575b600080fd5b6100756100493660046101f6565b60009283526020838152604080852093909355600190529120805460ff191660ff909216919091179055565b005b61008a610085366004610235565b6100a2565b604051610099939291906102aa565b60405180910390f35b60608060008367ffffffffffffffff8111156100c0576100c061033b565b6040519080825280602002602001820160405280156100e9578160200160208202803683370190505b5092508367ffffffffffffffff8111156101055761010561033b565b60405190808252806020026020018201604052801561012e578160200160208202803683370190505b50915060005b848110156101eb5760008087878481811061015157610151610351565b9050602002013581526020019081526020016000205484828151811061017957610179610351565b6020026020010181815250506001600087878481811061019b5761019b610351565b90506020020135815260200190815260200160002060009054906101000a900460000b8382815181106101d0576101d0610351565b60009290920b60209283029190910190910152600101610134565b504290509250925092565b60008060006060848603121561020b57600080fd5b833592506020840135915060408401358060000b811461022a57600080fd5b809150509250925092565b6000806020838503121561024857600080fd5b823567ffffffffffffffff8082111561026057600080fd5b818501915085601f83011261027457600080fd5b81358181111561028357600080fd5b8660208260051b850101111561029857600080fd5b60209290920196919550909350505050565b60608082528451908201819052600090602090608084019082880184805b838110156102e4578251855293850193918501916001016102c8565b508684038588015288518085528986019486019350915060005b8281101561031c578451820b845293850193928501926001016102fe565b505050600786900b60408601529250610333915050565b949350505050565b634e487b7160e01b600052604160045260246000fd5b634e487b7160e01b600052603260045260246000fdfea2646970667358221220fd5b90139f1d6c90cd755c58ab2df7ccd0335526677f1fd8e68f85c4ebb60c8364736f6c63430008180033","opcodes":"PUSH1 0x80 PUSH1 0x40 MSTORE CALLVALUE DUP1 ISZERO PUSH2 0x10 JUMPI PUSH1 0x0 DUP1 REVERT JUMPDEST POP PUSH2 0x39D DUP1 PUSH2 0x20 PUSH1 0x0 CODECOPY PUSH1 0x0 RETURN INVALID PUSH1 0x80 PUSH1 0x40 MSTORE CALLVALUE DUP1 ISZERO PUSH2 0x10 JUMPI PUSH1 0x0 DUP1 REVERT JUMPDEST POP PUSH1 0x4 CALLDATASIZE LT PUSH2 0x36 JUMPI PUSH1 0x0 CALLDATALOAD PUSH1 0xE0 SHR DUP1 PUSH4 0x2EBAA820 EQ PUSH2 0x3B JUMPI DUP1 PUSH4 0x45A15D3C EQ PUSH2 0x77 JUMPI JUMPDEST PUSH1 0x0 DUP1 REVERT JUMPDEST PUSH2 0x75 PUSH2 0x49 CALLDATASIZE PUSH1 0x4 PUSH2 0x1F6 JUMP JUMPDEST PUSH1 0x0 SWAP3 DUP4 MSTORE PUSH1 0x20 DUP4 DUP2 MSTORE PUSH1 0x40 DUP1 DUP6 KECCAK256 SWAP4 SWAP1 SWAP4 SSTORE PUSH1 0x1 SWAP1 MSTORE SWAP2 KECCAK256 DUP1 SLOAD PUSH1 0xFF NOT AND PUSH1 0xFF SWAP1 SWAP3 AND SWAP2 SWAP1 SWAP2 OR SWAP1 SSTORE JUMP JUMPDEST STOP JUMPDEST PUSH2 0x8A PUSH2 0x85 CALLDATASIZE PUSH1 0x4 PUSH2 0x235 JUMP JUMPDEST PUSH2 0xA2 JUMP JUMPDEST PUSH1 0x40 MLOAD PUSH2 0x99 SWAP4 SWAP3 SWAP2 SWAP1 PUSH2 0x2AA JUMP JUMPDEST PUSH1 0x40 MLOAD DUP1 SWAP2 SUB SWAP1 RETURN JUMPDEST PUSH1 0x60 DUP1 PUSH1 0x0 DUP4 PUSH8 0xFFFFFFFFFFFFFFFF DUP2 GT ISZERO PUSH2 0xC0 JUMPI PUSH2 0xC0 PUSH2 0x33B JUMP JUMPDEST PUSH1 0x40 MLOAD SWAP1 DUP1 DUP3 MSTORE DUP1 PUSH1 0x20 MUL PUSH1 0x20 ADD DUP3 ADD PUSH1 0x40 MSTORE DUP1 ISZERO PUSH2 0xE9 JUMPI DUP2 PUSH1 0x20 ADD PUSH1 0x20 DUP3 MUL DUP1 CALLDATASIZE DUP4 CALLDATACOPY ADD SWAP1 POP JUMPDEST POP SWAP3 POP DUP4 PUSH8 0xFFFFFFFFFFFFFFFF DUP2 GT ISZERO PUSH2 0x105 JUMPI PUSH2 0x105 PUSH2 0x33B JUMP JUMPDEST PUSH1 0x40 MLOAD SWAP1 DUP1 DUP3 MSTORE DUP1 PUSH1 0x20 MUL PUSH1 0x20 ADD DUP3 ADD PUSH1 0x40 MSTORE DUP1 ISZERO PUSH2 0x12E JUMPI DUP2 PUSH1 0x20 ADD PUSH1 0x20 DUP3 MUL DUP1 CALLDATASIZE DUP4 CALLDATACOPY ADD SWAP1 POP JUMPDEST POP SWAP2 POP PUSH1 0x0 JUMPDEST DUP5 DUP2 LT ISZERO PUSH2 0x1EB JUMPI PUSH1 0x0 DUP1 DUP8 DUP8 DUP5 DUP2 DUP2 LT PUSH2 0x151 JUMPI PUSH2 0x151 PUSH2 0x351 JUMP JUMPDEST SWAP1 POP PUSH1 0x20 MUL ADD CALLDATALOAD DUP2 MSTORE PUSH1 0x20 ADD SWAP1 DUP2 MSTORE PUSH1 0x20 ADD PUSH1 0x0 KECCAK256 SLOAD DUP5 DUP3 DUP2 MLOAD DUP2 LT PUSH2 0x179 JUMPI PUSH2 0x179 PUSH2 0x351 JUMP JUMPDEST PUSH1 0x20 MUL PUSH1 0x20 ADD ADD DUP2 DUP2 MSTORE POP POP PUSH1 0x1 PUSH1 0x0 DUP8 DUP8 DUP5 DUP2 DUP2 LT PUSH2 0x19B JUMPI PUSH2 0x19B PUSH2 0x351 JUMP JUMPDEST SWAP1 POP PUSH1 0x20 MUL ADD CALLDATALOAD DUP2 MSTORE PUSH1 0x20 ADD SWAP1 DUP2 MSTORE PUSH1 0x20 ADD PUSH1 0x0 KECCAK256 PUSH1 0x0 SWAP1 SLOAD SWAP1 PUSH2 0x100 EXP SWAP1 DIV PUSH1 0x0 SIGNEXTEND DUP4 DUP3 DUP2 MLOAD DUP2 LT PUSH2 0x1D0 JUMPI PUSH2 0x1D0 PUSH2 0x351 JUMP JUMPDEST PUSH1 0x0 SWAP3 SWAP1 SWAP3 SIGNEXTEND PUSH1 0x20 SWAP3 DUP4 MUL SWAP2 SWAP1 SWAP2 ADD SWAP1 SWAP2 ADD MSTORE PUSH1 0x1 ADD PUSH2 0x134 JUMP JUMPDEST POP TIMESTAMP SWAP1 POP SWAP3 POP SWAP3 POP SWAP3 JUMP JUMPDEST PUSH1 0x0 DUP1 PUSH1 0x0 PUSH1 0x60 DUP5 DUP7 SUB SLT ISZERO PUSH2 0x20B JUMPI PUSH1 0x0 DUP1 REVERT JUMPDEST DUP4 CALLDATALOAD SWAP3 POP PUSH1 0x20 DUP5 ADD CALLDATALOAD SWAP2 POP PUSH1 0x40 DUP5 ADD CALLDATALOAD DUP1 PUSH1 0x0 SIGNEXTEND DUP2 EQ PUSH2 0x22A JUMPI PUSH1 0x0 DUP1 REVERT JUMPDEST DUP1 SWAP2 POP POP SWAP3 POP SWAP3 POP SWAP3 JUMP JUMPDEST PUSH1 0x0 DUP1 PUSH1 0x20 DUP4 DUP6 SUB SLT ISZERO PUSH2 0x248 JUMPI PUSH1 0x0 DUP1 REVERT JUMPDEST DUP3 CALLDATALOAD PUSH8 0xFFFFFFFFFFFFFFFF DUP1 DUP3 GT ISZERO PUSH2 0x260 JUMPI PUSH1 0x0 DUP1 REVERT JUMPDEST DUP2 DUP6 ADD SWAP2 POP DUP6 PUSH1 0x1F DUP4 ADD SLT PUSH2 0x274 JUMPI PUSH1 0x0 DUP1 REVERT JUMPDEST DUP2 CALLDATALOAD DUP2 DUP2 GT ISZERO PUSH2 0x283 JUMPI PUSH1 0x0 DUP1 REVERT JUMPDEST DUP7 PUSH1 0x20 DUP3 PUSH1 0x5 SHL DUP6 ADD ADD GT ISZERO PUSH2 0x298 JUMPI PUSH1 0x0 DUP1 REVERT JUMPDEST PUSH1 0x20 SWAP3 SWAP1 SWAP3 ADD SWAP7 SWAP2 SWAP6 POP SWAP1 SWAP4 POP POP POP POP JUMP JUMPDEST PUSH1 0x60 DUP1 DUP3 MSTORE DUP5 MLOAD SWAP1 DUP3 ADD DUP2 SWAP1 MSTORE PUSH1 0x0 SWAP1 PUSH1 0x20 SWAP1 PUSH1 0x80 DUP5 ADD SWAP1 DUP3 DUP9 ADD DUP5 DUP1 JUMPDEST DUP4 DUP2 LT ISZERO PUSH2 0x2E4 JUMPI DUP3 MLOAD DUP6 MSTORE SWAP4 DUP6 ADD SWAP4 SWAP2 DUP6 ADD SWAP2 PUSH1 0x1 ADD PUSH2 0x2C8 JUMP JUMPDEST POP DUP7 DUP5 SUB DUP6 DUP9 ADD MSTORE DUP9 MLOAD DUP1 DUP6 MSTORE DUP10 DUP7 ADD SWAP5 DUP7 ADD SWAP4 POP SWAP2 POP PUSH1 0x0 JUMPDEST DUP3 DUP2 LT ISZERO PUSH2 0x31C JUMPI DUP5 MLOAD DUP3 SIGNEXTEND DUP5 MSTORE SWAP4 DUP6 ADD SWAP4 SWAP3 DUP6 ADD SWAP3 PUSH1 0x1 ADD PUSH2 0x2FE JUMP JUMPDEST POP POP POP PUSH1 0x7 DUP7 SWAP1 SIGNEXTEND PUSH1 0x40 DUP7 ADD MSTORE SWAP3 POP PUSH2 0x333 SWAP2 POP POP JUMP JUMPDEST SWAP5 SWAP4 POP POP POP POP JUMP JUMPDEST PUSH4 0x4E487B71 PUSH1 0xE0 SHL PUSH1 0x0 MSTORE PUSH1 0x41 PUSH1 0x4 MSTORE PUSH1 0x24 PUSH1 0x0 REVERT JUMPDEST PUSH4 0x4E487B71 PUSH1 0xE0 SHL PUSH1 0x0 MSTORE PUSH1 0x32 PUSH1 0x4 MSTORE PUSH1 0x24 PUSH1 0x0 REVERT INVALID LOG2 PUSH5 0x6970667358 0x22 SLT KECCAK256 REVERT JUMPDEST SWAP1 SGT SWAP16 SAR PUSH13 0x90CD755C58AB2DF7CCD0335526 PUSH8 0x7F1FD8E68F85C4EB 0xB6 0xC DUP4 PUSH5 0x736F6C6343 STOP ADDMOD XOR STOP CALLER "},"methodIdentifiers":{"fetchCurrentFeeds(uint256[])":"45a15d3c","setPrice(uint256,uint256,int8)":"2ebaa820"}}}}}