{"contracts/FlareOrderBook.sol":{"FlareOrderBook":{"abi":[{"inputs":[{"internalType":"address","name":"initialOwner","type":"address"},{"internalType":"address","name":"ftsoConsumer","type":"address"}],"stateMutability":"nonpayable","type":"constructor"},{"inputs":[{"internalType":"address","name":"owner","type":"address"}],"name":"OwnableInvalidOwner","type":"error"},{"inputs":[{"internalType":"address","name":"account","type":"address"}],"name":"OwnableUnauthorizedAccount","type":"error"},{"anonymous":false,"inputs":[{"indexed":true,"internalType":"uint256","name":"jobId","type":"uint256"},{"indexed":true,"internalType":"uint256","name":"bidId","type":"uint256"},{"indexed":true,"internalType":"address","name":"provider","type":"address"}],"name":"BidAccepted","type":"event"},{"anonymous":false,"inputs":[{"indexed":true,"internalType":"uint256","name":"jobId","type":"uint256"},{"indexed":true,"internalType":"uint256","name":"bidId","type":"uint256"},{"indexed":true,"internalType":"address","name":"agent","type":"address"},{"indexed":false,"internalType":"uint256","name":"priceUsd","type":"uint256"},{"indexed":false,"internalType":"uint256","name":"priceFlr","type":"uint256"}],"name":"BidPlaced","type":"event"},{"anonymous":false,"inputs":[{"indexed":true,"internalType":"uint256","name":"jobId","type":"uint256"}],"name":"JobCancelled","type":"event"},{"anonymous":false,"inputs":[{"indexed":true,"internalType":"uint256","name":"jobId","type":"uint256"},{"indexed":false,"internalType":"bytes32","name":"deliveryProof","type":"bytes32"}],"name":"JobCompleted","type":"event"},{"anonymous":false,"inputs":[{"indexed":true,"internalType":"uint256","name":"jobId","type":"uint256"},{"indexed":true,"internalType":"address","name":"poster","type":"address"},{"indexed":false,"internalType":"uint256","name":"maxPriceUsd","type":"uint256"},{"indexed":false,"internalType":"uint256","name":"maxPriceFlr","type":"uint256"}],"name":"JobCreated","type":"event"},{"anonymous":false,"inputs":[{"indexed":true,"internalType":"uint256","name":"jobId","type":"uint256"},{"indexed":true,"internalType":"address","name":"disputedBy","type":"address"}],"name":"JobDisputed","type":"event"},{"anonymous":false,"inputs":[{"indexed":true,"internalType":"uint256","name":"jobId","type":"uint256"}],"name":"JobReleased","type":"event"},{"anonymous":false,"inputs":[{"indexed":true,"internalType":"address","name":"previousOwner","type":"address"},{"indexed":true,"internalType":"address","name":"newOwner","type":"address"}],"name":"OwnershipTransferred","type":"event"},{"anonymous":false,"inputs":[{"indexed":true,"internalType":"uint256","name":"jobId","type":"uint256"},{"indexed":true,"internalType":"address","name":"provider","type":"address"}],"name":"ProviderAssigned","type":"event"},{"inputs":[{"internalType":"uint256","name":"jobId","type":"uint256"},{"internalType":"uint256","name":"bidId","type":"uint256"}],"name":"acceptBid","outputs":[],"stateMutability":"nonpayable","type":"function"},{"inputs":[{"internalType":"uint256","name":"jobId","type":"uint256"},{"internalType":"address","name":"provider","type":"address"}],"name":"assignProvider","outputs":[],"stateMutability":"nonpayable","type":"function"},{"inputs":[{"internalType":"uint256","name":"","type":"uint256"}],"name":"bids","outputs":[{"internalType":"uint256","name":"id","type":"uint256"},{"internalType":"uint256","name":"jobId","type":"uint256"},{"internalType":"address","name":"agent","type":"address"},{"internalType":"uint256","name":"priceUsd","type":"uint256"},{"internalType":"uint256","name":"priceFlr","type":"uint256"},{"internalType":"uint256","name":"estimatedTime","type":"uint256"},{"internalType":"string","name":"proposal","type":"string"},{"internalType":"uint256","name":"createdAt","type":"uint256"},{"internalType":"bool","name":"accepted","type":"bool"}],"stateMutability":"view","type":"function"},{"inputs":[{"internalType":"uint256","name":"jobId","type":"uint256"}],"name":"cancelJob","outputs":[],"stateMutability":"nonpayable","type":"function"},{"inputs":[{"internalType":"string","name":"metadataURI","type":"string"},{"internalType":"uint256","name":"maxPriceUsd","type":"uint256"},{"internalType":"uint64","name":"deadline","type":"uint64"}],"name":"createJob","outputs":[{"internalType":"uint256","name":"jobId","type":"uint256"}],"stateMutability":"nonpayable","type":"function"},{"inputs":[],"name":"escrow","outputs":[{"internalType":"address","name":"","type":"address"}],"stateMutability":"view","type":"function"},{"inputs":[],"name":"ftso","outputs":[{"internalType":"contract FTSOPriceConsumer","name":"","type":"address"}],"stateMutability":"view","type":"function"},{"inputs":[{"internalType":"uint256","name":"bidId","type":"uint256"}],"name":"getBid","outputs":[{"components":[{"internalType":"uint256","name":"id","type":"uint256"},{"internalType":"uint256","name":"jobId","type":"uint256"},{"internalType":"address","name":"agent","type":"address"},{"internalType":"uint256","name":"priceUsd","type":"uint256"},{"internalType":"uint256","name":"priceFlr","type":"uint256"},{"internalType":"uint256","name":"estimatedTime","type":"uint256"},{"internalType":"string","name":"proposal","type":"string"},{"internalType":"uint256","name":"createdAt","type":"uint256"},{"internalType":"bool","name":"accepted","type":"bool"}],"internalType":"struct FlareOrderBook.Bid","name":"","type":"tuple"}],"stateMutability":"view","type":"function"},{"inputs":[{"internalType":"uint256","name":"jobId","type":"uint256"}],"name":"getJob","outputs":[{"components":[{"internalType":"uint256","name":"id","type":"uint256"},{"internalType":"address","name":"poster","type":"address"},{"internalType":"address","name":"provider","type":"address"},{"internalType":"string","name":"metadataURI","type":"string"},{"internalType":"uint256","name":"maxPriceUsd","type":"uint256"},{"internalType":"uint256","name":"maxPriceFlr","type":"uint256"},{"internalType":"uint64","name":"deadline","type":"uint64"},{"internalType":"enum FlareOrderBook.JobStatus","name":"status","type":"uint8"},{"internalType":"bytes32","name":"deliveryProof","type":"bytes32"},{"internalType":"uint256","name":"createdAt","type":"uint256"},{"internalType":"uint256","name":"acceptedBidId","type":"uint256"}],"internalType":"struct FlareOrderBook.Job","name":"","type":"tuple"}],"stateMutability":"view","type":"function"},{"inputs":[{"internalType":"uint256","name":"jobId","type":"uint256"}],"name":"getJobBidCount","outputs":[{"internalType":"uint256","name":"","type":"uint256"}],"stateMutability":"view","type":"function"},{"inputs":[{"internalType":"uint256","name":"jobId","type":"uint256"}],"name":"getJobBidIds","outputs":[{"internalType":"uint256[]","name":"","type":"uint256[]"}],"stateMutability":"view","type":"function"},{"inputs":[{"internalType":"uint256","name":"offset","type":"uint256"},{"internalType":"uint256","name":"limit","type":"uint256"}],"name":"getJobIds","outputs":[{"internalType":"uint256[]","name":"ids","type":"uint256[]"}],"stateMutability":"view","type":"function"},{"inputs":[{"internalType":"uint256","name":"","type":"uint256"},{"internalType":"uint256","name":"","type":"uint256"}],"name":"jobBids","outputs":[{"internalType":"uint256","name":"","type":"uint256"}],"stateMutability":"view","type":"function"},{"inputs":[{"internalType":"uint256","name":"","type":"uint256"}],"name":"jobIds","outputs":[{"internalType":"uint256","name":"","type":"uint256"}],"stateMutability":"view","type":"function"},{"inputs":[{"internalType":"uint256","name":"","type":"uint256"}],"name":"jobs","outputs":[{"internalType":"uint256","name":"id","type":"uint256"},{"internalType":"address","name":"poster","type":"address"},{"internalType":"address","name":"provider","type":"address"},{"internalType":"string","name":"metadataURI","type":"string"},{"internalType":"uint256","name":"maxPriceUsd","type":"uint256"},{"internalType":"uint256","name":"maxPriceFlr","type":"uint256"},{"internalType":"uint64","name":"deadline","type":"uint64"},{"internalType":"enum FlareOrderBook.JobStatus","name":"status","type":"uint8"},{"internalType":"bytes32","name":"deliveryProof","type":"bytes32"},{"internalType":"uint256","name":"createdAt","type":"uint256"},{"internalType":"uint256","name":"acceptedBidId","type":"uint256"}],"stateMutability":"view","type":"function"},{"inputs":[{"internalType":"uint256","name":"jobId","type":"uint256"},{"internalType":"bytes32","name":"deliveryProof","type":"bytes32"}],"name":"markCompleted","outputs":[],"stateMutability":"nonpayable","type":"function"},{"inputs":[{"internalType":"uint256","name":"jobId","type":"uint256"}],"name":"markReleased","outputs":[],"stateMutability":"nonpayable","type":"function"},{"inputs":[],"name":"owner","outputs":[{"internalType":"address","name":"","type":"address"}],"stateMutability":"view","type":"function"},{"inputs":[{"internalType":"uint256","name":"jobId","type":"uint256"},{"internalType":"uint256","name":"priceUsd","type":"uint256"},{"internalType":"uint256","name":"estimatedTime","type":"uint256"},{"internalType":"string","name":"proposal","type":"string"}],"name":"placeBid","outputs":[{"internalType":"uint256","name":"bidId","type":"uint256"}],"stateMutability":"nonpayable","type":"function"},{"inputs":[{"internalType":"uint256","name":"usdAmount","type":"uint256"}],"name":"quoteUsdToFlr","outputs":[{"internalType":"uint256","name":"flrAmount","type":"uint256"}],"stateMutability":"view","type":"function"},{"inputs":[{"internalType":"uint256","name":"jobId","type":"uint256"}],"name":"raiseDispute","outputs":[],"stateMutability":"nonpayable","type":"function"},{"inputs":[],"name":"renounceOwnership","outputs":[],"stateMutability":"nonpayable","type":"function"},{"inputs":[{"internalType":"address","name":"escrow_","type":"address"}],"name":"setEscrow","outputs":[],"stateMutability":"nonpayable","type":"function"},{"inputs":[{"internalType":"address","name":"ftsoConsumer","type":"address"}],"name":"setFTSO","outputs":[],"stateMutability":"nonpayable","type":"function"},{"inputs":[],"name":"totalJobs","outputs":[{"internalType":"uint256","name":"","type":"uint256"}],"stateMutability":"view","type":"function"},{"inputs":[{"internalType":"address","name":"newOwner","type":"address"}],"name":"transferOwnership","outputs":[],"stateMutability":"nonpayable","type":"function"}],"evm":{"bytecode":{"linkReferences":{},"object":"60806040526001805560016002553480156200001a57600080fd5b506040516200235c3803806200235c8339810160408190526200003d916200010d565b816001600160a01b0381166200006d57604051631e4fbdf760e01b81526000600482015260240160405180910390fd5b6200007881620000a0565b50600780546001600160a01b0319166001600160a01b03929092169190911790555062000145565b600080546001600160a01b038381166001600160a01b0319831681178455604051919092169283917f8be0079c531659141344cd1fd0a4f28419497f9722a3daafe3b4186f6b6457e09190a35050565b80516001600160a01b03811681146200010857600080fd5b919050565b600080604083850312156200012157600080fd5b6200012c83620000f0565b91506200013c60208401620000f0565b90509250929050565b61220780620001556000396000f3fe608060405234801561001057600080fd5b506004361061018e5760003560e01c8063840850d1116100de578063bf22c45711610097578063e2fdcc1711610071578063e2fdcc1714610399578063e5815731146103ac578063e98e8f3f146103bf578063f2fde38b146103df57600080fd5b8063bf22c45714610353578063c10c354614610373578063c641fc1d1461038657600080fd5b8063840850d1146102e35780638da5cb5b146102f657806395f104ec14610307578063a118c41a1461031a578063a5c1674e1461032d578063af163cbc1461034057600080fd5b80633c889e6f1161014b5780634485e119116101255780634485e119146102a2578063715018a6146102b557806378ea5ec5146102bd5780637db6b683146102d057600080fd5b80633c889e6f146102475780634162cc88146102675780634423c5f11461027a57600080fd5b806302e9d5e4146101935780630da0c022146101a8578063180aedf3146101d85780631ace87b3146102025780631dffa3dc146102145780632494280514610227575b600080fd5b6101a66101a1366004611ad2565b6103f2565b005b6007546101bb906001600160a01b031681565b6040516001600160a01b0390911681526020015b60405180910390f35b6101eb6101e6366004611af4565b6105f8565b6040516101cf9b9a99989796959493929190611b8b565b6006545b6040519081526020016101cf565b6101a6610222366004611af4565b6106f4565b61023a610235366004611af4565b6107b6565b6040516101cf9190611c0e565b61025a610255366004611af4565b610818565b6040516101cf9190611c52565b610206610275366004611af4565b610989565b61028d610288366004611af4565b6109aa565b6040516101cf99989796959493929190611ce0565b6102066102b0366004611af4565b610a8b565b6101a6610aff565b6101a66102cb366004611d5b565b610b13565b6102066102de366004611dc5565b610b3d565b6102066102f1366004611ad2565b610f05565b6000546001600160a01b03166101bb565b6101a6610315366004611af4565b610f36565b6101a6610328366004611ad2565b610fe1565b6101a661033b366004611af4565b611117565b61020661034e366004611e25565b61127b565b610366610361366004611af4565b61160c565b6040516101cf9190611e8b565b6101a6610381366004611d5b565b6117c3565b6101a6610394366004611f53565b6117ed565b6008546101bb906001600160a01b031681565b61023a6103ba366004611ad2565b611921565b6102066103cd366004611af4565b60009081526005602052604090205490565b6101a66103ed366004611d5b565b611a17565b600082815260036020526040902060018101546001600160a01b031633146104355760405162461bcd60e51b815260040161042c90611f7f565b60405180910390fd5b60006006820154600160401b900460ff16600581111561045757610457611b53565b146104745760405162461bcd60e51b815260040161042c90611fb6565b6000828152600460205260409020600181015484146104d55760405162461bcd60e51b815260206004820181905260248201527f466c6172654f72646572426f6f6b3a206269642f6a6f62206d69736d61746368604482015260640161042c565b600881015460ff16156105365760405162461bcd60e51b8152602060048201526024808201527f466c6172654f72646572426f6f6b3a2062696420616c726561647920616363656044820152631c1d195960e21b606482015260840161042c565b60088101805460ff191660011790556002808201805491840180546001600160a01b0319166001600160a01b0393841617905560068401805460ff60401b1916600160401b1790556009840185905554604051911690849086907fd04f845137f741f1b1fcb8758a097aa384274dde474ea57dc4b71e88f8625cf390600090a460028101546040516001600160a01b039091169085907f87347dee4386ac44f2c0bf5d058de67e2a08f526794bd25a6a73f159c82718ab90600090a350505050565b6003602081905260009182526040909120805460018201546002830154938301805492946001600160a01b039283169492169261063490611fed565b80601f016020809104026020016040519081016040528092919081815260200182805461066090611fed565b80156106ad5780601f10610682576101008083540402835291602001916106ad565b820191906000526020600020905b81548152906001019060200180831161069057829003601f168201915b5050505060048301546005840154600685015460078601546008870154600990970154959693959294506001600160401b03821693600160401b90920460ff16929091908b565b600081815260036020526040902060018101546001600160a01b0316331461072e5760405162461bcd60e51b815260040161042c90611f7f565b60006006820154600160401b900460ff16600581111561075057610750611b53565b1461076d5760405162461bcd60e51b815260040161042c90611fb6565b60068101805460ff60401b19166804000000000000000017905560405182907f58243f872c550ad02802199ade99eb4250f6bb19e9abbf2d3de7b969c0eb5e4f90600090a25050565b60008181526005602090815260409182902080548351818402810184019094528084526060939283018282801561080c57602002820191906000526020600020905b8154815260200190600101908083116107f8575b50505050509050919050565b610872604051806101200160405280600081526020016000815260200160006001600160a01b0316815260200160008152602001600081526020016000815260200160608152602001600081526020016000151581525090565b6000828152600460208181526040928390208351610120810185528154815260018201549281019290925260028101546001600160a01b03169382019390935260038301546060820152908201546080820152600582015460a082015260068201805491929160c0840191906108e790611fed565b80601f016020809104026020016040519081016040528092919081815260200182805461091390611fed565b80156109605780601f1061093557610100808354040283529160200191610960565b820191906000526020600020905b81548152906001019060200180831161094357829003601f168201915b50505091835250506007820154602082015260089091015460ff16151560409091015292915050565b6006818154811061099957600080fd5b600091825260209091200154905081565b60046020819052600091825260409091208054600182015460028301546003840154948401546005850154600686018054959794966001600160a01b0390941695929391926109f890611fed565b80601f0160208091040260200160405190810160405280929190818152602001828054610a2490611fed565b8015610a715780601f10610a4657610100808354040283529160200191610a71565b820191906000526020600020905b815481529060010190602001808311610a5457829003601f168201915b50505050600783015460089093015491929160ff16905089565b6007546040516308d2e52d60e41b8152600481018390526000916001600160a01b031690638d2e52d090602401602060405180830381865afa158015610ad5573d6000803e3d6000fd5b505050506040513d601f19601f82011682018060405250810190610af99190612027565b92915050565b610b07611a55565b610b116000611a82565b565b610b1b611a55565b600780546001600160a01b0319166001600160a01b0392909216919091179055565b6000858152600360205260408120816006820154600160401b900460ff166005811115610b6c57610b6c611b53565b14610b895760405162461bcd60e51b815260040161042c90611fb6565b60068101546001600160401b03164210610be55760405162461bcd60e51b815260206004820152601d60248201527f466c6172654f72646572426f6f6b3a207061737420646561646c696e65000000604482015260640161042c565b60008611610c355760405162461bcd60e51b815260206004820152601860248201527f466c6172654f72646572426f6f6b3a207a65726f206269640000000000000000604482015260640161042c565b8060040154861115610c945760405162461bcd60e51b815260206004820152602260248201527f466c6172654f72646572426f6f6b3a2062696420657863656564732062756467604482015261195d60f21b606482015260840161042c565b60018101546001600160a01b03163303610cfa5760405162461bcd60e51b815260206004820152602160248201527f466c6172654f72646572426f6f6b3a20706f737465722063616e6e6f742062696044820152601960fa1b606482015260840161042c565b6007546040516308d2e52d60e41b8152600481018890526000916001600160a01b031690638d2e52d090602401602060405180830381865afa158015610d44573d6000803e3d6000fd5b505050506040513d601f19601f82011682018060405250810190610d689190612027565b600280549192506000610d7a83612056565b919050559250604051806101200160405280848152602001898152602001336001600160a01b0316815260200188815260200182815260200187815260200186868080601f0160208091040260200160405190810160405280939291908181526020018383808284376000920182905250938552505042602080850191909152604093840183905287835260048082529284902085518155908501516001820155928401516002840180546001600160a01b0319166001600160a01b03909216919091179055506060830151600383015560808301519082015560a0820151600582015560c08201516006820190610e7290826120d6565b5060e08201516007820155610100909101516008909101805460ff191691151591909117905560008881526005602090815260408083208054600181018255908452928290209092018590558151898152908101839052339185918b917f34a9aee5f476df7f218e672a92a2cb667ee9908bc59d1b2fa2b2a882f715775d910160405180910390a4505095945050505050565b60056020528160005260406000208181548110610f2157600080fd5b90600052602060002001600091509150505481565b6008546001600160a01b03163314610f905760405162461bcd60e51b815260206004820152601a60248201527f466c6172654f72646572426f6f6b3a206e6f7420657363726f77000000000000604482015260640161042c565b600081815260036020526040808220600601805460ff60401b1916680300000000000000001790555182917f8dac48a311cb7b57ad6fd8483f454350a387b7ec8701a2af38bb6c824d0cb5cc91a250565b600082815260036020526040902060028101546001600160a01b0316331461104b5760405162461bcd60e51b815260206004820152601c60248201527f466c6172654f72646572426f6f6b3a206e6f742070726f766964657200000000604482015260640161042c565b60016006820154600160401b900460ff16600581111561106d5761106d611b53565b146110ba5760405162461bcd60e51b815260206004820152601c60248201527f466c6172654f72646572426f6f6b3a206e6f742061737369676e656400000000604482015260640161042c565b6006810180546802000000000000000060ff60401b199091161790556007810182905560405182815283907f45c386dc6524a2d9fe630455323c6a39f557c52ab01e886deee20a0b538147ac9060200160405180910390a2505050565b600081815260036020526040902060018101546001600160a01b031633148061114c575060028101546001600160a01b031633145b6111985760405162461bcd60e51b815260206004820152601960248201527f466c6172654f72646572426f6f6b3a206e6f7420706172747900000000000000604482015260640161042c565b60016006820154600160401b900460ff1660058111156111ba576111ba611b53565b14806111e5575060026006820154600160401b900460ff1660058111156111e3576111e3611b53565b145b6112315760405162461bcd60e51b815260206004820152601e60248201527f466c6172654f72646572426f6f6b3a2063616e6e6f7420646973707574650000604482015260640161042c565b60068101805460ff60401b191668050000000000000000179055604051339083907e7a04c23fac86b9f00290f402ccec895256f0b46ad331c80038b783acbfe41990600090a35050565b60008083116112cc5760405162461bcd60e51b815260206004820152601b60248201527f466c6172654f72646572426f6f6b3a207a65726f206275646765740000000000604482015260640161042c565b42826001600160401b0316116113245760405162461bcd60e51b815260206004820152601d60248201527f466c6172654f72646572426f6f6b3a207061737420646561646c696e65000000604482015260640161042c565b6007546040516308d2e52d60e41b8152600481018590526000916001600160a01b031690638d2e52d090602401602060405180830381865afa15801561136e573d6000803e3d6000fd5b505050506040513d601f19601f820116820180604052508101906113929190612027565b9050600081116113e45760405162461bcd60e51b815260206004820181905260248201527f466c6172654f72646572426f6f6b3a204654534f207072696365206572726f72604482015260640161042c565b600180549060006113f483612056565b919050559150604051806101600160405280838152602001336001600160a01b0316815260200160006001600160a01b0316815260200187878080601f016020809104026020016040519081016040528093929190818152602001838380828437600092018290525093855250505060208201879052604082018490526001600160401b038616606083015260809091019081526000602080830182905242604080850191909152606093840183905286835260038083529281902085518155918501516001830180546001600160a01b03199081166001600160a01b039384161790915591860151600284018054909316911617905591830151908201906114fd90826120d6565b506080820151600482015560a082015160058083019190915560c08301516006830180546001600160401b0390921667ffffffffffffffff1983168117825560e086015193919268ffffffffffffffffff19161790600160401b90849081111561156957611569611b53565b02179055506101008201516007820155610120820151600882015561014090910151600990910155600680546001810182556000919091527ff652222313e28459528d920b65115c16c04f3efc82aaedc97be59f3f377c0d3f018290556040805185815260208101839052339184917f5aa8f193b1e3d39219f576507abb963f6683db57234d0de20d38af671e7e1b54910160405180910390a350949350505050565b60408051610160810182526000808252602082018190529181018290526060808201526080810182905260a0810182905260c0810182905260e08101829052610100810182905261012081018290526101408101919091526000828152600360208181526040928390208351610160810185528154815260018201546001600160a01b039081169382019390935260028201549092169382019390935290820180549192916060840191906116c090611fed565b80601f01602080910402602001604051908101604052809291908181526020018280546116ec90611fed565b80156117395780601f1061170e57610100808354040283529160200191611739565b820191906000526020600020905b81548152906001019060200180831161171c57829003601f168201915b505050918352505060048201546020820152600580830154604083015260068301546001600160401b0381166060840152608090920191600160401b900460ff169081111561178a5761178a611b53565b600581111561179b5761179b611b53565b8152600782015460208201526008820154604082015260099091015460609091015292915050565b6117cb611a55565b600880546001600160a01b0319166001600160a01b0392909216919091179055565b600082815260036020526040902060018101546001600160a01b031633146118275760405162461bcd60e51b815260040161042c90611f7f565b60006006820154600160401b900460ff16600581111561184957611849611b53565b146118665760405162461bcd60e51b815260040161042c90611fb6565b6001600160a01b0382166118bc5760405162461bcd60e51b815260206004820152601d60248201527f466c6172654f72646572426f6f6b3a207a65726f2070726f7669646572000000604482015260640161042c565b6002810180546001600160a01b0319166001600160a01b03841690811790915560068201805460ff60401b1916600160401b17905560405184907f87347dee4386ac44f2c0bf5d058de67e2a08f526794bd25a6a73f159c82718ab90600090a3505050565b600654606090808410611944575050604080516000815260208101909152610af9565b6000816119518587612195565b11611965576119608486612195565b611967565b815b905061197385826121a8565b6001600160401b0381111561198a5761198a61206f565b6040519080825280602002602001820160405280156119b3578160200160208202803683370190505b509250845b81811015611a0e57600681815481106119d3576119d36121bb565b90600052602060002001548487836119eb91906121a8565b815181106119fb576119fb6121bb565b60209081029190910101526001016119b8565b50505092915050565b611a1f611a55565b6001600160a01b038116611a4957604051631e4fbdf760e01b81526000600482015260240161042c565b611a5281611a82565b50565b6000546001600160a01b03163314610b115760405163118cdaa760e01b815233600482015260240161042c565b600080546001600160a01b038381166001600160a01b0319831681178455604051919092169283917f8be0079c531659141344cd1fd0a4f28419497f9722a3daafe3b4186f6b6457e09190a35050565b60008060408385031215611ae557600080fd5b50508035926020909101359150565b600060208284031215611b0657600080fd5b5035919050565b6000815180845260005b81811015611b3357602081850181015186830182015201611b17565b506000602082860101526020601f19601f83011685010191505092915050565b634e487b7160e01b600052602160045260246000fd5b60068110611b8757634e487b7160e01b600052602160045260246000fd5b9052565b8b81526001600160a01b038b811660208301528a16604082015261016060608201819052600090611bbe8382018c611b0d565b9150508860808301528760a08301526001600160401b03871660c0830152611be960e0830187611b69565b8461010083015283610120830152826101408301529c9b505050505050505050505050565b6020808252825182820181905260009190848201906040850190845b81811015611c4657835183529284019291840191600101611c2a565b50909695505050505050565b60208152815160208201526020820151604082015260006040830151611c8360608401826001600160a01b03169052565b5060608301516080830152608083015160a083015260a083015160c083015260c08301516101208060e0850152611cbe610140850183611b0d565b60e0860151610100868101919091529095015115159301929092525090919050565b60006101208b83528a602084015260018060a01b038a1660408401528860608401528760808401528660a08401528060c0840152611d2081840187611b0d565b60e0840195909552505090151561010090910152979650505050505050565b80356001600160a01b0381168114611d5657600080fd5b919050565b600060208284031215611d6d57600080fd5b611d7682611d3f565b9392505050565b60008083601f840112611d8f57600080fd5b5081356001600160401b03811115611da657600080fd5b602083019150836020828501011115611dbe57600080fd5b9250929050565b600080600080600060808688031215611ddd57600080fd5b85359450602086013593506040860135925060608601356001600160401b03811115611e0857600080fd5b611e1488828901611d7d565b969995985093965092949392505050565b60008060008060608587031215611e3b57600080fd5b84356001600160401b0380821115611e5257600080fd5b611e5e88838901611d7d565b909650945060208701359350604087013591508082168214611e7f57600080fd5b50939692955090935050565b602081528151602082015260006020830151611eb260408401826001600160a01b03169052565b5060408301516001600160a01b0381166060840152506060830151610160806080850152611ee4610180850183611b0d565b9150608085015160a085015260a085015160c085015260c0850151611f1460e08601826001600160401b03169052565b5060e0850151610100611f2981870183611b69565b86015161012086810191909152860151610140808701919091529095015193019290925250919050565b60008060408385031215611f6657600080fd5b82359150611f7660208401611d3f565b90509250929050565b6020808252601a908201527f466c6172654f72646572426f6f6b3a206e6f7420706f73746572000000000000604082015260600190565b60208082526018908201527f466c6172654f72646572426f6f6b3a206e6f74206f70656e0000000000000000604082015260600190565b600181811c9082168061200157607f821691505b60208210810361202157634e487b7160e01b600052602260045260246000fd5b50919050565b60006020828403121561203957600080fd5b5051919050565b634e487b7160e01b600052601160045260246000fd5b60006001820161206857612068612040565b5060010190565b634e487b7160e01b600052604160045260246000fd5b601f8211156120d1576000816000526020600020601f850160051c810160208610156120ae5750805b601f850160051c820191505b818110156120cd578281556001016120ba565b5050505b505050565b81516001600160401b038111156120ef576120ef61206f565b612103816120fd8454611fed565b84612085565b602080601f83116001811461213857600084156121205750858301515b600019600386901b1c1916600185901b1785556120cd565b600085815260208120601f198616915b8281101561216757888601518255948401946001909101908401612148565b50858210156121855787850151600019600388901b60f8161c191681555b5050505050600190811b01905550565b80820180821115610af957610af9612040565b81810381811115610af957610af9612040565b634e487b7160e01b600052603260045260246000fdfea2646970667358221220a375de79f634e2bdead5aec742e7f562d32eeab99a19945b18e4bfc8a2eb46ac64736f6c63430008180033","opcodes":"PUSH1 0x80 PUSH1 0x40 MSTORE PUSH1 0x1 DUP1 SSTORE PUSH1 0x1 PUSH1 0x2 SSTORE CALLVALUE DUP1 ISZERO PUSH3 0x1A JUMPI PUSH1 0x0 DUP1 REVERT JUMPDEST POP PUSH1 0x40 MLOAD PUSH3 0x235C CODESIZE SUB DUP1 PUSH3 0x235C DUP4 CODECOPY DUP2 ADD PUSH1 0x40 DUP2 SWAP1 MSTORE PUSH3 0x3D SWAP2 PUSH3 0x10D JUMP JUMPDEST DUP2 PUSH1 0x1 PUSH1 0x1 PUSH1 0xA0 SHL SUB DUP2 AND PUSH3 0x6D JUMPI PUSH1 0x40 MLOAD PUSH4 0x1E4FBDF7 PUSH1 0xE0 SHL DUP2 MSTORE PUSH1 0x0 PUSH1 0x4 DUP3 ADD MSTORE PUSH1 0x24 ADD PUSH1 0x40 MLOAD DUP1 SWAP2 SUB SWAP1 REVERT JUMPDEST PUSH3 0x78 DUP2 PUSH3 0xA0 JUMP JUMPDEST POP PUSH1 0x7 DUP1 SLOAD PUSH1 0x1 PUSH1 0x1 PUSH1 0xA0 SHL SUB NOT AND PUSH1 0x1 PUSH1 0x1 PUSH1 0xA0 SHL SUB SWAP3 SWAP1 SWAP3 AND SWAP2 SWAP1 SWAP2 OR SWAP1 SSTORE POP PUSH3 0x145 JUMP JUMPDEST PUSH1 0x0 DUP1 SLOAD PUSH1 0x1 PUSH1 0x1 PUSH1 0xA0 SHL SUB DUP4 DUP2 AND PUSH1 0x1 PUSH1 0x1 PUSH1 0xA0 SHL SUB NOT DUP4 AND DUP2 OR DUP5 SSTORE PUSH1 0x40 MLOAD SWAP2 SWAP1 SWAP3 AND SWAP3 DUP4 SWAP2 PUSH32 0x8BE0079C531659141344CD1FD0A4F28419497F9722A3DAAFE3B4186F6B6457E0 SWAP2 SWAP1 LOG3 POP POP JUMP JUMPDEST DUP1 MLOAD PUSH1 0x1 PUSH1 0x1 PUSH1 0xA0 SHL SUB DUP2 AND DUP2 EQ PUSH3 0x108 JUMPI PUSH1 0x0 DUP1 REVERT JUMPDEST SWAP2 SWAP1 POP JUMP JUMPDEST PUSH1 0x0 DUP1 PUSH1 0x40 DUP4 DUP6 SUB SLT ISZERO PUSH3 0x121 JUMPI PUSH1 0x0 DUP1 REVERT JUMPDEST PUSH3 0x12C DUP4 PUSH3 0xF0 JUMP JUMPDEST SWAP2 POP PUSH3 0x13C PUSH1 0x20 DUP5 ADD PUSH3 0xF0 JUMP JUMPDEST SWAP1 POP SWAP3 POP SWAP3 SWAP1 POP JUMP JUMPDEST PUSH2 0x2207 DUP1 PUSH3 0x155 PUSH1 0x0 CODECOPY PUSH1 0x0 RETURN INVALID PUSH1 0x80 PUSH1 0x40 MSTORE CALLVALUE DUP1 ISZERO PUSH2 0x10 JUMPI PUSH1 0x0 DUP1 REVERT JUMPDEST POP PUSH1 0x4 CALLDATASIZE LT PUSH2 0x18E JUMPI PUSH1 0x0 CALLDATALOAD PUSH1 0xE0 SHR DUP1 PUSH4 0x840850D1 GT PUSH2 0xDE JUMPI DUP1 PUSH4 0xBF22C457 GT PUSH2 0x97 JUMPI DUP1 PUSH4 0xE2FDCC17 GT PUSH2 0x71 JUMPI DUP1 PUSH4 0xE2FDCC17 EQ PUSH2 0x399 JUMPI DUP1 PUSH4 0xE5815731 EQ PUSH2 0x3AC JUMPI DUP1 PUSH4 0xE98E8F3F EQ PUSH2 0x3BF JUMPI DUP1 PUSH4 0xF2FDE38B EQ PUSH2 0x3DF JUMPI PUSH1 0x0 DUP1 REVERT JUMPDEST DUP1 PUSH4 0xBF22C457 EQ PUSH2 0x353 JUMPI DUP1 PUSH4 0xC10C3546 EQ PUSH2 0x373 JUMPI DUP1 PUSH4 0xC641FC1D EQ PUSH2 0x386 JUMPI PUSH1 0x0 DUP1 REVERT JUMPDEST DUP1 PUSH4 0x840850D1 EQ PUSH2 0x2E3 JUMPI DUP1 PUSH4 0x8DA5CB5B EQ PUSH2 0x2F6 JUMPI DUP1 PUSH4 0x95F104EC EQ PUSH2 0x307 JUMPI DUP1 PUSH4 0xA118C41A EQ PUSH2 0x31A JUMPI DUP1 PUSH4 0xA5C1674E EQ PUSH2 0x32D JUMPI DUP1 PUSH4 0xAF163CBC EQ PUSH2 0x340 JUMPI PUSH1 0x0 DUP1 REVERT JUMPDEST DUP1 PUSH4 0x3C889E6F GT PUSH2 0x14B JUMPI DUP1 PUSH4 0x4485E119 GT PUSH2 0x125 JUMPI DUP1 PUSH4 0x4485E119 EQ PUSH2 0x2A2 JUMPI DUP1 PUSH4 0x715018A6 EQ PUSH2 0x2B5 JUMPI DUP1 PUSH4 0x78EA5EC5 EQ PUSH2 0x2BD JUMPI DUP1 PUSH4 0x7DB6B683 EQ PUSH2 0x2D0 JUMPI PUSH1 0x0 DUP1 REVERT JUMPDEST DUP1 PUSH4 0x3C889E6F EQ PUSH2 0x247 JUMPI DUP1 PUSH4 0x4162CC88 EQ PUSH2 0x267 JUMPI DUP1 PUSH4 0x4423C5F1 EQ PUSH2 0x27A JUMPI PUSH1 0x0 DUP1 REVERT JUMPDEST DUP1 PUSH4 0x2E9D5E4 EQ PUSH2 0x193 JUMPI DUP1 PUSH4 0xDA0C022 EQ PUSH2 0x1A8 JUMPI DUP1 PUSH4 0x180AEDF3 EQ PUSH2 0x1D8 JUMPI DUP1 PUSH4 0x1ACE87B3 EQ PUSH2 0x202 JUMPI DUP1 PUSH4 0x1DFFA3DC EQ PUSH2 0x214 JUMPI DUP1 PUSH4 0x24942805 EQ PUSH2 0x227 JUMPI JUMPDEST PUSH1 0x0 DUP1 REVERT JUMPDEST PUSH2 0x1A6 PUSH2 0x1A1 CALLDATASIZE PUSH1 0x4 PUSH2 0x1AD2 JUMP JUMPDEST PUSH2 0x3F2 JUMP JUMPDEST STOP JUMPDEST PUSH1 0x7 SLOAD PUSH2 0x1BB SWAP1 PUSH1 0x1 PUSH1 0x1 PUSH1 0xA0 SHL SUB AND DUP2 JUMP JUMPDEST PUSH1 0x40 MLOAD PUSH1 0x1 PUSH1 0x1 PUSH1 0xA0 SHL SUB SWAP1 SWAP2 AND DUP2 MSTORE PUSH1 0x20 ADD JUMPDEST PUSH1 0x40 MLOAD DUP1 SWAP2 SUB SWAP1 RETURN JUMPDEST PUSH2 0x1EB PUSH2 0x1E6 CALLDATASIZE PUSH1 0x4 PUSH2 0x1AF4 JUMP JUMPDEST PUSH2 0x5F8 JUMP JUMPDEST PUSH1 0x40 MLOAD PUSH2 0x1CF SWAP12 SWAP11 SWAP10 SWAP9 SWAP8 SWAP7 SWAP6 SWAP5 SWAP4 SWAP3 SWAP2 SWAP1 PUSH2 0x1B8B JUMP JUMPDEST PUSH1 0x6 SLOAD JUMPDEST PUSH1 0x40 MLOAD SWAP1 DUP2 MSTORE PUSH1 0x20 ADD PUSH2 0x1CF JUMP JUMPDEST PUSH2 0x1A6 PUSH2 0x222 CALLDATASIZE PUSH1 0x4 PUSH2 0x1AF4 JUMP JUMPDEST PUSH2 0x6F4 JUMP JUMPDEST PUSH2 0x23A PUSH2 0x235 CALLDATASIZE PUSH1 0x4 PUSH2 0x1AF4 JUMP JUMPDEST PUSH2 0x7B6 JUMP JUMPDEST PUSH1 0x40 MLOAD PUSH2 0x1CF SWAP2 SWAP1 PUSH2 0x1C0E JUMP JUMPDEST PUSH2 0x25A PUSH2 0x255 CALLDATASIZE PUSH1 0x4 PUSH2 0x1AF4 JUMP JUMPDEST PUSH2 0x818 JUMP JUMPDEST PUSH1 0x40 MLOAD PUSH2 0x1CF SWAP2 SWAP1 PUSH2 0x1C52 JUMP JUMPDEST PUSH2 0x206 PUSH2 0x275 CALLDATASIZE PUSH1 0x4 PUSH2 0x1AF4 JUMP JUMPDEST PUSH2 0x989 JUMP JUMPDEST PUSH2 0x28D PUSH2 0x288 CALLDATASIZE PUSH1 0x4 PUSH2 0x1AF4 JUMP JUMPDEST PUSH2 0x9AA JUMP JUMPDEST PUSH1 0x40 MLOAD PUSH2 0x1CF SWAP10 SWAP9 SWAP8 SWAP7 SWAP6 SWAP5 SWAP4 SWAP3 SWAP2 SWAP1 PUSH2 0x1CE0 JUMP JUMPDEST PUSH2 0x206 PUSH2 0x2B0 CALLDATASIZE PUSH1 0x4 PUSH2 0x1AF4 JUMP JUMPDEST PUSH2 0xA8B JUMP JUMPDEST PUSH2 0x1A6 PUSH2 0xAFF JUMP JUMPDEST PUSH2 0x1A6 PUSH2 0x2CB CALLDATASIZE PUSH1 0x4 PUSH2 0x1D5B JUMP JUMPDEST PUSH2 0xB13 JUMP JUMPDEST PUSH2 0x206 PUSH2 0x2DE CALLDATASIZE PUSH1 0x4 PUSH2 0x1DC5 JUMP JUMPDEST PUSH2 0xB3D JUMP JUMPDEST PUSH2 0x206 PUSH2 0x2F1 CALLDATASIZE PUSH1 0x4 PUSH2 0x1AD2 JUMP JUMPDEST PUSH2 0xF05 JUMP JUMPDEST PUSH1 0x0 SLOAD PUSH1 0x1 PUSH1 0x1 PUSH1 0xA0 SHL SUB AND PUSH2 0x1BB JUMP JUMPDEST PUSH2 0x1A6 PUSH2 0x315 CALLDATASIZE PUSH1 0x4 PUSH2 0x1AF4 JUMP JUMPDEST PUSH2 0xF36 JUMP JUMPDEST PUSH2 0x1A6 PUSH2 0x328 CALLDATASIZE PUSH1 0x4 PUSH2 0x1AD2 JUMP JUMPDEST PUSH2 0xFE1 JUMP JUMPDEST PUSH2 0x1A6 PUSH2 0x33B CALLDATASIZE PUSH1 0x4 PUSH2 0x1AF4 JUMP JUMPDEST PUSH2 0x1117 JUMP JUMPDEST PUSH2 0x206 PUSH2 0x34E CALLDATASIZE PUSH1 0x4 PUSH2 0x1E25 JUMP JUMPDEST PUSH2 0x127B JUMP JUMPDEST PUSH2 0x366 PUSH2 0x361 CALLDATASIZE PUSH1 0x4 PUSH2 0x1AF4 JUMP JUMPDEST PUSH2 0x160C JUMP JUMPDEST PUSH1 0x40 MLOAD PUSH2 0x1CF SWAP2 SWAP1 PUSH2 0x1E8B JUMP JUMPDEST PUSH2 0x1A6 PUSH2 0x381 CALLDATASIZE PUSH1 0x4 PUSH2 0x1D5B JUMP JUMPDEST PUSH2 0x17C3 JUMP JUMPDEST PUSH2 0x1A6 PUSH2 0x394 CALLDATASIZE PUSH1 0x4 PUSH2 0x1F53 JUMP JUMPDEST PUSH2 0x17ED JUMP JUMPDEST PUSH1 0x8 SLOAD PUSH2 0x1BB SWAP1 PUSH1 0x1 PUSH1 0x1 PUSH1 0xA0 SHL SUB AND DUP2 JUMP JUMPDEST PUSH2 0x23A PUSH2 0x3BA CALLDATASIZE PUSH1 0x4 PUSH2 0x1AD2 JUMP JUMPDEST PUSH2 0x1921 JUMP JUMPDEST PUSH2 0x206 PUSH2 0x3CD CALLDATASIZE PUSH1 0x4 PUSH2 0x1AF4 JUMP JUMPDEST PUSH1 0x0 SWAP1 DUP2 MSTORE PUSH1 0x5 PUSH1 0x20 MSTORE PUSH1 0x40 SWAP1 KECCAK256 SLOAD SWAP1 JUMP JUMPDEST PUSH2 0x1A6 PUSH2 0x3ED CALLDATASIZE PUSH1 0x4 PUSH2 0x1D5B JUMP JUMPDEST PUSH2 0x1A17 JUMP JUMPDEST PUSH1 0x0 DUP3 DUP2 MSTORE PUSH1 0x3 PUSH1 0x20 MSTORE PUSH1 0x40 SWAP1 KECCAK256 PUSH1 0x1 DUP2 ADD SLOAD PUSH1 0x1 PUSH1 0x1 PUSH1 0xA0 SHL SUB AND CALLER EQ PUSH2 0x435 JUMPI PUSH1 0x40 MLOAD PUSH3 0x461BCD PUSH1 0xE5 SHL DUP2 MSTORE PUSH1 0x4 ADD PUSH2 0x42C SWAP1 PUSH2 0x1F7F JUMP JUMPDEST PUSH1 0x40 MLOAD DUP1 SWAP2 SUB SWAP1 REVERT JUMPDEST PUSH1 0x0 PUSH1 0x6 DUP3 ADD SLOAD PUSH1 0x1 PUSH1 0x40 SHL SWAP1 DIV PUSH1 0xFF AND PUSH1 0x5 DUP2 GT ISZERO PUSH2 0x457 JUMPI PUSH2 0x457 PUSH2 0x1B53 JUMP JUMPDEST EQ PUSH2 0x474 JUMPI PUSH1 0x40 MLOAD PUSH3 0x461BCD PUSH1 0xE5 SHL DUP2 MSTORE PUSH1 0x4 ADD PUSH2 0x42C SWAP1 PUSH2 0x1FB6 JUMP JUMPDEST PUSH1 0x0 DUP3 DUP2 MSTORE PUSH1 0x4 PUSH1 0x20 MSTORE PUSH1 0x40 SWAP1 KECCAK256 PUSH1 0x1 DUP2 ADD SLOAD DUP5 EQ PUSH2 0x4D5 JUMPI PUSH1 0x40 MLOAD PUSH3 0x461BCD PUSH1 0xE5 SHL DUP2 MSTORE PUSH1 0x20 PUSH1 0x4 DUP3 ADD DUP2 SWAP1 MSTORE PUSH1 0x24 DUP3 ADD MSTORE PUSH32 0x466C6172654F72646572426F6F6B3A206269642F6A6F62206D69736D61746368 PUSH1 0x44 DUP3 ADD MSTORE PUSH1 0x64 ADD PUSH2 0x42C JUMP JUMPDEST PUSH1 0x8 DUP2 ADD SLOAD PUSH1 0xFF AND ISZERO PUSH2 0x536 JUMPI PUSH1 0x40 MLOAD PUSH3 0x461BCD PUSH1 0xE5 SHL DUP2 MSTORE PUSH1 0x20 PUSH1 0x4 DUP3 ADD MSTORE PUSH1 0x24 DUP1 DUP3 ADD MSTORE PUSH32 0x466C6172654F72646572426F6F6B3A2062696420616C72656164792061636365 PUSH1 0x44 DUP3 ADD MSTORE PUSH4 0x1C1D1959 PUSH1 0xE2 SHL PUSH1 0x64 DUP3 ADD MSTORE PUSH1 0x84 ADD PUSH2 0x42C JUMP JUMPDEST PUSH1 0x8 DUP2 ADD DUP1 SLOAD PUSH1 0xFF NOT AND PUSH1 0x1 OR SWAP1 SSTORE PUSH1 0x2 DUP1 DUP3 ADD DUP1 SLOAD SWAP2 DUP5 ADD DUP1 SLOAD PUSH1 0x1 PUSH1 0x1 PUSH1 0xA0 SHL SUB NOT AND PUSH1 0x1 PUSH1 0x1 PUSH1 0xA0 SHL SUB SWAP4 DUP5 AND OR SWAP1 SSTORE PUSH1 0x6 DUP5 ADD DUP1 SLOAD PUSH1 0xFF PUSH1 0x40 SHL NOT AND PUSH1 0x1 PUSH1 0x40 SHL OR SWAP1 SSTORE PUSH1 0x9 DUP5 ADD DUP6 SWAP1 SSTORE SLOAD PUSH1 0x40 MLOAD SWAP2 AND SWAP1 DUP5 SWAP1 DUP7 SWAP1 PUSH32 0xD04F845137F741F1B1FCB8758A097AA384274DDE474EA57DC4B71E88F8625CF3 SWAP1 PUSH1 0x0 SWAP1 LOG4 PUSH1 0x2 DUP2 ADD SLOAD PUSH1 0x40 MLOAD PUSH1 0x1 PUSH1 0x1 PUSH1 0xA0 SHL SUB SWAP1 SWAP2 AND SWAP1 DUP6 SWAP1 PUSH32 0x87347DEE4386AC44F2C0BF5D058DE67E2A08F526794BD25A6A73F159C82718AB SWAP1 PUSH1 0x0 SWAP1 LOG3 POP POP POP POP JUMP JUMPDEST PUSH1 0x3 PUSH1 0x20 DUP2 SWAP1 MSTORE PUSH1 0x0 SWAP2 DUP3 MSTORE PUSH1 0x40 SWAP1 SWAP2 KECCAK256 DUP1 SLOAD PUSH1 0x1 DUP3 ADD SLOAD PUSH1 0x2 DUP4 ADD SLOAD SWAP4 DUP4 ADD DUP1 SLOAD SWAP3 SWAP5 PUSH1 0x1 PUSH1 0x1 PUSH1 0xA0 SHL SUB SWAP3 DUP4 AND SWAP5 SWAP3 AND SWAP3 PUSH2 0x634 SWAP1 PUSH2 0x1FED JUMP JUMPDEST DUP1 PUSH1 0x1F ADD PUSH1 0x20 DUP1 SWAP2 DIV MUL PUSH1 0x20 ADD PUSH1 0x40 MLOAD SWAP1 DUP2 ADD PUSH1 0x40 MSTORE DUP1 SWAP3 SWAP2 SWAP1 DUP2 DUP2 MSTORE PUSH1 0x20 ADD DUP3 DUP1 SLOAD PUSH2 0x660 SWAP1 PUSH2 0x1FED JUMP JUMPDEST DUP1 ISZERO PUSH2 0x6AD JUMPI DUP1 PUSH1 0x1F LT PUSH2 0x682 JUMPI PUSH2 0x100 DUP1 DUP4 SLOAD DIV MUL DUP4 MSTORE SWAP2 PUSH1 0x20 ADD SWAP2 PUSH2 0x6AD JUMP JUMPDEST DUP3 ADD SWAP2 SWAP1 PUSH1 0x0 MSTORE PUSH1 0x20 PUSH1 0x0 KECCAK256 SWAP1 JUMPDEST DUP2 SLOAD DUP2 MSTORE SWAP1 PUSH1 0x1 ADD SWAP1 PUSH1 0x20 ADD DUP1 DUP4 GT PUSH2 0x690 JUMPI DUP3 SWAP1 SUB PUSH1 0x1F AND DUP3 ADD SWAP2 JUMPDEST POP POP POP POP PUSH1 0x4 DUP4 ADD SLOAD PUSH1 0x5 DUP5 ADD SLOAD PUSH1 0x6 DUP6 ADD SLOAD PUSH1 0x7 DUP7 ADD SLOAD PUSH1 0x8 DUP8 ADD SLOAD PUSH1 0x9 SWAP1 SWAP8 ADD SLOAD SWAP6 SWAP7 SWAP4 SWAP6 SWAP3 SWAP5 POP PUSH1 0x1 PUSH1 0x1 PUSH1 0x40 SHL SUB DUP3 AND SWAP4 PUSH1 0x1 PUSH1 0x40 SHL SWAP1 SWAP3 DIV PUSH1 0xFF AND SWAP3 SWAP1 SWAP2 SWAP1 DUP12 JUMP JUMPDEST PUSH1 0x0 DUP2 DUP2 MSTORE PUSH1 0x3 PUSH1 0x20 MSTORE PUSH1 0x40 SWAP1 KECCAK256 PUSH1 0x1 DUP2 ADD SLOAD PUSH1 0x1 PUSH1 0x1 PUSH1 0xA0 SHL SUB AND CALLER EQ PUSH2 0x72E JUMPI PUSH1 0x40 MLOAD PUSH3 0x461BCD PUSH1 0xE5 SHL DUP2 MSTORE PUSH1 0x4 ADD PUSH2 0x42C SWAP1 PUSH2 0x1F7F JUMP JUMPDEST PUSH1 0x0 PUSH1 0x6 DUP3 ADD SLOAD PUSH1 0x1 PUSH1 0x40 SHL SWAP1 DIV PUSH1 0xFF AND PUSH1 0x5 DUP2 GT ISZERO PUSH2 0x750 JUMPI PUSH2 0x750 PUSH2 0x1B53 JUMP JUMPDEST EQ PUSH2 0x76D JUMPI PUSH1 0x40 MLOAD PUSH3 0x461BCD PUSH1 0xE5 SHL DUP2 MSTORE PUSH1 0x4 ADD PUSH2 0x42C SWAP1 PUSH2 0x1FB6 JUMP JUMPDEST PUSH1 0x6 DUP2 ADD DUP1 SLOAD PUSH1 0xFF PUSH1 0x40 SHL NOT AND PUSH9 0x40000000000000000 OR SWAP1 SSTORE PUSH1 0x40 MLOAD DUP3 SWAP1 PUSH32 0x58243F872C550AD02802199ADE99EB4250F6BB19E9ABBF2D3DE7B969C0EB5E4F SWAP1 PUSH1 0x0 SWAP1 LOG2 POP POP JUMP JUMPDEST PUSH1 0x0 DUP2 DUP2 MSTORE PUSH1 0x5 PUSH1 0x20 SWAP1 DUP2 MSTORE PUSH1 0x40 SWAP2 DUP3 SWAP1 KECCAK256 DUP1 SLOAD DUP4 MLOAD DUP2 DUP5 MUL DUP2 ADD DUP5 ADD SWAP1 SWAP5 MSTORE DUP1 DUP5 MSTORE PUSH1 0x60 SWAP4 SWAP3 DUP4 ADD DUP3 DUP3 DUP1 ISZERO PUSH2 0x80C JUMPI PUSH1 0x20 MUL DUP3 ADD SWAP2 SWAP1 PUSH1 0x0 MSTORE PUSH1 0x20 PUSH1 0x0 KECCAK256 SWAP1 JUMPDEST DUP2 SLOAD DUP2 MSTORE PUSH1 0x20 ADD SWAP1 PUSH1 0x1 ADD SWAP1 DUP1 DUP4 GT PUSH2 0x7F8 JUMPI JUMPDEST POP POP POP POP POP SWAP1 POP SWAP2 SWAP1 POP JUMP JUMPDEST PUSH2 0x872 PUSH1 0x40 MLOAD DUP1 PUSH2 0x120 ADD PUSH1 0x40 MSTORE DUP1 PUSH1 0x0 DUP2 MSTORE PUSH1 0x20 ADD PUSH1 0x0 DUP2 MSTORE PUSH1 0x20 ADD PUSH1 0x0 PUSH1 0x1 PUSH1 0x1 PUSH1 0xA0 SHL SUB AND DUP2 MSTORE PUSH1 0x20 ADD PUSH1 0x0 DUP2 MSTORE PUSH1 0x20 ADD PUSH1 0x0 DUP2 MSTORE PUSH1 0x20 ADD PUSH1 0x0 DUP2 MSTORE PUSH1 0x20 ADD PUSH1 0x60 DUP2 MSTORE PUSH1 0x20 ADD PUSH1 0x0 DUP2 MSTORE PUSH1 0x20 ADD PUSH1 0x0 ISZERO ISZERO DUP2 MSTORE POP SWAP1 JUMP JUMPDEST PUSH1 0x0 DUP3 DUP2 MSTORE PUSH1 0x4 PUSH1 0x20 DUP2 DUP2 MSTORE PUSH1 0x40 SWAP3 DUP4 SWAP1 KECCAK256 DUP4 MLOAD PUSH2 0x120 DUP2 ADD DUP6 MSTORE DUP2 SLOAD DUP2 MSTORE PUSH1 0x1 DUP3 ADD SLOAD SWAP3 DUP2 ADD SWAP3 SWAP1 SWAP3 MSTORE PUSH1 0x2 DUP2 ADD SLOAD PUSH1 0x1 PUSH1 0x1 PUSH1 0xA0 SHL SUB AND SWAP4 DUP3 ADD SWAP4 SWAP1 SWAP4 MSTORE PUSH1 0x3 DUP4 ADD SLOAD PUSH1 0x60 DUP3 ADD MSTORE SWAP1 DUP3 ADD SLOAD PUSH1 0x80 DUP3 ADD MSTORE PUSH1 0x5 DUP3 ADD SLOAD PUSH1 0xA0 DUP3 ADD MSTORE PUSH1 0x6 DUP3 ADD DUP1 SLOAD SWAP2 SWAP3 SWAP2 PUSH1 0xC0 DUP5 ADD SWAP2 SWAP1 PUSH2 0x8E7 SWAP1 PUSH2 0x1FED JUMP JUMPDEST DUP1 PUSH1 0x1F ADD PUSH1 0x20 DUP1 SWAP2 DIV MUL PUSH1 0x20 ADD PUSH1 0x40 MLOAD SWAP1 DUP2 ADD PUSH1 0x40 MSTORE DUP1 SWAP3 SWAP2 SWAP1 DUP2 DUP2 MSTORE PUSH1 0x20 ADD DUP3 DUP1 SLOAD PUSH2 0x913 SWAP1 PUSH2 0x1FED JUMP JUMPDEST DUP1 ISZERO PUSH2 0x960 JUMPI DUP1 PUSH1 0x1F LT PUSH2 0x935 JUMPI PUSH2 0x100 DUP1 DUP4 SLOAD DIV MUL DUP4 MSTORE SWAP2 PUSH1 0x20 ADD SWAP2 PUSH2 0x960 JUMP JUMPDEST DUP3 ADD SWAP2 SWAP1 PUSH1 0x0 MSTORE PUSH1 0x20 PUSH1 0x0 KECCAK256 SWAP1 JUMPDEST DUP2 SLOAD DUP2 MSTORE SWAP1 PUSH1 0x1 ADD SWAP1 PUSH1 0x20 ADD DUP1 DUP4 GT PUSH2 0x943 JUMPI DUP3 SWAP1 SUB PUSH1 0x1F AND DUP3 ADD SWAP2 JUMPDEST POP POP POP SWAP2 DUP4 MSTORE POP POP PUSH1 0x7 DUP3 ADD SLOAD PUSH1 0x20 DUP3 ADD MSTORE PUSH1 0x8 SWAP1 SWAP2 ADD SLOAD PUSH1 0xFF AND ISZERO ISZERO PUSH1 0x40 SWAP1 SWAP2 ADD MSTORE SWAP3 SWAP2 POP POP JUMP JUMPDEST PUSH1 0x6 DUP2 DUP2 SLOAD DUP2 LT PUSH2 0x999 JUMPI PUSH1 0x0 DUP1 REVERT JUMPDEST PUSH1 0x0 SWAP2 DUP3 MSTORE PUSH1 0x20 SWAP1 SWAP2 KECCAK256 ADD SLOAD SWAP1 POP DUP2 JUMP JUMPDEST PUSH1 0x4 PUSH1 0x20 DUP2 SWAP1 MSTORE PUSH1 0x0 SWAP2 DUP3 MSTORE PUSH1 0x40 SWAP1 SWAP2 KECCAK256 DUP1 SLOAD PUSH1 0x1 DUP3 ADD SLOAD PUSH1 0x2 DUP4 ADD SLOAD PUSH1 0x3 DUP5 ADD SLOAD SWAP5 DUP5 ADD SLOAD PUSH1 0x5 DUP6 ADD SLOAD PUSH1 0x6 DUP7 ADD DUP1 SLOAD SWAP6 SWAP8 SWAP5 SWAP7 PUSH1 0x1 PUSH1 0x1 PUSH1 0xA0 SHL SUB SWAP1 SWAP5 AND SWAP6 SWAP3 SWAP4 SWAP2 SWAP3 PUSH2 0x9F8 SWAP1 PUSH2 0x1FED JUMP JUMPDEST DUP1 PUSH1 0x1F ADD PUSH1 0x20 DUP1 SWAP2 DIV MUL PUSH1 0x20 ADD PUSH1 0x40 MLOAD SWAP1 DUP2 ADD PUSH1 0x40 MSTORE DUP1 SWAP3 SWAP2 SWAP1 DUP2 DUP2 MSTORE PUSH1 0x20 ADD DUP3 DUP1 SLOAD PUSH2 0xA24 SWAP1 PUSH2 0x1FED JUMP JUMPDEST DUP1 ISZERO PUSH2 0xA71 JUMPI DUP1 PUSH1 0x1F LT PUSH2 0xA46 JUMPI PUSH2 0x100 DUP1 DUP4 SLOAD DIV MUL DUP4 MSTORE SWAP2 PUSH1 0x20 ADD SWAP2 PUSH2 0xA71 JUMP JUMPDEST DUP3 ADD SWAP2 SWAP1 PUSH1 0x0 MSTORE PUSH1 0x20 PUSH1 0x0 KECCAK256 SWAP1 JUMPDEST DUP2 SLOAD DUP2 MSTORE SWAP1 PUSH1 0x1 ADD SWAP1 PUSH1 0x20 ADD DUP1 DUP4 GT PUSH2 0xA54 JUMPI DUP3 SWAP1 SUB PUSH1 0x1F AND DUP3 ADD SWAP2 JUMPDEST POP POP POP POP PUSH1 0x7 DUP4 ADD SLOAD PUSH1 0x8 SWAP1 SWAP4 ADD SLOAD SWAP2 SWAP3 SWAP2 PUSH1 0xFF AND SWAP1 POP DUP10 JUMP JUMPDEST PUSH1 0x7 SLOAD PUSH1 0x40 MLOAD PUSH4 0x8D2E52D PUSH1 0xE4 SHL DUP2 MSTORE PUSH1 0x4 DUP2 ADD DUP4 SWAP1 MSTORE PUSH1 0x0 SWAP2 PUSH1 0x1 PUSH1 0x1 PUSH1 0xA0 SHL SUB AND SWAP1 PUSH4 0x8D2E52D0 SWAP1 PUSH1 0x24 ADD PUSH1 0x20 PUSH1 0x40 MLOAD DUP1 DUP4 SUB DUP2 DUP7 GAS STATICCALL ISZERO DUP1 ISZERO PUSH2 0xAD5 JUMPI RETURNDATASIZE PUSH1 0x0 DUP1 RETURNDATACOPY RETURNDATASIZE PUSH1 0x0 REVERT JUMPDEST POP POP POP POP PUSH1 0x40 MLOAD RETURNDATASIZE PUSH1 0x1F NOT PUSH1 0x1F DUP3 ADD AND DUP3 ADD DUP1 PUSH1 0x40 MSTORE POP DUP2 ADD SWAP1 PUSH2 0xAF9 SWAP2 SWAP1 PUSH2 0x2027 JUMP JUMPDEST SWAP3 SWAP2 POP POP JUMP JUMPDEST PUSH2 0xB07 PUSH2 0x1A55 JUMP JUMPDEST PUSH2 0xB11 PUSH1 0x0 PUSH2 0x1A82 JUMP JUMPDEST JUMP JUMPDEST PUSH2 0xB1B PUSH2 0x1A55 JUMP JUMPDEST PUSH1 0x7 DUP1 SLOAD PUSH1 0x1 PUSH1 0x1 PUSH1 0xA0 SHL SUB NOT AND PUSH1 0x1 PUSH1 0x1 PUSH1 0xA0 SHL SUB SWAP3 SWAP1 SWAP3 AND SWAP2 SWAP1 SWAP2 OR SWAP1 SSTORE JUMP JUMPDEST PUSH1 0x0 DUP6 DUP2 MSTORE PUSH1 0x3 PUSH1 0x20 MSTORE PUSH1 0x40 DUP2 KECCAK256 DUP2 PUSH1 0x6 DUP3 ADD SLOAD PUSH1 0x1 PUSH1 0x40 SHL SWAP1 DIV PUSH1 0xFF AND PUSH1 0x5 DUP2 GT ISZERO PUSH2 0xB6C JUMPI PUSH2 0xB6C PUSH2 0x1B53 JUMP JUMPDEST EQ PUSH2 0xB89 JUMPI PUSH1 0x40 MLOAD PUSH3 0x461BCD PUSH1 0xE5 SHL DUP2 MSTORE PUSH1 0x4 ADD PUSH2 0x42C SWAP1 PUSH2 0x1FB6 JUMP JUMPDEST PUSH1 0x6 DUP2 ADD SLOAD PUSH1 0x1 PUSH1 0x1 PUSH1 0x40 SHL SUB AND TIMESTAMP LT PUSH2 0xBE5 JUMPI PUSH1 0x40 MLOAD PUSH3 0x461BCD PUSH1 0xE5 SHL DUP2 MSTORE PUSH1 0x20 PUSH1 0x4 DUP3 ADD MSTORE PUSH1 0x1D PUSH1 0x24 DUP3 ADD MSTORE PUSH32 0x466C6172654F72646572426F6F6B3A207061737420646561646C696E65000000 PUSH1 0x44 DUP3 ADD MSTORE PUSH1 0x64 ADD PUSH2 0x42C JUMP JUMPDEST PUSH1 0x0 DUP7 GT PUSH2 0xC35 JUMPI PUSH1 0x40 MLOAD PUSH3 0x461BCD PUSH1 0xE5 SHL DUP2 MSTORE PUSH1 0x20 PUSH1 0x4 DUP3 ADD MSTORE PUSH1 0x18 PUSH1 0x24 DUP3 ADD MSTORE PUSH32 0x466C6172654F72646572426F6F6B3A207A65726F206269640000000000000000 PUSH1 0x44 DUP3 ADD MSTORE PUSH1 0x64 ADD PUSH2 0x42C JUMP JUMPDEST DUP1 PUSH1 0x4 ADD SLOAD DUP7 GT ISZERO PUSH2 0xC94 JUMPI PUSH1 0x40 MLOAD PUSH3 0x461BCD PUSH1 0xE5 SHL DUP2 MSTORE PUSH1 0x20 PUSH1 0x4 DUP3 ADD MSTORE PUSH1 0x22 PUSH1 0x24 DUP3 ADD MSTORE PUSH32 0x466C6172654F72646572426F6F6B3A2062696420657863656564732062756467 PUSH1 0x44 DUP3 ADD MSTORE PUSH2 0x195D PUSH1 0xF2 SHL PUSH1 0x64 DUP3 ADD MSTORE PUSH1 0x84 ADD PUSH2 0x42C JUMP JUMPDEST PUSH1 0x1 DUP2 ADD SLOAD PUSH1 0x1 PUSH1 0x1 PUSH1 0xA0 SHL SUB AND CALLER SUB PUSH2 0xCFA JUMPI PUSH1 0x40 MLOAD PUSH3 0x461BCD PUSH1 0xE5 SHL DUP2 MSTORE PUSH1 0x20 PUSH1 0x4 DUP3 ADD MSTORE PUSH1 0x21 PUSH1 0x24 DUP3 ADD MSTORE PUSH32 0x466C6172654F72646572426F6F6B3A20706F737465722063616E6E6F74206269 PUSH1 0x44 DUP3 ADD MSTORE PUSH1 0x19 PUSH1 0xFA SHL PUSH1 0x64 DUP3 ADD MSTORE PUSH1 0x84 ADD PUSH2 0x42C JUMP JUMPDEST PUSH1 0x7 SLOAD PUSH1 0x40 MLOAD PUSH4 0x8D2E52D PUSH1 0xE4 SHL DUP2 MSTORE PUSH1 0x4 DUP2 ADD DUP9 SWAP1 MSTORE PUSH1 0x0 SWAP2 PUSH1 0x1 PUSH1 0x1 PUSH1 0xA0 SHL SUB AND SWAP1 PUSH4 0x8D2E52D0 SWAP1 PUSH1 0x24 ADD PUSH1 0x20 PUSH1 0x40 MLOAD DUP1 DUP4 SUB DUP2 DUP7 GAS STATICCALL ISZERO DUP1 ISZERO PUSH2 0xD44 JUMPI RETURNDATASIZE PUSH1 0x0 DUP1 RETURNDATACOPY RETURNDATASIZE PUSH1 0x0 REVERT JUMPDEST POP POP POP POP PUSH1 0x40 MLOAD RETURNDATASIZE PUSH1 0x1F NOT PUSH1 0x1F DUP3 ADD AND DUP3 ADD DUP1 PUSH1 0x40 MSTORE POP DUP2 ADD SWAP1 PUSH2 0xD68 SWAP2 SWAP1 PUSH2 0x2027 JUMP JUMPDEST PUSH1 0x2 DUP1 SLOAD SWAP2 SWAP3 POP PUSH1 0x0 PUSH2 0xD7A DUP4 PUSH2 0x2056 JUMP JUMPDEST SWAP2 SWAP1 POP SSTORE SWAP3 POP PUSH1 0x40 MLOAD DUP1 PUSH2 0x120 ADD PUSH1 0x40 MSTORE DUP1 DUP5 DUP2 MSTORE PUSH1 0x20 ADD DUP10 DUP2 MSTORE PUSH1 0x20 ADD CALLER PUSH1 0x1 PUSH1 0x1 PUSH1 0xA0 SHL SUB AND DUP2 MSTORE PUSH1 0x20 ADD DUP9 DUP2 MSTORE PUSH1 0x20 ADD DUP3 DUP2 MSTORE PUSH1 0x20 ADD DUP8 DUP2 MSTORE PUSH1 0x20 ADD DUP7 DUP7 DUP1 DUP1 PUSH1 0x1F ADD PUSH1 0x20 DUP1 SWAP2 DIV MUL PUSH1 0x20 ADD PUSH1 0x40 MLOAD SWAP1 DUP2 ADD PUSH1 0x40 MSTORE DUP1 SWAP4 SWAP3 SWAP2 SWAP1 DUP2 DUP2 MSTORE PUSH1 0x20 ADD DUP4 DUP4 DUP1 DUP3 DUP5 CALLDATACOPY PUSH1 0x0 SWAP3 ADD DUP3 SWAP1 MSTORE POP SWAP4 DUP6 MSTORE POP POP TIMESTAMP PUSH1 0x20 DUP1 DUP6 ADD SWAP2 SWAP1 SWAP2 MSTORE PUSH1 0x40 SWAP4 DUP5 ADD DUP4 SWAP1 MSTORE DUP8 DUP4 MSTORE PUSH1 0x4 DUP1 DUP3 MSTORE SWAP3 DUP5 SWAP1 KECCAK256 DUP6 MLOAD DUP2 SSTORE SWAP1 DUP6 ADD MLOAD PUSH1 0x1 DUP3 ADD SSTORE SWAP3 DUP5 ADD MLOAD PUSH1 0x2 DUP5 ADD DUP1 SLOAD PUSH1 0x1 PUSH1 0x1 PUSH1 0xA0 SHL SUB NOT AND PUSH1 0x1 PUSH1 0x1 PUSH1 0xA0 SHL SUB SWAP1 SWAP3 AND SWAP2 SWAP1 SWAP2 OR SWAP1 SSTORE POP PUSH1 0x60 DUP4 ADD MLOAD PUSH1 0x3 DUP4 ADD SSTORE PUSH1 0x80 DUP4 ADD MLOAD SWAP1 DUP3 ADD SSTORE PUSH1 0xA0 DUP3 ADD MLOAD PUSH1 0x5 DUP3 ADD SSTORE PUSH1 0xC0 DUP3 ADD MLOAD PUSH1 0x6 DUP3 ADD SWAP1 PUSH2 0xE72 SWAP1 DUP3 PUSH2 0x20D6 JUMP JUMPDEST POP PUSH1 0xE0 DUP3 ADD MLOAD PUSH1 0x7 DUP3 ADD SSTORE PUSH2 0x100 SWAP1 SWAP2 ADD MLOAD PUSH1 0x8 SWAP1 SWAP2 ADD DUP1 SLOAD PUSH1 0xFF NOT AND SWAP2 ISZERO ISZERO SWAP2 SWAP1 SWAP2 OR SWAP1 SSTORE PUSH1 0x0 DUP9 DUP2 MSTORE PUSH1 0x5 PUSH1 0x20 SWAP1 DUP2 MSTORE PUSH1 0x40 DUP1 DUP4 KECCAK256 DUP1 SLOAD PUSH1 0x1 DUP2 ADD DUP3 SSTORE SWAP1 DUP5 MSTORE SWAP3 DUP3 SWAP1 KECCAK256 SWAP1 SWAP3 ADD DUP6 SWAP1 SSTORE DUP2 MLOAD DUP10 DUP2 MSTORE SWAP1 DUP2 ADD DUP4 SWAP1 MSTORE CALLER SWAP2 DUP6 SWAP2 DUP12 SWAP2 PUSH32 0x34A9AEE5F476DF7F218E672A92A2CB667EE9908BC59D1B2FA2B2A882F715775D SWAP2 ADD PUSH1 0x40 MLOAD DUP1 SWAP2 SUB SWAP1 LOG4 POP POP SWAP6 SWAP5 POP POP POP POP POP JUMP JUMPDEST PUSH1 0x5 PUSH1 0x20 MSTORE DUP2 PUSH1 0x0 MSTORE PUSH1 0x40 PUSH1 0x0 KECCAK256 DUP2 DUP2 SLOAD DUP2 LT PUSH2 0xF21 JUMPI PUSH1 0x0 DUP1 REVERT JUMPDEST SWAP1 PUSH1 0x0 MSTORE PUSH1 0x20 PUSH1 0x0 KECCAK256 ADD PUSH1 0x0 SWAP2 POP SWAP2 POP POP SLOAD DUP2 JUMP JUMPDEST PUSH1 0x8 SLOAD PUSH1 0x1 PUSH1 0x1 PUSH1 0xA0 SHL SUB AND CALLER EQ PUSH2 0xF90 JUMPI PUSH1 0x40 MLOAD PUSH3 0x461BCD PUSH1 0xE5 SHL DUP2 MSTORE PUSH1 0x20 PUSH1 0x4 DUP3 ADD MSTORE PUSH1 0x1A PUSH1 0x24 DUP3 ADD MSTORE PUSH32 0x466C6172654F72646572426F6F6B3A206E6F7420657363726F77000000000000 PUSH1 0x44 DUP3 ADD MSTORE PUSH1 0x64 ADD PUSH2 0x42C JUMP JUMPDEST PUSH1 0x0 DUP2 DUP2 MSTORE PUSH1 0x3 PUSH1 0x20 MSTORE PUSH1 0x40 DUP1 DUP3 KECCAK256 PUSH1 0x6 ADD DUP1 SLOAD PUSH1 0xFF PUSH1 0x40 SHL NOT AND PUSH9 0x30000000000000000 OR SWAP1 SSTORE MLOAD DUP3 SWAP2 PUSH32 0x8DAC48A311CB7B57AD6FD8483F454350A387B7EC8701A2AF38BB6C824D0CB5CC SWAP2 LOG2 POP JUMP JUMPDEST PUSH1 0x0 DUP3 DUP2 MSTORE PUSH1 0x3 PUSH1 0x20 MSTORE PUSH1 0x40 SWAP1 KECCAK256 PUSH1 0x2 DUP2 ADD SLOAD PUSH1 0x1 PUSH1 0x1 PUSH1 0xA0 SHL SUB AND CALLER EQ PUSH2 0x104B JUMPI PUSH1 0x40 MLOAD PUSH3 0x461BCD PUSH1 0xE5 SHL DUP2 MSTORE PUSH1 0x20 PUSH1 0x4 DUP3 ADD MSTORE PUSH1 0x1C PUSH1 0x24 DUP3 ADD MSTORE PUSH32 0x466C6172654F72646572426F6F6B3A206E6F742070726F766964657200000000 PUSH1 0x44 DUP3 ADD MSTORE PUSH1 0x64 ADD PUSH2 0x42C JUMP JUMPDEST PUSH1 0x1 PUSH1 0x6 DUP3 ADD SLOAD PUSH1 0x1 PUSH1 0x40 SHL SWAP1 DIV PUSH1 0xFF AND PUSH1 0x5 DUP2 GT ISZERO PUSH2 0x106D JUMPI PUSH2 0x106D PUSH2 0x1B53 JUMP JUMPDEST EQ PUSH2 0x10BA JUMPI PUSH1 0x40 MLOAD PUSH3 0x461BCD PUSH1 0xE5 SHL DUP2 MSTORE PUSH1 0x20 PUSH1 0x4 DUP3 ADD MSTORE PUSH1 0x1C PUSH1 0x24 DUP3 ADD MSTORE PUSH32 0x466C6172654F72646572426F6F6B3A206E6F742061737369676E656400000000 PUSH1 0x44 DUP3 ADD MSTORE PUSH1 0x64 ADD PUSH2 0x42C JUMP JUMPDEST PUSH1 0x6 DUP2 ADD DUP1 SLOAD PUSH9 0x20000000000000000 PUSH1 0xFF PUSH1 0x40 SHL NOT SWAP1 SWAP2 AND OR SWAP1 SSTORE PUSH1 0x7 DUP2 ADD DUP3 SWAP1 SSTORE PUSH1 0x40 MLOAD DUP3 DUP2 MSTORE DUP4 SWAP1 PUSH32 0x45C386DC6524A2D9FE630455323C6A39F557C52AB01E886DEEE20A0B538147AC SWAP1 PUSH1 0x20 ADD PUSH1 0x40 MLOAD DUP1 SWAP2 SUB SWAP1 LOG2 POP POP POP JUMP JUMPDEST PUSH1 0x0 DUP2 DUP2 MSTORE PUSH1 0x3 PUSH1 0x20 MSTORE PUSH1 0x40 SWAP1 KECCAK256 PUSH1 0x1 DUP2 ADD SLOAD PUSH1 0x1 PUSH1 0x1 PUSH1 0xA0 SHL SUB AND CALLER EQ DUP1 PUSH2 0x114C JUMPI POP PUSH1 0x2 DUP2 ADD SLOAD PUSH1 0x1 PUSH1 0x1 PUSH1 0xA0 SHL SUB AND CALLER EQ JUMPDEST PUSH2 0x1198 JUMPI PUSH1 0x40 MLOAD PUSH3 0x461BCD PUSH1 0xE5 SHL DUP2 MSTORE PUSH1 0x20 PUSH1 0x4 DUP3 ADD MSTORE PUSH1 0x19 PUSH1 0x24 DUP3 ADD MSTORE PUSH32 0x466C6172654F72646572426F6F6B3A206E6F7420706172747900000000000000 PUSH1 0x44 DUP3 ADD MSTORE PUSH1 0x64 ADD PUSH2 0x42C JUMP JUMPDEST PUSH1 0x1 PUSH1 0x6 DUP3 ADD SLOAD PUSH1 0x1 PUSH1 0x40 SHL SWAP1 DIV PUSH1 0xFF AND PUSH1 0x5 DUP2 GT ISZERO PUSH2 0x11BA JUMPI PUSH2 0x11BA PUSH2 0x1B53 JUMP JUMPDEST EQ DUP1 PUSH2 0x11E5 JUMPI POP PUSH1 0x2 PUSH1 0x6 DUP3 ADD SLOAD PUSH1 0x1 PUSH1 0x40 SHL SWAP1 DIV PUSH1 0xFF AND PUSH1 0x5 DUP2 GT ISZERO PUSH2 0x11E3 JUMPI PUSH2 0x11E3 PUSH2 0x1B53 JUMP JUMPDEST EQ JUMPDEST PUSH2 0x1231 JUMPI PUSH1 0x40 MLOAD PUSH3 0x461BCD PUSH1 0xE5 SHL DUP2 MSTORE PUSH1 0x20 PUSH1 0x4 DUP3 ADD MSTORE PUSH1 0x1E PUSH1 0x24 DUP3 ADD MSTORE PUSH32 0x466C6172654F72646572426F6F6B3A2063616E6E6F7420646973707574650000 PUSH1 0x44 DUP3 ADD MSTORE PUSH1 0x64 ADD PUSH2 0x42C JUMP JUMPDEST PUSH1 0x6 DUP2 ADD DUP1 SLOAD PUSH1 0xFF PUSH1 0x40 SHL NOT AND PUSH9 0x50000000000000000 OR SWAP1 SSTORE PUSH1 0x40 MLOAD CALLER SWAP1 DUP4 SWAP1 PUSH31 0x7A04C23FAC86B9F00290F402CCEC895256F0B46AD331C80038B783ACBFE419 SWAP1 PUSH1 0x0 SWAP1 LOG3 POP POP JUMP JUMPDEST PUSH1 0x0 DUP1 DUP4 GT PUSH2 0x12CC JUMPI PUSH1 0x40 MLOAD PUSH3 0x461BCD PUSH1 0xE5 SHL DUP2 MSTORE PUSH1 0x20 PUSH1 0x4 DUP3 ADD MSTORE PUSH1 0x1B PUSH1 0x24 DUP3 ADD MSTORE PUSH32 0x466C6172654F72646572426F6F6B3A207A65726F206275646765740000000000 PUSH1 0x44 DUP3 ADD MSTORE PUSH1 0x64 ADD PUSH2 0x42C JUMP JUMPDEST TIMESTAMP DUP3 PUSH1 0x1 PUSH1 0x1 PUSH1 0x40 SHL SUB AND GT PUSH2 0x1324 JUMPI PUSH1 0x40 MLOAD PUSH3 0x461BCD PUSH1 0xE5 SHL DUP2 MSTORE PUSH1 0x20 PUSH1 0x4 DUP3 ADD MSTORE PUSH1 0x1D PUSH1 0x24 DUP3 ADD MSTORE PUSH32 0x466C6172654F72646572426F6F6B3A207061737420646561646C696E65000000 PUSH1 0x44 DUP3 ADD MSTORE PUSH1 0x64 ADD PUSH2 0x42C JUMP JUMPDEST PUSH1 0x7 SLOAD PUSH1 0x40 MLOAD PUSH4 0x8D2E52D PUSH1 0xE4 SHL DUP2 MSTORE PUSH1 0x4 DUP2 ADD DUP6 SWAP1 MSTORE PUSH1 0x0 SWAP2 PUSH1 0x1 PUSH1 0x1 PUSH1 0xA0 SHL SUB AND SWAP1 PUSH4 0x8D2E52D0 SWAP1 PUSH1 0x24 ADD PUSH1 0x20 PUSH1 0x40 MLOAD DUP1 DUP4 SUB DUP2 DUP7 GAS STATICCALL ISZERO DUP1 ISZERO PUSH2 0x136E JUMPI RETURNDATASIZE PUSH1 0x0 DUP1 RETURNDATACOPY RETURNDATASIZE PUSH1 0x0 REVERT JUMPDEST POP POP POP POP PUSH1 0x40 MLOAD RETURNDATASIZE PUSH1 0x1F NOT PUSH1 0x1F DUP3 ADD AND DUP3 ADD DUP1 PUSH1 0x40 MSTORE POP DUP2 ADD SWAP1 PUSH2 0x1392 SWAP2 SWAP1 PUSH2 0x2027 JUMP JUMPDEST SWAP1 POP PUSH1 0x0 DUP2 GT PUSH2 0x13E4 JUMPI PUSH1 0x40 MLOAD PUSH3 0x461BCD PUSH1 0xE5 SHL DUP2 MSTORE PUSH1 0x20 PUSH1 0x4 DUP3 ADD DUP2 SWAP1 MSTORE PUSH1 0x24 DUP3 ADD MSTORE PUSH32 0x466C6172654F72646572426F6F6B3A204654534F207072696365206572726F72 PUSH1 0x44 DUP3 ADD MSTORE PUSH1 0x64 ADD PUSH2 0x42C JUMP JUMPDEST PUSH1 0x1 DUP1 SLOAD SWAP1 PUSH1 0x0 PUSH2 0x13F4 DUP4 PUSH2 0x2056 JUMP JUMPDEST SWAP2 SWAP1 POP SSTORE SWAP2 POP PUSH1 0x40 MLOAD DUP1 PUSH2 0x160 ADD PUSH1 0x40 MSTORE DUP1 DUP4 DUP2 MSTORE PUSH1 0x20 ADD CALLER PUSH1 0x1 PUSH1 0x1 PUSH1 0xA0 SHL SUB AND DUP2 MSTORE PUSH1 0x20 ADD PUSH1 0x0 PUSH1 0x1 PUSH1 0x1 PUSH1 0xA0 SHL SUB AND DUP2 MSTORE PUSH1 0x20 ADD DUP8 DUP8 DUP1 DUP1 PUSH1 0x1F ADD PUSH1 0x20 DUP1 SWAP2 DIV MUL PUSH1 0x20 ADD PUSH1 0x40 MLOAD SWAP1 DUP2 ADD PUSH1 0x40 MSTORE DUP1 SWAP4 SWAP3 SWAP2 SWAP1 DUP2 DUP2 MSTORE PUSH1 0x20 ADD DUP4 DUP4 DUP1 DUP3 DUP5 CALLDATACOPY PUSH1 0x0 SWAP3 ADD DUP3 SWAP1 MSTORE POP SWAP4 DUP6 MSTORE POP POP POP PUSH1 0x20 DUP3 ADD DUP8 SWAP1 MSTORE PUSH1 0x40 DUP3 ADD DUP5 SWAP1 MSTORE PUSH1 0x1 PUSH1 0x1 PUSH1 0x40 SHL SUB DUP7 AND PUSH1 0x60 DUP4 ADD MSTORE PUSH1 0x80 SWAP1 SWAP2 ADD SWAP1 DUP2 MSTORE PUSH1 0x0 PUSH1 0x20 DUP1 DUP4 ADD DUP3 SWAP1 MSTORE TIMESTAMP PUSH1 0x40 DUP1 DUP6 ADD SWAP2 SWAP1 SWAP2 MSTORE PUSH1 0x60 SWAP4 DUP5 ADD DUP4 SWAP1 MSTORE DUP7 DUP4 MSTORE PUSH1 0x3 DUP1 DUP4 MSTORE SWAP3 DUP2 SWAP1 KECCAK256 DUP6 MLOAD DUP2 SSTORE SWAP2 DUP6 ADD MLOAD PUSH1 0x1 DUP4 ADD DUP1 SLOAD PUSH1 0x1 PUSH1 0x1 PUSH1 0xA0 SHL SUB NOT SWAP1 DUP2 AND PUSH1 0x1 PUSH1 0x1 PUSH1 0xA0 SHL SUB SWAP4 DUP5 AND OR SWAP1 SWAP2 SSTORE SWAP2 DUP7 ADD MLOAD PUSH1 0x2 DUP5 ADD DUP1 SLOAD SWAP1 SWAP4 AND SWAP2 AND OR SWAP1 SSTORE SWAP2 DUP4 ADD MLOAD SWAP1 DUP3 ADD SWAP1 PUSH2 0x14FD SWAP1 DUP3 PUSH2 0x20D6 JUMP JUMPDEST POP PUSH1 0x80 DUP3 ADD MLOAD PUSH1 0x4 DUP3 ADD SSTORE PUSH1 0xA0 DUP3 ADD MLOAD PUSH1 0x5 DUP1 DUP4 ADD SWAP2 SWAP1 SWAP2 SSTORE PUSH1 0xC0 DUP4 ADD MLOAD PUSH1 0x6 DUP4 ADD DUP1 SLOAD PUSH1 0x1 PUSH1 0x1 PUSH1 0x40 SHL SUB SWAP1 SWAP3 AND PUSH8 0xFFFFFFFFFFFFFFFF NOT DUP4 AND DUP2 OR DUP3 SSTORE PUSH1 0xE0 DUP7 ADD MLOAD SWAP4 SWAP2 SWAP3 PUSH9 0xFFFFFFFFFFFFFFFFFF NOT AND OR SWAP1 PUSH1 0x1 PUSH1 0x40 SHL SWAP1 DUP5 SWAP1 DUP2 GT ISZERO PUSH2 0x1569 JUMPI PUSH2 0x1569 PUSH2 0x1B53 JUMP JUMPDEST MUL OR SWAP1 SSTORE POP PUSH2 0x100 DUP3 ADD MLOAD PUSH1 0x7 DUP3 ADD SSTORE PUSH2 0x120 DUP3 ADD MLOAD PUSH1 0x8 DUP3 ADD SSTORE PUSH2 0x140 SWAP1 SWAP2 ADD MLOAD PUSH1 0x9 SWAP1 SWAP2 ADD SSTORE PUSH1 0x6 DUP1 SLOAD PUSH1 0x1 DUP2 ADD DUP3 SSTORE PUSH1 0x0 SWAP2 SWAP1 SWAP2 MSTORE PUSH32 0xF652222313E28459528D920B65115C16C04F3EFC82AAEDC97BE59F3F377C0D3F ADD DUP3 SWAP1 SSTORE PUSH1 0x40 DUP1 MLOAD DUP6 DUP2 MSTORE PUSH1 0x20 DUP2 ADD DUP4 SWAP1 MSTORE CALLER SWAP2 DUP5 SWAP2 PUSH32 0x5AA8F193B1E3D39219F576507ABB963F6683DB57234D0DE20D38AF671E7E1B54 SWAP2 ADD PUSH1 0x40 MLOAD DUP1 SWAP2 SUB SWAP1 LOG3 POP SWAP5 SWAP4 POP POP POP POP JUMP JUMPDEST PUSH1 0x40 DUP1 MLOAD PUSH2 0x160 DUP2 ADD DUP3 MSTORE PUSH1 0x0 DUP1 DUP3 MSTORE PUSH1 0x20 DUP3 ADD DUP2 SWAP1 MSTORE SWAP2 DUP2 ADD DUP3 SWAP1 MSTORE PUSH1 0x60 DUP1 DUP3 ADD MSTORE PUSH1 0x80 DUP2 ADD DUP3 SWAP1 MSTORE PUSH1 0xA0 DUP2 ADD DUP3 SWAP1 MSTORE PUSH1 0xC0 DUP2 ADD DUP3 SWAP1 MSTORE PUSH1 0xE0 DUP2 ADD DUP3 SWAP1 MSTORE PUSH2 0x100 DUP2 ADD DUP3 SWAP1 MSTORE PUSH2 0x120 DUP2 ADD DUP3 SWAP1 MSTORE PUSH2 0x140 DUP2 ADD SWAP2 SWAP1 SWAP2 MSTORE PUSH1 0x0 DUP3 DUP2 MSTORE PUSH1 0x3 PUSH1 0x20 DUP2 DUP2 MSTORE PUSH1 0x40 SWAP3 DUP4 SWAP1 KECCAK256 DUP4 MLOAD PUSH2 0x160 DUP2 ADD DUP6 MSTORE DUP2 SLOAD DUP2 MSTORE PUSH1 0x1 DUP3 ADD SLOAD PUSH1 0x1 PUSH1 0x1 PUSH1 0xA0 SHL SUB SWAP1 DUP2 AND SWAP4 DUP3 ADD SWAP4 SWAP1 SWAP4 MSTORE PUSH1 0x2 DUP3 ADD SLOAD SWAP1 SWAP3 AND SWAP4 DUP3 ADD SWAP4 SWAP1 SWAP4 MSTORE SWAP1 DUP3 ADD DUP1 SLOAD SWAP2 SWAP3 SWAP2 PUSH1 0x60 DUP5 ADD SWAP2 SWAP1 PUSH2 0x16C0 SWAP1 PUSH2 0x1FED JUMP JUMPDEST DUP1 PUSH1 0x1F ADD PUSH1 0x20 DUP1 SWAP2 DIV MUL PUSH1 0x20 ADD PUSH1 0x40 MLOAD SWAP1 DUP2 ADD PUSH1 0x40 MSTORE DUP1 SWAP3 SWAP2 SWAP1 DUP2 DUP2 MSTORE PUSH1 0x20 ADD DUP3 DUP1 SLOAD PUSH2 0x16EC SWAP1 PUSH2 0x1FED JUMP JUMPDEST DUP1 ISZERO PUSH2 0x1739 JUMPI DUP1 PUSH1 0x1F LT PUSH2 0x170E JUMPI PUSH2 0x100 DUP1 DUP4 SLOAD DIV MUL DUP4 MSTORE SWAP2 PUSH1 0x20 ADD SWAP2 PUSH2 0x1739 JUMP JUMPDEST DUP3 ADD SWAP2 SWAP1 PUSH1 0x0 MSTORE PUSH1 0x20 PUSH1 0x0 KECCAK256 SWAP1 JUMPDEST DUP2 SLOAD DUP2 MSTORE SWAP1 PUSH1 0x1 ADD SWAP1 PUSH1 0x20 ADD DUP1 DUP4 GT PUSH2 0x171C JUMPI DUP3 SWAP1 SUB PUSH1 0x1F AND DUP3 ADD SWAP2 JUMPDEST POP POP POP SWAP2 DUP4 MSTORE POP POP PUSH1 0x4 DUP3 ADD SLOAD PUSH1 0x20 DUP3 ADD MSTORE PUSH1 0x5 DUP1 DUP4 ADD SLOAD PUSH1 0x40 DUP4 ADD MSTORE PUSH1 0x6 DUP4 ADD SLOAD PUSH1 0x1 PUSH1 0x1 PUSH1 0x40 SHL SUB DUP2 AND PUSH1 0x60 DUP5 ADD MSTORE PUSH1 0x80 SWAP1 SWAP3 ADD SWAP2 PUSH1 0x1 PUSH1 0x40 SHL SWAP1 DIV PUSH1 0xFF AND SWAP1 DUP2 GT ISZERO PUSH2 0x178A JUMPI PUSH2 0x178A PUSH2 0x1B53 JUMP JUMPDEST PUSH1 0x5 DUP2 GT ISZERO PUSH2 0x179B JUMPI PUSH2 0x179B PUSH2 0x1B53 JUMP JUMPDEST DUP2 MSTORE PUSH1 0x7 DUP3 ADD SLOAD PUSH1 0x20 DUP3 ADD MSTORE PUSH1 0x8 DUP3 ADD SLOAD PUSH1 0x40 DUP3 ADD MSTORE PUSH1 0x9 SWAP1 SWAP2 ADD SLOAD PUSH1 0x60 SWAP1 SWAP2 ADD MSTORE SWAP3 SWAP2 POP POP JUMP JUMPDEST PUSH2 0x17CB PUSH2 0x1A55 JUMP JUMPDEST PUSH1 0x8 DUP1 SLOAD PUSH1 0x1 PUSH1 0x1 PUSH1 0xA0 SHL SUB NOT AND PUSH1 0x1 PUSH1 0x1 PUSH1 0xA0 SHL SUB SWAP3 SWAP1 SWAP3 AND SWAP2 SWAP1 SWAP2 OR SWAP1 SSTORE JUMP JUMPDEST PUSH1 0x0 DUP3 DUP2 MSTORE PUSH1 0x3 PUSH1 0x20 MSTORE PUSH1 0x40 SWAP1 KECCAK256 PUSH1 0x1 DUP2 ADD SLOAD PUSH1 0x1 PUSH1 0x1 PUSH1 0xA0 SHL SUB AND CALLER EQ PUSH2 0x1827 JUMPI PUSH1 0x40 MLOAD PUSH3 0x461BCD PUSH1 0xE5 SHL DUP2 MSTORE PUSH1 0x4 ADD PUSH2 0x42C SWAP1 PUSH2 0x1F7F JUMP JUMPDEST PUSH1 0x0 PUSH1 0x6 DUP3 ADD SLOAD PUSH1 0x1 PUSH1 0x40 SHL SWAP1 DIV PUSH1 0xFF AND PUSH1 0x5 DUP2 GT ISZERO PUSH2 0x1849 JUMPI PUSH2 0x1849 PUSH2 0x1B53 JUMP JUMPDEST EQ PUSH2 0x1866 JUMPI PUSH1 0x40 MLOAD PUSH3 0x461BCD PUSH1 0xE5 SHL DUP2 MSTORE PUSH1 0x4 ADD PUSH2 0x42C SWAP1 PUSH2 0x1FB6 JUMP JUMPDEST PUSH1 0x1 PUSH1 0x1 PUSH1 0xA0 SHL SUB DUP3 AND PUSH2 0x18BC JUMPI PUSH1 0x40 MLOAD PUSH3 0x461BCD PUSH1 0xE5 SHL DUP2 MSTORE PUSH1 0x20 PUSH1 0x4 DUP3 ADD MSTORE PUSH1 0x1D PUSH1 0x24 DUP3 ADD MSTORE PUSH32 0x466C6172654F72646572426F6F6B3A207A65726F2070726F7669646572000000 PUSH1 0x44 DUP3 ADD MSTORE PUSH1 0x64 ADD PUSH2 0x42C JUMP JUMPDEST PUSH1 0x2 DUP2 ADD DUP1 SLOAD PUSH1 0x1 PUSH1 0x1 PUSH1 0xA0 SHL SUB NOT AND PUSH1 0x1 PUSH1 0x1 PUSH1 0xA0 SHL SUB DUP5 AND SWAP1 DUP2 OR SWAP1 SWAP2 SSTORE PUSH1 0x6 DUP3 ADD DUP1 SLOAD PUSH1 0xFF PUSH1 0x40 SHL NOT AND PUSH1 0x1 PUSH1 0x40 SHL OR SWAP1 SSTORE PUSH1 0x40 MLOAD DUP5 SWAP1 PUSH32 0x87347DEE4386AC44F2C0BF5D058DE67E2A08F526794BD25A6A73F159C82718AB SWAP1 PUSH1 0x0 SWAP1 LOG3 POP POP POP JUMP JUMPDEST PUSH1 0x6 SLOAD PUSH1 0x60 SWAP1 DUP1 DUP5 LT PUSH2 0x1944 JUMPI POP POP PUSH1 0x40 DUP1 MLOAD PUSH1 0x0 DUP2 MSTORE PUSH1 0x20 DUP2 ADD SWAP1 SWAP2 MSTORE PUSH2 0xAF9 JUMP JUMPDEST PUSH1 0x0 DUP2 PUSH2 0x1951 DUP6 DUP8 PUSH2 0x2195 JUMP JUMPDEST GT PUSH2 0x1965 JUMPI PUSH2 0x1960 DUP5 DUP7 PUSH2 0x2195 JUMP JUMPDEST PUSH2 0x1967 JUMP JUMPDEST DUP2 JUMPDEST SWAP1 POP PUSH2 0x1973 DUP6 DUP3 PUSH2 0x21A8 JUMP JUMPDEST PUSH1 0x1 PUSH1 0x1 PUSH1 0x40 SHL SUB DUP2 GT ISZERO PUSH2 0x198A JUMPI PUSH2 0x198A PUSH2 0x206F JUMP JUMPDEST PUSH1 0x40 MLOAD SWAP1 DUP1 DUP3 MSTORE DUP1 PUSH1 0x20 MUL PUSH1 0x20 ADD DUP3 ADD PUSH1 0x40 MSTORE DUP1 ISZERO PUSH2 0x19B3 JUMPI DUP2 PUSH1 0x20 ADD PUSH1 0x20 DUP3 MUL DUP1 CALLDATASIZE DUP4 CALLDATACOPY ADD SWAP1 POP JUMPDEST POP SWAP3 POP DUP5 JUMPDEST DUP2 DUP2 LT ISZERO PUSH2 0x1A0E JUMPI PUSH1 0x6 DUP2 DUP2 SLOAD DUP2 LT PUSH2 0x19D3 JUMPI PUSH2 0x19D3 PUSH2 0x21BB JUMP JUMPDEST SWAP1 PUSH1 0x0 MSTORE PUSH1 0x20 PUSH1 0x0 KECCAK256 ADD SLOAD DUP5 DUP8 DUP4 PUSH2 0x19EB SWAP2 SWAP1 PUSH2 0x21A8 JUMP JUMPDEST DUP2 MLOAD DUP2 LT PUSH2 0x19FB JUMPI PUSH2 0x19FB PUSH2 0x21BB JUMP JUMPDEST PUSH1 0x20 SWAP1 DUP2 MUL SWAP2 SWAP1 SWAP2 ADD ADD MSTORE PUSH1 0x1 ADD PUSH2 0x19B8 JUMP JUMPDEST POP POP POP SWAP3 SWAP2 POP POP JUMP JUMPDEST PUSH2 0x1A1F PUSH2 0x1A55 JUMP JUMPDEST PUSH1 0x1 PUSH1 0x1 PUSH1 0xA0 SHL SUB DUP2 AND PUSH2 0x1A49 JUMPI PUSH1 0x40 MLOAD PUSH4 0x1E4FBDF7 PUSH1 0xE0 SHL DUP2 MSTORE PUSH1 0x0 PUSH1 0x4 DUP3 ADD MSTORE PUSH1 0x24 ADD PUSH2 0x42C JUMP JUMPDEST PUSH2 0x1A52 DUP2 PUSH2 0x1A82 JUMP JUMPDEST POP JUMP JUMPDEST PUSH1 0x0 SLOAD PUSH1 0x1 PUSH1 0x1 PUSH1 0xA0 SHL SUB AND CALLER EQ PUSH2 0xB11 JUMPI PUSH1 0x40 MLOAD PUSH4 0x118CDAA7 PUSH1 0xE0 SHL DUP2 MSTORE CALLER PUSH1 0x4 DUP3 ADD MSTORE PUSH1 0x24 ADD PUSH2 0x42C JUMP JUMPDEST PUSH1 0x0 DUP1 SLOAD PUSH1 0x1 PUSH1 0x1 PUSH1 0xA0 SHL SUB DUP4 DUP2 AND PUSH1 0x1 PUSH1 0x1 PUSH1 0xA0 SHL SUB NOT DUP4 AND DUP2 OR DUP5 SSTORE PUSH1 0x40 MLOAD SWAP2 SWAP1 SWAP3 AND SWAP3 DUP4 SWAP2 PUSH32 0x8BE0079C531659141344CD1FD0A4F28419497F9722A3DAAFE3B4186F6B6457E0 SWAP2 SWAP1 LOG3 POP POP JUMP JUMPDEST PUSH1 0x0 DUP1 PUSH1 0x40 DUP4 DUP6 SUB SLT ISZERO PUSH2 0x1AE5 JUMPI PUSH1 0x0 DUP1 REVERT JUMPDEST POP POP DUP1 CALLDATALOAD SWAP3 PUSH1 0x20 SWAP1 SWAP2 ADD CALLDATALOAD SWAP2 POP JUMP JUMPDEST PUSH1 0x0 PUSH1 0x20 DUP3 DUP5 SUB SLT ISZERO PUSH2 0x1B06 JUMPI PUSH1 0x0 DUP1 REVERT JUMPDEST POP CALLDATALOAD SWAP2 SWAP1 POP JUMP JUMPDEST PUSH1 0x0 DUP2 MLOAD DUP1 DUP5 MSTORE PUSH1 0x0 JUMPDEST DUP2 DUP2 LT ISZERO PUSH2 0x1B33 JUMPI PUSH1 0x20 DUP2 DUP6 ADD DUP2 ADD MLOAD DUP7 DUP4 ADD DUP3 ADD MSTORE ADD PUSH2 0x1B17 JUMP JUMPDEST POP PUSH1 0x0 PUSH1 0x20 DUP3 DUP7 ADD ADD MSTORE PUSH1 0x20 PUSH1 0x1F NOT PUSH1 0x1F DUP4 ADD AND DUP6 ADD ADD SWAP2 POP POP SWAP3 SWAP2 POP POP JUMP JUMPDEST PUSH4 0x4E487B71 PUSH1 0xE0 SHL PUSH1 0x0 MSTORE PUSH1 0x21 PUSH1 0x4 MSTORE PUSH1 0x24 PUSH1 0x0 REVERT JUMPDEST PUSH1 0x6 DUP2 LT PUSH2 0x1B87 JUMPI PUSH4 0x4E487B71 PUSH1 0xE0 SHL PUSH1 0x0 MSTORE PUSH1 0x21 PUSH1 0x4 MSTORE PUSH1 0x24 PUSH1 0x0 REVERT JUMPDEST SWAP1 MSTORE JUMP JUMPDEST DUP12 DUP2 MSTORE PUSH1 0x1 PUSH1 0x1 PUSH1 0xA0 SHL SUB DUP12 DUP2 AND PUSH1 0x20 DUP4 ADD MSTORE DUP11 AND PUSH1 0x40 DUP3 ADD MSTORE PUSH2 0x160 PUSH1 0x60 DUP3 ADD DUP2 SWAP1 MSTORE PUSH1 0x0 SWAP1 PUSH2 0x1BBE DUP4 DUP3 ADD DUP13 PUSH2 0x1B0D JUMP JUMPDEST SWAP2 POP POP DUP9 PUSH1 0x80 DUP4 ADD MSTORE DUP8 PUSH1 0xA0 DUP4 ADD MSTORE PUSH1 0x1 PUSH1 0x1 PUSH1 0x40 SHL SUB DUP8 AND PUSH1 0xC0 DUP4 ADD MSTORE PUSH2 0x1BE9 PUSH1 0xE0 DUP4 ADD DUP8 PUSH2 0x1B69 JUMP JUMPDEST DUP5 PUSH2 0x100 DUP4 ADD MSTORE DUP4 PUSH2 0x120 DUP4 ADD MSTORE DUP3 PUSH2 0x140 DUP4 ADD MSTORE SWAP13 SWAP12 POP POP POP POP POP POP POP POP POP POP POP POP JUMP JUMPDEST PUSH1 0x20 DUP1 DUP3 MSTORE DUP3 MLOAD DUP3 DUP3 ADD DUP2 SWAP1 MSTORE PUSH1 0x0 SWAP2 SWAP1 DUP5 DUP3 ADD SWAP1 PUSH1 0x40 DUP6 ADD SWAP1 DUP5 JUMPDEST DUP2 DUP2 LT ISZERO PUSH2 0x1C46 JUMPI DUP4 MLOAD DUP4 MSTORE SWAP3 DUP5 ADD SWAP3 SWAP2 DUP5 ADD SWAP2 PUSH1 0x1 ADD PUSH2 0x1C2A JUMP JUMPDEST POP SWAP1 SWAP7 SWAP6 POP POP POP POP POP POP JUMP JUMPDEST PUSH1 0x20 DUP2 MSTORE DUP2 MLOAD PUSH1 0x20 DUP3 ADD MSTORE PUSH1 0x20 DUP3 ADD MLOAD PUSH1 0x40 DUP3 ADD MSTORE PUSH1 0x0 PUSH1 0x40 DUP4 ADD MLOAD PUSH2 0x1C83 PUSH1 0x60 DUP5 ADD DUP3 PUSH1 0x1 PUSH1 0x1 PUSH1 0xA0 SHL SUB AND SWAP1 MSTORE JUMP JUMPDEST POP PUSH1 0x60 DUP4 ADD MLOAD PUSH1 0x80 DUP4 ADD MSTORE PUSH1 0x80 DUP4 ADD MLOAD PUSH1 0xA0 DUP4 ADD MSTORE PUSH1 0xA0 DUP4 ADD MLOAD PUSH1 0xC0 DUP4 ADD MSTORE PUSH1 0xC0 DUP4 ADD MLOAD PUSH2 0x120 DUP1 PUSH1 0xE0 DUP6 ADD MSTORE PUSH2 0x1CBE PUSH2 0x140 DUP6 ADD DUP4 PUSH2 0x1B0D JUMP JUMPDEST PUSH1 0xE0 DUP7 ADD MLOAD PUSH2 0x100 DUP7 DUP2 ADD SWAP2 SWAP1 SWAP2 MSTORE SWAP1 SWAP6 ADD MLOAD ISZERO ISZERO SWAP4 ADD SWAP3 SWAP1 SWAP3 MSTORE POP SWAP1 SWAP2 SWAP1 POP JUMP JUMPDEST PUSH1 0x0 PUSH2 0x120 DUP12 DUP4 MSTORE DUP11 PUSH1 0x20 DUP5 ADD MSTORE PUSH1 0x1 DUP1 PUSH1 0xA0 SHL SUB DUP11 AND PUSH1 0x40 DUP5 ADD MSTORE DUP9 PUSH1 0x60 DUP5 ADD MSTORE DUP8 PUSH1 0x80 DUP5 ADD MSTORE DUP7 PUSH1 0xA0 DUP5 ADD MSTORE DUP1 PUSH1 0xC0 DUP5 ADD MSTORE PUSH2 0x1D20 DUP2 DUP5 ADD DUP8 PUSH2 0x1B0D JUMP JUMPDEST PUSH1 0xE0 DUP5 ADD SWAP6 SWAP1 SWAP6 MSTORE POP POP SWAP1 ISZERO ISZERO PUSH2 0x100 SWAP1 SWAP2 ADD MSTORE SWAP8 SWAP7 POP POP POP POP POP POP POP JUMP JUMPDEST DUP1 CALLDATALOAD PUSH1 0x1 PUSH1 0x1 PUSH1 0xA0 SHL SUB DUP2 AND DUP2 EQ PUSH2 0x1D56 JUMPI PUSH1 0x0 DUP1 REVERT JUMPDEST SWAP2 SWAP1 POP JUMP JUMPDEST PUSH1 0x0 PUSH1 0x20 DUP3 DUP5 SUB SLT ISZERO PUSH2 0x1D6D JUMPI PUSH1 0x0 DUP1 REVERT JUMPDEST PUSH2 0x1D76 DUP3 PUSH2 0x1D3F JUMP JUMPDEST SWAP4 SWAP3 POP POP POP JUMP JUMPDEST PUSH1 0x0 DUP1 DUP4 PUSH1 0x1F DUP5 ADD SLT PUSH2 0x1D8F JUMPI PUSH1 0x0 DUP1 REVERT JUMPDEST POP DUP2 CALLDATALOAD PUSH1 0x1 PUSH1 0x1 PUSH1 0x40 SHL SUB DUP2 GT ISZERO PUSH2 0x1DA6 JUMPI PUSH1 0x0 DUP1 REVERT JUMPDEST PUSH1 0x20 DUP4 ADD SWAP2 POP DUP4 PUSH1 0x20 DUP3 DUP6 ADD ADD GT ISZERO PUSH2 0x1DBE JUMPI PUSH1 0x0 DUP1 REVERT JUMPDEST SWAP3 POP SWAP3 SWAP1 POP JUMP JUMPDEST PUSH1 0x0 DUP1 PUSH1 0x0 DUP1 PUSH1 0x0 PUSH1 0x80 DUP7 DUP9 SUB SLT ISZERO PUSH2 0x1DDD JUMPI PUSH1 0x0 DUP1 REVERT JUMPDEST DUP6 CALLDATALOAD SWAP5 POP PUSH1 0x20 DUP7 ADD CALLDATALOAD SWAP4 POP PUSH1 0x40 DUP7 ADD CALLDATALOAD SWAP3 POP PUSH1 0x60 DUP7 ADD CALLDATALOAD PUSH1 0x1 PUSH1 0x1 PUSH1 0x40 SHL SUB DUP2 GT ISZERO PUSH2 0x1E08 JUMPI PUSH1 0x0 DUP1 REVERT JUMPDEST PUSH2 0x1E14 DUP9 DUP3 DUP10 ADD PUSH2 0x1D7D JUMP JUMPDEST SWAP7 SWAP10 SWAP6 SWAP9 POP SWAP4 SWAP7 POP SWAP3 SWAP5 SWAP4 SWAP3 POP POP POP JUMP JUMPDEST PUSH1 0x0 DUP1 PUSH1 0x0 DUP1 PUSH1 0x60 DUP6 DUP8 SUB SLT ISZERO PUSH2 0x1E3B JUMPI PUSH1 0x0 DUP1 REVERT JUMPDEST DUP5 CALLDATALOAD PUSH1 0x1 PUSH1 0x1 PUSH1 0x40 SHL SUB DUP1 DUP3 GT ISZERO PUSH2 0x1E52 JUMPI PUSH1 0x0 DUP1 REVERT JUMPDEST PUSH2 0x1E5E DUP9 DUP4 DUP10 ADD PUSH2 0x1D7D JUMP JUMPDEST SWAP1 SWAP7 POP SWAP5 POP PUSH1 0x20 DUP8 ADD CALLDATALOAD SWAP4 POP PUSH1 0x40 DUP8 ADD CALLDATALOAD SWAP2 POP DUP1 DUP3 AND DUP3 EQ PUSH2 0x1E7F JUMPI PUSH1 0x0 DUP1 REVERT JUMPDEST POP SWAP4 SWAP7 SWAP3 SWAP6 POP SWAP1 SWAP4 POP POP JUMP JUMPDEST PUSH1 0x20 DUP2 MSTORE DUP2 MLOAD PUSH1 0x20 DUP3 ADD MSTORE PUSH1 0x0 PUSH1 0x20 DUP4 ADD MLOAD PUSH2 0x1EB2 PUSH1 0x40 DUP5 ADD DUP3 PUSH1 0x1 PUSH1 0x1 PUSH1 0xA0 SHL SUB AND SWAP1 MSTORE JUMP JUMPDEST POP PUSH1 0x40 DUP4 ADD MLOAD PUSH1 0x1 PUSH1 0x1 PUSH1 0xA0 SHL SUB DUP2 AND PUSH1 0x60 DUP5 ADD MSTORE POP PUSH1 0x60 DUP4 ADD MLOAD PUSH2 0x160 DUP1 PUSH1 0x80 DUP6 ADD MSTORE PUSH2 0x1EE4 PUSH2 0x180 DUP6 ADD DUP4 PUSH2 0x1B0D JUMP JUMPDEST SWAP2 POP PUSH1 0x80 DUP6 ADD MLOAD PUSH1 0xA0 DUP6 ADD MSTORE PUSH1 0xA0 DUP6 ADD MLOAD PUSH1 0xC0 DUP6 ADD MSTORE PUSH1 0xC0 DUP6 ADD MLOAD PUSH2 0x1F14 PUSH1 0xE0 DUP7 ADD DUP3 PUSH1 0x1 PUSH1 0x1 PUSH1 0x40 SHL SUB AND SWAP1 MSTORE JUMP JUMPDEST POP PUSH1 0xE0 DUP6 ADD MLOAD PUSH2 0x100 PUSH2 0x1F29 DUP2 DUP8 ADD DUP4 PUSH2 0x1B69 JUMP JUMPDEST DUP7 ADD MLOAD PUSH2 0x120 DUP7 DUP2 ADD SWAP2 SWAP1 SWAP2 MSTORE DUP7 ADD MLOAD PUSH2 0x140 DUP1 DUP8 ADD SWAP2 SWAP1 SWAP2 MSTORE SWAP1 SWAP6 ADD MLOAD SWAP4 ADD SWAP3 SWAP1 SWAP3 MSTORE POP SWAP2 SWAP1 POP JUMP JUMPDEST PUSH1 0x0 DUP1 PUSH1 0x40 DUP4 DUP6 SUB SLT ISZERO PUSH2 0x1F66 JUMPI PUSH1 0x0 DUP1 REVERT JUMPDEST DUP3 CALLDATALOAD SWAP2 POP PUSH2 0x1F76 PUSH1 0x20 DUP5 ADD PUSH2 0x1D3F JUMP JUMPDEST SWAP1 POP SWAP3 POP SWAP3 SWAP1 POP JUMP JUMPDEST PUSH1 0x20 DUP1 DUP3 MSTORE PUSH1 0x1A SWAP1 DUP3 ADD MSTORE PUSH32 0x466C6172654F72646572426F6F6B3A206E6F7420706F73746572000000000000 PUSH1 0x40 DUP3 ADD MSTORE PUSH1 0x60 ADD SWAP1 JUMP JUMPDEST PUSH1 0x20 DUP1 DUP3 MSTORE PUSH1 0x18 SWAP1 DUP3 ADD MSTORE PUSH32 0x466C6172654F72646572426F6F6B3A206E6F74206F70656E0000000000000000 PUSH1 0x40 DUP3 ADD MSTORE PUSH1 0x60 ADD SWAP1 JUMP JUMPDEST PUSH1 0x1 DUP2 DUP2 SHR SWAP1 DUP3 AND DUP1 PUSH2 0x2001 JUMPI PUSH1 0x7F DUP3 AND SWAP2 POP JUMPDEST PUSH1 0x20 DUP3 LT DUP2 SUB PUSH2 0x2021 JUMPI PUSH4 0x4E487B71 PUSH1 0xE0 SHL PUSH1 0x0 MSTORE PUSH1 0x22 PUSH1 0x4 MSTORE PUSH1 0x24 PUSH1 0x0 REVERT JUMPDEST POP SWAP2 SWAP1 POP JUMP JUMPDEST PUSH1 0x0 PUSH1 0x20 DUP3 DUP5 SUB SLT ISZERO PUSH2 0x2039 JUMPI PUSH1 0x0 DUP1 REVERT JUMPDEST POP MLOAD SWAP2 SWAP1 POP JUMP JUMPDEST PUSH4 0x4E487B71 PUSH1 0xE0 SHL PUSH1 0x0 MSTORE PUSH1 0x11 PUSH1 0x4 MSTORE PUSH1 0x24 PUSH1 0x0 REVERT JUMPDEST PUSH1 0x0 PUSH1 0x1 DUP3 ADD PUSH2 0x2068 JUMPI PUSH2 0x2068 PUSH2 0x2040 JUMP JUMPDEST POP PUSH1 0x1 ADD SWAP1 JUMP JUMPDEST PUSH4 0x4E487B71 PUSH1 0xE0 SHL PUSH1 0x0 MSTORE PUSH1 0x41 PUSH1 0x4 MSTORE PUSH1 0x24 PUSH1 0x0 REVERT JUMPDEST PUSH1 0x1F DUP3 GT ISZERO PUSH2 0x20D1 JUMPI PUSH1 0x0 DUP2 PUSH1 0x0 MSTORE PUSH1 0x20 PUSH1 0x0 KECCAK256 PUSH1 0x1F DUP6 ADD PUSH1 0x5 SHR DUP2 ADD PUSH1 0x20 DUP7 LT ISZERO PUSH2 0x20AE JUMPI POP DUP1 JUMPDEST PUSH1 0x1F DUP6 ADD PUSH1 0x5 SHR DUP3 ADD SWAP2 POP JUMPDEST DUP2 DUP2 LT ISZERO PUSH2 0x20CD JUMPI DUP3 DUP2 SSTORE PUSH1 0x1 ADD PUSH2 0x20BA JUMP JUMPDEST POP POP POP JUMPDEST POP POP POP JUMP JUMPDEST DUP2 MLOAD PUSH1 0x1 PUSH1 0x1 PUSH1 0x40 SHL SUB DUP2 GT ISZERO PUSH2 0x20EF JUMPI PUSH2 0x20EF PUSH2 0x206F JUMP JUMPDEST PUSH2 0x2103 DUP2 PUSH2 0x20FD DUP5 SLOAD PUSH2 0x1FED JUMP JUMPDEST DUP5 PUSH2 0x2085 JUMP JUMPDEST PUSH1 0x20 DUP1 PUSH1 0x1F DUP4 GT PUSH1 0x1 DUP2 EQ PUSH2 0x2138 JUMPI PUSH1 0x0 DUP5 ISZERO PUSH2 0x2120 JUMPI POP DUP6 DUP4 ADD MLOAD JUMPDEST PUSH1 0x0 NOT PUSH1 0x3 DUP7 SWAP1 SHL SHR NOT AND PUSH1 0x1 DUP6 SWAP1 SHL OR DUP6 SSTORE PUSH2 0x20CD JUMP JUMPDEST PUSH1 0x0 DUP6 DUP2 MSTORE PUSH1 0x20 DUP2 KECCAK256 PUSH1 0x1F NOT DUP7 AND SWAP2 JUMPDEST DUP3 DUP2 LT ISZERO PUSH2 0x2167 JUMPI DUP9 DUP7 ADD MLOAD DUP3 SSTORE SWAP5 DUP5 ADD SWAP5 PUSH1 0x1 SWAP1 SWAP2 ADD SWAP1 DUP5 ADD PUSH2 0x2148 JUMP JUMPDEST POP DUP6 DUP3 LT ISZERO PUSH2 0x2185 JUMPI DUP8 DUP6 ADD MLOAD PUSH1 0x0 NOT PUSH1 0x3 DUP9 SWAP1 SHL PUSH1 0xF8 AND SHR NOT AND DUP2 SSTORE JUMPDEST POP POP POP POP POP PUSH1 0x1 SWAP1 DUP2 SHL ADD SWAP1 SSTORE POP JUMP JUMPDEST DUP1 DUP3 ADD DUP1 DUP3 GT ISZERO PUSH2 0xAF9 JUMPI PUSH2 0xAF9 PUSH2 0x2040 JUMP JUMPDEST DUP2 DUP2 SUB DUP2 DUP2 GT ISZERO PUSH2 0xAF9 JUMPI PUSH2 0xAF9 PUSH2 0x2040 JUMP JUMPDEST PUSH4 0x4E487B71 PUSH1 0xE0 SHL PUSH1 0x0 MSTORE PUSH1 0x32 PUSH1 0x4 MSTORE PUSH1 0x24 PUSH1 0x0 REVERT INVALID LOG2 PUSH5 0x6970667358 0x22 SLT KECCAK256 LOG3 PUSH22 0xDE79F634E2BDEAD5AEC742E7F562D32EEAB99A19945B XOR 0xE4 0xBF 0xC8 LOG2 0xEB CHAINID 0xAC PUSH5 0x736F6C6343 STOP ADDMOD XOR STOP CALLER "},"methodIdentifiers":{"acceptBid(uint256,uint256)":"02e9d5e4","assignProvider(uint256,address)":"c641fc1d","bids(uint256)":"4423c5f1","cancelJob(uint256)":"1dffa3dc","createJob(string,uint256,uint64)":"af163cbc","escrow()":"e2fdcc17","ftso()":"0da0c022","getBid(uint256)":"3c889e6f","getJob(uint256)":"bf22c457","getJobBidCount(uint256)":"e98e8f3f","getJobBidIds(uint256)":"24942805","getJobIds(uint256,uint256)":"e5815731","jobBids(uint256,uint256)":"840850d1","jobIds(uint256)":"4162cc88","jobs(uint256)":"180aedf3","markCompleted(uint256,bytes32)":"a118c41a","markReleased(uint256)":"95f104ec","owner()":"8da5cb5b","placeBid(uint256,uint256,uint256,string)":"7db6b683","quoteUsdToFlr(uint256)":"4485e119","raiseDispute(uint256)":"a5c1674e","renounceOwnership()":"715018a6","setEscrow(address)":"c10c3546","setFTSO(address)":"78ea5ec5","totalJobs()":"1ace87b3","transferOwnership(address)":"f2fde38b"}}}}}