{"contracts/FDCVerifier.sol":{"FDCVerifier":{"abi":[{"inputs":[{"internalType":"address","name":"initialOwner","type":"address"}],"stateMutability":"nonpayable","type":"constructor"},{"inputs":[{"internalType":"address","name":"owner","type":"address"}],"name":"OwnableInvalidOwner","type":"error"},{"inputs":[{"internalType":"address","name":"account","type":"address"}],"name":"OwnableUnauthorizedAccount","type":"error"},{"anonymous":false,"inputs":[{"indexed":true,"internalType":"uint256","name":"jobId","type":"uint256"},{"indexed":false,"internalType":"bytes32","name":"proofHash","type":"bytes32"},{"indexed":true,"internalType":"address","name":"submitter","type":"address"}],"name":"DeliveryAttested","type":"event"},{"anonymous":false,"inputs":[{"indexed":true,"internalType":"address","name":"hub","type":"address"}],"name":"FdcHubSet","type":"event"},{"anonymous":false,"inputs":[{"indexed":true,"internalType":"address","name":"verifier","type":"address"}],"name":"FdcVerificationSet","type":"event"},{"anonymous":false,"inputs":[{"indexed":true,"internalType":"address","name":"previousOwner","type":"address"},{"indexed":true,"internalType":"address","name":"newOwner","type":"address"}],"name":"OwnershipTransferred","type":"event"},{"anonymous":false,"inputs":[{"indexed":true,"internalType":"address","name":"submitter","type":"address"},{"indexed":false,"internalType":"bool","name":"authorised","type":"bool"}],"name":"SubmitterAuthorised","type":"event"},{"inputs":[],"name":"FLARE_CONTRACT_REGISTRY","outputs":[{"internalType":"address","name":"","type":"address"}],"stateMutability":"view","type":"function"},{"inputs":[],"name":"JSON_API_ATTESTATION_TYPE","outputs":[{"internalType":"bytes32","name":"","type":"bytes32"}],"stateMutability":"view","type":"function"},{"inputs":[{"internalType":"uint256","name":"","type":"uint256"}],"name":"attestationHashes","outputs":[{"internalType":"bytes32","name":"","type":"bytes32"}],"stateMutability":"view","type":"function"},{"inputs":[{"internalType":"address","name":"","type":"address"}],"name":"authorisedSubmitters","outputs":[{"internalType":"bool","name":"","type":"bool"}],"stateMutability":"view","type":"function"},{"inputs":[{"internalType":"uint256","name":"","type":"uint256"}],"name":"deliveryConfirmed","outputs":[{"internalType":"bool","name":"","type":"bool"}],"stateMutability":"view","type":"function"},{"inputs":[],"name":"fdcHub","outputs":[{"internalType":"contract IFdcHub","name":"","type":"address"}],"stateMutability":"view","type":"function"},{"inputs":[],"name":"fdcVerification","outputs":[{"internalType":"contract IFdcVerification","name":"","type":"address"}],"stateMutability":"view","type":"function"},{"inputs":[{"internalType":"uint256","name":"jobId","type":"uint256"}],"name":"isDeliveryConfirmed","outputs":[{"internalType":"bool","name":"","type":"bool"}],"stateMutability":"view","type":"function"},{"inputs":[{"internalType":"uint256","name":"jobId","type":"uint256"}],"name":"manualConfirmDelivery","outputs":[],"stateMutability":"nonpayable","type":"function"},{"inputs":[],"name":"owner","outputs":[{"internalType":"address","name":"","type":"address"}],"stateMutability":"view","type":"function"},{"inputs":[],"name":"renounceOwnership","outputs":[],"stateMutability":"nonpayable","type":"function"},{"inputs":[{"internalType":"bytes","name":"attestationData","type":"bytes"}],"name":"requestDeliveryAttestation","outputs":[{"internalType":"bytes32","name":"requestId","type":"bytes32"}],"stateMutability":"payable","type":"function"},{"inputs":[],"name":"resolveFdcContracts","outputs":[],"stateMutability":"nonpayable","type":"function"},{"inputs":[{"internalType":"address","name":"hub","type":"address"}],"name":"setFdcHub","outputs":[],"stateMutability":"nonpayable","type":"function"},{"inputs":[{"internalType":"address","name":"verifier","type":"address"}],"name":"setFdcVerification","outputs":[],"stateMutability":"nonpayable","type":"function"},{"inputs":[{"internalType":"address","name":"submitter","type":"address"},{"internalType":"bool","name":"authorised","type":"bool"}],"name":"setSubmitterAuthorised","outputs":[],"stateMutability":"nonpayable","type":"function"},{"inputs":[{"internalType":"address","name":"newOwner","type":"address"}],"name":"transferOwnership","outputs":[],"stateMutability":"nonpayable","type":"function"},{"inputs":[{"internalType":"uint256","name":"jobId","type":"uint256"},{"components":[{"internalType":"bytes32[]","name":"merkleProof","type":"bytes32[]"},{"components":[{"internalType":"bytes32","name":"attestationType","type":"bytes32"},{"internalType":"bytes32","name":"sourceId","type":"bytes32"},{"internalType":"uint64","name":"votingRound","type":"uint64"},{"internalType":"uint64","name":"lowestUsedTimestamp","type":"uint64"},{"components":[{"internalType":"string","name":"url","type":"string"},{"internalType":"string","name":"postprocessJq","type":"string"},{"internalType":"string","name":"headerKey","type":"string"},{"internalType":"string","name":"headerValue","type":"string"}],"internalType":"struct IJsonApi.Request","name":"requestBody","type":"tuple"},{"components":[{"internalType":"bytes","name":"abiEncodedData","type":"bytes"}],"internalType":"struct IJsonApi.Response","name":"responseBody","type":"tuple"}],"internalType":"struct IJsonApi.Body","name":"body","type":"tuple"}],"internalType":"struct IJsonApi.Proof","name":"proof","type":"tuple"}],"name":"verifyDelivery","outputs":[],"stateMutability":"nonpayable","type":"function"}],"evm":{"bytecode":{"linkReferences":{},"object":"60806040523480156200001157600080fd5b506040516200154a3803806200154a8339810160408190526200003491620002ca565b806001600160a01b0381166200006457604051631e4fbdf760e01b81526000600482015260240160405180910390fd5b6200006f8162000081565b506200007a620000d1565b50620002fc565b600080546001600160a01b038381166001600160a01b0319831681178455604051919092169283917f8be0079c531659141344cd1fd0a4f28419497f9722a3daafe3b4186f6b6457e09190a35050565b73ad67fe66660fb8dfe9d6b1b4240d8650e30f60193b600003620000f157565b60405163413b07e560e11b815260206004820152600f60248201526e233231ab32b934b334b1b0ba34b7b760891b604482015273ad67fe66660fb8dfe9d6b1b4240d8650e30f60199060009082906382760fca90606401602060405180830381865afa15801562000166573d6000803e3d6000fd5b505050506040513d601f19601f820116820180604052508101906200018c9190620002ca565b90506001600160a01b03811615620001e657600180546001600160a01b0319166001600160a01b0383169081179091556040517fc36746e466e1c67b4e56be936ea2bdba2381fea7362ed6607fb06c9612b5753590600090a25b60405163413b07e560e11b8152602060048201526006602482015265233231a43ab160d11b60448201526000906001600160a01b038416906382760fca90606401602060405180830381865afa15801562000245573d6000803e3d6000fd5b505050506040513d601f19601f820116820180604052508101906200026b9190620002ca565b90506001600160a01b03811615620002c557600280546001600160a01b0319166001600160a01b0383169081179091556040517f8e11cb5ad55badd45e83be7bb83fde87cd7284f9a87f53748db05d048c9cc40490600090a25b505050565b600060208284031215620002dd57600080fd5b81516001600160a01b0381168114620002f557600080fd5b9392505050565b61123e806200030c6000396000f3fe6080604052600436106101095760003560e01c80638da5cb5b11610095578063e1d65b6e11610064578063e1d65b6e1461031c578063e443147f1461032f578063ed01a1091461034f578063ede628f71461036f578063f2fde38b1461039f57600080fd5b80638da5cb5b1461029e578063a9faa0ef146102bc578063b8de0fcb146102dc578063ca0dc675146102fc57600080fd5b8063444776ec116100dc578063444776ec146101ee578063580788ad146102225780636e4c397814610252578063715018a6146102695780638010fcaf1461027e57600080fd5b806308b8c6f81461010e57806320249cf11461014e57806337433cf11461018e5780633ad6d516146101ce575b600080fd5b34801561011a57600080fd5b5061013b610129366004610d02565b60046020526000908152604090205481565b6040519081526020015b60405180910390f35b34801561015a57600080fd5b5061017673ad67fe66660fb8dfe9d6b1b4240d8650e30f601981565b6040516001600160a01b039091168152602001610145565b34801561019a57600080fd5b506101be6101a9366004610d02565b60009081526003602052604090205460ff1690565b6040519015158152602001610145565b3480156101da57600080fd5b50600154610176906001600160a01b031681565b3480156101fa57600080fd5b5061013b7f5c2c2191416db541310599baf4ee975996aa57c1a844457b2b40d56af9d1bf9981565b34801561022e57600080fd5b506101be61023d366004610d02565b60036020526000908152604090205460ff1681565b34801561025e57600080fd5b506102676103bf565b005b34801561027557600080fd5b506102676103d1565b34801561028a57600080fd5b50600254610176906001600160a01b031681565b3480156102aa57600080fd5b506000546001600160a01b0316610176565b3480156102c857600080fd5b506102676102d7366004610d3e565b6103e3565b3480156102e857600080fd5b506102676102f7366004610d02565b61044a565b34801561030857600080fd5b50610267610317366004610d77565b610512565b61013b61032a366004610dba565b610869565b34801561033b57600080fd5b5061026761034a366004610e2c565b6109b3565b34801561035b57600080fd5b5061026761036a366004610e2c565b610a05565b34801561037b57600080fd5b506101be61038a366004610e2c565b60056020526000908152604090205460ff1681565b3480156103ab57600080fd5b506102676103ba366004610e2c565b610a57565b6103c7610a95565b6103cf610ac2565b565b6103d9610a95565b6103cf6000610cb2565b6103eb610a95565b6001600160a01b038216600081815260056020908152604091829020805460ff191685151590811790915591519182527f1c08dc3435df8290f91058e5d5445e4a46776fb3fa1cb46aafa18d364329866c910160405180910390a25050565b610452610a95565b60008181526003602052604090205460ff16156104b65760405162461bcd60e51b815260206004820152601e60248201527f46444356657269666965723a20616c726561647920636f6e6669726d6564000060448201526064015b60405180910390fd5b6000818152600360209081526040808320805460ff191660011790556004825280832083905551918252339183917f1b795559218227da87bc4cdf370d3e3c1cbb7ced4c523d8a9c167811fcb92ac3910160405180910390a350565b3360009081526005602052604090205460ff168061053a57506000546001600160a01b031633145b6105865760405162461bcd60e51b815260206004820152601b60248201527f46444356657269666965723a206e6f7420617574686f7269736564000000000060448201526064016104ad565b60008281526003602052604090205460ff16156105e55760405162461bcd60e51b815260206004820152601e60248201527f46444356657269666965723a20616c726561647920636f6e6669726d6564000060448201526064016104ad565b6001546001600160a01b031661063d5760405162461bcd60e51b815260206004820152601d60248201527f46444356657269666965723a207665726966696572206e6f742073657400000060448201526064016104ad565b60015460405163c596f46960e01b81526000916001600160a01b03169063c596f4699061066e908590600401611059565b602060405180830381865afa15801561068b573d6000803e3d6000fd5b505050506040513d601f19601f820116820180604052508101906106af91906110f7565b9050806106fe5760405162461bcd60e51b815260206004820152601a60248201527f46444356657269666965723a20696e76616c69642070726f6f6600000000000060448201526064016104ad565b60008061070e6020850185611114565b61071c9060a0810190611134565b610726908061114a565b8101906107339190611191565b915091508482146107865760405162461bcd60e51b815260206004820152601c60248201527f46444356657269666965723a206a6f62204944206d69736d617463680000000060448201526064016104ad565b806107df5760405162461bcd60e51b815260206004820152602360248201527f46444356657269666965723a2064656c6976657279206e6f7420636f6e6669726044820152621b595960ea1b60648201526084016104ad565b600085815260036020908152604091829020805460ff19166001179055905161080a91869101611059565b60408051601f19818403018152828252805160209182012060008981526004835283902081905583529051339288927f1b795559218227da87bc4cdf370d3e3c1cbb7ced4c523d8a9c167811fcb92ac392918290030190a35050505050565b3360009081526005602052604081205460ff168061089157506000546001600160a01b031633145b6108dd5760405162461bcd60e51b815260206004820152601b60248201527f46444356657269666965723a206e6f7420617574686f7269736564000000000060448201526064016104ad565b6002546001600160a01b03166109355760405162461bcd60e51b815260206004820152601860248201527f46444356657269666965723a20687562206e6f7420736574000000000000000060448201526064016104ad565b60025460405163188e3cd560e21b81526001600160a01b0390911690636238f35490349061096990879087906004016111b6565b60206040518083038185885af1158015610987573d6000803e3d6000fd5b50505050506040513d601f19601f820116820180604052508101906109ac91906111d2565b9392505050565b6109bb610a95565b600180546001600160a01b0319166001600160a01b0383169081179091556040517fc36746e466e1c67b4e56be936ea2bdba2381fea7362ed6607fb06c9612b5753590600090a250565b610a0d610a95565b600280546001600160a01b0319166001600160a01b0383169081179091556040517f8e11cb5ad55badd45e83be7bb83fde87cd7284f9a87f53748db05d048c9cc40490600090a250565b610a5f610a95565b6001600160a01b038116610a8957604051631e4fbdf760e01b8152600060048201526024016104ad565b610a9281610cb2565b50565b6000546001600160a01b031633146103cf5760405163118cdaa760e01b81523360048201526024016104ad565b73ad67fe66660fb8dfe9d6b1b4240d8650e30f60193b600003610ae157565b60405163413b07e560e11b815260206004820152600f60248201526e233231ab32b934b334b1b0ba34b7b760891b604482015273ad67fe66660fb8dfe9d6b1b4240d8650e30f60199060009082906382760fca90606401602060405180830381865afa158015610b55573d6000803e3d6000fd5b505050506040513d601f19601f82011682018060405250810190610b7991906111eb565b90506001600160a01b03811615610bd257600180546001600160a01b0319166001600160a01b0383169081179091556040517fc36746e466e1c67b4e56be936ea2bdba2381fea7362ed6607fb06c9612b5753590600090a25b60405163413b07e560e11b8152602060048201526006602482015265233231a43ab160d11b60448201526000906001600160a01b038416906382760fca90606401602060405180830381865afa158015610c30573d6000803e3d6000fd5b505050506040513d601f19601f82011682018060405250810190610c5491906111eb565b90506001600160a01b03811615610cad57600280546001600160a01b0319166001600160a01b0383169081179091556040517f8e11cb5ad55badd45e83be7bb83fde87cd7284f9a87f53748db05d048c9cc40490600090a25b505050565b600080546001600160a01b038381166001600160a01b0319831681178455604051919092169283917f8be0079c531659141344cd1fd0a4f28419497f9722a3daafe3b4186f6b6457e09190a35050565b600060208284031215610d1457600080fd5b5035919050565b6001600160a01b0381168114610a9257600080fd5b8015158114610a9257600080fd5b60008060408385031215610d5157600080fd5b8235610d5c81610d1b565b91506020830135610d6c81610d30565b809150509250929050565b60008060408385031215610d8a57600080fd5b82359150602083013567ffffffffffffffff811115610da857600080fd5b830160408186031215610d6c57600080fd5b60008060208385031215610dcd57600080fd5b823567ffffffffffffffff80821115610de557600080fd5b818501915085601f830112610df957600080fd5b813581811115610e0857600080fd5b866020828501011115610e1a57600080fd5b60209290920196919550909350505050565b600060208284031215610e3e57600080fd5b81356109ac81610d1b565b6000823560be19833603018112610e5f57600080fd5b90910192915050565b803567ffffffffffffffff81168114610e8057600080fd5b919050565b6000808335601e19843603018112610e9c57600080fd5b830160208101925035905067ffffffffffffffff811115610ebc57600080fd5b803603821315610ecb57600080fd5b9250929050565b81835281816020850137506000828201602090810191909152601f909101601f19169091010190565b60008235601e19833603018112610e5f57600080fd5b6000610f1d8283610e85565b60208552610f2f602086018284610ed2565b95945050505050565b80358252602081013560208301526000610f5460408301610e68565b67ffffffffffffffff808216604086015280610f7260608601610e68565b16606086015250506080820135607e19833603018112610f9157600080fd5b60c060808501528201610fa48180610e85565b608060c0870152610fba61014087018284610ed2565b915050610fca6020830183610e85565b60bf19808885030160e0890152610fe2848385610ed2565b9350610ff16040860186610e85565b93509150808885030161010089015261100b848484610ed2565b935061101a6060860186610e85565b9550925080888503016101208901525050611036828483610ed2565b9250505061104760a0840184610efb565b84820360a0860152610f2f8282610f11565b6020815260008235601e1984360301811261107357600080fd5b830160208101903567ffffffffffffffff81111561109057600080fd5b8060051b8036038313156110a357600080fd5b60406020860152606085018290526001600160fb1b038211156110c557600080fd5b80836080870137840191506110df90506020850185610e49565b6060848303016040850152610f2f6080830182610f38565b60006020828403121561110957600080fd5b81516109ac81610d30565b6000823560be1983360301811261112a57600080fd5b9190910192915050565b60008235601e1983360301811261112a57600080fd5b6000808335601e1984360301811261116157600080fd5b83018035915067ffffffffffffffff82111561117c57600080fd5b602001915036819003821315610ecb57600080fd5b600080604083850312156111a457600080fd5b823591506020830135610d6c81610d30565b6020815260006111ca602083018486610ed2565b949350505050565b6000602082840312156111e457600080fd5b5051919050565b6000602082840312156111fd57600080fd5b81516109ac81610d1b56fea26469706673582212206377ddffdcce5e1067d51618ca72367794345d2fba528a14098e31283b2d705f64736f6c63430008180033","opcodes":"PUSH1 0x80 PUSH1 0x40 MSTORE CALLVALUE DUP1 ISZERO PUSH3 0x11 JUMPI PUSH1 0x0 DUP1 REVERT JUMPDEST POP PUSH1 0x40 MLOAD PUSH3 0x154A CODESIZE SUB DUP1 PUSH3 0x154A DUP4 CODECOPY DUP2 ADD PUSH1 0x40 DUP2 SWAP1 MSTORE PUSH3 0x34 SWAP2 PUSH3 0x2CA JUMP JUMPDEST DUP1 PUSH1 0x1 PUSH1 0x1 PUSH1 0xA0 SHL SUB DUP2 AND PUSH3 0x64 JUMPI PUSH1 0x40 MLOAD PUSH4 0x1E4FBDF7 PUSH1 0xE0 SHL DUP2 MSTORE PUSH1 0x0 PUSH1 0x4 DUP3 ADD MSTORE PUSH1 0x24 ADD PUSH1 0x40 MLOAD DUP1 SWAP2 SUB SWAP1 REVERT JUMPDEST PUSH3 0x6F DUP2 PUSH3 0x81 JUMP JUMPDEST POP PUSH3 0x7A PUSH3 0xD1 JUMP JUMPDEST POP PUSH3 0x2FC JUMP JUMPDEST PUSH1 0x0 DUP1 SLOAD PUSH1 0x1 PUSH1 0x1 PUSH1 0xA0 SHL SUB DUP4 DUP2 AND PUSH1 0x1 PUSH1 0x1 PUSH1 0xA0 SHL SUB NOT DUP4 AND DUP2 OR DUP5 SSTORE PUSH1 0x40 MLOAD SWAP2 SWAP1 SWAP3 AND SWAP3 DUP4 SWAP2 PUSH32 0x8BE0079C531659141344CD1FD0A4F28419497F9722A3DAAFE3B4186F6B6457E0 SWAP2 SWAP1 LOG3 POP POP JUMP JUMPDEST PUSH20 0xAD67FE66660FB8DFE9D6B1B4240D8650E30F6019 EXTCODESIZE PUSH1 0x0 SUB PUSH3 0xF1 JUMPI JUMP JUMPDEST PUSH1 0x40 MLOAD PUSH4 0x413B07E5 PUSH1 0xE1 SHL DUP2 MSTORE PUSH1 0x20 PUSH1 0x4 DUP3 ADD MSTORE PUSH1 0xF PUSH1 0x24 DUP3 ADD MSTORE PUSH15 0x233231AB32B934B334B1B0BA34B7B7 PUSH1 0x89 SHL PUSH1 0x44 DUP3 ADD MSTORE PUSH20 0xAD67FE66660FB8DFE9D6B1B4240D8650E30F6019 SWAP1 PUSH1 0x0 SWAP1 DUP3 SWAP1 PUSH4 0x82760FCA SWAP1 PUSH1 0x64 ADD PUSH1 0x20 PUSH1 0x40 MLOAD DUP1 DUP4 SUB DUP2 DUP7 GAS STATICCALL ISZERO DUP1 ISZERO PUSH3 0x166 JUMPI RETURNDATASIZE PUSH1 0x0 DUP1 RETURNDATACOPY RETURNDATASIZE PUSH1 0x0 REVERT JUMPDEST POP POP POP POP PUSH1 0x40 MLOAD RETURNDATASIZE PUSH1 0x1F NOT PUSH1 0x1F DUP3 ADD AND DUP3 ADD DUP1 PUSH1 0x40 MSTORE POP DUP2 ADD SWAP1 PUSH3 0x18C SWAP2 SWAP1 PUSH3 0x2CA JUMP JUMPDEST SWAP1 POP PUSH1 0x1 PUSH1 0x1 PUSH1 0xA0 SHL SUB DUP2 AND ISZERO PUSH3 0x1E6 JUMPI PUSH1 0x1 DUP1 SLOAD PUSH1 0x1 PUSH1 0x1 PUSH1 0xA0 SHL SUB NOT AND PUSH1 0x1 PUSH1 0x1 PUSH1 0xA0 SHL SUB DUP4 AND SWAP1 DUP2 OR SWAP1 SWAP2 SSTORE PUSH1 0x40 MLOAD PUSH32 0xC36746E466E1C67B4E56BE936EA2BDBA2381FEA7362ED6607FB06C9612B57535 SWAP1 PUSH1 0x0 SWAP1 LOG2 JUMPDEST PUSH1 0x40 MLOAD PUSH4 0x413B07E5 PUSH1 0xE1 SHL DUP2 MSTORE PUSH1 0x20 PUSH1 0x4 DUP3 ADD MSTORE PUSH1 0x6 PUSH1 0x24 DUP3 ADD MSTORE PUSH6 0x233231A43AB1 PUSH1 0xD1 SHL PUSH1 0x44 DUP3 ADD MSTORE PUSH1 0x0 SWAP1 PUSH1 0x1 PUSH1 0x1 PUSH1 0xA0 SHL SUB DUP5 AND SWAP1 PUSH4 0x82760FCA SWAP1 PUSH1 0x64 ADD PUSH1 0x20 PUSH1 0x40 MLOAD DUP1 DUP4 SUB DUP2 DUP7 GAS STATICCALL ISZERO DUP1 ISZERO PUSH3 0x245 JUMPI RETURNDATASIZE PUSH1 0x0 DUP1 RETURNDATACOPY RETURNDATASIZE PUSH1 0x0 REVERT JUMPDEST POP POP POP POP PUSH1 0x40 MLOAD RETURNDATASIZE PUSH1 0x1F NOT PUSH1 0x1F DUP3 ADD AND DUP3 ADD DUP1 PUSH1 0x40 MSTORE POP DUP2 ADD SWAP1 PUSH3 0x26B SWAP2 SWAP1 PUSH3 0x2CA JUMP JUMPDEST SWAP1 POP PUSH1 0x1 PUSH1 0x1 PUSH1 0xA0 SHL SUB DUP2 AND ISZERO PUSH3 0x2C5 JUMPI PUSH1 0x2 DUP1 SLOAD PUSH1 0x1 PUSH1 0x1 PUSH1 0xA0 SHL SUB NOT AND PUSH1 0x1 PUSH1 0x1 PUSH1 0xA0 SHL SUB DUP4 AND SWAP1 DUP2 OR SWAP1 SWAP2 SSTORE PUSH1 0x40 MLOAD PUSH32 0x8E11CB5AD55BADD45E83BE7BB83FDE87CD7284F9A87F53748DB05D048C9CC404 SWAP1 PUSH1 0x0 SWAP1 LOG2 JUMPDEST POP POP POP JUMP JUMPDEST PUSH1 0x0 PUSH1 0x20 DUP3 DUP5 SUB SLT ISZERO PUSH3 0x2DD JUMPI PUSH1 0x0 DUP1 REVERT JUMPDEST DUP2 MLOAD PUSH1 0x1 PUSH1 0x1 PUSH1 0xA0 SHL SUB DUP2 AND DUP2 EQ PUSH3 0x2F5 JUMPI PUSH1 0x0 DUP1 REVERT JUMPDEST SWAP4 SWAP3 POP POP POP JUMP JUMPDEST PUSH2 0x123E DUP1 PUSH3 0x30C PUSH1 0x0 CODECOPY PUSH1 0x0 RETURN INVALID PUSH1 0x80 PUSH1 0x40 MSTORE PUSH1 0x4 CALLDATASIZE LT PUSH2 0x109 JUMPI PUSH1 0x0 CALLDATALOAD PUSH1 0xE0 SHR DUP1 PUSH4 0x8DA5CB5B GT PUSH2 0x95 JUMPI DUP1 PUSH4 0xE1D65B6E GT PUSH2 0x64 JUMPI DUP1 PUSH4 0xE1D65B6E EQ PUSH2 0x31C JUMPI DUP1 PUSH4 0xE443147F EQ PUSH2 0x32F JUMPI DUP1 PUSH4 0xED01A109 EQ PUSH2 0x34F JUMPI DUP1 PUSH4 0xEDE628F7 EQ PUSH2 0x36F JUMPI DUP1 PUSH4 0xF2FDE38B EQ PUSH2 0x39F JUMPI PUSH1 0x0 DUP1 REVERT JUMPDEST DUP1 PUSH4 0x8DA5CB5B EQ PUSH2 0x29E JUMPI DUP1 PUSH4 0xA9FAA0EF EQ PUSH2 0x2BC JUMPI DUP1 PUSH4 0xB8DE0FCB EQ PUSH2 0x2DC JUMPI DUP1 PUSH4 0xCA0DC675 EQ PUSH2 0x2FC JUMPI PUSH1 0x0 DUP1 REVERT JUMPDEST DUP1 PUSH4 0x444776EC GT PUSH2 0xDC JUMPI DUP1 PUSH4 0x444776EC EQ PUSH2 0x1EE JUMPI DUP1 PUSH4 0x580788AD EQ PUSH2 0x222 JUMPI DUP1 PUSH4 0x6E4C3978 EQ PUSH2 0x252 JUMPI DUP1 PUSH4 0x715018A6 EQ PUSH2 0x269 JUMPI DUP1 PUSH4 0x8010FCAF EQ PUSH2 0x27E JUMPI PUSH1 0x0 DUP1 REVERT JUMPDEST DUP1 PUSH4 0x8B8C6F8 EQ PUSH2 0x10E JUMPI DUP1 PUSH4 0x20249CF1 EQ PUSH2 0x14E JUMPI DUP1 PUSH4 0x37433CF1 EQ PUSH2 0x18E JUMPI DUP1 PUSH4 0x3AD6D516 EQ PUSH2 0x1CE JUMPI JUMPDEST PUSH1 0x0 DUP1 REVERT JUMPDEST CALLVALUE DUP1 ISZERO PUSH2 0x11A JUMPI PUSH1 0x0 DUP1 REVERT JUMPDEST POP PUSH2 0x13B PUSH2 0x129 CALLDATASIZE PUSH1 0x4 PUSH2 0xD02 JUMP JUMPDEST PUSH1 0x4 PUSH1 0x20 MSTORE PUSH1 0x0 SWAP1 DUP2 MSTORE PUSH1 0x40 SWAP1 KECCAK256 SLOAD DUP2 JUMP JUMPDEST PUSH1 0x40 MLOAD SWAP1 DUP2 MSTORE PUSH1 0x20 ADD JUMPDEST PUSH1 0x40 MLOAD DUP1 SWAP2 SUB SWAP1 RETURN JUMPDEST CALLVALUE DUP1 ISZERO PUSH2 0x15A JUMPI PUSH1 0x0 DUP1 REVERT JUMPDEST POP PUSH2 0x176 PUSH20 0xAD67FE66660FB8DFE9D6B1B4240D8650E30F6019 DUP2 JUMP JUMPDEST PUSH1 0x40 MLOAD PUSH1 0x1 PUSH1 0x1 PUSH1 0xA0 SHL SUB SWAP1 SWAP2 AND DUP2 MSTORE PUSH1 0x20 ADD PUSH2 0x145 JUMP JUMPDEST CALLVALUE DUP1 ISZERO PUSH2 0x19A JUMPI PUSH1 0x0 DUP1 REVERT JUMPDEST POP PUSH2 0x1BE PUSH2 0x1A9 CALLDATASIZE PUSH1 0x4 PUSH2 0xD02 JUMP JUMPDEST PUSH1 0x0 SWAP1 DUP2 MSTORE PUSH1 0x3 PUSH1 0x20 MSTORE PUSH1 0x40 SWAP1 KECCAK256 SLOAD PUSH1 0xFF AND SWAP1 JUMP JUMPDEST PUSH1 0x40 MLOAD SWAP1 ISZERO ISZERO DUP2 MSTORE PUSH1 0x20 ADD PUSH2 0x145 JUMP JUMPDEST CALLVALUE DUP1 ISZERO PUSH2 0x1DA JUMPI PUSH1 0x0 DUP1 REVERT JUMPDEST POP PUSH1 0x1 SLOAD PUSH2 0x176 SWAP1 PUSH1 0x1 PUSH1 0x1 PUSH1 0xA0 SHL SUB AND DUP2 JUMP JUMPDEST CALLVALUE DUP1 ISZERO PUSH2 0x1FA JUMPI PUSH1 0x0 DUP1 REVERT JUMPDEST POP PUSH2 0x13B PUSH32 0x5C2C2191416DB541310599BAF4EE975996AA57C1A844457B2B40D56AF9D1BF99 DUP2 JUMP JUMPDEST CALLVALUE DUP1 ISZERO PUSH2 0x22E JUMPI PUSH1 0x0 DUP1 REVERT JUMPDEST POP PUSH2 0x1BE PUSH2 0x23D CALLDATASIZE PUSH1 0x4 PUSH2 0xD02 JUMP JUMPDEST PUSH1 0x3 PUSH1 0x20 MSTORE PUSH1 0x0 SWAP1 DUP2 MSTORE PUSH1 0x40 SWAP1 KECCAK256 SLOAD PUSH1 0xFF AND DUP2 JUMP JUMPDEST CALLVALUE DUP1 ISZERO PUSH2 0x25E JUMPI PUSH1 0x0 DUP1 REVERT JUMPDEST POP PUSH2 0x267 PUSH2 0x3BF JUMP JUMPDEST STOP JUMPDEST CALLVALUE DUP1 ISZERO PUSH2 0x275 JUMPI PUSH1 0x0 DUP1 REVERT JUMPDEST POP PUSH2 0x267 PUSH2 0x3D1 JUMP JUMPDEST CALLVALUE DUP1 ISZERO PUSH2 0x28A JUMPI PUSH1 0x0 DUP1 REVERT JUMPDEST POP PUSH1 0x2 SLOAD PUSH2 0x176 SWAP1 PUSH1 0x1 PUSH1 0x1 PUSH1 0xA0 SHL SUB AND DUP2 JUMP JUMPDEST CALLVALUE DUP1 ISZERO PUSH2 0x2AA JUMPI PUSH1 0x0 DUP1 REVERT JUMPDEST POP PUSH1 0x0 SLOAD PUSH1 0x1 PUSH1 0x1 PUSH1 0xA0 SHL SUB AND PUSH2 0x176 JUMP JUMPDEST CALLVALUE DUP1 ISZERO PUSH2 0x2C8 JUMPI PUSH1 0x0 DUP1 REVERT JUMPDEST POP PUSH2 0x267 PUSH2 0x2D7 CALLDATASIZE PUSH1 0x4 PUSH2 0xD3E JUMP JUMPDEST PUSH2 0x3E3 JUMP JUMPDEST CALLVALUE DUP1 ISZERO PUSH2 0x2E8 JUMPI PUSH1 0x0 DUP1 REVERT JUMPDEST POP PUSH2 0x267 PUSH2 0x2F7 CALLDATASIZE PUSH1 0x4 PUSH2 0xD02 JUMP JUMPDEST PUSH2 0x44A JUMP JUMPDEST CALLVALUE DUP1 ISZERO PUSH2 0x308 JUMPI PUSH1 0x0 DUP1 REVERT JUMPDEST POP PUSH2 0x267 PUSH2 0x317 CALLDATASIZE PUSH1 0x4 PUSH2 0xD77 JUMP JUMPDEST PUSH2 0x512 JUMP JUMPDEST PUSH2 0x13B PUSH2 0x32A CALLDATASIZE PUSH1 0x4 PUSH2 0xDBA JUMP JUMPDEST PUSH2 0x869 JUMP JUMPDEST CALLVALUE DUP1 ISZERO PUSH2 0x33B JUMPI PUSH1 0x0 DUP1 REVERT JUMPDEST POP PUSH2 0x267 PUSH2 0x34A CALLDATASIZE PUSH1 0x4 PUSH2 0xE2C JUMP JUMPDEST PUSH2 0x9B3 JUMP JUMPDEST CALLVALUE DUP1 ISZERO PUSH2 0x35B JUMPI PUSH1 0x0 DUP1 REVERT JUMPDEST POP PUSH2 0x267 PUSH2 0x36A CALLDATASIZE PUSH1 0x4 PUSH2 0xE2C JUMP JUMPDEST PUSH2 0xA05 JUMP JUMPDEST CALLVALUE DUP1 ISZERO PUSH2 0x37B JUMPI PUSH1 0x0 DUP1 REVERT JUMPDEST POP PUSH2 0x1BE PUSH2 0x38A CALLDATASIZE PUSH1 0x4 PUSH2 0xE2C JUMP JUMPDEST PUSH1 0x5 PUSH1 0x20 MSTORE PUSH1 0x0 SWAP1 DUP2 MSTORE PUSH1 0x40 SWAP1 KECCAK256 SLOAD PUSH1 0xFF AND DUP2 JUMP JUMPDEST CALLVALUE DUP1 ISZERO PUSH2 0x3AB JUMPI PUSH1 0x0 DUP1 REVERT JUMPDEST POP PUSH2 0x267 PUSH2 0x3BA CALLDATASIZE PUSH1 0x4 PUSH2 0xE2C JUMP JUMPDEST PUSH2 0xA57 JUMP JUMPDEST PUSH2 0x3C7 PUSH2 0xA95 JUMP JUMPDEST PUSH2 0x3CF PUSH2 0xAC2 JUMP JUMPDEST JUMP JUMPDEST PUSH2 0x3D9 PUSH2 0xA95 JUMP JUMPDEST PUSH2 0x3CF PUSH1 0x0 PUSH2 0xCB2 JUMP JUMPDEST PUSH2 0x3EB PUSH2 0xA95 JUMP JUMPDEST PUSH1 0x1 PUSH1 0x1 PUSH1 0xA0 SHL SUB DUP3 AND PUSH1 0x0 DUP2 DUP2 MSTORE PUSH1 0x5 PUSH1 0x20 SWAP1 DUP2 MSTORE PUSH1 0x40 SWAP2 DUP3 SWAP1 KECCAK256 DUP1 SLOAD PUSH1 0xFF NOT AND DUP6 ISZERO ISZERO SWAP1 DUP2 OR SWAP1 SWAP2 SSTORE SWAP2 MLOAD SWAP2 DUP3 MSTORE PUSH32 0x1C08DC3435DF8290F91058E5D5445E4A46776FB3FA1CB46AAFA18D364329866C SWAP2 ADD PUSH1 0x40 MLOAD DUP1 SWAP2 SUB SWAP1 LOG2 POP POP JUMP JUMPDEST PUSH2 0x452 PUSH2 0xA95 JUMP JUMPDEST PUSH1 0x0 DUP2 DUP2 MSTORE PUSH1 0x3 PUSH1 0x20 MSTORE PUSH1 0x40 SWAP1 KECCAK256 SLOAD PUSH1 0xFF AND ISZERO PUSH2 0x4B6 JUMPI PUSH1 0x40 MLOAD PUSH3 0x461BCD PUSH1 0xE5 SHL DUP2 MSTORE PUSH1 0x20 PUSH1 0x4 DUP3 ADD MSTORE PUSH1 0x1E PUSH1 0x24 DUP3 ADD MSTORE PUSH32 0x46444356657269666965723A20616C726561647920636F6E6669726D65640000 PUSH1 0x44 DUP3 ADD MSTORE PUSH1 0x64 ADD JUMPDEST PUSH1 0x40 MLOAD DUP1 SWAP2 SUB SWAP1 REVERT JUMPDEST PUSH1 0x0 DUP2 DUP2 MSTORE PUSH1 0x3 PUSH1 0x20 SWAP1 DUP2 MSTORE PUSH1 0x40 DUP1 DUP4 KECCAK256 DUP1 SLOAD PUSH1 0xFF NOT AND PUSH1 0x1 OR SWAP1 SSTORE PUSH1 0x4 DUP3 MSTORE DUP1 DUP4 KECCAK256 DUP4 SWAP1 SSTORE MLOAD SWAP2 DUP3 MSTORE CALLER SWAP2 DUP4 SWAP2 PUSH32 0x1B795559218227DA87BC4CDF370D3E3C1CBB7CED4C523D8A9C167811FCB92AC3 SWAP2 ADD PUSH1 0x40 MLOAD DUP1 SWAP2 SUB SWAP1 LOG3 POP JUMP JUMPDEST CALLER PUSH1 0x0 SWAP1 DUP2 MSTORE PUSH1 0x5 PUSH1 0x20 MSTORE PUSH1 0x40 SWAP1 KECCAK256 SLOAD PUSH1 0xFF AND DUP1 PUSH2 0x53A JUMPI POP PUSH1 0x0 SLOAD PUSH1 0x1 PUSH1 0x1 PUSH1 0xA0 SHL SUB AND CALLER EQ JUMPDEST PUSH2 0x586 JUMPI PUSH1 0x40 MLOAD PUSH3 0x461BCD PUSH1 0xE5 SHL DUP2 MSTORE PUSH1 0x20 PUSH1 0x4 DUP3 ADD MSTORE PUSH1 0x1B PUSH1 0x24 DUP3 ADD MSTORE PUSH32 0x46444356657269666965723A206E6F7420617574686F72697365640000000000 PUSH1 0x44 DUP3 ADD MSTORE PUSH1 0x64 ADD PUSH2 0x4AD JUMP JUMPDEST PUSH1 0x0 DUP3 DUP2 MSTORE PUSH1 0x3 PUSH1 0x20 MSTORE PUSH1 0x40 SWAP1 KECCAK256 SLOAD PUSH1 0xFF AND ISZERO PUSH2 0x5E5 JUMPI PUSH1 0x40 MLOAD PUSH3 0x461BCD PUSH1 0xE5 SHL DUP2 MSTORE PUSH1 0x20 PUSH1 0x4 DUP3 ADD MSTORE PUSH1 0x1E PUSH1 0x24 DUP3 ADD MSTORE PUSH32 0x46444356657269666965723A20616C726561647920636F6E6669726D65640000 PUSH1 0x44 DUP3 ADD MSTORE PUSH1 0x64 ADD PUSH2 0x4AD JUMP JUMPDEST PUSH1 0x1 SLOAD PUSH1 0x1 PUSH1 0x1 PUSH1 0xA0 SHL SUB AND PUSH2 0x63D JUMPI PUSH1 0x40 MLOAD PUSH3 0x461BCD PUSH1 0xE5 SHL DUP2 MSTORE PUSH1 0x20 PUSH1 0x4 DUP3 ADD MSTORE PUSH1 0x1D PUSH1 0x24 DUP3 ADD MSTORE PUSH32 0x46444356657269666965723A207665726966696572206E6F7420736574000000 PUSH1 0x44 DUP3 ADD MSTORE PUSH1 0x64 ADD PUSH2 0x4AD JUMP JUMPDEST PUSH1 0x1 SLOAD PUSH1 0x40 MLOAD PUSH4 0xC596F469 PUSH1 0xE0 SHL DUP2 MSTORE PUSH1 0x0 SWAP2 PUSH1 0x1 PUSH1 0x1 PUSH1 0xA0 SHL SUB AND SWAP1 PUSH4 0xC596F469 SWAP1 PUSH2 0x66E SWAP1 DUP6 SWAP1 PUSH1 0x4 ADD PUSH2 0x1059 JUMP JUMPDEST PUSH1 0x20 PUSH1 0x40 MLOAD DUP1 DUP4 SUB DUP2 DUP7 GAS STATICCALL ISZERO DUP1 ISZERO PUSH2 0x68B JUMPI RETURNDATASIZE PUSH1 0x0 DUP1 RETURNDATACOPY RETURNDATASIZE PUSH1 0x0 REVERT JUMPDEST POP POP POP POP PUSH1 0x40 MLOAD RETURNDATASIZE PUSH1 0x1F NOT PUSH1 0x1F DUP3 ADD AND DUP3 ADD DUP1 PUSH1 0x40 MSTORE POP DUP2 ADD SWAP1 PUSH2 0x6AF SWAP2 SWAP1 PUSH2 0x10F7 JUMP JUMPDEST SWAP1 POP DUP1 PUSH2 0x6FE JUMPI PUSH1 0x40 MLOAD PUSH3 0x461BCD PUSH1 0xE5 SHL DUP2 MSTORE PUSH1 0x20 PUSH1 0x4 DUP3 ADD MSTORE PUSH1 0x1A PUSH1 0x24 DUP3 ADD MSTORE PUSH32 0x46444356657269666965723A20696E76616C69642070726F6F66000000000000 PUSH1 0x44 DUP3 ADD MSTORE PUSH1 0x64 ADD PUSH2 0x4AD JUMP JUMPDEST PUSH1 0x0 DUP1 PUSH2 0x70E PUSH1 0x20 DUP6 ADD DUP6 PUSH2 0x1114 JUMP JUMPDEST PUSH2 0x71C SWAP1 PUSH1 0xA0 DUP2 ADD SWAP1 PUSH2 0x1134 JUMP JUMPDEST PUSH2 0x726 SWAP1 DUP1 PUSH2 0x114A JUMP JUMPDEST DUP2 ADD SWAP1 PUSH2 0x733 SWAP2 SWAP1 PUSH2 0x1191 JUMP JUMPDEST SWAP2 POP SWAP2 POP DUP5 DUP3 EQ PUSH2 0x786 JUMPI PUSH1 0x40 MLOAD PUSH3 0x461BCD PUSH1 0xE5 SHL DUP2 MSTORE PUSH1 0x20 PUSH1 0x4 DUP3 ADD MSTORE PUSH1 0x1C PUSH1 0x24 DUP3 ADD MSTORE PUSH32 0x46444356657269666965723A206A6F62204944206D69736D6174636800000000 PUSH1 0x44 DUP3 ADD MSTORE PUSH1 0x64 ADD PUSH2 0x4AD JUMP JUMPDEST DUP1 PUSH2 0x7DF JUMPI PUSH1 0x40 MLOAD PUSH3 0x461BCD PUSH1 0xE5 SHL DUP2 MSTORE PUSH1 0x20 PUSH1 0x4 DUP3 ADD MSTORE PUSH1 0x23 PUSH1 0x24 DUP3 ADD MSTORE PUSH32 0x46444356657269666965723A2064656C6976657279206E6F7420636F6E666972 PUSH1 0x44 DUP3 ADD MSTORE PUSH3 0x1B5959 PUSH1 0xEA SHL PUSH1 0x64 DUP3 ADD MSTORE PUSH1 0x84 ADD PUSH2 0x4AD JUMP JUMPDEST PUSH1 0x0 DUP6 DUP2 MSTORE PUSH1 0x3 PUSH1 0x20 SWAP1 DUP2 MSTORE PUSH1 0x40 SWAP2 DUP3 SWAP1 KECCAK256 DUP1 SLOAD PUSH1 0xFF NOT AND PUSH1 0x1 OR SWAP1 SSTORE SWAP1 MLOAD PUSH2 0x80A SWAP2 DUP7 SWAP2 ADD PUSH2 0x1059 JUMP JUMPDEST PUSH1 0x40 DUP1 MLOAD PUSH1 0x1F NOT DUP2 DUP5 SUB ADD DUP2 MSTORE DUP3 DUP3 MSTORE DUP1 MLOAD PUSH1 0x20 SWAP2 DUP3 ADD KECCAK256 PUSH1 0x0 DUP10 DUP2 MSTORE PUSH1 0x4 DUP4 MSTORE DUP4 SWAP1 KECCAK256 DUP2 SWAP1 SSTORE DUP4 MSTORE SWAP1 MLOAD CALLER SWAP3 DUP9 SWAP3 PUSH32 0x1B795559218227DA87BC4CDF370D3E3C1CBB7CED4C523D8A9C167811FCB92AC3 SWAP3 SWAP2 DUP3 SWAP1 SUB ADD SWAP1 LOG3 POP POP POP POP POP JUMP JUMPDEST CALLER PUSH1 0x0 SWAP1 DUP2 MSTORE PUSH1 0x5 PUSH1 0x20 MSTORE PUSH1 0x40 DUP2 KECCAK256 SLOAD PUSH1 0xFF AND DUP1 PUSH2 0x891 JUMPI POP PUSH1 0x0 SLOAD PUSH1 0x1 PUSH1 0x1 PUSH1 0xA0 SHL SUB AND CALLER EQ JUMPDEST PUSH2 0x8DD JUMPI PUSH1 0x40 MLOAD PUSH3 0x461BCD PUSH1 0xE5 SHL DUP2 MSTORE PUSH1 0x20 PUSH1 0x4 DUP3 ADD MSTORE PUSH1 0x1B PUSH1 0x24 DUP3 ADD MSTORE PUSH32 0x46444356657269666965723A206E6F7420617574686F72697365640000000000 PUSH1 0x44 DUP3 ADD MSTORE PUSH1 0x64 ADD PUSH2 0x4AD JUMP JUMPDEST PUSH1 0x2 SLOAD PUSH1 0x1 PUSH1 0x1 PUSH1 0xA0 SHL SUB AND PUSH2 0x935 JUMPI PUSH1 0x40 MLOAD PUSH3 0x461BCD PUSH1 0xE5 SHL DUP2 MSTORE PUSH1 0x20 PUSH1 0x4 DUP3 ADD MSTORE PUSH1 0x18 PUSH1 0x24 DUP3 ADD MSTORE PUSH32 0x46444356657269666965723A20687562206E6F74207365740000000000000000 PUSH1 0x44 DUP3 ADD MSTORE PUSH1 0x64 ADD PUSH2 0x4AD JUMP JUMPDEST PUSH1 0x2 SLOAD PUSH1 0x40 MLOAD PUSH4 0x188E3CD5 PUSH1 0xE2 SHL DUP2 MSTORE PUSH1 0x1 PUSH1 0x1 PUSH1 0xA0 SHL SUB SWAP1 SWAP2 AND SWAP1 PUSH4 0x6238F354 SWAP1 CALLVALUE SWAP1 PUSH2 0x969 SWAP1 DUP8 SWAP1 DUP8 SWAP1 PUSH1 0x4 ADD PUSH2 0x11B6 JUMP JUMPDEST PUSH1 0x20 PUSH1 0x40 MLOAD DUP1 DUP4 SUB DUP2 DUP6 DUP9 GAS CALL ISZERO DUP1 ISZERO PUSH2 0x987 JUMPI RETURNDATASIZE PUSH1 0x0 DUP1 RETURNDATACOPY RETURNDATASIZE PUSH1 0x0 REVERT JUMPDEST POP POP POP POP POP PUSH1 0x40 MLOAD RETURNDATASIZE PUSH1 0x1F NOT PUSH1 0x1F DUP3 ADD AND DUP3 ADD DUP1 PUSH1 0x40 MSTORE POP DUP2 ADD SWAP1 PUSH2 0x9AC SWAP2 SWAP1 PUSH2 0x11D2 JUMP JUMPDEST SWAP4 SWAP3 POP POP POP JUMP JUMPDEST PUSH2 0x9BB PUSH2 0xA95 JUMP JUMPDEST PUSH1 0x1 DUP1 SLOAD PUSH1 0x1 PUSH1 0x1 PUSH1 0xA0 SHL SUB NOT AND PUSH1 0x1 PUSH1 0x1 PUSH1 0xA0 SHL SUB DUP4 AND SWAP1 DUP2 OR SWAP1 SWAP2 SSTORE PUSH1 0x40 MLOAD PUSH32 0xC36746E466E1C67B4E56BE936EA2BDBA2381FEA7362ED6607FB06C9612B57535 SWAP1 PUSH1 0x0 SWAP1 LOG2 POP JUMP JUMPDEST PUSH2 0xA0D PUSH2 0xA95 JUMP JUMPDEST PUSH1 0x2 DUP1 SLOAD PUSH1 0x1 PUSH1 0x1 PUSH1 0xA0 SHL SUB NOT AND PUSH1 0x1 PUSH1 0x1 PUSH1 0xA0 SHL SUB DUP4 AND SWAP1 DUP2 OR SWAP1 SWAP2 SSTORE PUSH1 0x40 MLOAD PUSH32 0x8E11CB5AD55BADD45E83BE7BB83FDE87CD7284F9A87F53748DB05D048C9CC404 SWAP1 PUSH1 0x0 SWAP1 LOG2 POP JUMP JUMPDEST PUSH2 0xA5F PUSH2 0xA95 JUMP JUMPDEST PUSH1 0x1 PUSH1 0x1 PUSH1 0xA0 SHL SUB DUP2 AND PUSH2 0xA89 JUMPI PUSH1 0x40 MLOAD PUSH4 0x1E4FBDF7 PUSH1 0xE0 SHL DUP2 MSTORE PUSH1 0x0 PUSH1 0x4 DUP3 ADD MSTORE PUSH1 0x24 ADD PUSH2 0x4AD JUMP JUMPDEST PUSH2 0xA92 DUP2 PUSH2 0xCB2 JUMP JUMPDEST POP JUMP JUMPDEST PUSH1 0x0 SLOAD PUSH1 0x1 PUSH1 0x1 PUSH1 0xA0 SHL SUB AND CALLER EQ PUSH2 0x3CF JUMPI PUSH1 0x40 MLOAD PUSH4 0x118CDAA7 PUSH1 0xE0 SHL DUP2 MSTORE CALLER PUSH1 0x4 DUP3 ADD MSTORE PUSH1 0x24 ADD PUSH2 0x4AD JUMP JUMPDEST PUSH20 0xAD67FE66660FB8DFE9D6B1B4240D8650E30F6019 EXTCODESIZE PUSH1 0x0 SUB PUSH2 0xAE1 JUMPI JUMP JUMPDEST PUSH1 0x40 MLOAD PUSH4 0x413B07E5 PUSH1 0xE1 SHL DUP2 MSTORE PUSH1 0x20 PUSH1 0x4 DUP3 ADD MSTORE PUSH1 0xF PUSH1 0x24 DUP3 ADD MSTORE PUSH15 0x233231AB32B934B334B1B0BA34B7B7 PUSH1 0x89 SHL PUSH1 0x44 DUP3 ADD MSTORE PUSH20 0xAD67FE66660FB8DFE9D6B1B4240D8650E30F6019 SWAP1 PUSH1 0x0 SWAP1 DUP3 SWAP1 PUSH4 0x82760FCA SWAP1 PUSH1 0x64 ADD PUSH1 0x20 PUSH1 0x40 MLOAD DUP1 DUP4 SUB DUP2 DUP7 GAS STATICCALL ISZERO DUP1 ISZERO PUSH2 0xB55 JUMPI RETURNDATASIZE PUSH1 0x0 DUP1 RETURNDATACOPY RETURNDATASIZE PUSH1 0x0 REVERT JUMPDEST POP POP POP POP PUSH1 0x40 MLOAD RETURNDATASIZE PUSH1 0x1F NOT PUSH1 0x1F DUP3 ADD AND DUP3 ADD DUP1 PUSH1 0x40 MSTORE POP DUP2 ADD SWAP1 PUSH2 0xB79 SWAP2 SWAP1 PUSH2 0x11EB JUMP JUMPDEST SWAP1 POP PUSH1 0x1 PUSH1 0x1 PUSH1 0xA0 SHL SUB DUP2 AND ISZERO PUSH2 0xBD2 JUMPI PUSH1 0x1 DUP1 SLOAD PUSH1 0x1 PUSH1 0x1 PUSH1 0xA0 SHL SUB NOT AND PUSH1 0x1 PUSH1 0x1 PUSH1 0xA0 SHL SUB DUP4 AND SWAP1 DUP2 OR SWAP1 SWAP2 SSTORE PUSH1 0x40 MLOAD PUSH32 0xC36746E466E1C67B4E56BE936EA2BDBA2381FEA7362ED6607FB06C9612B57535 SWAP1 PUSH1 0x0 SWAP1 LOG2 JUMPDEST PUSH1 0x40 MLOAD PUSH4 0x413B07E5 PUSH1 0xE1 SHL DUP2 MSTORE PUSH1 0x20 PUSH1 0x4 DUP3 ADD MSTORE PUSH1 0x6 PUSH1 0x24 DUP3 ADD MSTORE PUSH6 0x233231A43AB1 PUSH1 0xD1 SHL PUSH1 0x44 DUP3 ADD MSTORE PUSH1 0x0 SWAP1 PUSH1 0x1 PUSH1 0x1 PUSH1 0xA0 SHL SUB DUP5 AND SWAP1 PUSH4 0x82760FCA SWAP1 PUSH1 0x64 ADD PUSH1 0x20 PUSH1 0x40 MLOAD DUP1 DUP4 SUB DUP2 DUP7 GAS STATICCALL ISZERO DUP1 ISZERO PUSH2 0xC30 JUMPI RETURNDATASIZE PUSH1 0x0 DUP1 RETURNDATACOPY RETURNDATASIZE PUSH1 0x0 REVERT JUMPDEST POP POP POP POP PUSH1 0x40 MLOAD RETURNDATASIZE PUSH1 0x1F NOT PUSH1 0x1F DUP3 ADD AND DUP3 ADD DUP1 PUSH1 0x40 MSTORE POP DUP2 ADD SWAP1 PUSH2 0xC54 SWAP2 SWAP1 PUSH2 0x11EB JUMP JUMPDEST SWAP1 POP PUSH1 0x1 PUSH1 0x1 PUSH1 0xA0 SHL SUB DUP2 AND ISZERO PUSH2 0xCAD JUMPI PUSH1 0x2 DUP1 SLOAD PUSH1 0x1 PUSH1 0x1 PUSH1 0xA0 SHL SUB NOT AND PUSH1 0x1 PUSH1 0x1 PUSH1 0xA0 SHL SUB DUP4 AND SWAP1 DUP2 OR SWAP1 SWAP2 SSTORE PUSH1 0x40 MLOAD PUSH32 0x8E11CB5AD55BADD45E83BE7BB83FDE87CD7284F9A87F53748DB05D048C9CC404 SWAP1 PUSH1 0x0 SWAP1 LOG2 JUMPDEST POP POP POP JUMP JUMPDEST PUSH1 0x0 DUP1 SLOAD PUSH1 0x1 PUSH1 0x1 PUSH1 0xA0 SHL SUB DUP4 DUP2 AND PUSH1 0x1 PUSH1 0x1 PUSH1 0xA0 SHL SUB NOT DUP4 AND DUP2 OR DUP5 SSTORE PUSH1 0x40 MLOAD SWAP2 SWAP1 SWAP3 AND SWAP3 DUP4 SWAP2 PUSH32 0x8BE0079C531659141344CD1FD0A4F28419497F9722A3DAAFE3B4186F6B6457E0 SWAP2 SWAP1 LOG3 POP POP JUMP JUMPDEST PUSH1 0x0 PUSH1 0x20 DUP3 DUP5 SUB SLT ISZERO PUSH2 0xD14 JUMPI PUSH1 0x0 DUP1 REVERT JUMPDEST POP CALLDATALOAD SWAP2 SWAP1 POP JUMP JUMPDEST PUSH1 0x1 PUSH1 0x1 PUSH1 0xA0 SHL SUB DUP2 AND DUP2 EQ PUSH2 0xA92 JUMPI PUSH1 0x0 DUP1 REVERT JUMPDEST DUP1 ISZERO ISZERO DUP2 EQ PUSH2 0xA92 JUMPI PUSH1 0x0 DUP1 REVERT JUMPDEST PUSH1 0x0 DUP1 PUSH1 0x40 DUP4 DUP6 SUB SLT ISZERO PUSH2 0xD51 JUMPI PUSH1 0x0 DUP1 REVERT JUMPDEST DUP3 CALLDATALOAD PUSH2 0xD5C DUP2 PUSH2 0xD1B JUMP JUMPDEST SWAP2 POP PUSH1 0x20 DUP4 ADD CALLDATALOAD PUSH2 0xD6C DUP2 PUSH2 0xD30 JUMP JUMPDEST DUP1 SWAP2 POP POP SWAP3 POP SWAP3 SWAP1 POP JUMP JUMPDEST PUSH1 0x0 DUP1 PUSH1 0x40 DUP4 DUP6 SUB SLT ISZERO PUSH2 0xD8A JUMPI PUSH1 0x0 DUP1 REVERT JUMPDEST DUP3 CALLDATALOAD SWAP2 POP PUSH1 0x20 DUP4 ADD CALLDATALOAD PUSH8 0xFFFFFFFFFFFFFFFF DUP2 GT ISZERO PUSH2 0xDA8 JUMPI PUSH1 0x0 DUP1 REVERT JUMPDEST DUP4 ADD PUSH1 0x40 DUP2 DUP7 SUB SLT ISZERO PUSH2 0xD6C JUMPI PUSH1 0x0 DUP1 REVERT JUMPDEST PUSH1 0x0 DUP1 PUSH1 0x20 DUP4 DUP6 SUB SLT ISZERO PUSH2 0xDCD JUMPI PUSH1 0x0 DUP1 REVERT JUMPDEST DUP3 CALLDATALOAD PUSH8 0xFFFFFFFFFFFFFFFF DUP1 DUP3 GT ISZERO PUSH2 0xDE5 JUMPI PUSH1 0x0 DUP1 REVERT JUMPDEST DUP2 DUP6 ADD SWAP2 POP DUP6 PUSH1 0x1F DUP4 ADD SLT PUSH2 0xDF9 JUMPI PUSH1 0x0 DUP1 REVERT JUMPDEST DUP2 CALLDATALOAD DUP2 DUP2 GT ISZERO PUSH2 0xE08 JUMPI PUSH1 0x0 DUP1 REVERT JUMPDEST DUP7 PUSH1 0x20 DUP3 DUP6 ADD ADD GT ISZERO PUSH2 0xE1A JUMPI PUSH1 0x0 DUP1 REVERT JUMPDEST PUSH1 0x20 SWAP3 SWAP1 SWAP3 ADD SWAP7 SWAP2 SWAP6 POP SWAP1 SWAP4 POP POP POP POP JUMP JUMPDEST PUSH1 0x0 PUSH1 0x20 DUP3 DUP5 SUB SLT ISZERO PUSH2 0xE3E JUMPI PUSH1 0x0 DUP1 REVERT JUMPDEST DUP2 CALLDATALOAD PUSH2 0x9AC DUP2 PUSH2 0xD1B JUMP JUMPDEST PUSH1 0x0 DUP3 CALLDATALOAD PUSH1 0xBE NOT DUP4 CALLDATASIZE SUB ADD DUP2 SLT PUSH2 0xE5F JUMPI PUSH1 0x0 DUP1 REVERT JUMPDEST SWAP1 SWAP2 ADD SWAP3 SWAP2 POP POP JUMP JUMPDEST DUP1 CALLDATALOAD PUSH8 0xFFFFFFFFFFFFFFFF DUP2 AND DUP2 EQ PUSH2 0xE80 JUMPI PUSH1 0x0 DUP1 REVERT JUMPDEST SWAP2 SWAP1 POP JUMP JUMPDEST PUSH1 0x0 DUP1 DUP4 CALLDATALOAD PUSH1 0x1E NOT DUP5 CALLDATASIZE SUB ADD DUP2 SLT PUSH2 0xE9C JUMPI PUSH1 0x0 DUP1 REVERT JUMPDEST DUP4 ADD PUSH1 0x20 DUP2 ADD SWAP3 POP CALLDATALOAD SWAP1 POP PUSH8 0xFFFFFFFFFFFFFFFF DUP2 GT ISZERO PUSH2 0xEBC JUMPI PUSH1 0x0 DUP1 REVERT JUMPDEST DUP1 CALLDATASIZE SUB DUP3 SGT ISZERO PUSH2 0xECB JUMPI PUSH1 0x0 DUP1 REVERT JUMPDEST SWAP3 POP SWAP3 SWAP1 POP JUMP JUMPDEST DUP2 DUP4 MSTORE DUP2 DUP2 PUSH1 0x20 DUP6 ADD CALLDATACOPY POP PUSH1 0x0 DUP3 DUP3 ADD PUSH1 0x20 SWAP1 DUP2 ADD SWAP2 SWAP1 SWAP2 MSTORE PUSH1 0x1F SWAP1 SWAP2 ADD PUSH1 0x1F NOT AND SWAP1 SWAP2 ADD ADD SWAP1 JUMP JUMPDEST PUSH1 0x0 DUP3 CALLDATALOAD PUSH1 0x1E NOT DUP4 CALLDATASIZE SUB ADD DUP2 SLT PUSH2 0xE5F JUMPI PUSH1 0x0 DUP1 REVERT JUMPDEST PUSH1 0x0 PUSH2 0xF1D DUP3 DUP4 PUSH2 0xE85 JUMP JUMPDEST PUSH1 0x20 DUP6 MSTORE PUSH2 0xF2F PUSH1 0x20 DUP7 ADD DUP3 DUP5 PUSH2 0xED2 JUMP JUMPDEST SWAP6 SWAP5 POP POP POP POP POP JUMP JUMPDEST DUP1 CALLDATALOAD DUP3 MSTORE PUSH1 0x20 DUP2 ADD CALLDATALOAD PUSH1 0x20 DUP4 ADD MSTORE PUSH1 0x0 PUSH2 0xF54 PUSH1 0x40 DUP4 ADD PUSH2 0xE68 JUMP JUMPDEST PUSH8 0xFFFFFFFFFFFFFFFF DUP1 DUP3 AND PUSH1 0x40 DUP7 ADD MSTORE DUP1 PUSH2 0xF72 PUSH1 0x60 DUP7 ADD PUSH2 0xE68 JUMP JUMPDEST AND PUSH1 0x60 DUP7 ADD MSTORE POP POP PUSH1 0x80 DUP3 ADD CALLDATALOAD PUSH1 0x7E NOT DUP4 CALLDATASIZE SUB ADD DUP2 SLT PUSH2 0xF91 JUMPI PUSH1 0x0 DUP1 REVERT JUMPDEST PUSH1 0xC0 PUSH1 0x80 DUP6 ADD MSTORE DUP3 ADD PUSH2 0xFA4 DUP2 DUP1 PUSH2 0xE85 JUMP JUMPDEST PUSH1 0x80 PUSH1 0xC0 DUP8 ADD MSTORE PUSH2 0xFBA PUSH2 0x140 DUP8 ADD DUP3 DUP5 PUSH2 0xED2 JUMP JUMPDEST SWAP2 POP POP PUSH2 0xFCA PUSH1 0x20 DUP4 ADD DUP4 PUSH2 0xE85 JUMP JUMPDEST PUSH1 0xBF NOT DUP1 DUP9 DUP6 SUB ADD PUSH1 0xE0 DUP10 ADD MSTORE PUSH2 0xFE2 DUP5 DUP4 DUP6 PUSH2 0xED2 JUMP JUMPDEST SWAP4 POP PUSH2 0xFF1 PUSH1 0x40 DUP7 ADD DUP7 PUSH2 0xE85 JUMP JUMPDEST SWAP4 POP SWAP2 POP DUP1 DUP9 DUP6 SUB ADD PUSH2 0x100 DUP10 ADD MSTORE PUSH2 0x100B DUP5 DUP5 DUP5 PUSH2 0xED2 JUMP JUMPDEST SWAP4 POP PUSH2 0x101A PUSH1 0x60 DUP7 ADD DUP7 PUSH2 0xE85 JUMP JUMPDEST SWAP6 POP SWAP3 POP DUP1 DUP9 DUP6 SUB ADD PUSH2 0x120 DUP10 ADD MSTORE POP POP PUSH2 0x1036 DUP3 DUP5 DUP4 PUSH2 0xED2 JUMP JUMPDEST SWAP3 POP POP POP PUSH2 0x1047 PUSH1 0xA0 DUP5 ADD DUP5 PUSH2 0xEFB JUMP JUMPDEST DUP5 DUP3 SUB PUSH1 0xA0 DUP7 ADD MSTORE PUSH2 0xF2F DUP3 DUP3 PUSH2 0xF11 JUMP JUMPDEST PUSH1 0x20 DUP2 MSTORE PUSH1 0x0 DUP3 CALLDATALOAD PUSH1 0x1E NOT DUP5 CALLDATASIZE SUB ADD DUP2 SLT PUSH2 0x1073 JUMPI PUSH1 0x0 DUP1 REVERT JUMPDEST DUP4 ADD PUSH1 0x20 DUP2 ADD SWAP1 CALLDATALOAD PUSH8 0xFFFFFFFFFFFFFFFF DUP2 GT ISZERO PUSH2 0x1090 JUMPI PUSH1 0x0 DUP1 REVERT JUMPDEST DUP1 PUSH1 0x5 SHL DUP1 CALLDATASIZE SUB DUP4 SGT ISZERO PUSH2 0x10A3 JUMPI PUSH1 0x0 DUP1 REVERT JUMPDEST PUSH1 0x40 PUSH1 0x20 DUP7 ADD MSTORE PUSH1 0x60 DUP6 ADD DUP3 SWAP1 MSTORE PUSH1 0x1 PUSH1 0x1 PUSH1 0xFB SHL SUB DUP3 GT ISZERO PUSH2 0x10C5 JUMPI PUSH1 0x0 DUP1 REVERT JUMPDEST DUP1 DUP4 PUSH1 0x80 DUP8 ADD CALLDATACOPY DUP5 ADD SWAP2 POP PUSH2 0x10DF SWAP1 POP PUSH1 0x20 DUP6 ADD DUP6 PUSH2 0xE49 JUMP JUMPDEST PUSH1 0x60 DUP5 DUP4 SUB ADD PUSH1 0x40 DUP6 ADD MSTORE PUSH2 0xF2F PUSH1 0x80 DUP4 ADD DUP3 PUSH2 0xF38 JUMP JUMPDEST PUSH1 0x0 PUSH1 0x20 DUP3 DUP5 SUB SLT ISZERO PUSH2 0x1109 JUMPI PUSH1 0x0 DUP1 REVERT JUMPDEST DUP2 MLOAD PUSH2 0x9AC DUP2 PUSH2 0xD30 JUMP JUMPDEST PUSH1 0x0 DUP3 CALLDATALOAD PUSH1 0xBE NOT DUP4 CALLDATASIZE SUB ADD DUP2 SLT PUSH2 0x112A JUMPI PUSH1 0x0 DUP1 REVERT JUMPDEST SWAP2 SWAP1 SWAP2 ADD SWAP3 SWAP2 POP POP JUMP JUMPDEST PUSH1 0x0 DUP3 CALLDATALOAD PUSH1 0x1E NOT DUP4 CALLDATASIZE SUB ADD DUP2 SLT PUSH2 0x112A JUMPI PUSH1 0x0 DUP1 REVERT JUMPDEST PUSH1 0x0 DUP1 DUP4 CALLDATALOAD PUSH1 0x1E NOT DUP5 CALLDATASIZE SUB ADD DUP2 SLT PUSH2 0x1161 JUMPI PUSH1 0x0 DUP1 REVERT JUMPDEST DUP4 ADD DUP1 CALLDATALOAD SWAP2 POP PUSH8 0xFFFFFFFFFFFFFFFF DUP3 GT ISZERO PUSH2 0x117C JUMPI PUSH1 0x0 DUP1 REVERT JUMPDEST PUSH1 0x20 ADD SWAP2 POP CALLDATASIZE DUP2 SWAP1 SUB DUP3 SGT ISZERO PUSH2 0xECB JUMPI PUSH1 0x0 DUP1 REVERT JUMPDEST PUSH1 0x0 DUP1 PUSH1 0x40 DUP4 DUP6 SUB SLT ISZERO PUSH2 0x11A4 JUMPI PUSH1 0x0 DUP1 REVERT JUMPDEST DUP3 CALLDATALOAD SWAP2 POP PUSH1 0x20 DUP4 ADD CALLDATALOAD PUSH2 0xD6C DUP2 PUSH2 0xD30 JUMP JUMPDEST PUSH1 0x20 DUP2 MSTORE PUSH1 0x0 PUSH2 0x11CA PUSH1 0x20 DUP4 ADD DUP5 DUP7 PUSH2 0xED2 JUMP JUMPDEST SWAP5 SWAP4 POP POP POP POP JUMP JUMPDEST PUSH1 0x0 PUSH1 0x20 DUP3 DUP5 SUB SLT ISZERO PUSH2 0x11E4 JUMPI PUSH1 0x0 DUP1 REVERT JUMPDEST POP MLOAD SWAP2 SWAP1 POP JUMP JUMPDEST PUSH1 0x0 PUSH1 0x20 DUP3 DUP5 SUB SLT ISZERO PUSH2 0x11FD JUMPI PUSH1 0x0 DUP1 REVERT JUMPDEST DUP2 MLOAD PUSH2 0x9AC DUP2 PUSH2 0xD1B JUMP INVALID LOG2 PUSH5 0x6970667358 0x22 SLT KECCAK256 PUSH4 0x77DDFFDC 0xCE MCOPY LT PUSH8 0xD51618CA72367794 CALLVALUE TSTORE 0x2F 0xBA MSTORE DUP11 EQ MULMOD DUP15 BALANCE 0x28 EXTCODESIZE 0x2D PUSH17 0x5F64736F6C634300081800330000000000 "},"methodIdentifiers":{"FLARE_CONTRACT_REGISTRY()":"20249cf1","JSON_API_ATTESTATION_TYPE()":"444776ec","attestationHashes(uint256)":"08b8c6f8","authorisedSubmitters(address)":"ede628f7","deliveryConfirmed(uint256)":"580788ad","fdcHub()":"8010fcaf","fdcVerification()":"3ad6d516","isDeliveryConfirmed(uint256)":"37433cf1","manualConfirmDelivery(uint256)":"b8de0fcb","owner()":"8da5cb5b","renounceOwnership()":"715018a6","requestDeliveryAttestation(bytes)":"e1d65b6e","resolveFdcContracts()":"6e4c3978","setFdcHub(address)":"ed01a109","setFdcVerification(address)":"e443147f","setSubmitterAuthorised(address,bool)":"a9faa0ef","transferOwnership(address)":"f2fde38b","verifyDelivery(uint256,(bytes32[],(bytes32,bytes32,uint64,uint64,(string,string,string,string),(bytes))))":"ca0dc675"}}}}}