{"contracts/AgentStaking.sol":{"AgentStaking":{"abi":[{"inputs":[{"internalType":"address","name":"initialOwner","type":"address"},{"internalType":"address","name":"agentRegistry_","type":"address"},{"internalType":"address","name":"randomNumberV2_","type":"address"},{"internalType":"uint256","name":"minimumStake_","type":"uint256"}],"stateMutability":"nonpayable","type":"constructor"},{"inputs":[{"internalType":"address","name":"owner","type":"address"}],"name":"OwnableInvalidOwner","type":"error"},{"inputs":[{"internalType":"address","name":"account","type":"address"}],"name":"OwnableUnauthorizedAccount","type":"error"},{"inputs":[],"name":"ReentrancyGuardReentrantCall","type":"error"},{"anonymous":false,"inputs":[{"indexed":true,"internalType":"address","name":"agent","type":"address"},{"indexed":false,"internalType":"uint256","name":"lostEarnings","type":"uint256"}],"name":"CashoutLoss","type":"event"},{"anonymous":false,"inputs":[{"indexed":true,"internalType":"address","name":"agent","type":"address"},{"indexed":false,"internalType":"uint256","name":"payout","type":"uint256"}],"name":"CashoutWin","type":"event"},{"anonymous":false,"inputs":[{"indexed":true,"internalType":"address","name":"agent","type":"address"},{"indexed":false,"internalType":"uint256","name":"amount","type":"uint256"}],"name":"EarningsCredited","type":"event"},{"anonymous":false,"inputs":[{"indexed":true,"internalType":"address","name":"escrow","type":"address"}],"name":"EscrowUpdated","type":"event"},{"anonymous":false,"inputs":[{"indexed":true,"internalType":"address","name":"agent","type":"address"},{"indexed":false,"internalType":"uint256","name":"amount","type":"uint256"}],"name":"HouseFeePaid","type":"event"},{"anonymous":false,"inputs":[{"indexed":false,"internalType":"uint256","name":"newFeeBps","type":"uint256"}],"name":"HouseFeeUpdated","type":"event"},{"anonymous":false,"inputs":[{"indexed":true,"internalType":"address","name":"wallet","type":"address"}],"name":"HouseWalletUpdated","type":"event"},{"anonymous":false,"inputs":[{"indexed":false,"internalType":"uint256","name":"newMinimum","type":"uint256"}],"name":"MinimumStakeUpdated","type":"event"},{"anonymous":false,"inputs":[{"indexed":true,"internalType":"address","name":"previousOwner","type":"address"},{"indexed":true,"internalType":"address","name":"newOwner","type":"address"}],"name":"OwnershipTransferred","type":"event"},{"anonymous":false,"inputs":[{"indexed":true,"internalType":"address","name":"from","type":"address"},{"indexed":false,"internalType":"uint256","name":"amount","type":"uint256"}],"name":"PoolSeeded","type":"event"},{"anonymous":false,"inputs":[{"indexed":true,"internalType":"address","name":"to","type":"address"},{"indexed":false,"internalType":"uint256","name":"amount","type":"uint256"}],"name":"PoolWithdrawn","type":"event"},{"anonymous":false,"inputs":[{"indexed":true,"internalType":"address","name":"agent","type":"address"},{"indexed":false,"internalType":"uint256","name":"payout","type":"uint256"},{"indexed":false,"internalType":"uint256","name":"fee","type":"uint256"}],"name":"SafeWithdraw","type":"event"},{"anonymous":false,"inputs":[{"indexed":false,"internalType":"uint256","name":"newFeeBps","type":"uint256"}],"name":"SafeWithdrawFeeUpdated","type":"event"},{"anonymous":false,"inputs":[{"indexed":true,"internalType":"address","name":"agent","type":"address"},{"indexed":false,"internalType":"uint256","name":"amount","type":"uint256"}],"name":"Staked","type":"event"},{"anonymous":false,"inputs":[{"indexed":true,"internalType":"address","name":"agent","type":"address"},{"indexed":false,"internalType":"uint256","name":"amount","type":"uint256"},{"indexed":false,"internalType":"uint256","name":"forfeitedEarnings","type":"uint256"}],"name":"Unstaked","type":"event"},{"inputs":[],"name":"agentRegistry","outputs":[{"internalType":"contract AgentRegistry","name":"","type":"address"}],"stateMutability":"view","type":"function"},{"inputs":[{"internalType":"address","name":"agent","type":"address"}],"name":"cashout","outputs":[],"stateMutability":"nonpayable","type":"function"},{"inputs":[{"internalType":"address","name":"agent","type":"address"},{"internalType":"uint256","name":"amount","type":"uint256"}],"name":"creditEarnings","outputs":[],"stateMutability":"payable","type":"function"},{"inputs":[],"name":"escrow","outputs":[{"internalType":"address","name":"","type":"address"}],"stateMutability":"view","type":"function"},{"inputs":[],"name":"getPoolSize","outputs":[{"internalType":"uint256","name":"","type":"uint256"}],"stateMutability":"view","type":"function"},{"inputs":[{"internalType":"address","name":"agent","type":"address"}],"name":"getStakeInfo","outputs":[{"components":[{"internalType":"uint256","name":"stakedAmount","type":"uint256"},{"internalType":"uint256","name":"accumulatedEarnings","type":"uint256"},{"internalType":"uint256","name":"wins","type":"uint256"},{"internalType":"uint256","name":"losses","type":"uint256"},{"internalType":"bool","name":"isStaked","type":"bool"}],"internalType":"struct AgentStaking.StakeInfo","name":"","type":"tuple"}],"stateMutability":"view","type":"function"},{"inputs":[],"name":"houseFeeBps","outputs":[{"internalType":"uint256","name":"","type":"uint256"}],"stateMutability":"view","type":"function"},{"inputs":[],"name":"houseWallet","outputs":[{"internalType":"address","name":"","type":"address"}],"stateMutability":"view","type":"function"},{"inputs":[{"internalType":"address","name":"agent","type":"address"}],"name":"isStaked","outputs":[{"internalType":"bool","name":"","type":"bool"}],"stateMutability":"view","type":"function"},{"inputs":[],"name":"lossPool","outputs":[{"internalType":"uint256","name":"","type":"uint256"}],"stateMutability":"view","type":"function"},{"inputs":[],"name":"maxRandomAge","outputs":[{"internalType":"uint256","name":"","type":"uint256"}],"stateMutability":"view","type":"function"},{"inputs":[],"name":"minimumStake","outputs":[{"internalType":"uint256","name":"","type":"uint256"}],"stateMutability":"view","type":"function"},{"inputs":[],"name":"owner","outputs":[{"internalType":"address","name":"","type":"address"}],"stateMutability":"view","type":"function"},{"inputs":[{"internalType":"address","name":"agent","type":"address"}],"name":"previewCashout","outputs":[{"internalType":"uint256","name":"earnings","type":"uint256"},{"internalType":"uint256","name":"houseFee","type":"uint256"},{"internalType":"uint256","name":"maxPayout","type":"uint256"}],"stateMutability":"view","type":"function"},{"inputs":[{"internalType":"address","name":"agent","type":"address"}],"name":"previewSafeWithdraw","outputs":[{"internalType":"uint256","name":"earnings","type":"uint256"},{"internalType":"uint256","name":"fee","type":"uint256"},{"internalType":"uint256","name":"payout","type":"uint256"}],"stateMutability":"view","type":"function"},{"inputs":[],"name":"randomNumberV2","outputs":[{"internalType":"contract IRandomNumberV2","name":"","type":"address"}],"stateMutability":"view","type":"function"},{"inputs":[],"name":"renounceOwnership","outputs":[],"stateMutability":"nonpayable","type":"function"},{"inputs":[{"internalType":"address","name":"agent","type":"address"}],"name":"safeWithdraw","outputs":[],"stateMutability":"nonpayable","type":"function"},{"inputs":[],"name":"safeWithdrawFeeBps","outputs":[{"internalType":"uint256","name":"","type":"uint256"}],"stateMutability":"view","type":"function"},{"inputs":[],"name":"seedPool","outputs":[],"stateMutability":"payable","type":"function"},{"inputs":[{"internalType":"address","name":"escrow_","type":"address"}],"name":"setEscrow","outputs":[],"stateMutability":"nonpayable","type":"function"},{"inputs":[{"internalType":"uint256","name":"feeBps","type":"uint256"}],"name":"setHouseFeeBps","outputs":[],"stateMutability":"nonpayable","type":"function"},{"inputs":[{"internalType":"address","name":"wallet","type":"address"}],"name":"setHouseWallet","outputs":[],"stateMutability":"nonpayable","type":"function"},{"inputs":[{"internalType":"uint256","name":"maxAge","type":"uint256"}],"name":"setMaxRandomAge","outputs":[],"stateMutability":"nonpayable","type":"function"},{"inputs":[{"internalType":"uint256","name":"minimumStake_","type":"uint256"}],"name":"setMinimumStake","outputs":[],"stateMutability":"nonpayable","type":"function"},{"inputs":[{"internalType":"uint256","name":"feeBps","type":"uint256"}],"name":"setSafeWithdrawFeeBps","outputs":[],"stateMutability":"nonpayable","type":"function"},{"inputs":[{"internalType":"address","name":"agent","type":"address"}],"name":"stake","outputs":[],"stateMutability":"payable","type":"function"},{"inputs":[{"internalType":"address","name":"","type":"address"}],"name":"stakes","outputs":[{"internalType":"uint256","name":"stakedAmount","type":"uint256"},{"internalType":"uint256","name":"accumulatedEarnings","type":"uint256"},{"internalType":"uint256","name":"wins","type":"uint256"},{"internalType":"uint256","name":"losses","type":"uint256"},{"internalType":"bool","name":"isStaked","type":"bool"}],"stateMutability":"view","type":"function"},{"inputs":[{"internalType":"address","name":"newOwner","type":"address"}],"name":"transferOwnership","outputs":[],"stateMutability":"nonpayable","type":"function"},{"inputs":[{"internalType":"address","name":"agent","type":"address"}],"name":"unstake","outputs":[],"stateMutability":"nonpayable","type":"function"},{"inputs":[{"internalType":"uint256","name":"amount","type":"uint256"}],"name":"withdrawPool","outputs":[],"stateMutability":"nonpayable","type":"function"},{"stateMutability":"payable","type":"receive"}],"evm":{"bytecode":{"linkReferences":{},"object":"60806040523480156200001157600080fd5b50604051620022863803806200228683398101604081905262000034916200014f565b836001600160a01b0381166200006457604051631e4fbdf760e01b81526000600482015260240160405180910390fd5b6200006f81620000e2565b5060018055600980546001600160a01b039485166001600160a01b0319918216179091556008805493909416928116929092179092556002919091556078600455600b80549091167376f9398ee268b9fdc06c0dff402b20532922ffae179055506101f46005556107d0600655620001a1565b600080546001600160a01b038381166001600160a01b0319831681178455604051919092169283917f8be0079c531659141344cd1fd0a4f28419497f9722a3daafe3b4186f6b6457e09190a35050565b80516001600160a01b03811681146200014a57600080fd5b919050565b600080600080608085870312156200016657600080fd5b620001718562000132565b9350620001816020860162000132565b9250620001916040860162000132565b6060959095015193969295505050565b6120d580620001b16000396000f3fe6080604052600436106101dc5760003560e01c80636671459b11610102578063db80911611610095578063ee59d24011610064578063ee59d240146105f2578063f2888dbb14610608578063f2fde38b14610628578063f953f6451461064857600080fd5b8063db8091161461057c578063e2fdcc171461059c578063e98dc5ee146105bc578063ec5ffac2146105dc57600080fd5b80638da5cb5b116100d15780638da5cb5b146104d2578063a6a15183146104f0578063c10c3546146104f8578063c34531531461051857600080fd5b80636671459b14610467578063715018a61461047d57806377818f0214610492578063838a4107146104b257600080fd5b80632e6b2f6e1161017a5780634846ff7e116101495780634846ff7e146103bb5780634c034ea9146103db57806358b8e098146103fb5780636177fd181461041b57600080fd5b80632e6b2f6e14610345578063300911281461036557806335d4de51146103855780634212e1c7146103a557600080fd5b806316934fc4116101b657806316934fc414610284578063233e9903146102fb57806323845e4b1461031d578063264762041461033257600080fd5b806307cfead8146101e85780630adda68c146102115780630d1cfcae1461024c57600080fd5b366101e357005b600080fd5b3480156101f457600080fd5b506101fe60045481565b6040519081526020015b60405180910390f35b34801561021d57600080fd5b5061023161022c366004611eb2565b61065b565b60408051938452602084019290925290820152606001610208565b34801561025857600080fd5b5060095461026c906001600160a01b031681565b6040516001600160a01b039091168152602001610208565b34801561029057600080fd5b506102d161029f366004611eb2565b600760205260009081526040902080546001820154600283015460038401546004909401549293919290919060ff1685565b6040805195865260208601949094529284019190915260608301521515608082015260a001610208565b34801561030757600080fd5b5061031b610316366004611ed6565b6106cd565b005b34801561032957600080fd5b506003546101fe565b61031b610340366004611eb2565b610711565b34801561035157600080fd5b50610231610360366004611eb2565b6109e6565b34801561037157600080fd5b5061031b610380366004611ed6565b610a36565b34801561039157600080fd5b5061031b6103a0366004611eb2565b610ad6565b3480156103b157600080fd5b506101fe60065481565b3480156103c757600080fd5b5061031b6103d6366004611eb2565b610b7e565b3480156103e757600080fd5b5061031b6103f6366004611ed6565b61116e565b34801561040757600080fd5b5061031b610416366004611ed6565b611328565b34801561042757600080fd5b50610457610436366004611eb2565b6001600160a01b031660009081526007602052604090206004015460ff1690565b6040519015158152602001610208565b34801561047357600080fd5b506101fe60035481565b34801561048957600080fd5b5061031b611335565b34801561049e57600080fd5b50600b5461026c906001600160a01b031681565b3480156104be57600080fd5b5061031b6104cd366004611eb2565b611349565b3480156104de57600080fd5b506000546001600160a01b031661026c565b61031b611661565b34801561050457600080fd5b5061031b610513366004611eb2565b611759565b34801561052457600080fd5b50610538610533366004611eb2565b6117ab565b6040516102089190600060a0820190508251825260208301516020830152604083015160408301526060830151606083015260808301511515608083015292915050565b34801561058857600080fd5b5061031b610597366004611ed6565b61183c565b3480156105a857600080fd5b50600a5461026c906001600160a01b031681565b3480156105c857600080fd5b5060085461026c906001600160a01b031681565b3480156105e857600080fd5b506101fe60025481565b3480156105fe57600080fd5b506101fe60055481565b34801561061457600080fd5b5061031b610623366004611eb2565b6118cb565b34801561063457600080fd5b5061031b610643366004611eb2565b611c2a565b61031b610656366004611eef565b611c65565b6001600160a01b03811660009081526007602052604081206001015460055490919081906127109061068d9085611f31565b6106979190611f4e565b915060006106a58385611f70565b60035490915081908111156106b957506003545b6106c38183611f83565b9496939550505050565b6106d5611df6565b60028190556040518181527ff4045d7dd317de89564c3f12c35961242ed2a4dce3ae4e7a75847ffa04bb0834906020015b60405180910390a150565b60095460405163033f09f760e51b81526001600160a01b038381166004830152339216906367e13ee090602401602060405180830381865afa15801561075b573d6000803e3d6000fd5b505050506040513d601f19601f8201168201806040525081019061077f9190611f96565b6001600160a01b0316146107ae5760405162461bcd60e51b81526004016107a590611fb3565b60405180910390fd5b60025434101561080a5760405162461bcd60e51b815260206004820152602160248201527f4167656e745374616b696e673a2062656c6f77206d696e696d756d207374616b6044820152606560f81b60648201526084016107a5565b6001600160a01b03811660009081526007602052604090206004015460ff16156108765760405162461bcd60e51b815260206004820152601c60248201527f4167656e745374616b696e673a20616c7265616479207374616b65640000000060448201526064016107a5565b60095460405163554c4f4b60e01b81526001600160a01b0383811660048301529091169063554c4f4b90602401602060405180830381865afa1580156108c0573d6000803e3d6000fd5b505050506040513d601f19601f820116820180604052508101906108e49190611fff565b6109435760405162461bcd60e51b815260206004820152602a60248201527f4167656e745374616b696e673a206167656e74206e6f742061637469766520696044820152696e20726567697374727960b01b60648201526084016107a5565b6040805160a0810182523480825260006020808401828152848601838152606086018481526001608088018181526001600160a01b038b1680885260078752968a90209851895593519088015590516002870155516003860155516004909401805460ff19169415159490941790935592519081527f9e71bc8eea02a63969f509818f2dafb9254532904319f9dbda79b67bd34a5f3d910160405180910390a250565b6001600160a01b038116600090815260076020526040812060010154600654909190819061271090610a189085611f31565b610a229190611f4e565b9150610a2e8284611f70565b929491935050565b610a3e611df6565b611388811115610aa15760405162461bcd60e51b815260206004820152602860248201527f4167656e745374616b696e673a207361666520776974686472617720666565206044820152670e8dede40d0d2ced60c31b60648201526084016107a5565b60068190556040518181527fc61a7a3f93237ff09973510f1612e01bc2a9cdad0823b50450e9cf60f623890390602001610706565b610ade611df6565b6001600160a01b038116610b345760405162461bcd60e51b815260206004820152601a60248201527f4167656e745374616b696e673a207a65726f206164647265737300000000000060448201526064016107a5565b600b80546001600160a01b0319166001600160a01b0383169081179091556040517f8bc21c8e7cba39f9a57d37b62e15255f3f4f1e3ffe111d43a8d062a59e7aa9eb90600090a250565b610b86611e23565b60095460405163033f09f760e51b81526001600160a01b038381166004830152339216906367e13ee090602401602060405180830381865afa158015610bd0573d6000803e3d6000fd5b505050506040513d601f19601f82011682018060405250810190610bf49190611f96565b6001600160a01b031614610c1a5760405162461bcd60e51b81526004016107a590611fb3565b6001600160a01b0381166000908152600760205260409020600481015460ff16610c565760405162461bcd60e51b81526004016107a59061201a565b6000816001015411610ca65760405162461bcd60e51b81526020600482015260196024820152784167656e745374616b696e673a206e6f206561726e696e677360381b60448201526064016107a5565b6000806000600860009054906101000a90046001600160a01b03166001600160a01b031663dbdff2c16040518163ffffffff1660e01b8152600401606060405180830381865afa158015610cfe573d6000803e3d6000fd5b505050506040513d601f19601f82011682018060405250810190610d229190612051565b92509250925081610d845760405162461bcd60e51b815260206004820152602660248201527f4167656e745374616b696e673a2072616e646f6d206e756d626572206e6f742060448201526573656375726560d01b60648201526084016107a5565b600454610d918242611f70565b1115610ded5760405162461bcd60e51b815260206004820152602560248201527f4167656e745374616b696e673a2072616e646f6d206e756d62657220746f6f206044820152647374616c6560d81b60648201526084016107a5565b60018401805460009182905560055490919061271090610e0d9084611f31565b610e179190611f4e565b90506000610e258284611f70565b90508115610f1557600b546040516000916001600160a01b03169084908381818185875af1925050503d8060008114610e7a576040519150601f19603f3d011682016040523d82523d6000602084013e610e7f565b606091505b5050905080610ed05760405162461bcd60e51b815260206004820152601e60248201527f4167656e745374616b696e673a20686f75736520666565206661696c6564000060448201526064016107a5565b886001600160a01b03167f27fd7ef3243422e5d5a5629400dc357d23a0aea4c65afc40c188634d83abe81584604051610f0b91815260200190565b60405180910390a2505b85600116600003611051576003548190811115610f3157506003545b8060036000828254610f439190611f70565b9091555060009050610f558284611f83565b60028a0180549192506000610f6983612086565b9091555050604051600090339083908381818185875af1925050503d8060008114610fb0576040519150601f19603f3d011682016040523d82523d6000602084013e610fb5565b606091505b50509050806110065760405162461bcd60e51b815260206004820152601b60248201527f4167656e745374616b696e673a207061796f7574206661696c6564000000000060448201526064016107a5565b8a6001600160a01b03167fb98b8097282aa0670abc285d666e672f024ff89138fd0bb8cc5a2ee25a4f18428360405161104191815260200190565b60405180910390a250505061115b565b60038701805490600061106383612086565b9091555050600b546040516000916001600160a01b03169083908381818185875af1925050503d80600081146110b5576040519150601f19603f3d011682016040523d82523d6000602084013e6110ba565b606091505b50509050806111165760405162461bcd60e51b815260206004820152602260248201527f4167656e745374616b696e673a206c6f7373207472616e73666572206661696c604482015261195960f21b60648201526084016107a5565b886001600160a01b03167fd25494c4cd2c97c4f378637bc35937ce2cde5e51ab266d7499e9f407d0d6faad8360405161115191815260200190565b60405180910390a2505b5050505050505061116b60018055565b50565b600b546001600160a01b031633146111c85760405162461bcd60e51b815260206004820152601e60248201527f4167656e745374616b696e673a206e6f7420686f7573652077616c6c6574000060448201526064016107a5565b6111d0611e23565b6003548111156112225760405162461bcd60e51b815260206004820152601a60248201527f4167656e745374616b696e673a206578636565647320706f6f6c00000000000060448201526064016107a5565b80600360008282546112349190611f70565b9091555050600b546040516000916001600160a01b03169083908381818185875af1925050503d8060008114611286576040519150601f19603f3d011682016040523d82523d6000602084013e61128b565b606091505b50509050806112dc5760405162461bcd60e51b815260206004820152601d60248201527f4167656e745374616b696e673a207769746864726177206661696c656400000060448201526064016107a5565b600b546040518381526001600160a01b03909116907f6f07e6169c1653554eb707b6f6cd8f7ccf9cc29e54a0d8a71d9d5867d2057ac29060200160405180910390a25061116b60018055565b611330611df6565b600455565b61133d611df6565b6113476000611e4d565b565b611351611e23565b60095460405163033f09f760e51b81526001600160a01b038381166004830152339216906367e13ee090602401602060405180830381865afa15801561139b573d6000803e3d6000fd5b505050506040513d601f19601f820116820180604052508101906113bf9190611f96565b6001600160a01b0316146113e55760405162461bcd60e51b81526004016107a590611fb3565b6001600160a01b0381166000908152600760205260409020600481015460ff166114215760405162461bcd60e51b81526004016107a59061201a565b60008160010154116114715760405162461bcd60e51b81526020600482015260196024820152784167656e745374616b696e673a206e6f206561726e696e677360381b60448201526064016107a5565b600181018054600091829055600654909190612710906114919084611f31565b61149b9190611f4e565b905060006114a98284611f70565b9050811561156557600b546040516000916001600160a01b03169084908381818185875af1925050503d80600081146114fe576040519150601f19603f3d011682016040523d82523d6000602084013e611503565b606091505b50509050806115635760405162461bcd60e51b815260206004820152602660248201527f4167656e745374616b696e673a2073616665207769746864726177206665652060448201526519985a5b195960d21b60648201526084016107a5565b505b604051600090339083908381818185875af1925050503d80600081146115a7576040519150601f19603f3d011682016040523d82523d6000602084013e6115ac565b606091505b505090508061160f5760405162461bcd60e51b815260206004820152602960248201527f4167656e745374616b696e673a2073616665207769746864726177207061796f6044820152681d5d0819985a5b195960ba1b60648201526084016107a5565b60408051838152602081018590526001600160a01b038816917f7f3ef109b557a864a6a4c8537b06663bf0305610149c79effa11b496afed17ea910160405180910390a2505050505061116b60018055565b600b546001600160a01b031633146116bb5760405162461bcd60e51b815260206004820152601e60248201527f4167656e745374616b696e673a206e6f7420686f7573652077616c6c6574000060448201526064016107a5565b6000341161170b5760405162461bcd60e51b815260206004820152601760248201527f4167656e745374616b696e673a207a65726f207365656400000000000000000060448201526064016107a5565b346003600082825461171d9190611f83565b909155505060405134815233907fefa144e2f868ba3fd661aa7e63eaff63a9dc1e377faefb534dc9987f7d37d3639060200160405180910390a2565b611761611df6565b600a80546001600160a01b0319166001600160a01b0383169081179091556040517f43ab431641dd45dd0661cad4b820e826d7c526af92e3121e1242d721f82ab3ad90600090a250565b6117df6040518060a00160405280600081526020016000815260200160008152602001600081526020016000151581525090565b506001600160a01b0316600090815260076020908152604091829020825160a081018452815481526001820154928101929092526002810154928201929092526003820154606082015260049091015460ff161515608082015290565b611844611df6565b6107d08111156118965760405162461bcd60e51b815260206004820152601a60248201527f4167656e745374616b696e673a2066656520746f6f206869676800000000000060448201526064016107a5565b60058190556040518181527f39bac3776cf5051f3231c9b3c24fb41fde811b5ee1bd0b68869abb20d0bfeb5a90602001610706565b6118d3611e23565b60095460405163033f09f760e51b81526001600160a01b038381166004830152339216906367e13ee090602401602060405180830381865afa15801561191d573d6000803e3d6000fd5b505050506040513d601f19601f820116820180604052508101906119419190611f96565b6001600160a01b0316146119675760405162461bcd60e51b81526004016107a590611fb3565b6001600160a01b0381166000908152600760205260409020600481015460ff166119a35760405162461bcd60e51b81526004016107a59061201a565b60095460405163554c4f4b60e01b81526001600160a01b0384811660048301529091169063554c4f4b90602401602060405180830381865afa1580156119ed573d6000803e3d6000fd5b505050506040513d601f19601f82011682018060405250810190611a119190611fff565b15611a5e5760405162461bcd60e51b815260206004820181905260248201527f4167656e745374616b696e673a206167656e74207374696c6c2061637469766560448201526064016107a5565b8054600182018054600080855590915560048301805460ff191690558015611b3357600b546040516000916001600160a01b03169083908381818185875af1925050503d8060008114611acd576040519150601f19603f3d011682016040523d82523d6000602084013e611ad2565b606091505b5050905080611b315760405162461bcd60e51b815260206004820152602560248201527f4167656e745374616b696e673a20666f7266656974207472616e736665722066604482015264185a5b195960da1b60648201526084016107a5565b505b604051600090339084908381818185875af1925050503d8060008114611b75576040519150601f19603f3d011682016040523d82523d6000602084013e611b7a565b606091505b5050905080611bd95760405162461bcd60e51b815260206004820152602560248201527f4167656e745374616b696e673a20756e7374616b65207472616e736665722066604482015264185a5b195960da1b60648201526084016107a5565b60408051848152602081018490526001600160a01b038716917f7fc4727e062e336010f2c282598ef5f14facb3de68cf8195c2f23e1454b2b74e910160405180910390a25050505061116b60018055565b611c32611df6565b6001600160a01b038116611c5c57604051631e4fbdf760e01b8152600060048201526024016107a5565b61116b81611e4d565b600a546001600160a01b03163314611cca5760405162461bcd60e51b815260206004820152602260248201527f4167656e745374616b696e673a2063616c6c6572206973206e6f7420657363726044820152616f7760f01b60648201526084016107a5565b803414611d195760405162461bcd60e51b815260206004820152601c60248201527f4167656e745374616b696e673a2076616c7565206d69736d617463680000000060448201526064016107a5565b6001600160a01b03821660009081526007602052604090206004015460ff16611d845760405162461bcd60e51b815260206004820152601e60248201527f4167656e745374616b696e673a206167656e74206e6f74207374616b6564000060448201526064016107a5565b6001600160a01b03821660009081526007602052604081206001018054839290611daf908490611f83565b90915550506040518181526001600160a01b038316907fd10ba912a205167341ec37c567bc6385ce219f1c9044ee190d82aa39017180209060200160405180910390a25050565b6000546001600160a01b031633146113475760405163118cdaa760e01b81523360048201526024016107a5565b600260015403611e4657604051633ee5aeb560e01b815260040160405180910390fd5b6002600155565b600080546001600160a01b038381166001600160a01b0319831681178455604051919092169283917f8be0079c531659141344cd1fd0a4f28419497f9722a3daafe3b4186f6b6457e09190a35050565b6001600160a01b038116811461116b57600080fd5b600060208284031215611ec457600080fd5b8135611ecf81611e9d565b9392505050565b600060208284031215611ee857600080fd5b5035919050565b60008060408385031215611f0257600080fd5b8235611f0d81611e9d565b946020939093013593505050565b634e487b7160e01b600052601160045260246000fd5b8082028115828204841417611f4857611f48611f1b565b92915050565b600082611f6b57634e487b7160e01b600052601260045260246000fd5b500490565b81810381811115611f4857611f48611f1b565b80820180821115611f4857611f48611f1b565b600060208284031215611fa857600080fd5b8151611ecf81611e9d565b6020808252601b908201527f4167656e745374616b696e673a206e6f7420646576656c6f7065720000000000604082015260600190565b80518015158114611ffa57600080fd5b919050565b60006020828403121561201157600080fd5b611ecf82611fea565b60208082526018908201527f4167656e745374616b696e673a206e6f74207374616b65640000000000000000604082015260600190565b60008060006060848603121561206657600080fd5b8351925061207660208501611fea565b9150604084015190509250925092565b60006001820161209857612098611f1b565b506001019056fea2646970667358221220bca335c777c3cc967dffaa187da9ecf7a20ab5ebd2783380039727d6253885f364736f6c63430008180033","opcodes":"PUSH1 0x80 PUSH1 0x40 MSTORE CALLVALUE DUP1 ISZERO PUSH3 0x11 JUMPI PUSH1 0x0 DUP1 REVERT JUMPDEST POP PUSH1 0x40 MLOAD PUSH3 0x2286 CODESIZE SUB DUP1 PUSH3 0x2286 DUP4 CODECOPY DUP2 ADD PUSH1 0x40 DUP2 SWAP1 MSTORE PUSH3 0x34 SWAP2 PUSH3 0x14F JUMP JUMPDEST DUP4 PUSH1 0x1 PUSH1 0x1 PUSH1 0xA0 SHL SUB DUP2 AND PUSH3 0x64 JUMPI PUSH1 0x40 MLOAD PUSH4 0x1E4FBDF7 PUSH1 0xE0 SHL DUP2 MSTORE PUSH1 0x0 PUSH1 0x4 DUP3 ADD MSTORE PUSH1 0x24 ADD PUSH1 0x40 MLOAD DUP1 SWAP2 SUB SWAP1 REVERT JUMPDEST PUSH3 0x6F DUP2 PUSH3 0xE2 JUMP JUMPDEST POP PUSH1 0x1 DUP1 SSTORE PUSH1 0x9 DUP1 SLOAD PUSH1 0x1 PUSH1 0x1 PUSH1 0xA0 SHL SUB SWAP5 DUP6 AND PUSH1 0x1 PUSH1 0x1 PUSH1 0xA0 SHL SUB NOT SWAP2 DUP3 AND OR SWAP1 SWAP2 SSTORE PUSH1 0x8 DUP1 SLOAD SWAP4 SWAP1 SWAP5 AND SWAP3 DUP2 AND SWAP3 SWAP1 SWAP3 OR SWAP1 SWAP3 SSTORE PUSH1 0x2 SWAP2 SWAP1 SWAP2 SSTORE PUSH1 0x78 PUSH1 0x4 SSTORE PUSH1 0xB DUP1 SLOAD SWAP1 SWAP2 AND PUSH20 0x76F9398EE268B9FDC06C0DFF402B20532922FFAE OR SWAP1 SSTORE POP PUSH2 0x1F4 PUSH1 0x5 SSTORE PUSH2 0x7D0 PUSH1 0x6 SSTORE PUSH3 0x1A1 JUMP JUMPDEST PUSH1 0x0 DUP1 SLOAD PUSH1 0x1 PUSH1 0x1 PUSH1 0xA0 SHL SUB DUP4 DUP2 AND PUSH1 0x1 PUSH1 0x1 PUSH1 0xA0 SHL SUB NOT DUP4 AND DUP2 OR DUP5 SSTORE PUSH1 0x40 MLOAD SWAP2 SWAP1 SWAP3 AND SWAP3 DUP4 SWAP2 PUSH32 0x8BE0079C531659141344CD1FD0A4F28419497F9722A3DAAFE3B4186F6B6457E0 SWAP2 SWAP1 LOG3 POP POP JUMP JUMPDEST DUP1 MLOAD PUSH1 0x1 PUSH1 0x1 PUSH1 0xA0 SHL SUB DUP2 AND DUP2 EQ PUSH3 0x14A JUMPI PUSH1 0x0 DUP1 REVERT JUMPDEST SWAP2 SWAP1 POP JUMP JUMPDEST PUSH1 0x0 DUP1 PUSH1 0x0 DUP1 PUSH1 0x80 DUP6 DUP8 SUB SLT ISZERO PUSH3 0x166 JUMPI PUSH1 0x0 DUP1 REVERT JUMPDEST PUSH3 0x171 DUP6 PUSH3 0x132 JUMP JUMPDEST SWAP4 POP PUSH3 0x181 PUSH1 0x20 DUP7 ADD PUSH3 0x132 JUMP JUMPDEST SWAP3 POP PUSH3 0x191 PUSH1 0x40 DUP7 ADD PUSH3 0x132 JUMP JUMPDEST PUSH1 0x60 SWAP6 SWAP1 SWAP6 ADD MLOAD SWAP4 SWAP7 SWAP3 SWAP6 POP POP POP JUMP JUMPDEST PUSH2 0x20D5 DUP1 PUSH3 0x1B1 PUSH1 0x0 CODECOPY PUSH1 0x0 RETURN INVALID PUSH1 0x80 PUSH1 0x40 MSTORE PUSH1 0x4 CALLDATASIZE LT PUSH2 0x1DC JUMPI PUSH1 0x0 CALLDATALOAD PUSH1 0xE0 SHR DUP1 PUSH4 0x6671459B GT PUSH2 0x102 JUMPI DUP1 PUSH4 0xDB809116 GT PUSH2 0x95 JUMPI DUP1 PUSH4 0xEE59D240 GT PUSH2 0x64 JUMPI DUP1 PUSH4 0xEE59D240 EQ PUSH2 0x5F2 JUMPI DUP1 PUSH4 0xF2888DBB EQ PUSH2 0x608 JUMPI DUP1 PUSH4 0xF2FDE38B EQ PUSH2 0x628 JUMPI DUP1 PUSH4 0xF953F645 EQ PUSH2 0x648 JUMPI PUSH1 0x0 DUP1 REVERT JUMPDEST DUP1 PUSH4 0xDB809116 EQ PUSH2 0x57C JUMPI DUP1 PUSH4 0xE2FDCC17 EQ PUSH2 0x59C JUMPI DUP1 PUSH4 0xE98DC5EE EQ PUSH2 0x5BC JUMPI DUP1 PUSH4 0xEC5FFAC2 EQ PUSH2 0x5DC JUMPI PUSH1 0x0 DUP1 REVERT JUMPDEST DUP1 PUSH4 0x8DA5CB5B GT PUSH2 0xD1 JUMPI DUP1 PUSH4 0x8DA5CB5B EQ PUSH2 0x4D2 JUMPI DUP1 PUSH4 0xA6A15183 EQ PUSH2 0x4F0 JUMPI DUP1 PUSH4 0xC10C3546 EQ PUSH2 0x4F8 JUMPI DUP1 PUSH4 0xC3453153 EQ PUSH2 0x518 JUMPI PUSH1 0x0 DUP1 REVERT JUMPDEST DUP1 PUSH4 0x6671459B EQ PUSH2 0x467 JUMPI DUP1 PUSH4 0x715018A6 EQ PUSH2 0x47D JUMPI DUP1 PUSH4 0x77818F02 EQ PUSH2 0x492 JUMPI DUP1 PUSH4 0x838A4107 EQ PUSH2 0x4B2 JUMPI PUSH1 0x0 DUP1 REVERT JUMPDEST DUP1 PUSH4 0x2E6B2F6E GT PUSH2 0x17A JUMPI DUP1 PUSH4 0x4846FF7E GT PUSH2 0x149 JUMPI DUP1 PUSH4 0x4846FF7E EQ PUSH2 0x3BB JUMPI DUP1 PUSH4 0x4C034EA9 EQ PUSH2 0x3DB JUMPI DUP1 PUSH4 0x58B8E098 EQ PUSH2 0x3FB JUMPI DUP1 PUSH4 0x6177FD18 EQ PUSH2 0x41B JUMPI PUSH1 0x0 DUP1 REVERT JUMPDEST DUP1 PUSH4 0x2E6B2F6E EQ PUSH2 0x345 JUMPI DUP1 PUSH4 0x30091128 EQ PUSH2 0x365 JUMPI DUP1 PUSH4 0x35D4DE51 EQ PUSH2 0x385 JUMPI DUP1 PUSH4 0x4212E1C7 EQ PUSH2 0x3A5 JUMPI PUSH1 0x0 DUP1 REVERT JUMPDEST DUP1 PUSH4 0x16934FC4 GT PUSH2 0x1B6 JUMPI DUP1 PUSH4 0x16934FC4 EQ PUSH2 0x284 JUMPI DUP1 PUSH4 0x233E9903 EQ PUSH2 0x2FB JUMPI DUP1 PUSH4 0x23845E4B EQ PUSH2 0x31D JUMPI DUP1 PUSH4 0x26476204 EQ PUSH2 0x332 JUMPI PUSH1 0x0 DUP1 REVERT JUMPDEST DUP1 PUSH4 0x7CFEAD8 EQ PUSH2 0x1E8 JUMPI DUP1 PUSH4 0xADDA68C EQ PUSH2 0x211 JUMPI DUP1 PUSH4 0xD1CFCAE EQ PUSH2 0x24C JUMPI PUSH1 0x0 DUP1 REVERT JUMPDEST CALLDATASIZE PUSH2 0x1E3 JUMPI STOP JUMPDEST PUSH1 0x0 DUP1 REVERT JUMPDEST CALLVALUE DUP1 ISZERO PUSH2 0x1F4 JUMPI PUSH1 0x0 DUP1 REVERT JUMPDEST POP PUSH2 0x1FE PUSH1 0x4 SLOAD DUP2 JUMP JUMPDEST PUSH1 0x40 MLOAD SWAP1 DUP2 MSTORE PUSH1 0x20 ADD JUMPDEST PUSH1 0x40 MLOAD DUP1 SWAP2 SUB SWAP1 RETURN JUMPDEST CALLVALUE DUP1 ISZERO PUSH2 0x21D JUMPI PUSH1 0x0 DUP1 REVERT JUMPDEST POP PUSH2 0x231 PUSH2 0x22C CALLDATASIZE PUSH1 0x4 PUSH2 0x1EB2 JUMP JUMPDEST PUSH2 0x65B JUMP JUMPDEST PUSH1 0x40 DUP1 MLOAD SWAP4 DUP5 MSTORE PUSH1 0x20 DUP5 ADD SWAP3 SWAP1 SWAP3 MSTORE SWAP1 DUP3 ADD MSTORE PUSH1 0x60 ADD PUSH2 0x208 JUMP JUMPDEST CALLVALUE DUP1 ISZERO PUSH2 0x258 JUMPI PUSH1 0x0 DUP1 REVERT JUMPDEST POP PUSH1 0x9 SLOAD PUSH2 0x26C SWAP1 PUSH1 0x1 PUSH1 0x1 PUSH1 0xA0 SHL SUB AND DUP2 JUMP JUMPDEST PUSH1 0x40 MLOAD PUSH1 0x1 PUSH1 0x1 PUSH1 0xA0 SHL SUB SWAP1 SWAP2 AND DUP2 MSTORE PUSH1 0x20 ADD PUSH2 0x208 JUMP JUMPDEST CALLVALUE DUP1 ISZERO PUSH2 0x290 JUMPI PUSH1 0x0 DUP1 REVERT JUMPDEST POP PUSH2 0x2D1 PUSH2 0x29F CALLDATASIZE PUSH1 0x4 PUSH2 0x1EB2 JUMP JUMPDEST PUSH1 0x7 PUSH1 0x20 MSTORE PUSH1 0x0 SWAP1 DUP2 MSTORE PUSH1 0x40 SWAP1 KECCAK256 DUP1 SLOAD PUSH1 0x1 DUP3 ADD SLOAD PUSH1 0x2 DUP4 ADD SLOAD PUSH1 0x3 DUP5 ADD SLOAD PUSH1 0x4 SWAP1 SWAP5 ADD SLOAD SWAP3 SWAP4 SWAP2 SWAP3 SWAP1 SWAP2 SWAP1 PUSH1 0xFF AND DUP6 JUMP JUMPDEST PUSH1 0x40 DUP1 MLOAD SWAP6 DUP7 MSTORE PUSH1 0x20 DUP7 ADD SWAP5 SWAP1 SWAP5 MSTORE SWAP3 DUP5 ADD SWAP2 SWAP1 SWAP2 MSTORE PUSH1 0x60 DUP4 ADD MSTORE ISZERO ISZERO PUSH1 0x80 DUP3 ADD MSTORE PUSH1 0xA0 ADD PUSH2 0x208 JUMP JUMPDEST CALLVALUE DUP1 ISZERO PUSH2 0x307 JUMPI PUSH1 0x0 DUP1 REVERT JUMPDEST POP PUSH2 0x31B PUSH2 0x316 CALLDATASIZE PUSH1 0x4 PUSH2 0x1ED6 JUMP JUMPDEST PUSH2 0x6CD JUMP JUMPDEST STOP JUMPDEST CALLVALUE DUP1 ISZERO PUSH2 0x329 JUMPI PUSH1 0x0 DUP1 REVERT JUMPDEST POP PUSH1 0x3 SLOAD PUSH2 0x1FE JUMP JUMPDEST PUSH2 0x31B PUSH2 0x340 CALLDATASIZE PUSH1 0x4 PUSH2 0x1EB2 JUMP JUMPDEST PUSH2 0x711 JUMP JUMPDEST CALLVALUE DUP1 ISZERO PUSH2 0x351 JUMPI PUSH1 0x0 DUP1 REVERT JUMPDEST POP PUSH2 0x231 PUSH2 0x360 CALLDATASIZE PUSH1 0x4 PUSH2 0x1EB2 JUMP JUMPDEST PUSH2 0x9E6 JUMP JUMPDEST CALLVALUE DUP1 ISZERO PUSH2 0x371 JUMPI PUSH1 0x0 DUP1 REVERT JUMPDEST POP PUSH2 0x31B PUSH2 0x380 CALLDATASIZE PUSH1 0x4 PUSH2 0x1ED6 JUMP JUMPDEST PUSH2 0xA36 JUMP JUMPDEST CALLVALUE DUP1 ISZERO PUSH2 0x391 JUMPI PUSH1 0x0 DUP1 REVERT JUMPDEST POP PUSH2 0x31B PUSH2 0x3A0 CALLDATASIZE PUSH1 0x4 PUSH2 0x1EB2 JUMP JUMPDEST PUSH2 0xAD6 JUMP JUMPDEST CALLVALUE DUP1 ISZERO PUSH2 0x3B1 JUMPI PUSH1 0x0 DUP1 REVERT JUMPDEST POP PUSH2 0x1FE PUSH1 0x6 SLOAD DUP2 JUMP JUMPDEST CALLVALUE DUP1 ISZERO PUSH2 0x3C7 JUMPI PUSH1 0x0 DUP1 REVERT JUMPDEST POP PUSH2 0x31B PUSH2 0x3D6 CALLDATASIZE PUSH1 0x4 PUSH2 0x1EB2 JUMP JUMPDEST PUSH2 0xB7E JUMP JUMPDEST CALLVALUE DUP1 ISZERO PUSH2 0x3E7 JUMPI PUSH1 0x0 DUP1 REVERT JUMPDEST POP PUSH2 0x31B PUSH2 0x3F6 CALLDATASIZE PUSH1 0x4 PUSH2 0x1ED6 JUMP JUMPDEST PUSH2 0x116E JUMP JUMPDEST CALLVALUE DUP1 ISZERO PUSH2 0x407 JUMPI PUSH1 0x0 DUP1 REVERT JUMPDEST POP PUSH2 0x31B PUSH2 0x416 CALLDATASIZE PUSH1 0x4 PUSH2 0x1ED6 JUMP JUMPDEST PUSH2 0x1328 JUMP JUMPDEST CALLVALUE DUP1 ISZERO PUSH2 0x427 JUMPI PUSH1 0x0 DUP1 REVERT JUMPDEST POP PUSH2 0x457 PUSH2 0x436 CALLDATASIZE PUSH1 0x4 PUSH2 0x1EB2 JUMP JUMPDEST PUSH1 0x1 PUSH1 0x1 PUSH1 0xA0 SHL SUB AND PUSH1 0x0 SWAP1 DUP2 MSTORE PUSH1 0x7 PUSH1 0x20 MSTORE PUSH1 0x40 SWAP1 KECCAK256 PUSH1 0x4 ADD SLOAD PUSH1 0xFF AND SWAP1 JUMP JUMPDEST PUSH1 0x40 MLOAD SWAP1 ISZERO ISZERO DUP2 MSTORE PUSH1 0x20 ADD PUSH2 0x208 JUMP JUMPDEST CALLVALUE DUP1 ISZERO PUSH2 0x473 JUMPI PUSH1 0x0 DUP1 REVERT JUMPDEST POP PUSH2 0x1FE PUSH1 0x3 SLOAD DUP2 JUMP JUMPDEST CALLVALUE DUP1 ISZERO PUSH2 0x489 JUMPI PUSH1 0x0 DUP1 REVERT JUMPDEST POP PUSH2 0x31B PUSH2 0x1335 JUMP JUMPDEST CALLVALUE DUP1 ISZERO PUSH2 0x49E JUMPI PUSH1 0x0 DUP1 REVERT JUMPDEST POP PUSH1 0xB SLOAD PUSH2 0x26C SWAP1 PUSH1 0x1 PUSH1 0x1 PUSH1 0xA0 SHL SUB AND DUP2 JUMP JUMPDEST CALLVALUE DUP1 ISZERO PUSH2 0x4BE JUMPI PUSH1 0x0 DUP1 REVERT JUMPDEST POP PUSH2 0x31B PUSH2 0x4CD CALLDATASIZE PUSH1 0x4 PUSH2 0x1EB2 JUMP JUMPDEST PUSH2 0x1349 JUMP JUMPDEST CALLVALUE DUP1 ISZERO PUSH2 0x4DE JUMPI PUSH1 0x0 DUP1 REVERT JUMPDEST POP PUSH1 0x0 SLOAD PUSH1 0x1 PUSH1 0x1 PUSH1 0xA0 SHL SUB AND PUSH2 0x26C JUMP JUMPDEST PUSH2 0x31B PUSH2 0x1661 JUMP JUMPDEST CALLVALUE DUP1 ISZERO PUSH2 0x504 JUMPI PUSH1 0x0 DUP1 REVERT JUMPDEST POP PUSH2 0x31B PUSH2 0x513 CALLDATASIZE PUSH1 0x4 PUSH2 0x1EB2 JUMP JUMPDEST PUSH2 0x1759 JUMP JUMPDEST CALLVALUE DUP1 ISZERO PUSH2 0x524 JUMPI PUSH1 0x0 DUP1 REVERT JUMPDEST POP PUSH2 0x538 PUSH2 0x533 CALLDATASIZE PUSH1 0x4 PUSH2 0x1EB2 JUMP JUMPDEST PUSH2 0x17AB JUMP JUMPDEST PUSH1 0x40 MLOAD PUSH2 0x208 SWAP2 SWAP1 PUSH1 0x0 PUSH1 0xA0 DUP3 ADD SWAP1 POP DUP3 MLOAD DUP3 MSTORE PUSH1 0x20 DUP4 ADD MLOAD PUSH1 0x20 DUP4 ADD MSTORE PUSH1 0x40 DUP4 ADD MLOAD PUSH1 0x40 DUP4 ADD MSTORE PUSH1 0x60 DUP4 ADD MLOAD PUSH1 0x60 DUP4 ADD MSTORE PUSH1 0x80 DUP4 ADD MLOAD ISZERO ISZERO PUSH1 0x80 DUP4 ADD MSTORE SWAP3 SWAP2 POP POP JUMP JUMPDEST CALLVALUE DUP1 ISZERO PUSH2 0x588 JUMPI PUSH1 0x0 DUP1 REVERT JUMPDEST POP PUSH2 0x31B PUSH2 0x597 CALLDATASIZE PUSH1 0x4 PUSH2 0x1ED6 JUMP JUMPDEST PUSH2 0x183C JUMP JUMPDEST CALLVALUE DUP1 ISZERO PUSH2 0x5A8 JUMPI PUSH1 0x0 DUP1 REVERT JUMPDEST POP PUSH1 0xA SLOAD PUSH2 0x26C SWAP1 PUSH1 0x1 PUSH1 0x1 PUSH1 0xA0 SHL SUB AND DUP2 JUMP JUMPDEST CALLVALUE DUP1 ISZERO PUSH2 0x5C8 JUMPI PUSH1 0x0 DUP1 REVERT JUMPDEST POP PUSH1 0x8 SLOAD PUSH2 0x26C SWAP1 PUSH1 0x1 PUSH1 0x1 PUSH1 0xA0 SHL SUB AND DUP2 JUMP JUMPDEST CALLVALUE DUP1 ISZERO PUSH2 0x5E8 JUMPI PUSH1 0x0 DUP1 REVERT JUMPDEST POP PUSH2 0x1FE PUSH1 0x2 SLOAD DUP2 JUMP JUMPDEST CALLVALUE DUP1 ISZERO PUSH2 0x5FE JUMPI PUSH1 0x0 DUP1 REVERT JUMPDEST POP PUSH2 0x1FE PUSH1 0x5 SLOAD DUP2 JUMP JUMPDEST CALLVALUE DUP1 ISZERO PUSH2 0x614 JUMPI PUSH1 0x0 DUP1 REVERT JUMPDEST POP PUSH2 0x31B PUSH2 0x623 CALLDATASIZE PUSH1 0x4 PUSH2 0x1EB2 JUMP JUMPDEST PUSH2 0x18CB JUMP JUMPDEST CALLVALUE DUP1 ISZERO PUSH2 0x634 JUMPI PUSH1 0x0 DUP1 REVERT JUMPDEST POP PUSH2 0x31B PUSH2 0x643 CALLDATASIZE PUSH1 0x4 PUSH2 0x1EB2 JUMP JUMPDEST PUSH2 0x1C2A JUMP JUMPDEST PUSH2 0x31B PUSH2 0x656 CALLDATASIZE PUSH1 0x4 PUSH2 0x1EEF JUMP JUMPDEST PUSH2 0x1C65 JUMP JUMPDEST PUSH1 0x1 PUSH1 0x1 PUSH1 0xA0 SHL SUB DUP2 AND PUSH1 0x0 SWAP1 DUP2 MSTORE PUSH1 0x7 PUSH1 0x20 MSTORE PUSH1 0x40 DUP2 KECCAK256 PUSH1 0x1 ADD SLOAD PUSH1 0x5 SLOAD SWAP1 SWAP2 SWAP1 DUP2 SWAP1 PUSH2 0x2710 SWAP1 PUSH2 0x68D SWAP1 DUP6 PUSH2 0x1F31 JUMP JUMPDEST PUSH2 0x697 SWAP2 SWAP1 PUSH2 0x1F4E JUMP JUMPDEST SWAP2 POP PUSH1 0x0 PUSH2 0x6A5 DUP4 DUP6 PUSH2 0x1F70 JUMP JUMPDEST PUSH1 0x3 SLOAD SWAP1 SWAP2 POP DUP2 SWAP1 DUP2 GT ISZERO PUSH2 0x6B9 JUMPI POP PUSH1 0x3 SLOAD JUMPDEST PUSH2 0x6C3 DUP2 DUP4 PUSH2 0x1F83 JUMP JUMPDEST SWAP5 SWAP7 SWAP4 SWAP6 POP POP POP POP JUMP JUMPDEST PUSH2 0x6D5 PUSH2 0x1DF6 JUMP JUMPDEST PUSH1 0x2 DUP2 SWAP1 SSTORE PUSH1 0x40 MLOAD DUP2 DUP2 MSTORE PUSH32 0xF4045D7DD317DE89564C3F12C35961242ED2A4DCE3AE4E7A75847FFA04BB0834 SWAP1 PUSH1 0x20 ADD JUMPDEST PUSH1 0x40 MLOAD DUP1 SWAP2 SUB SWAP1 LOG1 POP JUMP JUMPDEST PUSH1 0x9 SLOAD PUSH1 0x40 MLOAD PUSH4 0x33F09F7 PUSH1 0xE5 SHL DUP2 MSTORE PUSH1 0x1 PUSH1 0x1 PUSH1 0xA0 SHL SUB DUP4 DUP2 AND PUSH1 0x4 DUP4 ADD MSTORE CALLER SWAP3 AND SWAP1 PUSH4 0x67E13EE0 SWAP1 PUSH1 0x24 ADD PUSH1 0x20 PUSH1 0x40 MLOAD DUP1 DUP4 SUB DUP2 DUP7 GAS STATICCALL ISZERO DUP1 ISZERO PUSH2 0x75B JUMPI RETURNDATASIZE PUSH1 0x0 DUP1 RETURNDATACOPY RETURNDATASIZE PUSH1 0x0 REVERT JUMPDEST POP POP POP POP PUSH1 0x40 MLOAD RETURNDATASIZE PUSH1 0x1F NOT PUSH1 0x1F DUP3 ADD AND DUP3 ADD DUP1 PUSH1 0x40 MSTORE POP DUP2 ADD SWAP1 PUSH2 0x77F SWAP2 SWAP1 PUSH2 0x1F96 JUMP JUMPDEST PUSH1 0x1 PUSH1 0x1 PUSH1 0xA0 SHL SUB AND EQ PUSH2 0x7AE JUMPI PUSH1 0x40 MLOAD PUSH3 0x461BCD PUSH1 0xE5 SHL DUP2 MSTORE PUSH1 0x4 ADD PUSH2 0x7A5 SWAP1 PUSH2 0x1FB3 JUMP JUMPDEST PUSH1 0x40 MLOAD DUP1 SWAP2 SUB SWAP1 REVERT JUMPDEST PUSH1 0x2 SLOAD CALLVALUE LT ISZERO PUSH2 0x80A JUMPI PUSH1 0x40 MLOAD PUSH3 0x461BCD PUSH1 0xE5 SHL DUP2 MSTORE PUSH1 0x20 PUSH1 0x4 DUP3 ADD MSTORE PUSH1 0x21 PUSH1 0x24 DUP3 ADD MSTORE PUSH32 0x4167656E745374616B696E673A2062656C6F77206D696E696D756D207374616B PUSH1 0x44 DUP3 ADD MSTORE PUSH1 0x65 PUSH1 0xF8 SHL PUSH1 0x64 DUP3 ADD MSTORE PUSH1 0x84 ADD PUSH2 0x7A5 JUMP JUMPDEST PUSH1 0x1 PUSH1 0x1 PUSH1 0xA0 SHL SUB DUP2 AND PUSH1 0x0 SWAP1 DUP2 MSTORE PUSH1 0x7 PUSH1 0x20 MSTORE PUSH1 0x40 SWAP1 KECCAK256 PUSH1 0x4 ADD SLOAD PUSH1 0xFF AND ISZERO PUSH2 0x876 JUMPI PUSH1 0x40 MLOAD PUSH3 0x461BCD PUSH1 0xE5 SHL DUP2 MSTORE PUSH1 0x20 PUSH1 0x4 DUP3 ADD MSTORE PUSH1 0x1C PUSH1 0x24 DUP3 ADD MSTORE PUSH32 0x4167656E745374616B696E673A20616C7265616479207374616B656400000000 PUSH1 0x44 DUP3 ADD MSTORE PUSH1 0x64 ADD PUSH2 0x7A5 JUMP JUMPDEST PUSH1 0x9 SLOAD PUSH1 0x40 MLOAD PUSH4 0x554C4F4B PUSH1 0xE0 SHL DUP2 MSTORE PUSH1 0x1 PUSH1 0x1 PUSH1 0xA0 SHL SUB DUP4 DUP2 AND PUSH1 0x4 DUP4 ADD MSTORE SWAP1 SWAP2 AND SWAP1 PUSH4 0x554C4F4B SWAP1 PUSH1 0x24 ADD PUSH1 0x20 PUSH1 0x40 MLOAD DUP1 DUP4 SUB DUP2 DUP7 GAS STATICCALL ISZERO DUP1 ISZERO PUSH2 0x8C0 JUMPI RETURNDATASIZE PUSH1 0x0 DUP1 RETURNDATACOPY RETURNDATASIZE PUSH1 0x0 REVERT JUMPDEST POP POP POP POP PUSH1 0x40 MLOAD RETURNDATASIZE PUSH1 0x1F NOT PUSH1 0x1F DUP3 ADD AND DUP3 ADD DUP1 PUSH1 0x40 MSTORE POP DUP2 ADD SWAP1 PUSH2 0x8E4 SWAP2 SWAP1 PUSH2 0x1FFF JUMP JUMPDEST PUSH2 0x943 JUMPI PUSH1 0x40 MLOAD PUSH3 0x461BCD PUSH1 0xE5 SHL DUP2 MSTORE PUSH1 0x20 PUSH1 0x4 DUP3 ADD MSTORE PUSH1 0x2A PUSH1 0x24 DUP3 ADD MSTORE PUSH32 0x4167656E745374616B696E673A206167656E74206E6F74206163746976652069 PUSH1 0x44 DUP3 ADD MSTORE PUSH10 0x6E207265676973747279 PUSH1 0xB0 SHL PUSH1 0x64 DUP3 ADD MSTORE PUSH1 0x84 ADD PUSH2 0x7A5 JUMP JUMPDEST PUSH1 0x40 DUP1 MLOAD PUSH1 0xA0 DUP2 ADD DUP3 MSTORE CALLVALUE DUP1 DUP3 MSTORE PUSH1 0x0 PUSH1 0x20 DUP1 DUP5 ADD DUP3 DUP2 MSTORE DUP5 DUP7 ADD DUP4 DUP2 MSTORE PUSH1 0x60 DUP7 ADD DUP5 DUP2 MSTORE PUSH1 0x1 PUSH1 0x80 DUP9 ADD DUP2 DUP2 MSTORE PUSH1 0x1 PUSH1 0x1 PUSH1 0xA0 SHL SUB DUP12 AND DUP1 DUP9 MSTORE PUSH1 0x7 DUP8 MSTORE SWAP7 DUP11 SWAP1 KECCAK256 SWAP9 MLOAD DUP10 SSTORE SWAP4 MLOAD SWAP1 DUP9 ADD SSTORE SWAP1 MLOAD PUSH1 0x2 DUP8 ADD SSTORE MLOAD PUSH1 0x3 DUP7 ADD SSTORE MLOAD PUSH1 0x4 SWAP1 SWAP5 ADD DUP1 SLOAD PUSH1 0xFF NOT AND SWAP5 ISZERO ISZERO SWAP5 SWAP1 SWAP5 OR SWAP1 SWAP4 SSTORE SWAP3 MLOAD SWAP1 DUP2 MSTORE PUSH32 0x9E71BC8EEA02A63969F509818F2DAFB9254532904319F9DBDA79B67BD34A5F3D SWAP2 ADD PUSH1 0x40 MLOAD DUP1 SWAP2 SUB SWAP1 LOG2 POP JUMP JUMPDEST PUSH1 0x1 PUSH1 0x1 PUSH1 0xA0 SHL SUB DUP2 AND PUSH1 0x0 SWAP1 DUP2 MSTORE PUSH1 0x7 PUSH1 0x20 MSTORE PUSH1 0x40 DUP2 KECCAK256 PUSH1 0x1 ADD SLOAD PUSH1 0x6 SLOAD SWAP1 SWAP2 SWAP1 DUP2 SWAP1 PUSH2 0x2710 SWAP1 PUSH2 0xA18 SWAP1 DUP6 PUSH2 0x1F31 JUMP JUMPDEST PUSH2 0xA22 SWAP2 SWAP1 PUSH2 0x1F4E JUMP JUMPDEST SWAP2 POP PUSH2 0xA2E DUP3 DUP5 PUSH2 0x1F70 JUMP JUMPDEST SWAP3 SWAP5 SWAP2 SWAP4 POP POP JUMP JUMPDEST PUSH2 0xA3E PUSH2 0x1DF6 JUMP JUMPDEST PUSH2 0x1388 DUP2 GT ISZERO PUSH2 0xAA1 JUMPI PUSH1 0x40 MLOAD PUSH3 0x461BCD PUSH1 0xE5 SHL DUP2 MSTORE PUSH1 0x20 PUSH1 0x4 DUP3 ADD MSTORE PUSH1 0x28 PUSH1 0x24 DUP3 ADD MSTORE PUSH32 0x4167656E745374616B696E673A20736166652077697468647261772066656520 PUSH1 0x44 DUP3 ADD MSTORE PUSH8 0xE8DEDE40D0D2CED PUSH1 0xC3 SHL PUSH1 0x64 DUP3 ADD MSTORE PUSH1 0x84 ADD PUSH2 0x7A5 JUMP JUMPDEST PUSH1 0x6 DUP2 SWAP1 SSTORE PUSH1 0x40 MLOAD DUP2 DUP2 MSTORE PUSH32 0xC61A7A3F93237FF09973510F1612E01BC2A9CDAD0823B50450E9CF60F6238903 SWAP1 PUSH1 0x20 ADD PUSH2 0x706 JUMP JUMPDEST PUSH2 0xADE PUSH2 0x1DF6 JUMP JUMPDEST PUSH1 0x1 PUSH1 0x1 PUSH1 0xA0 SHL SUB DUP2 AND PUSH2 0xB34 JUMPI PUSH1 0x40 MLOAD PUSH3 0x461BCD PUSH1 0xE5 SHL DUP2 MSTORE PUSH1 0x20 PUSH1 0x4 DUP3 ADD MSTORE PUSH1 0x1A PUSH1 0x24 DUP3 ADD MSTORE PUSH32 0x4167656E745374616B696E673A207A65726F2061646472657373000000000000 PUSH1 0x44 DUP3 ADD MSTORE PUSH1 0x64 ADD PUSH2 0x7A5 JUMP JUMPDEST PUSH1 0xB DUP1 SLOAD PUSH1 0x1 PUSH1 0x1 PUSH1 0xA0 SHL SUB NOT AND PUSH1 0x1 PUSH1 0x1 PUSH1 0xA0 SHL SUB DUP4 AND SWAP1 DUP2 OR SWAP1 SWAP2 SSTORE PUSH1 0x40 MLOAD PUSH32 0x8BC21C8E7CBA39F9A57D37B62E15255F3F4F1E3FFE111D43A8D062A59E7AA9EB SWAP1 PUSH1 0x0 SWAP1 LOG2 POP JUMP JUMPDEST PUSH2 0xB86 PUSH2 0x1E23 JUMP JUMPDEST PUSH1 0x9 SLOAD PUSH1 0x40 MLOAD PUSH4 0x33F09F7 PUSH1 0xE5 SHL DUP2 MSTORE PUSH1 0x1 PUSH1 0x1 PUSH1 0xA0 SHL SUB DUP4 DUP2 AND PUSH1 0x4 DUP4 ADD MSTORE CALLER SWAP3 AND SWAP1 PUSH4 0x67E13EE0 SWAP1 PUSH1 0x24 ADD PUSH1 0x20 PUSH1 0x40 MLOAD DUP1 DUP4 SUB DUP2 DUP7 GAS STATICCALL ISZERO DUP1 ISZERO PUSH2 0xBD0 JUMPI RETURNDATASIZE PUSH1 0x0 DUP1 RETURNDATACOPY RETURNDATASIZE PUSH1 0x0 REVERT JUMPDEST POP POP POP POP PUSH1 0x40 MLOAD RETURNDATASIZE PUSH1 0x1F NOT PUSH1 0x1F DUP3 ADD AND DUP3 ADD DUP1 PUSH1 0x40 MSTORE POP DUP2 ADD SWAP1 PUSH2 0xBF4 SWAP2 SWAP1 PUSH2 0x1F96 JUMP JUMPDEST PUSH1 0x1 PUSH1 0x1 PUSH1 0xA0 SHL SUB AND EQ PUSH2 0xC1A JUMPI PUSH1 0x40 MLOAD PUSH3 0x461BCD PUSH1 0xE5 SHL DUP2 MSTORE PUSH1 0x4 ADD PUSH2 0x7A5 SWAP1 PUSH2 0x1FB3 JUMP JUMPDEST PUSH1 0x1 PUSH1 0x1 PUSH1 0xA0 SHL SUB DUP2 AND PUSH1 0x0 SWAP1 DUP2 MSTORE PUSH1 0x7 PUSH1 0x20 MSTORE PUSH1 0x40 SWAP1 KECCAK256 PUSH1 0x4 DUP2 ADD SLOAD PUSH1 0xFF AND PUSH2 0xC56 JUMPI PUSH1 0x40 MLOAD PUSH3 0x461BCD PUSH1 0xE5 SHL DUP2 MSTORE PUSH1 0x4 ADD PUSH2 0x7A5 SWAP1 PUSH2 0x201A JUMP JUMPDEST PUSH1 0x0 DUP2 PUSH1 0x1 ADD SLOAD GT PUSH2 0xCA6 JUMPI PUSH1 0x40 MLOAD PUSH3 0x461BCD PUSH1 0xE5 SHL DUP2 MSTORE PUSH1 0x20 PUSH1 0x4 DUP3 ADD MSTORE PUSH1 0x19 PUSH1 0x24 DUP3 ADD MSTORE PUSH25 0x4167656E745374616B696E673A206E6F206561726E696E6773 PUSH1 0x38 SHL PUSH1 0x44 DUP3 ADD MSTORE PUSH1 0x64 ADD PUSH2 0x7A5 JUMP JUMPDEST PUSH1 0x0 DUP1 PUSH1 0x0 PUSH1 0x8 PUSH1 0x0 SWAP1 SLOAD SWAP1 PUSH2 0x100 EXP SWAP1 DIV PUSH1 0x1 PUSH1 0x1 PUSH1 0xA0 SHL SUB AND PUSH1 0x1 PUSH1 0x1 PUSH1 0xA0 SHL SUB AND PUSH4 0xDBDFF2C1 PUSH1 0x40 MLOAD DUP2 PUSH4 0xFFFFFFFF AND PUSH1 0xE0 SHL DUP2 MSTORE PUSH1 0x4 ADD PUSH1 0x60 PUSH1 0x40 MLOAD DUP1 DUP4 SUB DUP2 DUP7 GAS STATICCALL ISZERO DUP1 ISZERO PUSH2 0xCFE JUMPI RETURNDATASIZE PUSH1 0x0 DUP1 RETURNDATACOPY RETURNDATASIZE PUSH1 0x0 REVERT JUMPDEST POP POP POP POP PUSH1 0x40 MLOAD RETURNDATASIZE PUSH1 0x1F NOT PUSH1 0x1F DUP3 ADD AND DUP3 ADD DUP1 PUSH1 0x40 MSTORE POP DUP2 ADD SWAP1 PUSH2 0xD22 SWAP2 SWAP1 PUSH2 0x2051 JUMP JUMPDEST SWAP3 POP SWAP3 POP SWAP3 POP DUP2 PUSH2 0xD84 JUMPI PUSH1 0x40 MLOAD PUSH3 0x461BCD PUSH1 0xE5 SHL DUP2 MSTORE PUSH1 0x20 PUSH1 0x4 DUP3 ADD MSTORE PUSH1 0x26 PUSH1 0x24 DUP3 ADD MSTORE PUSH32 0x4167656E745374616B696E673A2072616E646F6D206E756D626572206E6F7420 PUSH1 0x44 DUP3 ADD MSTORE PUSH6 0x736563757265 PUSH1 0xD0 SHL PUSH1 0x64 DUP3 ADD MSTORE PUSH1 0x84 ADD PUSH2 0x7A5 JUMP JUMPDEST PUSH1 0x4 SLOAD PUSH2 0xD91 DUP3 TIMESTAMP PUSH2 0x1F70 JUMP JUMPDEST GT ISZERO PUSH2 0xDED JUMPI PUSH1 0x40 MLOAD PUSH3 0x461BCD PUSH1 0xE5 SHL DUP2 MSTORE PUSH1 0x20 PUSH1 0x4 DUP3 ADD MSTORE PUSH1 0x25 PUSH1 0x24 DUP3 ADD MSTORE PUSH32 0x4167656E745374616B696E673A2072616E646F6D206E756D62657220746F6F20 PUSH1 0x44 DUP3 ADD MSTORE PUSH5 0x7374616C65 PUSH1 0xD8 SHL PUSH1 0x64 DUP3 ADD MSTORE PUSH1 0x84 ADD PUSH2 0x7A5 JUMP JUMPDEST PUSH1 0x1 DUP5 ADD DUP1 SLOAD PUSH1 0x0 SWAP2 DUP3 SWAP1 SSTORE PUSH1 0x5 SLOAD SWAP1 SWAP2 SWAP1 PUSH2 0x2710 SWAP1 PUSH2 0xE0D SWAP1 DUP5 PUSH2 0x1F31 JUMP JUMPDEST PUSH2 0xE17 SWAP2 SWAP1 PUSH2 0x1F4E JUMP JUMPDEST SWAP1 POP PUSH1 0x0 PUSH2 0xE25 DUP3 DUP5 PUSH2 0x1F70 JUMP JUMPDEST SWAP1 POP DUP2 ISZERO PUSH2 0xF15 JUMPI PUSH1 0xB SLOAD PUSH1 0x40 MLOAD PUSH1 0x0 SWAP2 PUSH1 0x1 PUSH1 0x1 PUSH1 0xA0 SHL SUB AND SWAP1 DUP5 SWAP1 DUP4 DUP2 DUP2 DUP2 DUP6 DUP8 GAS CALL SWAP3 POP POP POP RETURNDATASIZE DUP1 PUSH1 0x0 DUP2 EQ PUSH2 0xE7A JUMPI PUSH1 0x40 MLOAD SWAP2 POP PUSH1 0x1F NOT PUSH1 0x3F RETURNDATASIZE ADD AND DUP3 ADD PUSH1 0x40 MSTORE RETURNDATASIZE DUP3 MSTORE RETURNDATASIZE PUSH1 0x0 PUSH1 0x20 DUP5 ADD RETURNDATACOPY PUSH2 0xE7F JUMP JUMPDEST PUSH1 0x60 SWAP2 POP JUMPDEST POP POP SWAP1 POP DUP1 PUSH2 0xED0 JUMPI PUSH1 0x40 MLOAD PUSH3 0x461BCD PUSH1 0xE5 SHL DUP2 MSTORE PUSH1 0x20 PUSH1 0x4 DUP3 ADD MSTORE PUSH1 0x1E PUSH1 0x24 DUP3 ADD MSTORE PUSH32 0x4167656E745374616B696E673A20686F75736520666565206661696C65640000 PUSH1 0x44 DUP3 ADD MSTORE PUSH1 0x64 ADD PUSH2 0x7A5 JUMP JUMPDEST DUP9 PUSH1 0x1 PUSH1 0x1 PUSH1 0xA0 SHL SUB AND PUSH32 0x27FD7EF3243422E5D5A5629400DC357D23A0AEA4C65AFC40C188634D83ABE815 DUP5 PUSH1 0x40 MLOAD PUSH2 0xF0B SWAP2 DUP2 MSTORE PUSH1 0x20 ADD SWAP1 JUMP JUMPDEST PUSH1 0x40 MLOAD DUP1 SWAP2 SUB SWAP1 LOG2 POP JUMPDEST DUP6 PUSH1 0x1 AND PUSH1 0x0 SUB PUSH2 0x1051 JUMPI PUSH1 0x3 SLOAD DUP2 SWAP1 DUP2 GT ISZERO PUSH2 0xF31 JUMPI POP PUSH1 0x3 SLOAD JUMPDEST DUP1 PUSH1 0x3 PUSH1 0x0 DUP3 DUP3 SLOAD PUSH2 0xF43 SWAP2 SWAP1 PUSH2 0x1F70 JUMP JUMPDEST SWAP1 SWAP2 SSTORE POP PUSH1 0x0 SWAP1 POP PUSH2 0xF55 DUP3 DUP5 PUSH2 0x1F83 JUMP JUMPDEST PUSH1 0x2 DUP11 ADD DUP1 SLOAD SWAP2 SWAP3 POP PUSH1 0x0 PUSH2 0xF69 DUP4 PUSH2 0x2086 JUMP JUMPDEST SWAP1 SWAP2 SSTORE POP POP PUSH1 0x40 MLOAD PUSH1 0x0 SWAP1 CALLER SWAP1 DUP4 SWAP1 DUP4 DUP2 DUP2 DUP2 DUP6 DUP8 GAS CALL SWAP3 POP POP POP RETURNDATASIZE DUP1 PUSH1 0x0 DUP2 EQ PUSH2 0xFB0 JUMPI PUSH1 0x40 MLOAD SWAP2 POP PUSH1 0x1F NOT PUSH1 0x3F RETURNDATASIZE ADD AND DUP3 ADD PUSH1 0x40 MSTORE RETURNDATASIZE DUP3 MSTORE RETURNDATASIZE PUSH1 0x0 PUSH1 0x20 DUP5 ADD RETURNDATACOPY PUSH2 0xFB5 JUMP JUMPDEST PUSH1 0x60 SWAP2 POP JUMPDEST POP POP SWAP1 POP DUP1 PUSH2 0x1006 JUMPI PUSH1 0x40 MLOAD PUSH3 0x461BCD PUSH1 0xE5 SHL DUP2 MSTORE PUSH1 0x20 PUSH1 0x4 DUP3 ADD MSTORE PUSH1 0x1B PUSH1 0x24 DUP3 ADD MSTORE PUSH32 0x4167656E745374616B696E673A207061796F7574206661696C65640000000000 PUSH1 0x44 DUP3 ADD MSTORE PUSH1 0x64 ADD PUSH2 0x7A5 JUMP JUMPDEST DUP11 PUSH1 0x1 PUSH1 0x1 PUSH1 0xA0 SHL SUB AND PUSH32 0xB98B8097282AA0670ABC285D666E672F024FF89138FD0BB8CC5A2EE25A4F1842 DUP4 PUSH1 0x40 MLOAD PUSH2 0x1041 SWAP2 DUP2 MSTORE PUSH1 0x20 ADD SWAP1 JUMP JUMPDEST PUSH1 0x40 MLOAD DUP1 SWAP2 SUB SWAP1 LOG2 POP POP POP PUSH2 0x115B JUMP JUMPDEST PUSH1 0x3 DUP8 ADD DUP1 SLOAD SWAP1 PUSH1 0x0 PUSH2 0x1063 DUP4 PUSH2 0x2086 JUMP JUMPDEST SWAP1 SWAP2 SSTORE POP POP PUSH1 0xB SLOAD PUSH1 0x40 MLOAD PUSH1 0x0 SWAP2 PUSH1 0x1 PUSH1 0x1 PUSH1 0xA0 SHL SUB AND SWAP1 DUP4 SWAP1 DUP4 DUP2 DUP2 DUP2 DUP6 DUP8 GAS CALL SWAP3 POP POP POP RETURNDATASIZE DUP1 PUSH1 0x0 DUP2 EQ PUSH2 0x10B5 JUMPI PUSH1 0x40 MLOAD SWAP2 POP PUSH1 0x1F NOT PUSH1 0x3F RETURNDATASIZE ADD AND DUP3 ADD PUSH1 0x40 MSTORE RETURNDATASIZE DUP3 MSTORE RETURNDATASIZE PUSH1 0x0 PUSH1 0x20 DUP5 ADD RETURNDATACOPY PUSH2 0x10BA JUMP JUMPDEST PUSH1 0x60 SWAP2 POP JUMPDEST POP POP SWAP1 POP DUP1 PUSH2 0x1116 JUMPI PUSH1 0x40 MLOAD PUSH3 0x461BCD PUSH1 0xE5 SHL DUP2 MSTORE PUSH1 0x20 PUSH1 0x4 DUP3 ADD MSTORE PUSH1 0x22 PUSH1 0x24 DUP3 ADD MSTORE PUSH32 0x4167656E745374616B696E673A206C6F7373207472616E73666572206661696C PUSH1 0x44 DUP3 ADD MSTORE PUSH2 0x1959 PUSH1 0xF2 SHL PUSH1 0x64 DUP3 ADD MSTORE PUSH1 0x84 ADD PUSH2 0x7A5 JUMP JUMPDEST DUP9 PUSH1 0x1 PUSH1 0x1 PUSH1 0xA0 SHL SUB AND PUSH32 0xD25494C4CD2C97C4F378637BC35937CE2CDE5E51AB266D7499E9F407D0D6FAAD DUP4 PUSH1 0x40 MLOAD PUSH2 0x1151 SWAP2 DUP2 MSTORE PUSH1 0x20 ADD SWAP1 JUMP JUMPDEST PUSH1 0x40 MLOAD DUP1 SWAP2 SUB SWAP1 LOG2 POP JUMPDEST POP POP POP POP POP POP POP PUSH2 0x116B PUSH1 0x1 DUP1 SSTORE JUMP JUMPDEST POP JUMP JUMPDEST PUSH1 0xB SLOAD PUSH1 0x1 PUSH1 0x1 PUSH1 0xA0 SHL SUB AND CALLER EQ PUSH2 0x11C8 JUMPI PUSH1 0x40 MLOAD PUSH3 0x461BCD PUSH1 0xE5 SHL DUP2 MSTORE PUSH1 0x20 PUSH1 0x4 DUP3 ADD MSTORE PUSH1 0x1E PUSH1 0x24 DUP3 ADD MSTORE PUSH32 0x4167656E745374616B696E673A206E6F7420686F7573652077616C6C65740000 PUSH1 0x44 DUP3 ADD MSTORE PUSH1 0x64 ADD PUSH2 0x7A5 JUMP JUMPDEST PUSH2 0x11D0 PUSH2 0x1E23 JUMP JUMPDEST PUSH1 0x3 SLOAD DUP2 GT ISZERO PUSH2 0x1222 JUMPI PUSH1 0x40 MLOAD PUSH3 0x461BCD PUSH1 0xE5 SHL DUP2 MSTORE PUSH1 0x20 PUSH1 0x4 DUP3 ADD MSTORE PUSH1 0x1A PUSH1 0x24 DUP3 ADD MSTORE PUSH32 0x4167656E745374616B696E673A206578636565647320706F6F6C000000000000 PUSH1 0x44 DUP3 ADD MSTORE PUSH1 0x64 ADD PUSH2 0x7A5 JUMP JUMPDEST DUP1 PUSH1 0x3 PUSH1 0x0 DUP3 DUP3 SLOAD PUSH2 0x1234 SWAP2 SWAP1 PUSH2 0x1F70 JUMP JUMPDEST SWAP1 SWAP2 SSTORE POP POP PUSH1 0xB SLOAD PUSH1 0x40 MLOAD PUSH1 0x0 SWAP2 PUSH1 0x1 PUSH1 0x1 PUSH1 0xA0 SHL SUB AND SWAP1 DUP4 SWAP1 DUP4 DUP2 DUP2 DUP2 DUP6 DUP8 GAS CALL SWAP3 POP POP POP RETURNDATASIZE DUP1 PUSH1 0x0 DUP2 EQ PUSH2 0x1286 JUMPI PUSH1 0x40 MLOAD SWAP2 POP PUSH1 0x1F NOT PUSH1 0x3F RETURNDATASIZE ADD AND DUP3 ADD PUSH1 0x40 MSTORE RETURNDATASIZE DUP3 MSTORE RETURNDATASIZE PUSH1 0x0 PUSH1 0x20 DUP5 ADD RETURNDATACOPY PUSH2 0x128B JUMP JUMPDEST PUSH1 0x60 SWAP2 POP JUMPDEST POP POP SWAP1 POP DUP1 PUSH2 0x12DC JUMPI PUSH1 0x40 MLOAD PUSH3 0x461BCD PUSH1 0xE5 SHL DUP2 MSTORE PUSH1 0x20 PUSH1 0x4 DUP3 ADD MSTORE PUSH1 0x1D PUSH1 0x24 DUP3 ADD MSTORE PUSH32 0x4167656E745374616B696E673A207769746864726177206661696C6564000000 PUSH1 0x44 DUP3 ADD MSTORE PUSH1 0x64 ADD PUSH2 0x7A5 JUMP JUMPDEST PUSH1 0xB SLOAD PUSH1 0x40 MLOAD DUP4 DUP2 MSTORE PUSH1 0x1 PUSH1 0x1 PUSH1 0xA0 SHL SUB SWAP1 SWAP2 AND SWAP1 PUSH32 0x6F07E6169C1653554EB707B6F6CD8F7CCF9CC29E54A0D8A71D9D5867D2057AC2 SWAP1 PUSH1 0x20 ADD PUSH1 0x40 MLOAD DUP1 SWAP2 SUB SWAP1 LOG2 POP PUSH2 0x116B PUSH1 0x1 DUP1 SSTORE JUMP JUMPDEST PUSH2 0x1330 PUSH2 0x1DF6 JUMP JUMPDEST PUSH1 0x4 SSTORE JUMP JUMPDEST PUSH2 0x133D PUSH2 0x1DF6 JUMP JUMPDEST PUSH2 0x1347 PUSH1 0x0 PUSH2 0x1E4D JUMP JUMPDEST JUMP JUMPDEST PUSH2 0x1351 PUSH2 0x1E23 JUMP JUMPDEST PUSH1 0x9 SLOAD PUSH1 0x40 MLOAD PUSH4 0x33F09F7 PUSH1 0xE5 SHL DUP2 MSTORE PUSH1 0x1 PUSH1 0x1 PUSH1 0xA0 SHL SUB DUP4 DUP2 AND PUSH1 0x4 DUP4 ADD MSTORE CALLER SWAP3 AND SWAP1 PUSH4 0x67E13EE0 SWAP1 PUSH1 0x24 ADD PUSH1 0x20 PUSH1 0x40 MLOAD DUP1 DUP4 SUB DUP2 DUP7 GAS STATICCALL ISZERO DUP1 ISZERO PUSH2 0x139B JUMPI RETURNDATASIZE PUSH1 0x0 DUP1 RETURNDATACOPY RETURNDATASIZE PUSH1 0x0 REVERT JUMPDEST POP POP POP POP PUSH1 0x40 MLOAD RETURNDATASIZE PUSH1 0x1F NOT PUSH1 0x1F DUP3 ADD AND DUP3 ADD DUP1 PUSH1 0x40 MSTORE POP DUP2 ADD SWAP1 PUSH2 0x13BF SWAP2 SWAP1 PUSH2 0x1F96 JUMP JUMPDEST PUSH1 0x1 PUSH1 0x1 PUSH1 0xA0 SHL SUB AND EQ PUSH2 0x13E5 JUMPI PUSH1 0x40 MLOAD PUSH3 0x461BCD PUSH1 0xE5 SHL DUP2 MSTORE PUSH1 0x4 ADD PUSH2 0x7A5 SWAP1 PUSH2 0x1FB3 JUMP JUMPDEST PUSH1 0x1 PUSH1 0x1 PUSH1 0xA0 SHL SUB DUP2 AND PUSH1 0x0 SWAP1 DUP2 MSTORE PUSH1 0x7 PUSH1 0x20 MSTORE PUSH1 0x40 SWAP1 KECCAK256 PUSH1 0x4 DUP2 ADD SLOAD PUSH1 0xFF AND PUSH2 0x1421 JUMPI PUSH1 0x40 MLOAD PUSH3 0x461BCD PUSH1 0xE5 SHL DUP2 MSTORE PUSH1 0x4 ADD PUSH2 0x7A5 SWAP1 PUSH2 0x201A JUMP JUMPDEST PUSH1 0x0 DUP2 PUSH1 0x1 ADD SLOAD GT PUSH2 0x1471 JUMPI PUSH1 0x40 MLOAD PUSH3 0x461BCD PUSH1 0xE5 SHL DUP2 MSTORE PUSH1 0x20 PUSH1 0x4 DUP3 ADD MSTORE PUSH1 0x19 PUSH1 0x24 DUP3 ADD MSTORE PUSH25 0x4167656E745374616B696E673A206E6F206561726E696E6773 PUSH1 0x38 SHL PUSH1 0x44 DUP3 ADD MSTORE PUSH1 0x64 ADD PUSH2 0x7A5 JUMP JUMPDEST PUSH1 0x1 DUP2 ADD DUP1 SLOAD PUSH1 0x0 SWAP2 DUP3 SWAP1 SSTORE PUSH1 0x6 SLOAD SWAP1 SWAP2 SWAP1 PUSH2 0x2710 SWAP1 PUSH2 0x1491 SWAP1 DUP5 PUSH2 0x1F31 JUMP JUMPDEST PUSH2 0x149B SWAP2 SWAP1 PUSH2 0x1F4E JUMP JUMPDEST SWAP1 POP PUSH1 0x0 PUSH2 0x14A9 DUP3 DUP5 PUSH2 0x1F70 JUMP JUMPDEST SWAP1 POP DUP2 ISZERO PUSH2 0x1565 JUMPI PUSH1 0xB SLOAD PUSH1 0x40 MLOAD PUSH1 0x0 SWAP2 PUSH1 0x1 PUSH1 0x1 PUSH1 0xA0 SHL SUB AND SWAP1 DUP5 SWAP1 DUP4 DUP2 DUP2 DUP2 DUP6 DUP8 GAS CALL SWAP3 POP POP POP RETURNDATASIZE DUP1 PUSH1 0x0 DUP2 EQ PUSH2 0x14FE JUMPI PUSH1 0x40 MLOAD SWAP2 POP PUSH1 0x1F NOT PUSH1 0x3F RETURNDATASIZE ADD AND DUP3 ADD PUSH1 0x40 MSTORE RETURNDATASIZE DUP3 MSTORE RETURNDATASIZE PUSH1 0x0 PUSH1 0x20 DUP5 ADD RETURNDATACOPY PUSH2 0x1503 JUMP JUMPDEST PUSH1 0x60 SWAP2 POP JUMPDEST POP POP SWAP1 POP DUP1 PUSH2 0x1563 JUMPI PUSH1 0x40 MLOAD PUSH3 0x461BCD PUSH1 0xE5 SHL DUP2 MSTORE PUSH1 0x20 PUSH1 0x4 DUP3 ADD MSTORE PUSH1 0x26 PUSH1 0x24 DUP3 ADD MSTORE PUSH32 0x4167656E745374616B696E673A20736166652077697468647261772066656520 PUSH1 0x44 DUP3 ADD MSTORE PUSH6 0x19985A5B1959 PUSH1 0xD2 SHL PUSH1 0x64 DUP3 ADD MSTORE PUSH1 0x84 ADD PUSH2 0x7A5 JUMP JUMPDEST POP JUMPDEST PUSH1 0x40 MLOAD PUSH1 0x0 SWAP1 CALLER SWAP1 DUP4 SWAP1 DUP4 DUP2 DUP2 DUP2 DUP6 DUP8 GAS CALL SWAP3 POP POP POP RETURNDATASIZE DUP1 PUSH1 0x0 DUP2 EQ PUSH2 0x15A7 JUMPI PUSH1 0x40 MLOAD SWAP2 POP PUSH1 0x1F NOT PUSH1 0x3F RETURNDATASIZE ADD AND DUP3 ADD PUSH1 0x40 MSTORE RETURNDATASIZE DUP3 MSTORE RETURNDATASIZE PUSH1 0x0 PUSH1 0x20 DUP5 ADD RETURNDATACOPY PUSH2 0x15AC JUMP JUMPDEST PUSH1 0x60 SWAP2 POP JUMPDEST POP POP SWAP1 POP DUP1 PUSH2 0x160F JUMPI PUSH1 0x40 MLOAD PUSH3 0x461BCD PUSH1 0xE5 SHL DUP2 MSTORE PUSH1 0x20 PUSH1 0x4 DUP3 ADD MSTORE PUSH1 0x29 PUSH1 0x24 DUP3 ADD MSTORE PUSH32 0x4167656E745374616B696E673A2073616665207769746864726177207061796F PUSH1 0x44 DUP3 ADD MSTORE PUSH9 0x1D5D0819985A5B1959 PUSH1 0xBA SHL PUSH1 0x64 DUP3 ADD MSTORE PUSH1 0x84 ADD PUSH2 0x7A5 JUMP JUMPDEST PUSH1 0x40 DUP1 MLOAD DUP4 DUP2 MSTORE PUSH1 0x20 DUP2 ADD DUP6 SWAP1 MSTORE PUSH1 0x1 PUSH1 0x1 PUSH1 0xA0 SHL SUB DUP9 AND SWAP2 PUSH32 0x7F3EF109B557A864A6A4C8537B06663BF0305610149C79EFFA11B496AFED17EA SWAP2 ADD PUSH1 0x40 MLOAD DUP1 SWAP2 SUB SWAP1 LOG2 POP POP POP POP POP PUSH2 0x116B PUSH1 0x1 DUP1 SSTORE JUMP JUMPDEST PUSH1 0xB SLOAD PUSH1 0x1 PUSH1 0x1 PUSH1 0xA0 SHL SUB AND CALLER EQ PUSH2 0x16BB JUMPI PUSH1 0x40 MLOAD PUSH3 0x461BCD PUSH1 0xE5 SHL DUP2 MSTORE PUSH1 0x20 PUSH1 0x4 DUP3 ADD MSTORE PUSH1 0x1E PUSH1 0x24 DUP3 ADD MSTORE PUSH32 0x4167656E745374616B696E673A206E6F7420686F7573652077616C6C65740000 PUSH1 0x44 DUP3 ADD MSTORE PUSH1 0x64 ADD PUSH2 0x7A5 JUMP JUMPDEST PUSH1 0x0 CALLVALUE GT PUSH2 0x170B JUMPI PUSH1 0x40 MLOAD PUSH3 0x461BCD PUSH1 0xE5 SHL DUP2 MSTORE PUSH1 0x20 PUSH1 0x4 DUP3 ADD MSTORE PUSH1 0x17 PUSH1 0x24 DUP3 ADD MSTORE PUSH32 0x4167656E745374616B696E673A207A65726F2073656564000000000000000000 PUSH1 0x44 DUP3 ADD MSTORE PUSH1 0x64 ADD PUSH2 0x7A5 JUMP JUMPDEST CALLVALUE PUSH1 0x3 PUSH1 0x0 DUP3 DUP3 SLOAD PUSH2 0x171D SWAP2 SWAP1 PUSH2 0x1F83 JUMP JUMPDEST SWAP1 SWAP2 SSTORE POP POP PUSH1 0x40 MLOAD CALLVALUE DUP2 MSTORE CALLER SWAP1 PUSH32 0xEFA144E2F868BA3FD661AA7E63EAFF63A9DC1E377FAEFB534DC9987F7D37D363 SWAP1 PUSH1 0x20 ADD PUSH1 0x40 MLOAD DUP1 SWAP2 SUB SWAP1 LOG2 JUMP JUMPDEST PUSH2 0x1761 PUSH2 0x1DF6 JUMP JUMPDEST PUSH1 0xA DUP1 SLOAD PUSH1 0x1 PUSH1 0x1 PUSH1 0xA0 SHL SUB NOT AND PUSH1 0x1 PUSH1 0x1 PUSH1 0xA0 SHL SUB DUP4 AND SWAP1 DUP2 OR SWAP1 SWAP2 SSTORE PUSH1 0x40 MLOAD PUSH32 0x43AB431641DD45DD0661CAD4B820E826D7C526AF92E3121E1242D721F82AB3AD SWAP1 PUSH1 0x0 SWAP1 LOG2 POP JUMP JUMPDEST PUSH2 0x17DF PUSH1 0x40 MLOAD DUP1 PUSH1 0xA0 ADD PUSH1 0x40 MSTORE DUP1 PUSH1 0x0 DUP2 MSTORE PUSH1 0x20 ADD PUSH1 0x0 DUP2 MSTORE PUSH1 0x20 ADD PUSH1 0x0 DUP2 MSTORE PUSH1 0x20 ADD PUSH1 0x0 DUP2 MSTORE PUSH1 0x20 ADD PUSH1 0x0 ISZERO ISZERO DUP2 MSTORE POP SWAP1 JUMP JUMPDEST POP PUSH1 0x1 PUSH1 0x1 PUSH1 0xA0 SHL SUB AND PUSH1 0x0 SWAP1 DUP2 MSTORE PUSH1 0x7 PUSH1 0x20 SWAP1 DUP2 MSTORE PUSH1 0x40 SWAP2 DUP3 SWAP1 KECCAK256 DUP3 MLOAD PUSH1 0xA0 DUP2 ADD DUP5 MSTORE DUP2 SLOAD DUP2 MSTORE PUSH1 0x1 DUP3 ADD SLOAD SWAP3 DUP2 ADD SWAP3 SWAP1 SWAP3 MSTORE PUSH1 0x2 DUP2 ADD SLOAD SWAP3 DUP3 ADD SWAP3 SWAP1 SWAP3 MSTORE PUSH1 0x3 DUP3 ADD SLOAD PUSH1 0x60 DUP3 ADD MSTORE PUSH1 0x4 SWAP1 SWAP2 ADD SLOAD PUSH1 0xFF AND ISZERO ISZERO PUSH1 0x80 DUP3 ADD MSTORE SWAP1 JUMP JUMPDEST PUSH2 0x1844 PUSH2 0x1DF6 JUMP JUMPDEST PUSH2 0x7D0 DUP2 GT ISZERO PUSH2 0x1896 JUMPI PUSH1 0x40 MLOAD PUSH3 0x461BCD PUSH1 0xE5 SHL DUP2 MSTORE PUSH1 0x20 PUSH1 0x4 DUP3 ADD MSTORE PUSH1 0x1A PUSH1 0x24 DUP3 ADD MSTORE PUSH32 0x4167656E745374616B696E673A2066656520746F6F2068696768000000000000 PUSH1 0x44 DUP3 ADD MSTORE PUSH1 0x64 ADD PUSH2 0x7A5 JUMP JUMPDEST PUSH1 0x5 DUP2 SWAP1 SSTORE PUSH1 0x40 MLOAD DUP2 DUP2 MSTORE PUSH32 0x39BAC3776CF5051F3231C9B3C24FB41FDE811B5EE1BD0B68869ABB20D0BFEB5A SWAP1 PUSH1 0x20 ADD PUSH2 0x706 JUMP JUMPDEST PUSH2 0x18D3 PUSH2 0x1E23 JUMP JUMPDEST PUSH1 0x9 SLOAD PUSH1 0x40 MLOAD PUSH4 0x33F09F7 PUSH1 0xE5 SHL DUP2 MSTORE PUSH1 0x1 PUSH1 0x1 PUSH1 0xA0 SHL SUB DUP4 DUP2 AND PUSH1 0x4 DUP4 ADD MSTORE CALLER SWAP3 AND SWAP1 PUSH4 0x67E13EE0 SWAP1 PUSH1 0x24 ADD PUSH1 0x20 PUSH1 0x40 MLOAD DUP1 DUP4 SUB DUP2 DUP7 GAS STATICCALL ISZERO DUP1 ISZERO PUSH2 0x191D JUMPI RETURNDATASIZE PUSH1 0x0 DUP1 RETURNDATACOPY RETURNDATASIZE PUSH1 0x0 REVERT JUMPDEST POP POP POP POP PUSH1 0x40 MLOAD RETURNDATASIZE PUSH1 0x1F NOT PUSH1 0x1F DUP3 ADD AND DUP3 ADD DUP1 PUSH1 0x40 MSTORE POP DUP2 ADD SWAP1 PUSH2 0x1941 SWAP2 SWAP1 PUSH2 0x1F96 JUMP JUMPDEST PUSH1 0x1 PUSH1 0x1 PUSH1 0xA0 SHL SUB AND EQ PUSH2 0x1967 JUMPI PUSH1 0x40 MLOAD PUSH3 0x461BCD PUSH1 0xE5 SHL DUP2 MSTORE PUSH1 0x4 ADD PUSH2 0x7A5 SWAP1 PUSH2 0x1FB3 JUMP JUMPDEST PUSH1 0x1 PUSH1 0x1 PUSH1 0xA0 SHL SUB DUP2 AND PUSH1 0x0 SWAP1 DUP2 MSTORE PUSH1 0x7 PUSH1 0x20 MSTORE PUSH1 0x40 SWAP1 KECCAK256 PUSH1 0x4 DUP2 ADD SLOAD PUSH1 0xFF AND PUSH2 0x19A3 JUMPI PUSH1 0x40 MLOAD PUSH3 0x461BCD PUSH1 0xE5 SHL DUP2 MSTORE PUSH1 0x4 ADD PUSH2 0x7A5 SWAP1 PUSH2 0x201A JUMP JUMPDEST PUSH1 0x9 SLOAD PUSH1 0x40 MLOAD PUSH4 0x554C4F4B PUSH1 0xE0 SHL DUP2 MSTORE PUSH1 0x1 PUSH1 0x1 PUSH1 0xA0 SHL SUB DUP5 DUP2 AND PUSH1 0x4 DUP4 ADD MSTORE SWAP1 SWAP2 AND SWAP1 PUSH4 0x554C4F4B SWAP1 PUSH1 0x24 ADD PUSH1 0x20 PUSH1 0x40 MLOAD DUP1 DUP4 SUB DUP2 DUP7 GAS STATICCALL ISZERO DUP1 ISZERO PUSH2 0x19ED JUMPI RETURNDATASIZE PUSH1 0x0 DUP1 RETURNDATACOPY RETURNDATASIZE PUSH1 0x0 REVERT JUMPDEST POP POP POP POP PUSH1 0x40 MLOAD RETURNDATASIZE PUSH1 0x1F NOT PUSH1 0x1F DUP3 ADD AND DUP3 ADD DUP1 PUSH1 0x40 MSTORE POP DUP2 ADD SWAP1 PUSH2 0x1A11 SWAP2 SWAP1 PUSH2 0x1FFF JUMP JUMPDEST ISZERO PUSH2 0x1A5E JUMPI PUSH1 0x40 MLOAD PUSH3 0x461BCD PUSH1 0xE5 SHL DUP2 MSTORE PUSH1 0x20 PUSH1 0x4 DUP3 ADD DUP2 SWAP1 MSTORE PUSH1 0x24 DUP3 ADD MSTORE PUSH32 0x4167656E745374616B696E673A206167656E74207374696C6C20616374697665 PUSH1 0x44 DUP3 ADD MSTORE PUSH1 0x64 ADD PUSH2 0x7A5 JUMP JUMPDEST DUP1 SLOAD PUSH1 0x1 DUP3 ADD DUP1 SLOAD PUSH1 0x0 DUP1 DUP6 SSTORE SWAP1 SWAP2 SSTORE PUSH1 0x4 DUP4 ADD DUP1 SLOAD PUSH1 0xFF NOT AND SWAP1 SSTORE DUP1 ISZERO PUSH2 0x1B33 JUMPI PUSH1 0xB SLOAD PUSH1 0x40 MLOAD PUSH1 0x0 SWAP2 PUSH1 0x1 PUSH1 0x1 PUSH1 0xA0 SHL SUB AND SWAP1 DUP4 SWAP1 DUP4 DUP2 DUP2 DUP2 DUP6 DUP8 GAS CALL SWAP3 POP POP POP RETURNDATASIZE DUP1 PUSH1 0x0 DUP2 EQ PUSH2 0x1ACD JUMPI PUSH1 0x40 MLOAD SWAP2 POP PUSH1 0x1F NOT PUSH1 0x3F RETURNDATASIZE ADD AND DUP3 ADD PUSH1 0x40 MSTORE RETURNDATASIZE DUP3 MSTORE RETURNDATASIZE PUSH1 0x0 PUSH1 0x20 DUP5 ADD RETURNDATACOPY PUSH2 0x1AD2 JUMP JUMPDEST PUSH1 0x60 SWAP2 POP JUMPDEST POP POP SWAP1 POP DUP1 PUSH2 0x1B31 JUMPI PUSH1 0x40 MLOAD PUSH3 0x461BCD PUSH1 0xE5 SHL DUP2 MSTORE PUSH1 0x20 PUSH1 0x4 DUP3 ADD MSTORE PUSH1 0x25 PUSH1 0x24 DUP3 ADD MSTORE PUSH32 0x4167656E745374616B696E673A20666F7266656974207472616E736665722066 PUSH1 0x44 DUP3 ADD MSTORE PUSH5 0x185A5B1959 PUSH1 0xDA SHL PUSH1 0x64 DUP3 ADD MSTORE PUSH1 0x84 ADD PUSH2 0x7A5 JUMP JUMPDEST POP JUMPDEST PUSH1 0x40 MLOAD PUSH1 0x0 SWAP1 CALLER SWAP1 DUP5 SWAP1 DUP4 DUP2 DUP2 DUP2 DUP6 DUP8 GAS CALL SWAP3 POP POP POP RETURNDATASIZE DUP1 PUSH1 0x0 DUP2 EQ PUSH2 0x1B75 JUMPI PUSH1 0x40 MLOAD SWAP2 POP PUSH1 0x1F NOT PUSH1 0x3F RETURNDATASIZE ADD AND DUP3 ADD PUSH1 0x40 MSTORE RETURNDATASIZE DUP3 MSTORE RETURNDATASIZE PUSH1 0x0 PUSH1 0x20 DUP5 ADD RETURNDATACOPY PUSH2 0x1B7A JUMP JUMPDEST PUSH1 0x60 SWAP2 POP JUMPDEST POP POP SWAP1 POP DUP1 PUSH2 0x1BD9 JUMPI PUSH1 0x40 MLOAD PUSH3 0x461BCD PUSH1 0xE5 SHL DUP2 MSTORE PUSH1 0x20 PUSH1 0x4 DUP3 ADD MSTORE PUSH1 0x25 PUSH1 0x24 DUP3 ADD MSTORE PUSH32 0x4167656E745374616B696E673A20756E7374616B65207472616E736665722066 PUSH1 0x44 DUP3 ADD MSTORE PUSH5 0x185A5B1959 PUSH1 0xDA SHL PUSH1 0x64 DUP3 ADD MSTORE PUSH1 0x84 ADD PUSH2 0x7A5 JUMP JUMPDEST PUSH1 0x40 DUP1 MLOAD DUP5 DUP2 MSTORE PUSH1 0x20 DUP2 ADD DUP5 SWAP1 MSTORE PUSH1 0x1 PUSH1 0x1 PUSH1 0xA0 SHL SUB DUP8 AND SWAP2 PUSH32 0x7FC4727E062E336010F2C282598EF5F14FACB3DE68CF8195C2F23E1454B2B74E SWAP2 ADD PUSH1 0x40 MLOAD DUP1 SWAP2 SUB SWAP1 LOG2 POP POP POP POP PUSH2 0x116B PUSH1 0x1 DUP1 SSTORE JUMP JUMPDEST PUSH2 0x1C32 PUSH2 0x1DF6 JUMP JUMPDEST PUSH1 0x1 PUSH1 0x1 PUSH1 0xA0 SHL SUB DUP2 AND PUSH2 0x1C5C JUMPI PUSH1 0x40 MLOAD PUSH4 0x1E4FBDF7 PUSH1 0xE0 SHL DUP2 MSTORE PUSH1 0x0 PUSH1 0x4 DUP3 ADD MSTORE PUSH1 0x24 ADD PUSH2 0x7A5 JUMP JUMPDEST PUSH2 0x116B DUP2 PUSH2 0x1E4D JUMP JUMPDEST PUSH1 0xA SLOAD PUSH1 0x1 PUSH1 0x1 PUSH1 0xA0 SHL SUB AND CALLER EQ PUSH2 0x1CCA JUMPI PUSH1 0x40 MLOAD PUSH3 0x461BCD PUSH1 0xE5 SHL DUP2 MSTORE PUSH1 0x20 PUSH1 0x4 DUP3 ADD MSTORE PUSH1 0x22 PUSH1 0x24 DUP3 ADD MSTORE PUSH32 0x4167656E745374616B696E673A2063616C6C6572206973206E6F742065736372 PUSH1 0x44 DUP3 ADD MSTORE PUSH2 0x6F77 PUSH1 0xF0 SHL PUSH1 0x64 DUP3 ADD MSTORE PUSH1 0x84 ADD PUSH2 0x7A5 JUMP JUMPDEST DUP1 CALLVALUE EQ PUSH2 0x1D19 JUMPI PUSH1 0x40 MLOAD PUSH3 0x461BCD PUSH1 0xE5 SHL DUP2 MSTORE PUSH1 0x20 PUSH1 0x4 DUP3 ADD MSTORE PUSH1 0x1C PUSH1 0x24 DUP3 ADD MSTORE PUSH32 0x4167656E745374616B696E673A2076616C7565206D69736D6174636800000000 PUSH1 0x44 DUP3 ADD MSTORE PUSH1 0x64 ADD PUSH2 0x7A5 JUMP JUMPDEST PUSH1 0x1 PUSH1 0x1 PUSH1 0xA0 SHL SUB DUP3 AND PUSH1 0x0 SWAP1 DUP2 MSTORE PUSH1 0x7 PUSH1 0x20 MSTORE PUSH1 0x40 SWAP1 KECCAK256 PUSH1 0x4 ADD SLOAD PUSH1 0xFF AND PUSH2 0x1D84 JUMPI PUSH1 0x40 MLOAD PUSH3 0x461BCD PUSH1 0xE5 SHL DUP2 MSTORE PUSH1 0x20 PUSH1 0x4 DUP3 ADD MSTORE PUSH1 0x1E PUSH1 0x24 DUP3 ADD MSTORE PUSH32 0x4167656E745374616B696E673A206167656E74206E6F74207374616B65640000 PUSH1 0x44 DUP3 ADD MSTORE PUSH1 0x64 ADD PUSH2 0x7A5 JUMP JUMPDEST PUSH1 0x1 PUSH1 0x1 PUSH1 0xA0 SHL SUB DUP3 AND PUSH1 0x0 SWAP1 DUP2 MSTORE PUSH1 0x7 PUSH1 0x20 MSTORE PUSH1 0x40 DUP2 KECCAK256 PUSH1 0x1 ADD DUP1 SLOAD DUP4 SWAP3 SWAP1 PUSH2 0x1DAF SWAP1 DUP5 SWAP1 PUSH2 0x1F83 JUMP JUMPDEST SWAP1 SWAP2 SSTORE POP POP PUSH1 0x40 MLOAD DUP2 DUP2 MSTORE PUSH1 0x1 PUSH1 0x1 PUSH1 0xA0 SHL SUB DUP4 AND SWAP1 PUSH32 0xD10BA912A205167341EC37C567BC6385CE219F1C9044EE190D82AA3901718020 SWAP1 PUSH1 0x20 ADD PUSH1 0x40 MLOAD DUP1 SWAP2 SUB SWAP1 LOG2 POP POP JUMP JUMPDEST PUSH1 0x0 SLOAD PUSH1 0x1 PUSH1 0x1 PUSH1 0xA0 SHL SUB AND CALLER EQ PUSH2 0x1347 JUMPI PUSH1 0x40 MLOAD PUSH4 0x118CDAA7 PUSH1 0xE0 SHL DUP2 MSTORE CALLER PUSH1 0x4 DUP3 ADD MSTORE PUSH1 0x24 ADD PUSH2 0x7A5 JUMP JUMPDEST PUSH1 0x2 PUSH1 0x1 SLOAD SUB PUSH2 0x1E46 JUMPI PUSH1 0x40 MLOAD PUSH4 0x3EE5AEB5 PUSH1 0xE0 SHL DUP2 MSTORE PUSH1 0x4 ADD PUSH1 0x40 MLOAD DUP1 SWAP2 SUB SWAP1 REVERT JUMPDEST PUSH1 0x2 PUSH1 0x1 SSTORE JUMP JUMPDEST PUSH1 0x0 DUP1 SLOAD PUSH1 0x1 PUSH1 0x1 PUSH1 0xA0 SHL SUB DUP4 DUP2 AND PUSH1 0x1 PUSH1 0x1 PUSH1 0xA0 SHL SUB NOT DUP4 AND DUP2 OR DUP5 SSTORE PUSH1 0x40 MLOAD SWAP2 SWAP1 SWAP3 AND SWAP3 DUP4 SWAP2 PUSH32 0x8BE0079C531659141344CD1FD0A4F28419497F9722A3DAAFE3B4186F6B6457E0 SWAP2 SWAP1 LOG3 POP POP JUMP JUMPDEST PUSH1 0x1 PUSH1 0x1 PUSH1 0xA0 SHL SUB DUP2 AND DUP2 EQ PUSH2 0x116B JUMPI PUSH1 0x0 DUP1 REVERT JUMPDEST PUSH1 0x0 PUSH1 0x20 DUP3 DUP5 SUB SLT ISZERO PUSH2 0x1EC4 JUMPI PUSH1 0x0 DUP1 REVERT JUMPDEST DUP2 CALLDATALOAD PUSH2 0x1ECF DUP2 PUSH2 0x1E9D JUMP JUMPDEST SWAP4 SWAP3 POP POP POP JUMP JUMPDEST PUSH1 0x0 PUSH1 0x20 DUP3 DUP5 SUB SLT ISZERO PUSH2 0x1EE8 JUMPI PUSH1 0x0 DUP1 REVERT JUMPDEST POP CALLDATALOAD SWAP2 SWAP1 POP JUMP JUMPDEST PUSH1 0x0 DUP1 PUSH1 0x40 DUP4 DUP6 SUB SLT ISZERO PUSH2 0x1F02 JUMPI PUSH1 0x0 DUP1 REVERT JUMPDEST DUP3 CALLDATALOAD PUSH2 0x1F0D DUP2 PUSH2 0x1E9D JUMP JUMPDEST SWAP5 PUSH1 0x20 SWAP4 SWAP1 SWAP4 ADD CALLDATALOAD SWAP4 POP POP POP JUMP JUMPDEST PUSH4 0x4E487B71 PUSH1 0xE0 SHL PUSH1 0x0 MSTORE PUSH1 0x11 PUSH1 0x4 MSTORE PUSH1 0x24 PUSH1 0x0 REVERT JUMPDEST DUP1 DUP3 MUL DUP2 ISZERO DUP3 DUP3 DIV DUP5 EQ OR PUSH2 0x1F48 JUMPI PUSH2 0x1F48 PUSH2 0x1F1B JUMP JUMPDEST SWAP3 SWAP2 POP POP JUMP JUMPDEST PUSH1 0x0 DUP3 PUSH2 0x1F6B JUMPI PUSH4 0x4E487B71 PUSH1 0xE0 SHL PUSH1 0x0 MSTORE PUSH1 0x12 PUSH1 0x4 MSTORE PUSH1 0x24 PUSH1 0x0 REVERT JUMPDEST POP DIV SWAP1 JUMP JUMPDEST DUP2 DUP2 SUB DUP2 DUP2 GT ISZERO PUSH2 0x1F48 JUMPI PUSH2 0x1F48 PUSH2 0x1F1B JUMP JUMPDEST DUP1 DUP3 ADD DUP1 DUP3 GT ISZERO PUSH2 0x1F48 JUMPI PUSH2 0x1F48 PUSH2 0x1F1B JUMP JUMPDEST PUSH1 0x0 PUSH1 0x20 DUP3 DUP5 SUB SLT ISZERO PUSH2 0x1FA8 JUMPI PUSH1 0x0 DUP1 REVERT JUMPDEST DUP2 MLOAD PUSH2 0x1ECF DUP2 PUSH2 0x1E9D JUMP JUMPDEST PUSH1 0x20 DUP1 DUP3 MSTORE PUSH1 0x1B SWAP1 DUP3 ADD MSTORE PUSH32 0x4167656E745374616B696E673A206E6F7420646576656C6F7065720000000000 PUSH1 0x40 DUP3 ADD MSTORE PUSH1 0x60 ADD SWAP1 JUMP JUMPDEST DUP1 MLOAD DUP1 ISZERO ISZERO DUP2 EQ PUSH2 0x1FFA JUMPI PUSH1 0x0 DUP1 REVERT JUMPDEST SWAP2 SWAP1 POP JUMP JUMPDEST PUSH1 0x0 PUSH1 0x20 DUP3 DUP5 SUB SLT ISZERO PUSH2 0x2011 JUMPI PUSH1 0x0 DUP1 REVERT JUMPDEST PUSH2 0x1ECF DUP3 PUSH2 0x1FEA JUMP JUMPDEST PUSH1 0x20 DUP1 DUP3 MSTORE PUSH1 0x18 SWAP1 DUP3 ADD MSTORE PUSH32 0x4167656E745374616B696E673A206E6F74207374616B65640000000000000000 PUSH1 0x40 DUP3 ADD MSTORE PUSH1 0x60 ADD SWAP1 JUMP JUMPDEST PUSH1 0x0 DUP1 PUSH1 0x0 PUSH1 0x60 DUP5 DUP7 SUB SLT ISZERO PUSH2 0x2066 JUMPI PUSH1 0x0 DUP1 REVERT JUMPDEST DUP4 MLOAD SWAP3 POP PUSH2 0x2076 PUSH1 0x20 DUP6 ADD PUSH2 0x1FEA JUMP JUMPDEST SWAP2 POP PUSH1 0x40 DUP5 ADD MLOAD SWAP1 POP SWAP3 POP SWAP3 POP SWAP3 JUMP JUMPDEST PUSH1 0x0 PUSH1 0x1 DUP3 ADD PUSH2 0x2098 JUMPI PUSH2 0x2098 PUSH2 0x1F1B JUMP JUMPDEST POP PUSH1 0x1 ADD SWAP1 JUMP INVALID LOG2 PUSH5 0x6970667358 0x22 SLT KECCAK256 0xBC LOG3 CALLDATALOAD 0xC7 PUSH24 0xC3CC967DFFAA187DA9ECF7A20AB5EBD2783380039727D625 CODESIZE DUP6 RETURN PUSH5 0x736F6C6343 STOP ADDMOD XOR STOP CALLER "},"methodIdentifiers":{"agentRegistry()":"0d1cfcae","cashout(address)":"4846ff7e","creditEarnings(address,uint256)":"f953f645","escrow()":"e2fdcc17","getPoolSize()":"23845e4b","getStakeInfo(address)":"c3453153","houseFeeBps()":"ee59d240","houseWallet()":"77818f02","isStaked(address)":"6177fd18","lossPool()":"6671459b","maxRandomAge()":"07cfead8","minimumStake()":"ec5ffac2","owner()":"8da5cb5b","previewCashout(address)":"0adda68c","previewSafeWithdraw(address)":"2e6b2f6e","randomNumberV2()":"e98dc5ee","renounceOwnership()":"715018a6","safeWithdraw(address)":"838a4107","safeWithdrawFeeBps()":"4212e1c7","seedPool()":"a6a15183","setEscrow(address)":"c10c3546","setHouseFeeBps(uint256)":"db809116","setHouseWallet(address)":"35d4de51","setMaxRandomAge(uint256)":"58b8e098","setMinimumStake(uint256)":"233e9903","setSafeWithdrawFeeBps(uint256)":"30091128","stake(address)":"26476204","stakes(address)":"16934fc4","transferOwnership(address)":"f2fde38b","unstake(address)":"f2888dbb","withdrawPool(uint256)":"4c034ea9"}}}}}