{
  "_format": "hh-sol-artifact-1",
  "contractName": "MockRandomNumberV2",
  "sourceName": "contracts/mocks/MockRandomNumberV2.sol",
  "abi": [
    {
      "inputs": [],
      "stateMutability": "nonpayable",
      "type": "constructor"
    },
    {
      "inputs": [
        {
          "internalType": "address",
          "name": "owner",
          "type": "address"
        }
      ],
      "name": "OwnableInvalidOwner",
      "type": "error"
    },
    {
      "inputs": [
        {
          "internalType": "address",
          "name": "account",
          "type": "address"
        }
      ],
      "name": "OwnableUnauthorizedAccount",
      "type": "error"
    },
    {
      "anonymous": false,
      "inputs": [
        {
          "indexed": true,
          "internalType": "address",
          "name": "previousOwner",
          "type": "address"
        },
        {
          "indexed": true,
          "internalType": "address",
          "name": "newOwner",
          "type": "address"
        }
      ],
      "name": "OwnershipTransferred",
      "type": "event"
    },
    {
      "inputs": [],
      "name": "getRandomNumber",
      "outputs": [
        {
          "internalType": "uint256",
          "name": "",
          "type": "uint256"
        },
        {
          "internalType": "bool",
          "name": "",
          "type": "bool"
        },
        {
          "internalType": "uint256",
          "name": "",
          "type": "uint256"
        }
      ],
      "stateMutability": "view",
      "type": "function"
    },
    {
      "inputs": [],
      "name": "owner",
      "outputs": [
        {
          "internalType": "address",
          "name": "",
          "type": "address"
        }
      ],
      "stateMutability": "view",
      "type": "function"
    },
    {
      "inputs": [],
      "name": "renounceOwnership",
      "outputs": [],
      "stateMutability": "nonpayable",
      "type": "function"
    },
    {
      "inputs": [
        {
          "internalType": "uint256",
          "name": "randomNumber_",
          "type": "uint256"
        },
        {
          "internalType": "bool",
          "name": "isSecureRandom_",
          "type": "bool"
        },
        {
          "internalType": "uint256",
          "name": "randomTimestamp_",
          "type": "uint256"
        }
      ],
      "name": "setRandomNumber",
      "outputs": [],
      "stateMutability": "nonpayable",
      "type": "function"
    },
    {
      "inputs": [
        {
          "internalType": "address",
          "name": "newOwner",
          "type": "address"
        }
      ],
      "name": "transferOwnership",
      "outputs": [],
      "stateMutability": "nonpayable",
      "type": "function"
    }
  ],
  "bytecode": "0x608060405234801561001057600080fd5b50338061003757604051631e4fbdf760e01b81526000600482015260240160405180910390fd5b6100408161005e565b50602a60019081556002805460ff19169091179055426003556100ae565b600080546001600160a01b038381166001600160a01b0319831681178455604051919092169283917f8be0079c531659141344cd1fd0a4f28419497f9722a3daafe3b4186f6b6457e09190a35050565b61026f806100bd6000396000f3fe608060405234801561001057600080fd5b50600436106100575760003560e01c806349f558301461005c578063715018a6146100715780638da5cb5b14610079578063dbdff2c114610099578063f2fde38b146100c1575b600080fd5b61006f61006a3660046101cc565b6100d4565b005b61006f6100f8565b6000546040516001600160a01b0390911681526020015b60405180910390f35b6001546002546003546040805193845260ff9092161515602084015290820152606001610090565b61006f6100cf366004610209565b61010c565b6100dc61014f565b6001929092556002805460ff1916911515919091179055600355565b61010061014f565b61010a600061017c565b565b61011461014f565b6001600160a01b03811661014357604051631e4fbdf760e01b8152600060048201526024015b60405180910390fd5b61014c8161017c565b50565b6000546001600160a01b0316331461010a5760405163118cdaa760e01b815233600482015260240161013a565b600080546001600160a01b038381166001600160a01b0319831681178455604051919092169283917f8be0079c531659141344cd1fd0a4f28419497f9722a3daafe3b4186f6b6457e09190a35050565b6000806000606084860312156101e157600080fd5b83359250602084013580151581146101f857600080fd5b929592945050506040919091013590565b60006020828403121561021b57600080fd5b81356001600160a01b038116811461023257600080fd5b939250505056fea2646970667358221220268c230f4ddfa6682c4205c2c6595c0d39d702b09c61907e4fab2bf0124506ab64736f6c63430008180033",
  "linkReferences": {},
  "deployedLinkReferences": {}
}