{
  "_format": "hh-sol-artifact-1",
  "contractName": "AgentRegistry",
  "sourceName": "contracts/AgentRegistry.sol",
  "abi": [
    {
      "inputs": [
        {
          "internalType": "address",
          "name": "initialOwner",
          "type": "address"
        }
      ],
      "stateMutability": "nonpayable",
      "type": "constructor"
    },
    {
      "inputs": [
        {
          "internalType": "address",
          "name": "owner",
          "type": "address"
        }
      ],
      "name": "OwnableInvalidOwner",
      "type": "error"
    },
    {
      "inputs": [
        {
          "internalType": "address",
          "name": "account",
          "type": "address"
        }
      ],
      "name": "OwnableUnauthorizedAccount",
      "type": "error"
    },
    {
      "anonymous": false,
      "inputs": [
        {
          "indexed": true,
          "internalType": "address",
          "name": "agent",
          "type": "address"
        },
        {
          "indexed": true,
          "internalType": "address",
          "name": "developer",
          "type": "address"
        },
        {
          "indexed": false,
          "internalType": "string",
          "name": "name",
          "type": "string"
        },
        {
          "indexed": false,
          "internalType": "string",
          "name": "metadataURI",
          "type": "string"
        }
      ],
      "name": "AgentRegistered",
      "type": "event"
    },
    {
      "anonymous": false,
      "inputs": [
        {
          "indexed": true,
          "internalType": "address",
          "name": "agent",
          "type": "address"
        },
        {
          "indexed": false,
          "internalType": "enum AgentRegistry.Status",
          "name": "status",
          "type": "uint8"
        }
      ],
      "name": "AgentUpdated",
      "type": "event"
    },
    {
      "anonymous": false,
      "inputs": [
        {
          "indexed": true,
          "internalType": "address",
          "name": "previousOwner",
          "type": "address"
        },
        {
          "indexed": true,
          "internalType": "address",
          "name": "newOwner",
          "type": "address"
        }
      ],
      "name": "OwnershipTransferred",
      "type": "event"
    },
    {
      "anonymous": false,
      "inputs": [
        {
          "indexed": true,
          "internalType": "address",
          "name": "oracle",
          "type": "address"
        }
      ],
      "name": "ReputationOracleUpdated",
      "type": "event"
    },
    {
      "anonymous": false,
      "inputs": [
        {
          "indexed": true,
          "internalType": "address",
          "name": "wallet",
          "type": "address"
        },
        {
          "indexed": false,
          "internalType": "uint256",
          "name": "reputation",
          "type": "uint256"
        }
      ],
      "name": "ReputationSynced",
      "type": "event"
    },
    {
      "inputs": [
        {
          "internalType": "address",
          "name": "agent",
          "type": "address"
        },
        {
          "internalType": "enum AgentRegistry.Status",
          "name": "status",
          "type": "uint8"
        }
      ],
      "name": "adminUpdateStatus",
      "outputs": [],
      "stateMutability": "nonpayable",
      "type": "function"
    },
    {
      "inputs": [],
      "name": "agentCount",
      "outputs": [
        {
          "internalType": "uint256",
          "name": "",
          "type": "uint256"
        }
      ],
      "stateMutability": "view",
      "type": "function"
    },
    {
      "inputs": [
        {
          "internalType": "address",
          "name": "wallet",
          "type": "address"
        }
      ],
      "name": "getAgent",
      "outputs": [
        {
          "components": [
            {
              "internalType": "address",
              "name": "developer",
              "type": "address"
            },
            {
              "internalType": "string",
              "name": "name",
              "type": "string"
            },
            {
              "internalType": "string",
              "name": "metadataURI",
              "type": "string"
            },
            {
              "internalType": "string[]",
              "name": "capabilities",
              "type": "string[]"
            },
            {
              "internalType": "uint256",
              "name": "reputation",
              "type": "uint256"
            },
            {
              "internalType": "enum AgentRegistry.Status",
              "name": "status",
              "type": "uint8"
            },
            {
              "internalType": "uint256",
              "name": "createdAt",
              "type": "uint256"
            },
            {
              "internalType": "uint256",
              "name": "updatedAt",
              "type": "uint256"
            }
          ],
          "internalType": "struct AgentRegistry.Agent",
          "name": "",
          "type": "tuple"
        }
      ],
      "stateMutability": "view",
      "type": "function"
    },
    {
      "inputs": [
        {
          "internalType": "uint256",
          "name": "offset",
          "type": "uint256"
        },
        {
          "internalType": "uint256",
          "name": "limit",
          "type": "uint256"
        }
      ],
      "name": "getAgents",
      "outputs": [
        {
          "components": [
            {
              "internalType": "address",
              "name": "developer",
              "type": "address"
            },
            {
              "internalType": "string",
              "name": "name",
              "type": "string"
            },
            {
              "internalType": "string",
              "name": "metadataURI",
              "type": "string"
            },
            {
              "internalType": "string[]",
              "name": "capabilities",
              "type": "string[]"
            },
            {
              "internalType": "uint256",
              "name": "reputation",
              "type": "uint256"
            },
            {
              "internalType": "enum AgentRegistry.Status",
              "name": "status",
              "type": "uint8"
            },
            {
              "internalType": "uint256",
              "name": "createdAt",
              "type": "uint256"
            },
            {
              "internalType": "uint256",
              "name": "updatedAt",
              "type": "uint256"
            }
          ],
          "internalType": "struct AgentRegistry.Agent[]",
          "name": "list",
          "type": "tuple[]"
        },
        {
          "internalType": "uint256",
          "name": "total",
          "type": "uint256"
        }
      ],
      "stateMutability": "view",
      "type": "function"
    },
    {
      "inputs": [],
      "name": "getAllAgents",
      "outputs": [
        {
          "components": [
            {
              "internalType": "address",
              "name": "developer",
              "type": "address"
            },
            {
              "internalType": "string",
              "name": "name",
              "type": "string"
            },
            {
              "internalType": "string",
              "name": "metadataURI",
              "type": "string"
            },
            {
              "internalType": "string[]",
              "name": "capabilities",
              "type": "string[]"
            },
            {
              "internalType": "uint256",
              "name": "reputation",
              "type": "uint256"
            },
            {
              "internalType": "enum AgentRegistry.Status",
              "name": "status",
              "type": "uint8"
            },
            {
              "internalType": "uint256",
              "name": "createdAt",
              "type": "uint256"
            },
            {
              "internalType": "uint256",
              "name": "updatedAt",
              "type": "uint256"
            }
          ],
          "internalType": "struct AgentRegistry.Agent[]",
          "name": "list",
          "type": "tuple[]"
        }
      ],
      "stateMutability": "view",
      "type": "function"
    },
    {
      "inputs": [
        {
          "internalType": "address",
          "name": "agent",
          "type": "address"
        }
      ],
      "name": "getDeveloper",
      "outputs": [
        {
          "internalType": "address",
          "name": "",
          "type": "address"
        }
      ],
      "stateMutability": "view",
      "type": "function"
    },
    {
      "inputs": [
        {
          "internalType": "address",
          "name": "wallet",
          "type": "address"
        }
      ],
      "name": "isAgentActive",
      "outputs": [
        {
          "internalType": "bool",
          "name": "",
          "type": "bool"
        }
      ],
      "stateMutability": "view",
      "type": "function"
    },
    {
      "inputs": [],
      "name": "owner",
      "outputs": [
        {
          "internalType": "address",
          "name": "",
          "type": "address"
        }
      ],
      "stateMutability": "view",
      "type": "function"
    },
    {
      "inputs": [
        {
          "internalType": "address",
          "name": "agentAddress",
          "type": "address"
        },
        {
          "internalType": "string",
          "name": "name",
          "type": "string"
        },
        {
          "internalType": "string",
          "name": "metadataURI",
          "type": "string"
        },
        {
          "internalType": "string[]",
          "name": "capabilities",
          "type": "string[]"
        }
      ],
      "name": "registerAgent",
      "outputs": [],
      "stateMutability": "nonpayable",
      "type": "function"
    },
    {
      "inputs": [],
      "name": "renounceOwnership",
      "outputs": [],
      "stateMutability": "nonpayable",
      "type": "function"
    },
    {
      "inputs": [],
      "name": "reputationOracle",
      "outputs": [
        {
          "internalType": "address",
          "name": "",
          "type": "address"
        }
      ],
      "stateMutability": "view",
      "type": "function"
    },
    {
      "inputs": [
        {
          "internalType": "address",
          "name": "oracle",
          "type": "address"
        }
      ],
      "name": "setReputationOracle",
      "outputs": [],
      "stateMutability": "nonpayable",
      "type": "function"
    },
    {
      "inputs": [
        {
          "internalType": "address",
          "name": "agent",
          "type": "address"
        },
        {
          "internalType": "uint256",
          "name": "reputation",
          "type": "uint256"
        }
      ],
      "name": "syncReputation",
      "outputs": [],
      "stateMutability": "nonpayable",
      "type": "function"
    },
    {
      "inputs": [
        {
          "internalType": "address",
          "name": "newOwner",
          "type": "address"
        }
      ],
      "name": "transferOwnership",
      "outputs": [],
      "stateMutability": "nonpayable",
      "type": "function"
    },
    {
      "inputs": [
        {
          "internalType": "address",
          "name": "agentAddress",
          "type": "address"
        },
        {
          "internalType": "string",
          "name": "name",
          "type": "string"
        },
        {
          "internalType": "string",
          "name": "metadataURI",
          "type": "string"
        },
        {
          "internalType": "string[]",
          "name": "capabilities",
          "type": "string[]"
        },
        {
          "internalType": "enum AgentRegistry.Status",
          "name": "status",
          "type": "uint8"
        }
      ],
      "name": "updateAgent",
      "outputs": [],
      "stateMutability": "nonpayable",
      "type": "function"
    }
  ],
  "bytecode": "0x60806040523480156200001157600080fd5b5060405162001c7838038062001c788339810160408190526200003491620000e6565b806001600160a01b0381166200006457604051631e4fbdf760e01b81526000600482015260240160405180910390fd5b6200006f8162000096565b50600480546001600160a01b0319166001600160a01b039290921691909117905562000118565b600080546001600160a01b038381166001600160a01b0319831681178455604051919092169283917f8be0079c531659141344cd1fd0a4f28419497f9722a3daafe3b4186f6b6457e09190a35050565b600060208284031215620000f957600080fd5b81516001600160a01b03811681146200011157600080fd5b9392505050565b611b5080620001286000396000f3fe608060405234801561001057600080fd5b50600436106100f55760003560e01c80638ad47bb411610097578063d19cfdac11610066578063d19cfdac14610214578063f2fde38b14610227578063fad844c11461023a578063fb3551ff1461024d57600080fd5b80638ad47bb4146101be5780638da5cb5b146101d1578063b7dc1284146101e2578063be5d5d9b146101f357600080fd5b806367e13ee0116100d357806367e13ee01461014a57806369f8d3cb1461018e578063715018a6146101a1578063860e4ac6146101a957600080fd5b806331e028e4146100fa578063554c4f4b1461010f5780635582961f14610137575b600080fd5b61010d6101083660046113d5565b61026d565b005b61012261011d3660046113ff565b610378565b60405190151581526020015b60405180910390f35b61010d6101453660046114b7565b6103b3565b6101766101583660046113ff565b6001600160a01b039081166000908152600160205260409020541690565b6040516001600160a01b03909116815260200161012e565b61010d61019c366004611572565b610561565b61010d610720565b6101b1610734565b60405161012e91906117dc565b61010d6101cc3660046117ef565b610a6a565b6000546001600160a01b0316610176565b60025460405190815260200161012e565b610206610201366004611822565b610b28565b60405161012e929190611844565b61010d6102223660046113ff565b610ecd565b61010d6102353660046113ff565b610f1f565b600454610176906001600160a01b031681565b61026061025b3660046113ff565b610f5d565b60405161012e9190611866565b6004546001600160a01b031633146102d85760405162461bcd60e51b8152602060048201526024808201527f4167656e7452656769737472793a206e6f742072657075746174696f6e206f7260448201526361636c6560e01b60648201526084015b60405180910390fd5b6001600160a01b038216600090815260016020526040812090600582015460ff16600381111561030a5761030a6116bd565b036103275760405162461bcd60e51b81526004016102cf90611879565b600481018290554260078201556040518281526001600160a01b038416907f380e6155523f21466811d0adbaf83ab2e36d2a13cb3564fbb22b503254adb128906020015b60405180910390a2505050565b600060016001600160a01b03831660009081526001602052604090206005015460ff1660038111156103ac576103ac6116bd565b1492915050565b6001600160a01b038816600090815260016020526040812090600582015460ff1660038111156103e5576103e56116bd565b036104025760405162461bcd60e51b81526004016102cf90611879565b80546001600160a01b0316331461045b5760405162461bcd60e51b815260206004820152601c60248201527f4167656e7452656769737472793a206e6f7420646576656c6f7065720000000060448201526064016102cf565b600082600381111561046f5761046f6116bd565b036104bc5760405162461bcd60e51b815260206004820152601d60248201527f4167656e7452656769737472793a20696e76616c69642073746174757300000060448201526064016102cf565b600181016104cb888a83611951565b50600281016104db868883611951565b506104e78185856111ec565b60058101805483919060ff19166001836003811115610508576105086116bd565b02179055504260078201556040516001600160a01b038a16907fadb8da1eee9237e1a6cee070d1cb72c529e052983e9e07b2afedc6e00bb826d59061054e908590611a12565b60405180910390a2505050505050505050565b6001600160a01b038716600090815260016020526040812090600582015460ff166003811115610593576105936116bd565b146105ea5760405162461bcd60e51b815260206004820152602160248201527f4167656e7452656769737472793a20616c7265616479207265676973746572656044820152601960fa1b60648201526084016102cf565b80546001600160a01b0319163317815560018101610609878983611951565b5060028101610619858783611951565b506106258184846111ec565b60058101805460ff19166001179055426006820181905560078201556001600160a01b03881660009081526003602052604090205460ff166106c5576002805460018082019092557f405787fa12a823e0f2b7631cc41b3ba8828b3321ca811111fa75cd3aa3bb5ace0180546001600160a01b0319166001600160a01b038b169081179091556000908152600360205260409020805460ff191690911790555b336001600160a01b0316886001600160a01b03167f2a562efb52e7cec209321f57200606311256da6d2a1b19d44db7837a3209de288989898960405161070e9493929190611a4f565b60405180910390a35050505050505050565b61072861125c565b6107326000611289565b565b60025460609067ffffffffffffffff811115610752576107526118b0565b60405190808252806020026020018201604052801561078b57816020015b6107786112d9565b8152602001906001900390816107705790505b50905060005b600254811015610a665760016000600283815481106107b2576107b2611a81565b60009182526020808320909101546001600160a01b039081168452838201949094526040928301909120825161010081019093528054909316825260018301805492939291840191610803906118c6565b80601f016020809104026020016040519081016040528092919081815260200182805461082f906118c6565b801561087c5780601f106108515761010080835404028352916020019161087c565b820191906000526020600020905b81548152906001019060200180831161085f57829003601f168201915b50505050508152602001600282018054610895906118c6565b80601f01602080910402602001604051908101604052809291908181526020018280546108c1906118c6565b801561090e5780601f106108e35761010080835404028352916020019161090e565b820191906000526020600020905b8154815290600101906020018083116108f157829003601f168201915b5050505050815260200160038201805480602002602001604051908101604052809291908181526020016000905b828210156109e857838290600052602060002001805461095b906118c6565b80601f0160208091040260200160405190810160405280929190818152602001828054610987906118c6565b80156109d45780601f106109a9576101008083540402835291602001916109d4565b820191906000526020600020905b8154815290600101906020018083116109b757829003601f168201915b50505050508152602001906001019061093c565b5050509082525060048201546020820152600582015460409091019060ff166003811115610a1857610a186116bd565b6003811115610a2957610a296116bd565b815260200160068201548152602001600782015481525050828281518110610a5357610a53611a81565b6020908102919091010152600101610791565b5090565b610a7261125c565b6001600160a01b038216600090815260016020526040812090600582015460ff166003811115610aa457610aa46116bd565b03610ac15760405162461bcd60e51b81526004016102cf90611879565b60058101805483919060ff19166001836003811115610ae257610ae26116bd565b02179055504260078201556040516001600160a01b038416907fadb8da1eee9237e1a6cee070d1cb72c529e052983e9e07b2afedc6e00bb826d59061036b908590611a12565b600254606090808410610b6e576040805160008082526020820190925290610b66565b610b536112d9565b815260200190600190039081610b4b5790505b509150610ec6565b6000610b7a8486611aad565b905081811115610b875750805b610b918582611ac0565b67ffffffffffffffff811115610ba957610ba96118b0565b604051908082528060200260200182016040528015610be257816020015b610bcf6112d9565b815260200190600190039081610bc75790505b509250845b81811015610ec3576001600060028381548110610c0657610c06611a81565b60009182526020808320909101546001600160a01b039081168452838201949094526040928301909120825161010081019093528054909316825260018301805492939291840191610c57906118c6565b80601f0160208091040260200160405190810160405280929190818152602001828054610c83906118c6565b8015610cd05780601f10610ca557610100808354040283529160200191610cd0565b820191906000526020600020905b815481529060010190602001808311610cb357829003601f168201915b50505050508152602001600282018054610ce9906118c6565b80601f0160208091040260200160405190810160405280929190818152602001828054610d15906118c6565b8015610d625780601f10610d3757610100808354040283529160200191610d62565b820191906000526020600020905b815481529060010190602001808311610d4557829003601f168201915b5050505050815260200160038201805480602002602001604051908101604052809291908181526020016000905b82821015610e3c578382906000526020600020018054610daf906118c6565b80601f0160208091040260200160405190810160405280929190818152602001828054610ddb906118c6565b8015610e285780601f10610dfd57610100808354040283529160200191610e28565b820191906000526020600020905b815481529060010190602001808311610e0b57829003601f168201915b505050505081526020019060010190610d90565b5050509082525060048201546020820152600582015460409091019060ff166003811115610e6c57610e6c6116bd565b6003811115610e7d57610e7d6116bd565b81526006820154602082015260079091015460409091015284610ea08884611ac0565b81518110610eb057610eb0611a81565b6020908102919091010152600101610be7565b50505b9250929050565b610ed561125c565b600480546001600160a01b0319166001600160a01b0383169081179091556040517fdee21eace0625c8ac40a78d0dea6f2217f387b3d4be5eb817e6c417cc82c0e2490600090a250565b610f2761125c565b6001600160a01b038116610f5157604051631e4fbdf760e01b8152600060048201526024016102cf565b610f5a81611289565b50565b610f656112d9565b6001600160a01b038083166000908152600160208181526040928390208351610100810190945280549094168352908301805492939291840191610fa8906118c6565b80601f0160208091040260200160405190810160405280929190818152602001828054610fd4906118c6565b80156110215780601f10610ff657610100808354040283529160200191611021565b820191906000526020600020905b81548152906001019060200180831161100457829003601f168201915b5050505050815260200160028201805461103a906118c6565b80601f0160208091040260200160405190810160405280929190818152602001828054611066906118c6565b80156110b35780601f10611088576101008083540402835291602001916110b3565b820191906000526020600020905b81548152906001019060200180831161109657829003601f168201915b5050505050815260200160038201805480602002602001604051908101604052809291908181526020016000905b8282101561118d578382906000526020600020018054611100906118c6565b80601f016020809104026020016040519081016040528092919081815260200182805461112c906118c6565b80156111795780601f1061114e57610100808354040283529160200191611179565b820191906000526020600020905b81548152906001019060200180831161115c57829003601f168201915b5050505050815260200190600101906110e1565b5050509082525060048201546020820152600582015460409091019060ff1660038111156111bd576111bd6116bd565b60038111156111ce576111ce6116bd565b81526006820154602082015260079091015460409091015292915050565b6111fa600384016000611338565b60005b81811015611256578360030183838381811061121b5761121b611a81565b905060200281019061122d9190611ad3565b8254600181018455600093845260209093209092019161124d9183611951565b506001016111fd565b50505050565b6000546001600160a01b031633146107325760405163118cdaa760e01b81523360048201526024016102cf565b600080546001600160a01b038381166001600160a01b0319831681178455604051919092169283917f8be0079c531659141344cd1fd0a4f28419497f9722a3daafe3b4186f6b6457e09190a35050565b60405180610100016040528060006001600160a01b031681526020016060815260200160608152602001606081526020016000815260200160006003811115611324576113246116bd565b815260200160008152602001600081525090565b5080546000825590600052602060002090810190610f5a91905b80821115610a66576000611366828261136f565b50600101611352565b50805461137b906118c6565b6000825580601f1061138b575050565b601f016020900490600052602060002090810190610f5a91905b80821115610a6657600081556001016113a5565b80356001600160a01b03811681146113d057600080fd5b919050565b600080604083850312156113e857600080fd5b6113f1836113b9565b946020939093013593505050565b60006020828403121561141157600080fd5b61141a826113b9565b9392505050565b60008083601f84011261143357600080fd5b50813567ffffffffffffffff81111561144b57600080fd5b602083019150836020828501011115610ec657600080fd5b60008083601f84011261147557600080fd5b50813567ffffffffffffffff81111561148d57600080fd5b6020830191508360208260051b8501011115610ec657600080fd5b8035600481106113d057600080fd5b60008060008060008060008060a0898b0312156114d357600080fd5b6114dc896113b9565b9750602089013567ffffffffffffffff808211156114f957600080fd5b6115058c838d01611421565b909950975060408b013591508082111561151e57600080fd5b61152a8c838d01611421565b909750955060608b013591508082111561154357600080fd5b506115508b828c01611463565b9094509250611563905060808a016114a8565b90509295985092959890939650565b60008060008060008060006080888a03121561158d57600080fd5b611596886113b9565b9650602088013567ffffffffffffffff808211156115b357600080fd5b6115bf8b838c01611421565b909850965060408a01359150808211156115d857600080fd5b6115e48b838c01611421565b909650945060608a01359150808211156115fd57600080fd5b5061160a8a828b01611463565b989b979a50959850939692959293505050565b6000815180845260005b8181101561164357602081850181015186830182015201611627565b506000602082860101526020601f19601f83011685010191505092915050565b60008282518085526020808601955060208260051b8401016020860160005b848110156116b057601f1986840301895261169e83835161161d565b98840198925090830190600101611682565b5090979650505050505050565b634e487b7160e01b600052602160045260246000fd5b600481106116f157634e487b7160e01b600052602160045260246000fd5b9052565b600061010060018060a01b038351168452602083015181602086015261171d8286018261161d565b91505060408301518482036040860152611737828261161d565b915050606083015184820360608601526117518282611663565b9150506080830151608085015260a083015161177060a08601826116d3565b5060c083015160c085015260e083015160e08501528091505092915050565b60008282518085526020808601955060208260051b8401016020860160005b848110156116b057601f198684030189526117ca8383516116f5565b988401989250908301906001016117ae565b60208152600061141a602083018461178f565b6000806040838503121561180257600080fd5b61180b836113b9565b9150611819602084016114a8565b90509250929050565b6000806040838503121561183557600080fd5b50508035926020909101359150565b604081526000611857604083018561178f565b90508260208301529392505050565b60208152600061141a60208301846116f5565b6020808252601d908201527f4167656e7452656769737472793a206e6f742072656769737465726564000000604082015260600190565b634e487b7160e01b600052604160045260246000fd5b600181811c908216806118da57607f821691505b6020821081036118fa57634e487b7160e01b600052602260045260246000fd5b50919050565b601f82111561194c576000816000526020600020601f850160051c810160208610156119295750805b601f850160051c820191505b8181101561194857828155600101611935565b5050505b505050565b67ffffffffffffffff831115611969576119696118b0565b61197d8361197783546118c6565b83611900565b6000601f8411600181146119b157600085156119995750838201355b600019600387901b1c1916600186901b178355611a0b565b600083815260209020601f19861690835b828110156119e257868501358255602094850194600190920191016119c2565b50868210156119ff5760001960f88860031b161c19848701351681555b505060018560011b0183555b5050505050565b60208101611a2082846116d3565b92915050565b81835281816020850137506000828201602090810191909152601f909101601f19169091010190565b604081526000611a63604083018688611a26565b8281036020840152611a76818587611a26565b979650505050505050565b634e487b7160e01b600052603260045260246000fd5b634e487b7160e01b600052601160045260246000fd5b80820180821115611a2057611a20611a97565b81810381811115611a2057611a20611a97565b6000808335601e19843603018112611aea57600080fd5b83018035915067ffffffffffffffff821115611b0557600080fd5b602001915036819003821315610ec657600080fdfea2646970667358221220582125fb5e2dbc4fbc912d9b2d2b675b3eb4b487f031f45ad195913b83d1590164736f6c63430008180033",
  "linkReferences": {},
  "deployedLinkReferences": {}
}